:0400000017EF00F006
:100008005F820E0133AB0BEF00F00DEF00F015EF40
:1000180000F05BEC0FF0E70ED46E950ED36E0E0178
:10002800339B5F92110025EF0CF024502510D8A4C3
:1000380020EF00F022EF00F03BEF00F026C014F0B4
:1000480027C015F028C016F029C017F046EC07F0B5
:10005800D8905B34D96E5C34DA6E6C0ED926010EFA
:10006800DA22FF0EDE6EFF0EDD6E5B4A5C2A240488
:100078002510D8A442EF00F044EF00F05DEF00F047
:1000880026C014F027C015F028C016F029C017F0B4
:1000980099EC06F0D8905B34D96E5C34DA6E6C0E4D
:1000A800D926010EDA22FE0EDE6EFF0EDD6E5B4AE9
:1000B8005C2A020E24182510D8A465EF00F067EF1B
:1000C80000F094EF00F0000E2D6E000E2C6E26C08E
:1000D80014F027C015F028C016F029C017F046EC18
:1000E80007F0D8905B34D96E5C34DA6E6C0ED92682
:1000F800010EDA22FF0EDE6EFF0EDD6E5B4A5C2A11
:100108002C4A2D2A2DBE92EF00F02D5009E1020E47
:100118002C5CD8A092EF00F094EF00F06BEF00F0A9
:10012800030E24182510D8A49CEF00F09EEF00F0D1
:1001380056EF01F026C014F027C015F028C016F0BD
:1001480029C017F0000E196E210E186EA4EC0CF0E1
:1001580026C014F027C015F028C016F029C017F0E3
:100168004CEC0EF026C014F027C015F028C016F08D
:1001780029C017F046EC07F0D8905B34D96E5C3490
:10018800DA6E6A0ED926010EDA22010EDBBED7EF2F
:1001980000F0010EDB5009E10B0EDE5CD8A0D7EFB2
:1001A80000F0D9EF00F0F7EF00F0D8905B34D96E8B
:1001B8005C34DA6E6A0ED926010EDA22EC0EDE26DF
:1001C800FF0EDD22D8905B34D96E5C34DA6E6C0E8B
:1001D800D926010EDA22FF0EDE6EFF0EDD6E5B4AB7
:1001E8005C2A56EF01F0D8905B34D96E5C34DA6E35
:1001F8006A0ED926010EDA22DE2806E1DE28D8A406
:1002080008EF01F00AEF01F017EF01F0D8905B3426
:10021800D96E5C34DA6E6A0ED926010EDA22FE0E29
:10022800DE6EFF0EDD6ED8905B34D96E5C34DA6E0C
:100238006A0ED926010EDA22FE0EDE1806E1DE2845
:10024800D8A429EF01F02BEF01F038EF01F0D89096
:100258005B34D96E5C34DA6E6A0ED926010EDA2266
:10026800FF0EDE6EFF0EDD6ED8905B34D96E5C3407
:10027800DA6E6C0ED926010EDA22140EDE6E000E2E
:10028800DD6E5B4A5C2AD8905B34D96E5C34DA6EDA
:100298006C0ED926010EDA22FE0EDE6EFF0EDD6E22
:1002A8005B4A5C2A040E24182510D8A45EEF01F0DE
:1002B80060EF01F018EF02F026C014F027C015F027
:1002C80028C016F029C017F0000E196E210E186EFE
:1002D800A4EC0CF026C014F027C015F028C016F0C6
:1002E80029C017F04CEC0EF026C014F027C015F00A
:1002F80028C016F029C017F099EC06F0D8905B34A6
:10030800D96E5C34DA6E6A0ED926010EDA22010E35
:10031800DBBE99EF01F0010EDB5009E10B0EDE5C4C
:10032800D8A099EF01F09BEF01F0B9EF01F0D89058
:100338005B34D96E5C34DA6E6A0ED926010EDA2285
:10034800EC0EDE26FF0EDD22D8905B34D96E5C34CD
:10035800DA6E6C0ED926010EDA22FE0EDE6EFF0E64
:10036800DD6E5B4A5C2A18EF02F0D8905B34D96ED8
:100378005C34DA6E6A0ED926010EDA22DE2806E12E
:10038800DE28D8A4CAEF01F0CCEF01F0D9EF01F0D4
:10039800D8905B34D96E5C34DA6E6A0ED926010EB9
:1003A800DA22FE0EDE6EFF0EDD6ED8905B34D96E5B
:1003B8005C34DA6E6A0ED926010EDA22FE0EDE18D9
:1003C80006E1DE28D8A4EBEF01F0EDEF01F0FAEF3B
:1003D80001F0D8905B34D96E5C34DA6E6A0ED92697
:1003E800010EDA22FF0EDE6EFF0EDD6ED8905B3452
:1003F800D96E5C34DA6E6C0ED926010EDA22140E30
:10040800DE6E000EDD6E5B4A5C2AD8905B34D96ED6
:100418005C34DA6E6C0ED926010EDA22FF0EDE6E1F
:10042800FF0EDD6E5B4A5C2A050E24182510D8A441
:1004380020EF02F022EF02F03BEF02F026C014F0AA
:1004480027C015F028C016F029C017F0C0EC09F035
:10045800D8905B34D96E5C34DA6E6C0ED926010EF6
:10046800DA22FD0EDE6EFF0EDD6E5B4A5C2A060E9A
:1004780024182510D8A443EF02F045EF02F05EEFF0
:1004880002F026C014F027C015F028C016F029C0C5
:1004980017F054EC0AF0D8905B34D96E5C34DA6EFD
:1004A8006C0ED926010EDA22FC0EDE6EFF0EDD6E12
:1004B8005B4A5C2A070E24182510D8A466EF02F0C0
:1004C80068EF02F090EF02F0000E2F6E000E2E6E15
:1004D80026C014F027C015F028C016F029C017F060
:1004E80046EC07F02E4A2F2A2FBE84EF02F02F5039
:1004F80009E1020E2E5CD8A084EF02F086EF02F02C
:100508006CEF02F026C01EF027C01FF028C020F0B4
:1005180029C021F060EC04F01200000E026E040EF7
:10052800016E95EC0EF0120E386EDC0E376E600E12
:10053800E82EFED7372EFCD7382EFAD7ACEC0DF0C4
:1005480005C0F0F006C0F1F00001F26BF36B000E8D
:10055800026E020E016E95EC0EF0120E386EDC0E75
:10056800376E600EE82EFED7372EFCD7382EFAD716
:10057800D4EC0DF005C0F4F006C0F5F00001F66B00
:10058800F76B000E026E010E016E95EC0EF0120E66
:10059800386EDC0E376E600EE82EFED7372EFCD78D
:1005A800382EFAD724EC0EF005C0F8F006C0F9F0A2
:1005B8000001FA6BFB6B000E026E000E016E95ECEB
:1005C8000EF04F500001F05D5050F1595150F25962
:1005D8005250F359D8B0F3EF02F0F5EF02F0FFEF05
:1005E80002F0000ED06F000ED16F000ED26F000E19
:1005F800D36F34EF03F04F50F05D016E5050F15956
:10060800026E5150F259036E5250F359046E640E43
:10061800056E000E066E000E076E000E086E18ECD2
:100628000DF001C00DF002C00EF003C00FF004C0C1
:1006380010F04F500001605D116E50506159126EFC
:1006480051506259136E52506359146E3DEC0BF0C1
:100658000DC0D0F00EC0D1F00FC0D2F010C0D3F052
:10066800D0C0E4F0D1C0E5F0D2C0E6F0D3C0E7F0E6
:1006780053500001F45D5450F5595550F6595650F1
:10068800F759D8B04AEF03F04CEF03F056EF03F0F8
:10069800000ED46F000ED56F000ED66F000ED76F08
:1006A8008BEF03F05350F45D016E5450F559026E10
:1006B8005550F659036E5650F759046E640E056E80
:1006C800000E066E000E076E000E086E18EC0DF098
:1006D80001C00DF002C00EF003C00FF004C010F00E
:1006E80053500001645D116E54506559126E555097
:1006F8006659136E56506759146E3DEC0BF00DC0D9
:10070800D4F00EC0D5F00FC0D6F010C0D7F0D4C0CA
:10071800E8F0D5C0E9F0D6C0EAF0D7C0EBF0575002
:100728000001F85D5850F9595950FA595A50FB5977
:10073800D8B0A1EF03F0A3EF03F0ADEF03F0000E84
:10074800D86F000ED96F000EDA6F000EDB6FE2EF84
:1007580003F05750F85D016E5850F959026E595020
:10076800FA59036E5A50FB59046E640E056E000E5A
:10077800066E000E076E000E086E18EC0DF001C034
:100788000DF002C00EF003C00FF004C010F0575077
:100798000001685D116E58506959126E59506A59B6
:1007A800136E5A506B59146E3DEC0BF00DC0D8F017
:1007B8000EC0D9F00FC0DAF010C0DBF0D8C0ECF0F2
:1007C800D9C0EDF0DAC0EEF0DBC0EFF020EEE4F0D7
:1007D80000EE07F00B0EDBCFEBFFE806FCE221EEA4
:1007E80000F000EE13F00B0EDBCFEBFFE806FCE2A7
:1007F8002DEC05F007C0DCF008C0DDF0000E0001AC
:10080800DF6F000EDE6F000EE36F010EE26FE2C0D5
:1008180001F0E3C002F0000E046E0C0E036E01EC52
:100828000FF0000E0124D96E010E0220DA6E10EED0
:10083800C4F00B0EDBCFE3FFE806FCE220EEE4F0A9
:1008480000EE07F00B0EDBCFEBFFE806FCE220EE34
:10085800C4F000EE13F00B0EDBCFEBFFE806FCE272
:100868002DEC05F007C0E0F008C0E1F00001DC5114
:10087800E05DDD51E159D8B044EF04F046EF04F0F3
:100888004EEF04F0E2C0DEF0E3C0DFF0E0C0DCF0E1
:10089800E1C0DDF0E24BE32BE35109E1090EE25D33
:1008A800D8A059EF04F05BEF04F00BEF04F0DEC0C2
:1008B80035F0DFC036F012001FEF05F0D8905B343A
:1008C800D96E5C34DA6E6A0ED926010EDA22DE2879
:1008D80006E1DE28D8A473EF04F075EF04F081EF89
:1008E80004F01E0E146E000E156E200E166E000E0D
:1008F800176E99EC06F012EF05F0D8905B34D96EBC
:100908005C34DA6E6A0ED926010EDA22FE0EDE1883
:1009180006E1DE28D8A493EF04F095EF04F0A1EFE8
:1009280004F01E0E146E000E156E200E166E000ECC
:10093800176E46EC07F012EF05F0D8905B34D96ECD
:100948005C34DA6E6A0ED926010EDA22FD0EDE1844
:1009580006E1DE28D8A4B3EF04F0B5EF04F0C1EF48
:1009680004F01E0E146E000E156E200E166E000E8C
:10097800176E54EC0AF012EF05F0D8905B34D96E7C
:100988005C34DA6E6A0ED926010EDA22FC0EDE1805
:1009980006E1DE28D8A4D3EF04F0D5EF04F0E1EFA8
:1009A80004F01E0E146E000E156E200E166E000E4C
:1009B800176EC0EC09F012EF05F0D8905B34D96ED1
:1009C8005C34DA6E6A0ED926010EDA22010EDBBE1D
:1009D800F7EF04F0010EDB5008E1DE04D8A0F7EFD2
:1009E80004F0F9EF04F012EF05F01E0E146E000E7D
:1009F800156E200E166E000E176ED8905B34D96EE9
:100A08005C34DA6E6A0ED926010EDA22DECF18F0CF
:100A1800DDCF19F06AEC0CF012EF05F01E0E146E23
:100A2800000E156E200E166E000E176E4CEC0EF0B2
:100A38005B06D8A05C065CBE2CEF05F05C5006E1B6
:100A48005B04D8B02AEF05F02CEF05F062EF04F054
:100A580012001350075C14500858155009581650C6
:100A68000A58D8B03AEF05F03CEF05F04AEF05F028
:100A78000750135C236E08501458246E09501558FB
:100A8800256E0A501658266E56EF05F01350075C6F
:100A9800236E14500858246E15500958256E1650A8
:100AA8000A58266E23C02FF024C030F017500B5C74
:100AB80018500C5819500D581A500E58D8B067EFE6
:100AC80005F069EF05F077EF05F00B50175C276E1E
:100AD8000C501858286E0D501958296E0E501A5877
:100AE8002A6E83EF05F017500B5C276E18500C58D0
:100AF800286E19500D58296E1A500E582A6E27C0A4
:100B080031F028C032F01B500F5C1C5010581D509B
:100B180011581E501258D8B094EF05F096EF05F012
:100B2800A4EF05F00F501B5C2B6E10501C582C6E58
:100B380011501D582D6E12501E582E6EB0EF05F034
:100B48001B500F5C2B6E1C5010582C6E1D501158EA
:100B58002D6E1E5012582E6E2BC033F02CC034F060
:100B68002FC001F030C002F02FC003F030C004F0F5
:100B780001EC0FF001C01FF002C020F031C001F0FD
:100B880032C002F031C003F032C004F001EC0FF0C3
:100B980001501F24216E02502020226E33C001F024
:100BA80034C002F033C003F034C004F001EC0FF09D
:100BB80001502124076E02502220086E120020EEF8
:100BC80002F00E50D9260F50DA22DF50D8B4EFEFDA
:100BD80005F0F1EF05F025EF06F00EC0D9FF0FC0C4
:100BE800DAFFDF50106E1050016E026A20EE03F03B
:100BF8000E50D9260F50DA22DECF03F0DDCF04F0F5
:100C080001EC0FF001C007F002C008F0000E0A6EF8
:100C1800640E096EDEEC0CF020EE03F00E50D926BF
:100C28000F50DA22DF50116E0750115C126E20EE61
:100C380003F00E50D9260F50DA22DF50136E48EF1A
:100C480006F0000E126E0EC0D9FF0FC0DAFFDF509B
:100C5800106E1050016E026A20EE03F00E50D92675
:100C68000F50DA22DECF03F0DDCF04F001EC0FF0F5
:100C780001C007F002C008F0000E0A6E640E096E8B
:100C8800DEEC0CF00750136E20EE01F00E50D92662
:100C98000F50DA22DF50D8B454EF06F056EF06F0C2
:100CA80078EF06F020EE05F00E50D9260F50DA2224
:100CB800DECF10F0DDCF11F010C0D9FF11C0DAFF80
:100CC80012C0DFFF20EE07F00E50D9260F50DA22AF
:100CD800DECF10F0DDCF11F010C0D9FF11C0DAFF60
:100CE80013C0DFFF98EF06F020EE05F00E50D9266E
:100CF8000F50DA22DECF10F0DDCF11F010C0D9FF8F
:100D080011C0DAFF13C0DFFF20EE07F00E50D9261E
:100D18000F50DA22DECF10F0DDCF11F010C0D9FF6E
:100D280011C0DAFF12C0DFFF1200000E1B6E000EAA
:100D38001A6E000E1B6E000E1A6E000E1D6E2F0E20
:100D48001C6E20EE01F01450D9261550DA22010E3F
:100D5800DF6E20EE01F01650D9261750DA22000E69
:100D6800DF6E14C0D9FF15C0DAFF1CC0DFFF16C044
:100D7800D9FF17C0DAFF1CC0DFFF14C00EF015C082
:100D88000FF0E3EC05F016C00EF017C00FF0E3EC1F
:100D980005F0050E196EB60E186E2C0EE82EFED74D
:100DA800182EFCD7192EFAD700D0050E1C26000ED7
:100DB8001D221DBEE9EF06F01D5009E13E0E1C5C28
:100DC800D8A0E9EF06F0EBEF06F0A5EF06F0000E6D
:100DD8001D6E340E1C6E20EE01F01450D9261550ED
:100DE800DA22010EDF6E20EE01F01650D9261750D8
:100DF800DA22000EDF6E14C0D9FF15C0DAFF1CC05E
:100E0800DFFF16C0D9FF17C0DAFF1CC0DFFF14C010
:100E18000EF015C00FF0E3EC05F016C00EF017C089
:100E28000FF0E3EC05F0050E196EA10E186E650EB5
:100E3800E82EFED7182EFCD7192EFAD700F0FB0E95
:100E48001C26FF0E1D221DBE35EF07F01D5007E1C1
:100E5800260E1C5CD8B033EF07F035EF07F0EFEF44
:100E680006F01A4A1B2A1BBE43EF07F01B5009E184
:100E7800020E1A5CD8A043EF07F045EF07F0A1EF88
:100E880006F01200000E1B6E000E1A6E000E1D6E8C
:100E98001B0E1C6E20EE01F01450D9261550DA22D4
:100EA800000EDF6E20EE01F01650D9261750DA2218
:100EB800010EDF6E14C0D9FF15C0DAFF1CC0DFFFBA
:100EC80016C0D9FF17C0DAFF1CC0DFFF14C00EF030
:100ED80015C00FF0E3EC05F016C00EF017C00FF0C8
:100EE800E3EC05F0090E196EB00E186E580EE82ED8
:100EF800FED7182EFCD7192EFAD700D0050E1C26BF
:100F0800000E1D221DBE92EF07F01D5009E12A0EAA
:100F18001C5CD8A092EF07F094EF07F04EEF07F0B3
:100F2800000E1D6E200E1C6E20EE01F01450D92606
:100F38001550DA22000EDF6E20EE01F01650D92689
:100F48001750DA22010EDF6E14C0D9FF15C0DAFF80
:100F58001CC0DFFF16C0D9FF17C0DAFF1CC0DFFFB7
:100F680014C00EF015C00FF0E3EC05F016C00EF03B
:100F780017C00FF0E3EC05F0090E196E860E186E17
:100F8800CA0EE82EFED7182EFCD7192EFAD7FB0E5C
:100F98001C26FF0E1D221DBEDDEF07F01D5007E1C8
:100FA800120E1C5CD8B0DBEF07F0DDEF07F098EF0E
:100FB80007F01A4A1B2A1BBEEBEF07F01B5009E18A
:100FC800020E1A5CD8A0EBEF07F0EDEF07F04AEF3E
:100FD80007F01200D8EC0EF0010E036E000E14ECB0
:100FE8000FF03F0E166E550EE82EFED7162EFCD7C4
:100FF80000F0030E036E000E14EC0FF0D50E036E16
:10100800010E14EC0FF0869E8792819820EEB4F0C2
:1010180011EE00F00B0EDBCFE3FFE806FCE220EE5A
:10102800A8F011EE0CF00B0EDBCFE3FFE806FCE2B4
:1010380020EE9CF011EE18F00B0EDBCFE3FFE80674
:10104800FCE220EE90F011EE24F00B0EDBCFE3FF74
:10105800E806FCE220EE84F011EE30F00B0EDBCF58
:10106800E3FFE806FCE220EE78F011EE3CF00B0E10
:10107800DBCFE3FFE806FCE220EE6CF011EE48F06F
:101088000B0EDBCFE3FFE806FCE221EEDCF011EE0D
:1010980054F00B0EDBCFE3FFE806FCE221EED0F0C4
:1010A80011EE60F00B0EDBCFE3FFE806FCE286866C
:1010B8000E01B4978684B4958EA665EF08F067EFA5
:1010C80008F06EEF08F08EB46CEF08F06EEF08F0E1
:1010D80060EF08F08EB473EF08F075EF08F077EF63
:1010E80008F089EF08F0E8EC0AF08EB67EEF08F019
:1010F80080EF08F079EF08F08AEC08F08EB687EFF9
:1011080008F089EF08F082EF08F01200000E026E76
:10111800040E016E95EC0EF0120E0F6EDC0E0E6EC4
:10112800600EE82EFED70E2EFCD70F2EFAD7ACECA9
:101138000DF005C04FF006C050F0516A526A000E1B
:10114800026E020E016E95EC0EF0120E0F6EDC0EA2
:101158000E6E600EE82EFED70E2EFCD70F2EFAD795
:10116800D4EC0DF005C053F006C054F0556A566A29
:10117800000E026E010E016E95EC0EF0120E0F6E4F
:10118800DC0E0E6E600EE82EFED70E2EFCD70F2E4C
:10119800FAD724EC0EF005C057F006C058F0596A8B
:1011A8005A6A000E026E000E016E95EC0EF0120ED9
:1011B8000F6EDC0E0E6E600EE82EFED70E2EFCD7DC
:1011C8000F2EFAD7FCEC0DF005C010F006C011F098
:1011D800000E026E070E016E95EC0EF0120E0F6EE9
:1011E800DC0E0E6E600EE82EFED70E2EFCD70F2EEC
:1011F800FAD7FCEC0DF005C012F006C013F0000E93
:10120800026E000E016E95EC0EF010C009F011C0D0
:101218000AF012C007F013C008F0DEEC0CF007C0AB
:1012280014F008C015F014C007F015C008F0000E3F
:101238000A6E050E096EDEEC0CF007C0C2F008C09D
:10124800C3F0120024EC0FF046EC0FF0000E026E13
:10125800630E016EDDEC0BF0EEEC07F00E01B495B9
:101268008684000E3D6E010E3E6E010E3F6EAA0E84
:10127800426E0F0E436EA60E446E0F0E456E000EA4
:10128800416E630E406E000E466E010E476E010EF3
:10129800486E250E4B6E0F0E4C6E210E4D6E0F0EC6
:1012A8004E6E000E4A6E630E496E520E3A6E2B0E4B
:1012B800396E000EE82EFED7392EFCD73A2EFAD713
:1012C80000D03D0E146E000E156E460E166E000E02
:1012D800176E7FEC0DF08FEC0BF00C040D10D8A4FA
:1012E80078EF09F07AEF09F06FEF09F071EC0EF082
:1012F8003D0E146E000E156E460E166E000E176E1D
:101308004CEC0EF091EC02F035C03BF036C03CF0EE
:101318003D0E146E000E156E460E166E000E176EFC
:10132800000E196E0B0E186EA4EC0CF03D0E146E28
:10133800000E156E460E166E000E176E4CEC0EF073
:101348003BC024F03CC025F03D0E266E000E276EF3
:10135800460E286E000E296E19EC00F03D0E146E34
:10136800000E156E460E166E000E176E4CEC0EF043
:1013780065EF09F017EF00F0000E1B6E190E1A6EDC
:1013880020EE01F01450D9261550DA22000EDF6E37
:1013980020EE01F01650D9261750DA22010EDF6E22
:1013A80014C0D9FF15C0DAFF1AC0DFFF16C0D9FF75
:1013B80017C0DAFF1AC0DFFF14C00EF015C00FF017
:1013C800E3EC05F016C00EF017C00FF0E3EC05F0E3
:1013D8000E0E196E120E186E690EE82EFED7182E14
:1013E800FCD7192EFAD700F0050E1A26000E1B227C
:1013F8001BBE08EF0AF01B5009E1280E1A5CD8A0A2
:1014080008EF0AF00AEF0AF0C4EF09F0000E1B6EAD
:101418001E0E1A6E20EE01F01450D9261550DA224D
:10142800000EDF6E20EE01F01650D9261750DA2292
:10143800010EDF6E14C0D9FF15C0DAFF1AC0DFFF36
:1014480016C0D9FF17C0DAFF1AC0DFFF14C00EF0AC
:1014580015C00FF0E3EC05F016C00EF017C00FF042
:10146800E3EC05F00D0E196EBF0E186E4C0EE82E4B
:10147800FED7182EFCD7192EFAD7FB0E1A26FF0E08
:101488001B221BBE53EF0AF01B5007E1100E1A5C1B
:10149800D8B051EF0AF053EF0AF00EEF0AF012003D
:1014A800000E1B6E170E1A6E20EE01F01450D9268E
:1014B8001550DA22010EDF6E20EE01F01650D92603
:1014C8001750DA22000EDF6E14C0D9FF15C0DAFFFC
:1014D8001AC0DFFF16C0D9FF17C0DAFF1AC0DFFF36
:1014E80014C00EF015C00FF0E3EC05F016C00EF0B6
:1014F80017C00FF0E3EC05F00D0E196EAA0E186E6A
:10150800840EE82EFED7182EFCD7192EFAD700D055
:10151800050E1A26000E1B221BBE9CEF0AF01B505C
:1015280009E1260E1A5CD8A09CEF0AF09EEF0AF09B
:1015380058EF0AF0000E1B6E1C0E1A6E20EE01F01A
:101548001450D9261550DA22010EDF6E20EE01F074
:101558001650D9261750DA22000EDF6E14C0D9FFB4
:1015680015C0DAFF1AC0DFFF16C0D9FF17C0DAFFAF
:101578001AC0DFFF14C00EF015C00FF0E3EC05F041
:1015880016C00EF017C00FF0E3EC05F00D0E196E43
:101598002D0E186ED80EE82EFED7182EFCD7192E51
:1015A800FAD7FB0E1A26FF0E1B221BBEE7EF0AF026
:1015B8001B5007E10E0E1A5CD8B0E5EF0AF0E7EF12
:1015C8000AF0A2EF0AF01200000E026E040E016E7D
:1015D80095EC0EF0120E0D6EDC0E0C6E600EE82E01
:1015E800FED70C2EFCD70D2EFAD7ACEC0DF005C0AB
:1015F80060F006C061F00001626B636B000E026E62
:10160800020E016E95EC0EF0120E0D6EDC0E0C6ED5
:10161800600EE82EFED70C2EFCD70D2EFAD7D4EC90
:101628000DF005C064F006C065F00001666B676BDD
:10163800000E026E010E016E95EC0EF0120E0D6E8C
:10164800DC0E0C6E600EE82EFED70C2EFCD70D2E8D
:10165800FAD724EC0EF005C068F006C069F0000166
:101668006A6B6B6B000E026E000E016E95EC0EF04D
:101678001200000E156E000E166E000E176E000E8C
:10168800186E1150121013101410D8B44EEF0BF03E
:1016980050EF0BF086EF0BF0010E196E5AEF0BF0BE
:1016A800D8901136123613361436192A14AE5FEF55
:1016B8000BF061EF0BF054EF0BF0D890153616369F
:1016C8001736183611500D5C12500E5813500F581B
:1016D80014501058D8A073EF0BF075EF0BF07EEF95
:1016E8000BF011500D5E12500E5A13500F5A145031
:1016F800105A1580D8901432133212321132192E22
:1017080061EF0BF015C00DF016C00EF017C00FF00A
:1017180018C010F01200000E026E000E016E95EC5B
:101728000EF0120E0F6EDC0E0E6E600EE82EFED757
:101738000E2EFCD70F2EFAD7FCEC0DF005C010F0DA
:1017480006C011F0000E026E070E016E95EC0EF049
:10175800120E0F6EDC0E0E6E600EE82EFED70E2EE9
:10176800FCD70F2EFAD7FCEC0DF005C012F006C01E
:1017780013F0000E026E000E016E95EC0EF010C014
:1017880001F011C002F0C2C003F0C3C004F001ECC4
:101798000FF00150125C02501358D8B0D6EF0BF07E
:1017A800D9EF0BF0010EDAEF0BF0000E0C6E0D6A9C
:1017B80012008594839E879C85987D947B9E7F9C50
:1017C8007D98050E0E01746F060E766F070E696F11
:1017D800080E886FBD508F0B4009BD6EE00EBE1617
:1017E800BF50F00B0109BF6E630EBC6EBD8E000EBC
:1017F800AA6E000EA66E000E0F01256F000E216F57
:10180800FC0EAD16F30EAD16CF0EAD163F0EAD168F
:10181800AB88AB50F00B0C09AB6EAB8EA788A7500A
:10182800F00B0C09A76EA78E26892651F00B0C0920
:10183800266F268F22892251F00B0C09226F228FE6
:101848001200740EF66E1E0EF76E000EF86E01EEA4
:10185800DCF010EE0CF00900F5CFEEFFE550E1509A
:10186800FAE19A0EF66E1A0EF76E000EF86E00EE9A
:1018780060F010EE64F00900F5CFEEFFE550E1509E
:10188800FAE1680EF66E1E0EF76E000EF86E00EEA8
:101898004FF010EE0CF00900F5CFEEFFE550E150E7
:1018A800FAE101EE00F0DC0EEE6AE806FDE100EE7A
:1018B800F0F00C0EEE6AE806FDE15E6A5D6A5C6AAD
:1018C8005B6A5F905F92000126EF09F0000E5E6E82
:1018D800000E5D6E98EF0CF020EE01F01450D92642
:1018E8001550DA22000EDF6E20EE01F01650D926D0
:1018F8001750DA22000EDF6E14C0D9FF15C0DAFFC8
:10190800280EDF6E16C0D9FF17C0DAFF280EDF6E6B
:1019180014C00EF015C00FF0E3EC05F016C00EF081
:1019280017C00FF0E3EC05F018505D5C19505E58D5
:10193800D8A0A1EF0CF0A3EF0CF070EF0CF01200A0
:10194800000E5E6E000E5D6ED2EF0CF020EE01F020
:101958001450D9261550DA22010EDF6E20EE01F060
:101968001650D9261750DA22010EDF6E14C0D9FF9F
:1019780015C0DAFF280EDF6E16C0D9FF17C0DAFFD0
:10198800270EDF6E14C00EF015C00FF0E3EC05F063
:1019980016C00EF017C00FF0E3EC05F018505D5CB0
:1019A80019505E58D8A0DBEF0CF0DDEF0CF0AAEF71
:1019B8000CF01200000E0C6E000E0B6E09500A108F
:1019C800D8B4E9EF0CF0EBEF0CF013EF0DF0010ECB
:1019D8000D6EF3EF0CF0D89009360A360D2A0AAED0
:1019E800F8EF0CF0FAEF0CF0EFEF0CF0D8900B36A4
:1019F8000C360950075C0A500858D8A006EF0DF0BD
:101A080008EF0DF00DEF0DF00950075E0A50085A67
:101A18000B80D8900A3209320D2EFAEF0CF00BC069
:101A280007F00CC008F01200000E096E000E0A6ED6
:101A3800000E0B6E000E0C6E01A025EF0DF027EFC7
:101A48000DF02FEF0DF00550092606500A22075019
:101A58000B2208500C22D890053606360736083671
:101A6800D8900432033202320132015002100310BE
:101A78000410D8A442EF0DF044EF0DF020EF0DF064
:101A880009C001F00AC002F00BC003F00CC004F05A
:101A98001200FC280000551B0000700700002600FB
:101AA800000048000000540000005C00000027000F
:101AB80000001C0000004D0000003C000000400039
:101AC80000005D0000004C0000001400000003004E
:101AD8000000090000002400000019000000360082
:101AE800000008000000480000000200000002009A
:101AF8000000DC000F00000E5E6E000E5D6E20EE32
:101B080001F01450D9261550DA22000EDF6E20EEAF
:101B180001F01650D9261750DA22000EDF6E14C0D5
:101B2800D9FF15C0DAFF320EDF6E16C0D9FF17C015
:101B3800DAFF320EDF6E14C00EF015C00FF0E3ECC2
:101B480005F016C00EF017C00FF0E3EC05F0120018
:101B580051EC0FF0520E40EC0FF0B60E40EC0FF0C7
:101B680056EC0FF0530E40EC0FF0010EB7EC0EF0F0
:101B7800076E07500A6E0B6A000EB7EC0EF0076E80
:101B88000750096E086A0A5008100A6E0B500910AF
:101B98000B6E4CEC0FF00AC005F00BC006F01200FB
:101BA80051EC0FF0520E40EC0FF0B80E40EC0FF075
:101BB80056EC0FF0530E40EC0FF0010EB7EC0EF0A0
:101BC800076E07500A6E0B6A000EB7EC0EF0076E30
:101BD8000750096E086A0A5008100A6E0B5009105F
:101BE8000B6E4CEC0FF00AC005F00BC006F01200AB
:101BF80051EC0FF0520E40EC0FF0B40E40EC0FF029
:101C080056EC0FF0530E40EC0FF0010EB7EC0EF04F
:101C1800076E07500A6E0B6A000EB7EC0EF0076EDF
:101C28000750096E086A0A5008100A6E0B5009100E
:101C38000B6E4CEC0FF00AC005F00BC006F012005A
:101C480051EC0FF0520E40EC0FF0BA0E40EC0FF0D2
:101C580056EC0FF0530E40EC0FF0010EB7EC0EF0FF
:101C6800076E07500A6E0B6A000EB7EC0EF0076E8F
:101C78000750096E086A0A5008100A6E0B500910BE
:101C88000B6E4CEC0FF00AC005F00BC006F012000A
:101C980014C0D9FF15C0DAFF000EDF6E16C0D9FFD9
:101CA80017C0DAFF000EDF6E14C00EF015C00FF07B
:101CB800E3EC05F016C00EF017C00FF0E3EC05F0EA
:101CC800520E196E2B0E186E000EE82EFED7182E27
:101CD800FCD7192EFAD700D012005EBE7DEF0EF0A9
:101CE8005E5009E1170E5D5CD8A07DEF0EF07FEF26
:101CF8000EF094EF0EF0F50E5D24016EFF0E5E20DF
:101D0800026ED8905B34D96E5C34DA6E6C0ED926CC
:101D1800010EDA2201C0DEFF02C0DDFF5B4A5C2A49
:101D2800120001A49AEF0EF09CEF0EF09FEF0EF058
:101D38007F82A0EF0EF07F9201A2A5EF0EF0A7EF31
:101D48000EF0AAEF0EF07988ABEF0EF0799801A0AB
:101D5800B0EF0EF0B2EF0EF0B5EF0EF07E8EB6EFEC
:101D68000EF07E9E1200036EEDEC0EF00E01DA8787
:101D7800EDEC0EF0D5CE04F0EDEC0EF00350D8B437
:101D8800C8EF0EF0CCEF0EF0026A022ACDEF0EF08B
:101D9800026A023A02460E01DA510218DF0B0218F3
:101DA800DA6FDA89045012000E01D951F00B0809D4
:101DB800D96FD98B9F0ED66F848A848CA79BA79DD9
:101DC8001D0E1D6F1E0E1C6F1C0E6F6F1B0E706F8D
:101DD80012000E01D8B5F3EF0EF0F5EF0EF0EDEFAF
:101DE8000EF0DACE01F01F0E0116D8A4FEEF0EF0A9
:101DF80000EF0FF0EDEF0EF0120001500302F3CFE9
:101E080005F0F4CF06F001500402F3500626025004
:101E18000302F350062605C001F006C002F01200C6
:101E2800046E51EC0FF0520E40EC0FF00450800994
:101E380040EC0FF0035040EC0FF04CEC0FF01200A8
:101E4800D6501F0B4009D66ED688D650F00B08091D
:101E5800D66EE70ED46E950ED36ED588D58E120049
:101E6800040400004B020000A10000006400000010
:101E78006400000064000000026EEDEC0EF002C089
:101E8800D5FE1200F28C0E01298B2B81F28E1200E6
:101E9800EDEC0EF00E01DA851200EDEC0EF00E01FD
:101EA800DA811200EDEC0EF00E01DA8312005D4AC1
:041EB8005E2A12008C
:020000040020DA
:10000000FF0FFF0FFF0FFF0FFF0FFF0FFF0FFF0F80
:020000040030CA
:0C000000AAFFFFFF9FFFFFFFFFFFFFFFB5
:00000001FF
