:0400000017EF00F006
:100008005A820E0133AB0BEF00F00DEF00F015EF45
:1000180000F09BEC05F0E70ED46E950ED36E0E0142
:10002800339B5A92110086EF03F020EE02F00E5037
:10003800D9260F50DA22DF50D8B425EF00F027EF89
:1000480000F05BEF00F00EC0D9FF0FC0DAFFDF5001
:10005800106E1050016E026A20EE03F00E50D92681
:100068000F50DA22DECF03F0DDCF04F03FEC05F0CD
:1000780001C007F002C008F0000E0A6E640E096E97
:100088004CEC03F020EE03F00E50D9260F50DA2284
:10009800DF50116E0750115C126E20EE03F00E5007
:1000A800D9260F50DA22DF50136E7EEF00F0000ED3
:1000B800126E0EC0D9FF0FC0DAFFDF50106E10505D
:1000C800016E026A20EE03F00E50D9260F50DA2294
:1000D800DECF03F0DDCF04F03FEC05F001C007F000
:1000E80002C008F0000E0A6E640E096E4CEC03F0B4
:1000F8000750136E20EE01F00E50D9260F50DA2269
:10010800DF50D8B48AEF00F08CEF00F0AEEF00F0CB
:1001180020EE05F00E50D9260F50DA22DECF10F06F
:10012800DDCF11F010C0D9FF11C0DAFF12C0DFFF18
:1001380020EE07F00E50D9260F50DA22DECF10F04D
:10014800DDCF11F010C0D9FF11C0DAFF13C0DFFFF7
:10015800CEEF00F020EE05F00E50D9260F50DA222F
:10016800DECF10F0DDCF11F010C0D9FF11C0DAFFDB
:1001780013C0DFFF20EE07F00E50D9260F50DA2209
:10018800DECF10F0DDCF11F010C0D9FF11C0DAFFBB
:1001980012C0DFFF120016EC05F0010E036E000E10
:1001A80052EC05F03F0E166E550EE82EFED7162EB1
:1001B800FCD700F0030E036E000E52EC05F0D50ECE
:1001C800036E010E52EC05F0869E8792819820EE10
:1001D800B4F011EE00F00B0EDBCFE3FFE806FCE213
:1001E80020EEA8F011EE0CF00B0EDBCFE3FFE806D3
:1001F800FCE220EE9CF011EE18F00B0EDBCFE3FFD3
:10020800E806FCE220EE90F011EE24F00B0EDBCFB6
:10021800E3FFE806FCE220EE84F011EE30F00B0E6E
:10022800DBCFE3FFE806FCE220EE78F011EE3CF0CD
:100238000B0EDBCFE3FFE806FCE220EE6CF011EEDC
:1002480048F00B0EDBCFE3FFE806FCE220EE60F09F
:1002580011EE54F00B0EDBCFE3FFE806FCE220EED4
:10026800C0F011EE60F00B0EDBCFE3FFE806FCE216
:1002780086860E01B4978684B4958EA646EF01F063
:1002880048EF01F04FEF01F08EB44DEF01F04FEF62
:1002980001F041EF01F08EB454EF01F056EF01F098
:1002A80058EF01F06AEF01F078EC02F08EB65FEFDC
:1002B80001F061EF01F05AEF01F06BEC01F08EB63E
:1002C80068EF01F06AEF01F063EF01F01200000E31
:1002D800026E040E016EBAEC04F0120E0F6EDC0E04
:1002E8000E6E600EE82EFED70E2EFCD70F2EFAD714
:1002F8001AEC04F005C02EF006C02FF0306A316AFF
:10030800000E026E020E016EBAEC04F0120E0F6EB1
:10031800DC0E0E6E600EE82EFED70E2EFCD70F2ECA
:10032800FAD742EC04F005C032F006C033F0346A64
:10033800356A000E026E010E016EBAEC04F0120E60
:100348000F6EDC0E0E6E600EE82EFED70E2EFCD75A
:100358000F2EFAD792EC04F005C036F006C037F03D
:10036800386A396A000E026E000E016EBAEC04F0AB
:10037800120E0F6EDC0E0E6E600EE82EFED70E2EDD
:10038800FCD70F2EFAD76AEC04F005C010F006C0AF
:1003980011F0000E026E070E016EBAEC04F0120E98
:1003A8000F6EDC0E0E6E600EE82EFED70E2EFCD7FA
:1003B8000F2EFAD76AEC04F005C012F006C013F04D
:1003C800000E026E000E016EBAEC04F010C009F0C7
:1003D80011C00AF012C007F013C008F04CEC03F08B
:1003E80007C014F008C015F014C007F015C008F0D5
:1003F800000E0A6E050E096E4CEC03F007C048F0BB
:1004080008C049F0120062EC05F086EC05F0000E19
:10041800026E630E016ECAEC02F0CFEC00F00E0122
:10042800B4958684000E1C6E010E1D6E010E1E6EA4
:10043800AA0E216E0F0E226EA60E236E0F0E246ECC
:10044800000E206E630E1F6E000E256E010E266EC6
:10045800010E276E250E2A6E0F0E2B6E210E2C6EA6
:100468000F0E2D6E000E296E630E286E1C0E146E74
:10047800000E156E250E166E000E176EEDEC03F0CD
:100488001C0E146E000E156E250E166E000E176EDD
:10049800000E196E0A0E186E12EC03F01C0E146E84
:1004A800000E156E250E166E000E176EFDEC04F08C
:1004B800520E1B6E2B0E1A6E000EE82EFED71A2E49
:1004C800FCD71B2EFAD700D0520E1B6E2B0E1A6EBD
:1004D800000EE82EFED71A2EFCD71B2EFAD700D016
:1004E80044EF02F017EF00F0000E026E040E016EEA
:1004F800BAEC04F0120E0D6EDC0E0C6E600EE82ED7
:10050800FED70C2EFCD70D2EFAD71AEC04F005C036
:100518003AF006C03BF03C6A3D6A000E026E020EDD
:10052800016EBAEC04F0120E0D6EDC0E0C6E600E4D
:10053800E82EFED70C2EFCD70D2EFAD742EC04F08D
:1005480005C03EF006C03FF0406A416A000E026EE8
:10055800010E016EBAEC04F0120E0D6EDC0E0C6E7C
:10056800600EE82EFED70C2EFCD70D2EFAD792EC93
:1005780004F005C042F006C043F0446A456A000E24
:10058800026E000E016EBAEC04F012008594839E90
:10059800879C85987D947B9E7F9C7D98050E0E0197
:1005A800746F060E766F070E696F080E886FBD5060
:1005B8008F0B4009BD6EE00EBE16BF50F00B01094F
:1005C800BF6E630EBC6EBD8E000EAA6E000EA66EC8
:1005D800000E0F01256F000E216FFC0EAD16F30EF5
:1005E800AD16CF0EAD163F0EAD16AB88AB50F00B67
:1005F8000C09AB6EAB8EA788A750F00B0C09A76E41
:10060800A78E26892651F00B0C09266F268F228982
:100618002251F00B0C09226F228F1200000E596E26
:10062800000E586E40EF03F020EE01F01450D9266A
:100638001550DA22010EDF6E20EE01F01650D92691
:100648001750DA22010EDF6E14C0D9FF15C0DAFF89
:10065800280EDF6E16C0D9FF17C0DAFF280EDF6E2E
:1006680014C00EF015C00FF019EC00F016C00EF013
:1006780017C00FF019EC00F01850585C1950595871
:10068800D8A049EF03F04BEF03F018EF03F0120086
:10069800000E0C6E000E0B6E09500A10D8B457EFFE
:1006A80003F059EF03F081EF03F0010E0D6E61EFD7
:1006B80003F0D89009360A360D2A0AAE66EF03F021
:1006C80068EF03F05DEF03F0D8900B360C36095055
:1006D800075C0A500858D8A074EF03F076EF03F0CF
:1006E8007BEF03F00950075E0A50085A0B80D89038
:1006F8000A3209320D2E68EF03F00BC007F00CC068
:1007080008F012007A0EF66E070EF76E000EF86EFD
:1007180000EE60F010EE60F00900F5CFEEFFE55056
:10072800E150FAE1E40EF66E0A0EF76E000EF86E6E
:1007380000EE2EF010EE1CF00900F5CFEEFFE550AC
:10074800E150FAE101EE00F0D00EEE6AE806FDE1B4
:1007580000EEC0F00C0EEE6AE806FDE100EE4AF08D
:10076800100EEE6AE806FDE15A905A92000107EF72
:1007780002F064000000640000006400000026002D
:10078800000048000000540000005C000000270042
:1007980000001C0000004D0000003C00000040006C
:1007A80000005D0000004C00000014000000030081
:1007B80000000900000024000000190000003600B5
:1007C80000000800000048000000020000000200CD
:1007D8000000000E596E000E586E20EE01F0145005
:1007E800D9261550DA22010EDF6E20EE01F01650E0
:1007F800D9261750DA22010EDF6E14C0D9FF15C0B2
:10080800DAFF280EDF6E16C0D9FF17C0DAFF260EF2
:10081800DF6E14C00EF015C00FF019EC00F016C012
:100828000EF017C00FF019EC00F0120091EC05F073
:10083800520E80EC05F0B60E80EC05F096EC05F053
:10084800530E80EC05F0010EDCEC04F0076E075047
:100858000A6E0B6A000EDCEC04F0076E0750096E96
:10086800086A0A5008100A6E0B5009100B6E8CECBF
:1008780005F00AC005F00BC006F0120091EC05F077
:10088800520E80EC05F0B80E80EC05F096EC05F001
:10089800530E80EC05F0010EDCEC04F0076E0750F7
:1008A8000A6E0B6A000EDCEC04F0076E0750096E46
:1008B800086A0A5008100A6E0B5009100B6E8CEC6F
:1008C80005F00AC005F00BC006F0120091EC05F027
:1008D800520E80EC05F0B40E80EC05F096EC05F0B5
:1008E800530E80EC05F0010EDCEC04F0076E0750A7
:1008F8000A6E0B6A000EDCEC04F0076E0750096EF6
:10090800086A0A5008100A6E0B5009100B6E8CEC1E
:1009180005F00AC005F00BC006F0120091EC05F0D6
:10092800520E80EC05F0BA0E80EC05F096EC05F05E
:10093800530E80EC05F0010EDCEC04F0076E075056
:100948000A6E0B6A000EDCEC04F0076E0750096EA5
:10095800086A0A5008100A6E0B5009100B6E8CECCE
:1009680005F00AC005F00BC006F0120001A4BFEFA5
:1009780004F0C1EF04F0C4EF04F07F82C5EF04F087
:100988007F9201A2CAEF04F0CCEF04F0CFEF04F09D
:100998007988D0EF04F0799801A0D5EF04F0D7EF6B
:1009A80004F0DAEF04F07E8EDBEF04F07E9E120096
:1009B800036E2BEC05F00E01DA872BEC05F0D5CE93
:1009C80004F02BEC05F00350D8B4EDEF04F0F1EF90
:1009D80004F0026A022AF2EF04F0026A023A0246BE
:1009E8000E01DA510218DF0B0218DA6FDA890450A7
:1009F800120014C0D9FF15C0DAFF000EDF6E16C052
:100A0800D9FF17C0DAFF000EDF6E14C00EF015C054
:100A18000FF019EC00F016C00EF017C00FF019EC2B
:100A280000F012000E01D951F00B0809D96FD98BCB
:100A38009F0ED66F848A848CA79BA79D1D0E1D6F61
:100A48001E0E1C6F1C0E6F6F1B0E706F12000E01B6
:100A5800D8B531EF05F033EF05F02BEF05F0DACE1E
:100A680001F01F0E0116D8A43CEF05F03EEF05F08B
:100A78002BEF05F0120001500302F3CF05F0F4CF7D
:100A880006F001500402F350062602500302F35008
:100A9800062605C001F006C002F01200046E91ECB3
:100AA80005F0520E80EC05F00450800980EC05F04A
:100AB800035080EC05F08CEC05F01200D6501F0BAB
:100AC8004009D66ED688D650F00B0809D66EE70EC8
:100AD800D46E950ED36ED588D58E1200040400000E
:100AE8004B020000A1000000FC280000551B00007C
:100AF80070070000DC000F00026E2BEC05F002C04E
:100B0800D5FE1200F28C0E01298B2B81F28E120079
:100B18002BEC05F00E01DA8512002BEC05F00E0126
:100B2800DA8112002BEC05F00E01DA831200584A24
:040B3800592A120024
:020000040020DA
:10000000FF0FFF0FFF0FFF0FFF0FFF0FFF0FFF0F80
:020000040030CA
:0C000000AAFFFFFF9FFFFFFFFFFFFFFFB5
:00000001FF
