:0400000017EF00F006
:100008005B820E0133AB0BEF00F00DEF00F015EF44
:1000180000F0F8EC0FF0E70ED46E950ED36E0E01DB
:10002800339B5B9211006FEF0CF020C014F021C0DD
:1000380015F022C016F023C017F0000E196E0B0E33
:10004800186E04EC0DF020C014F021C015F022C089
:1000580016F023C017F0E4EC0EF01E501F10D8A4C1
:1000680038EF00F03AEF00F053EF00F020C014F042
:1000780021C015F022C016F023C017F06FEC08F06D
:10008800D8905334D96E5434DA6E000ED926020E45
:10009800DA22FF0EDE6EFF0EDD6E534A542A1E046E
:1000A8001F10D8A45AEF00F05CEF00F075EF00F0D5
:1000B80020C014F021C015F022C016F023C017F09C
:1000C800C2EC07F0D8905334D96E5434DA6E000E6F
:1000D800D926020EDA22FE0EDE6EFF0EDD6E534AC0
:1000E800542A020E1E181F10D8A47DEF00F07FEFCF
:1000F80000F0ACEF00F0000E276E000E266E20C058
:1001080014F021C015F022C016F023C017F06FECD0
:1001180008F0D8905334D96E5434DA6E000ED926CC
:10012800020EDA22FF0EDE6EFF0EDD6E534A542AEF
:10013800264A272A27BEAAEF00F0275009E1020E17
:10014800265CD8A0AAEF00F0ACEF00F083EF00F037
:10015800030E1E181F10D8A4B4EF00F0B6EF00F07D
:100168006EEF01F020C014F021C015F022C016F087
:1001780023C017F0000E196E210E186E04EC0DF056
:1001880020C014F021C015F022C016F023C017F0CB
:10019800E4EC0EF020C014F021C015F022C016F0D7
:1001A80023C017F06FEC08F0D8905334D96E54344C
:1001B800DA6EFE0ED926010EDA22010EDBBEEFEF53
:1001C80000F0010EDB5009E10C0EDE5CD8A0EFEF69
:1001D80000F0F1EF00F00FEF01F0D8905334D96E32
:1001E8005434DA6EFE0ED926010EDA22EA0EDE2625
:1001F800FF0EDD22D8905334D96E5434DA6E000ED7
:10020800D926020EDA22FF0EDE6EFF0EDD6E534A8D
:10021800542A6EEF01F0D8905334D96E5434DA6E04
:10022800FE0ED926010EDA22DE2806E1DE28D8A441
:1002380020EF01F022EF01F02FEF01F0D8905334B6
:10024800D96E5434DA6EFE0ED926010EDA22FE0E6D
:10025800DE6EFF0EDD6ED8905334D96E5434DA6EEC
:10026800FE0ED926010EDA22FE0EDE1806E1DE2881
:10027800D8A441EF01F043EF01F050EF01F0D8901E
:100288005334D96E5434DA6EFE0ED926010EDA22B2
:10029800FF0EDE6EFF0EDD6ED8905334D96E5434E7
:1002A800DA6E000ED926020EDA22160EDE6E000E67
:1002B800DD6E534A542AD8905334D96E5434DA6ECA
:1002C800000ED926020EDA22FE0EDE6EFF0EDD6E5D
:1002D800534A542A040E1E181F10D8A476EF01F0B2
:1002E80078EF01F030EF02F020C014F021C015F0D3
:1002F80022C016F023C017F0000E196E210E186EDA
:1003080004EC0DF020C014F021C015F022C016F046
:1003180023C017F0E4EC0EF020C014F021C015F053
:1003280022C016F023C017F0C2EC07F0D89053345F
:10033800D96E5434DA6EFE0ED926010EDA22010E79
:10034800DBBEB1EF01F0010EDB5009E10C0EDE5C03
:10035800D8A0B1EF01F0B3EF01F0D1EF01F0D890E0
:100368005334D96E5434DA6EFE0ED926010EDA22D1
:10037800EA0EDE26FF0EDD22D8905334D96E5434AF
:10038800DA6E000ED926020EDA22FE0EDE6EFF0E9F
:10039800DD6E534A542A30EF02F0D8905334D96EA8
:1003A8005434DA6EFE0ED926010EDA22DE2806E172
:1003B800DE28D8A4E2EF01F0E4EF01F0F1EF01F05C
:1003C800D8905334D96E5434DA6EFE0ED926010E05
:1003D800DA22FE0EDE6EFF0EDD6ED8905334D96E33
:1003E8005434DA6EFE0ED926010EDA22FE0EDE181D
:1003F80006E1DE28D8A403EF02F005EF02F012EFC1
:1004080002F0D8905334D96E5434DA6EFE0ED926E1
:10041800010EDA22FF0EDE6EFF0EDD6ED890533429
:10042800D96E5434DA6E000ED926020EDA22160E70
:10043800DE6E000EDD6E534A542AD8905334D96EBE
:100448005434DA6E000ED926020EDA22FF0EDE6E62
:10045800FF0EDD6E534A542A050E1E181F10D8A42D
:1004680038EF02F03AEF02F053EF02F020C014F038
:1004780021C015F022C016F023C017F052EC0AF084
:10048800D8905334D96E5434DA6E000ED926020E41
:10049800DA22FD0EDE6EFF0EDD6E534A542A060E7A
:1004A8001E181F10D8A45BEF02F05DEF02F076EF84
:1004B80002F020C014F021C015F022C016F023C0AD
:1004C80017F0E6EC0AF0D8905334D96E5434DA6E4B
:1004D800000ED926020EDA22FC0EDE6EFF0EDD6E4D
:1004E800534A542A070E1E181F10D8A47EEF02F094
:1004F80080EF02F0A2EF02F0000E296E000E286EC7
:1005080020C014F021C015F022C016F023C017F047
:100518006FEC08F0284A292A29BE9CEF02F02950DE
:1005280009E1020E285CD8A09CEF02F09EEF02F0D1
:1005380084EF02F0000E526E010E516E1F5009E159
:10054800080E1E5CD8A0ABEF02F0ADEF02F0BBEFD7
:1005580002F020C014F021C015F022C016F023C00C
:1005680017F0000E196E0B0E186E3EEC0DF012000F
:10057800000E026E040E016E2DEC0FF0120E386E96
:10058800DC0E376E600EE82EFED7372EFCD7382EDD
:10059800FAD744EC0EF005C0ECF006C0EDF000010F
:1005A800EE6BEF6B000E026E020E016E2DEC0FF07B
:1005B800120E386EDC0E376E600EE82EFED7372E20
:1005C800FCD7382EFAD76CEC0EF005C0F0F006C058
:1005D800F1F00001F26BF36B000E026E010E016E7A
:1005E8002DEC0FF0120E386EDC0E376E600EE82E12
:1005F800FED7372EFCD7382EFAD7BCEC0EF005C044
:10060800F4F006C0F5F00001F66BF76B000E026E11
:10061800000E016E2DEC0FF000016051EC5D615190
:10062800ED596251EE596351EF59D8B01EEF03F0FE
:1006380020EF03F02AEF03F0000ECC6F000ECD6F11
:10064800000ECE6F000ECF6F5FEF03F06051EC5DD0
:10065800016E6151ED59026E6251EE59036E63519C
:10066800EF59046E640E056E000E066E000E076EDE
:10067800000E086EB2EC0DF001C00DF002C00EF0D5
:1006880003C00FF004C010F0000160516C5D116EE2
:1006980061516D59126E62516E59136E63516F59E3
:1006A800146ECFEC0BF00DC0CCF00EC0CDF00FC027
:1006B800CEF010C0CFF0CCC0E0F0CDC0E1F0CEC09D
:1006C800E2F0CFC0E3F000016451F05D6551F159EB
:1006D8006651F2596751F359D8B075EF03F077EFC7
:1006E80003F081EF03F0000ED06F000ED16F000E03
:1006F800D26F000ED36FB6EF03F06451F05D016E58
:100708006551F159026E6651F259036E6751F359FA
:10071800046E640E056E000E066E000E076E000E67
:10072800086EB2EC0DF001C00DF002C00EF003C06F
:100738000FF004C010F000016451705D116E655136
:100748007159126E66517259136E67517359146E4E
:10075800CFEC0BF00DC0D0F00EC0D1F00FC0D2F02E
:1007680010C0D3F0D0C0E4F0D1C0E5F0D2C0E6F0BC
:10077800D3C0E7F000016851F45D6951F5596A5139
:10078800F6596B51F759D8B0CCEF03F0CEEF03F020
:10079800D8EF03F0000ED46F000ED56F000ED66FA1
:1007A800000ED76F0DEF04F06851F45D016E6951CA
:1007B800F559026E6A51F659036E6B51F759046E7A
:1007C800640E056E000E066E000E076E000E086EB3
:1007D800B2EC0DF001C00DF002C00EF003C00FF036
:1007E80004C010F000016851745D116E69517559AB
:1007F800126E6A517659136E6B517759146ECFEC9D
:100808000BF00DC0D4F00EC0D5F00FC0D6F010C05C
:10081800D7F0D4C0E8F0D5C0E9F0D6C0EAF0D7C028
:10082800EBF020EEE0F000EE07F00B0EDBCFEBFF75
:10083800E806FCE221EE00F000EE13F00B0EDBCF31
:10084800EBFFE806FCE256EC06F007C0D8F008C05B
:10085800D9F0000E0001DB6F000EDA6F000EDF6FBB
:10086800010EDE6FDEC001F0DFC002F0000E046E84
:100878000C0E036E99EC0FF0000E0124D96E010ED8
:100888000220DA6E10EEC0F00B0EDBCFE3FFE806B5
:10089800FCE220EEE0F000EE07F00B0EDBCFEBFF02
:1008A800E806FCE220EEC0F000EE13F00B0EDBCF02
:1008B800EBFFE806FCE256EC06F007C0DCF008C0E7
:1008C800DDF00001D851DC5DD951DD59D8B06FEFAA
:1008D80004F071EF04F079EF04F0DEC0DAF0DFC065
:1008E800DBF0DCC0D8F0DDC0D9F0DE4BDF2BDF5108
:1008F80009E1090EDE5DD8A084EF04F086EF04F06C
:1009080036EF04F0DAC035F0DBC036F0120072EFD3
:1009180005F0D8905334D96E5434DA6EFE0ED926C9
:10092800010EDA22DE2806E1DE28D8A49EEF04F0C4
:10093800A0EF04F0ACEF04F01EC014F01FC015F0D7
:1009480020C016F021C017F0C2EC07F065EF05F0E3
:10095800D8905334D96E5434DA6EFE0ED926010E6F
:10096800DA22FE0EDE1806E1DE28D8A4BEEF04F077
:10097800C0EF04F0CCEF04F01EC014F01FC015F057
:1009880020C016F021C017F06FEC08F065EF05F0F5
:10099800D8905334D96E5434DA6EFE0ED926010E2F
:1009A800DA22FD0EDE1806E1DE28D8A4DEEF04F018
:1009B800E0EF04F0ECEF04F01EC014F01FC015F0D7
:1009C80020C016F021C017F0E6EC0AF065EF05F03C
:1009D800D8905334D96E5434DA6EFE0ED926010EEF
:1009E800DA22FC0EDE1806E1DE28D8A4FEEF04F0B9
:1009F80000EF05F00CEF05F01EC014F01FC015F055
:100A080020C016F021C017F052EC0AF065EF05F08F
:100A1800D8905334D96E5434DA6EFE0ED926010EAE
:100A2800DA22010EDBBE22EF05F0010EDB5008E1F1
:100A3800DE04D8A022EF05F024EF05F065EF05F0FD
:100A48001EC014F01FC015F020C016F021C017F00A
:100A5800D8905334D96E5434DA6EFE0ED926010E6E
:100A6800DA22DECF18F0DDCF19F03EEC0DF0110ED2
:100A7800236E3C0E226ECB0EE82EFED7222EFCD71C
:100A8800232EFAD700F01EC014F01FC015F020C0A6
:100A980016F021C017F0000E196E0B0E186E3EEC02
:100AA8000DF01EC014F01FC015F020C016F021C0B4
:100AB80017F0000E196E0B0E186E04EC0DF065EFB2
:100AC80005F01EC014F01FC015F020C016F021C09C
:100AD80017F0E4EC0EF05306D8A0540654BE7FEF8E
:100AE80005F0545006E15304D8B07DEF05F07FEFD0
:100AF80005F08DEF04F053505410D8A486EF05F09C
:100B080088EF05F08CEF05F0000E526E020E516E64
:100B18001200BCEC0FF0DEEC0FF0000E026E630E5C
:100B2800016EBCEC0CF0B6EC09F00E01B4958684AD
:100B3800000E3F6E010E406E010E416EAA0E446E0D
:100B48000F0E456EA60E466E0F0E476E000E436ED4
:100B5800630E426E000E486E010E496E010E4A6E1B
:100B6800250E4D6E0F0E4E6E210E4F6E0F0E506EEF
:100B7800000E4C6E630E4B6E520E3A6E2B0E396E93
:100B8800000EE82EFED7392EFCD73A2EFAD700D021
:100B98003F0E146E000E156E480E166E000E176E80
:100BA80017EC0EF0E4EC0FF001C03DF002C03EF08F
:100BB80021EC0CF00C040D10D8A4E5EF05F0E7EFDC
:100BC80005F03DEF06F03D503E10D8A4EEEF05F0DD
:100BD800F0EF05F03DEF06F009EC0FF03F0E146E54
:100BE800000E156E480E166E000E176EE4EC0EF031
:100BF800BCEC02F035C03BF036C03CF03F0E146E42
:100C0800000E156E480E166E000E176E000E196E49
:100C1800050E186E3EEC0DF03BC01EF03CC01FF0F8
:100C28003F0E206E000E216E480E226E000E236EBF
:100C380019EC00F03D503E10D8A425EF06F027EF40
:100C480006F0D6EF05F03F0E146E000E156E480E36
:100C5800166E000E176EE4EC0EF03F0E146E000ECA
:100C6800156E480E166E000E176E17EC0EF0D6EFC6
:100C780005F03D043E10D8A444EF06F046EF06F018
:100C880052EF06F03F0E1E6E000E1F6E480E206ECD
:100C9800000E216E8BEC04F0D6EF05F0D6EF05F0D0
:100CA80017EF00F01350075C1450085815500958F6
:100CB80016500A58D8B063EF06F065EF06F073EFE8
:100CC80006F00750135C236E08501458246E095020
:100CD8001558256E0A501658266E7FEF06F01350E9
:100CE800075C236E14500858246E15500958256E59
:100CF80016500A58266E23C02FF024C030F0175023
:100D08000B5C18500C5819500D581A500E58D8B082
:100D180090EF06F092EF06F0A0EF06F00B50175C8C
:100D2800276E0C501858286E0D501958296E0E5001
:100D38001A582A6EACEF06F017500B5C276E185045
:100D48000C58286E19500D58296E1A500E582A6ED4
:100D580027C031F028C032F01B500F5C1C501058CF
:100D68001D5011581E501258D8B0BDEF06F0BFEFF5
:100D780006F0CDEF06F00F501B5C2B6E10501C5880
:100D88002C6E11501D582D6E12501E582E6ED9EF14
:100D980006F01B500F5C2B6E1C5010582C6E1D500B
:100DA80011582D6E1E5012582E6E2BC033F02CC0C9
:100DB80034F02FC001F030C002F02FC003F030C073
:100DC80004F099EC0FF001C01FF002C020F031C010
:100DD80001F032C002F031C003F032C004F099ECE7
:100DE8000FF001501F24216E02502020226E33C0C4
:100DF80001F034C002F033C003F034C004F099ECC1
:100E08000FF001502124076E02502220086E1200B4
:100E180020EE02F00E50D9260F50DA22DF50D8B457
:100E280018EF07F01AEF07F04EEF07F00EC0D9FFE2
:100E38000FC0DAFFDF50106E1050016E026A20EE0C
:100E480003F00E50D9260F50DA22DECF03F0DDCFA3
:100E580004F099EC0FF001C007F002C008F0000E92
:100E68000A6E640E096E78EC0DF020EE03F00E5059
:100E7800D9260F50DA22DF50116E0750115C126E1E
:100E880020EE03F00E50D9260F50DA22DF50136EF1
:100E980071EF07F0000E126E0EC0D9FF0FC0DAFF17
:100EA800DF50106E1050016E026A20EE03F00E50F3
:100EB800D9260F50DA22DECF03F0DDCF04F099EC0B
:100EC8000FF001C007F002C008F0000E0A6E640EB1
:100ED800096E78EC0DF00750136E20EE01F00E50FD
:100EE800D9260F50DA22DF50D8B47DEF07F07FEF14
:100EF80007F0A1EF07F020EE05F00E50D9260F50AD
:100F0800DA22DECF10F0DDCF11F010C0D9FF11C00A
:100F1800DAFF12C0DFFF20EE07F00E50D9260F507F
:100F2800DA22DECF10F0DDCF11F010C0D9FF11C0EA
:100F3800DAFF13C0DFFFC1EF07F020EE05F00E5017
:100F4800D9260F50DA22DECF10F0DDCF11F010C015
:100F5800D9FF11C0DAFF13C0DFFF20EE07F00E50F3
:100F6800D9260F50DA22DECF10F0DDCF11F010C0F5
:100F7800D9FF11C0DAFF12C0DFFF1200000E1B6E8E
:100F8800000E1A6E000E1B6E000E1A6E000E1D6EFD
:100F98002F0E1C6E20EE01F01450D9261550DA22BF
:100FA800010EDF6E20EE01F01650D9261750DA2216
:100FB800000EDF6E14C0D9FF15C0DAFF1CC0DFFFBA
:100FC80016C0D9FF17C0DAFF1CC0DFFF14C00EF02F
:100FD80015C00FF00CEC07F016C00EF017C00FF09C
:100FE8000CEC07F0050E196EB60E186E2C0EE82ED6
:100FF800FED7182EFCD7192EFAD700D0050E1C26BE
:10100800000E1D221DBE12EF08F01D5009E13E0E14
:101018001C5CD8A012EF08F014EF08F0CEEF07F030
:10102800000E1D6E340E1C6E20EE01F01450D926F1
:101038001550DA22010EDF6E20EE01F01650D92687
:101048001750DA22000EDF6E14C0D9FF15C0DAFF80
:101058001CC0DFFF16C0D9FF17C0DAFF1CC0DFFFB6
:1010680014C00EF015C00FF00CEC07F016C00EF00F
:1010780017C00FF00CEC07F0050E196EA10E186ED4
:10108800650EE82EFED7182EFCD7192EFAD700F0D9
:10109800FB0E1C26FF0E1D221DBE5EEF08F01D5024
:1010A80007E1260E1C5CD8B05CEF08F05EEF08F094
:1010B80018EF08F01A4A1B2A1BBE6CEF08F01B50E9
:1010C80009E1020E1A5CD8A06CEF08F06EEF08F088
:1010D800CAEF07F01200000E1B6E000E1A6E000E0B
:1010E8001D6E1B0E1C6E20EE01F01450D9261550F3
:1010F800DA22000EDF6E20EE01F01650D9261750C6
:10110800DA22010EDF6E14C0D9FF15C0DAFF1CC049
:10111800DFFF16C0D9FF17C0DAFF1CC0DFFF14C0FD
:101128000EF015C00FF00CEC07F016C00EF017C04B
:101138000FF00CEC07F0090E196EB00E186E580E71
:10114800E82EFED7182EFCD7192EFAD700D0050E98
:101158001C26000E1D221DBEBBEF08F01D5009E124
:101168002A0E1C5CD8A0BBEF08F0BDEF08F077EFA3
:1011780008F0000E1D6E200E1C6E20EE01F01450BB
:10118800D9261550DA22000EDF6E20EE01F0165037
:10119800D9261750DA22010EDF6E14C0D9FF15C008
:1011A800DAFF1CC0DFFF16C0D9FF17C0DAFF1CC06A
:1011B800DFFF14C00EF015C00FF00CEC07F016C0DE
:1011C8000EF017C00FF00CEC07F0090E196E860E22
:1011D800186ECA0EE82EFED7182EFCD7192EFAD78D
:1011E800FB0E1C26FF0E1D221DBE06EF09F01D502A
:1011F80007E1120E1C5CD8B004EF09F006EF09F005
:10120800C1EF08F01A4A1B2A1BBE14EF09F01B5045
:1012180009E1020E1A5CD8A014EF09F016EF09F0E4
:1012280073EF08F01200000E026E040E016E2DEC32
:101238000FF0120E0F6EDC0E0E6E600EE82EFED74B
:101248000E2EFCD70F2EFAD744EC0EF005C060F036
:1012580006C061F00001626B636B000E026E020E45
:10126800016E2DEC0FF0120E0F6EDC0E0E6E600E7E
:10127800E82EFED70E2EFCD70F2EFAD76CEC0EF008
:1012880005C064F006C065F00001666B676B000E70
:10129800026E010E016E2DEC0FF0120E0F6EDC0EB9
:1012A8000E6E600EE82EFED70E2EFCD70F2EFAD744
:1012B800BCEC0EF005C068F006C069F000016A6B6E
:1012C8006B6B000E026E000E016E2DEC0FF0120E0D
:1012D8000F6EDC0E0E6E600EE82EFED70E2EFCD7BB
:1012E8000F2EFAD794EC0EF005C010F006C011F0DE
:1012F800000E026E070E016E2DEC0FF0120E0F6E2F
:10130800DC0E0E6E600EE82EFED70E2EFCD70F2ECA
:10131800FAD794EC0EF005C012F006C013F0000ED8
:10132800026E000E016E2DEC0FF010C009F011C016
:101338000AF012C007F013C008F078EC0DF007C0EF
:1013480014F008C015F014C007F015C008F0000E1E
:101358000A6E050E096E78EC0DF007C059F008C04A
:101368005AF0120070EC0FF0010E036E000EACEC98
:101378000FF03F0E166E550EE82EFED7162EFCD730
:1013880000F0030E036E000EACEC0FF0D50E036EEA
:10139800010EACEC0FF0869E8792819820EEB4F097
:1013A80011EE00F00B0EDBCFE3FFE806FCE220EEC7
:1013B800A8F011EE0CF00B0EDBCFE3FFE806FCE221
:1013C80020EE9CF011EE18F00B0EDBCFE3FFE806E1
:1013D800FCE220EE90F011EE24F00B0EDBCFE3FFE1
:1013E800E806FCE220EE84F011EE30F00B0EDBCFC5
:1013F800E3FFE806FCE220EE78F011EE3CF00B0E7D
:10140800DBCFE3FFE806FCE221EE84F011EE48F0C2
:101418000B0EDBCFE3FFE806FCE221EE78F011EEDD
:1014280054F00B0EDBCFE3FFE806FCE221EE6CF094
:1014380011EE60F00B0EDBCFE3FFE806FCE28686D8
:101448000E01B4978684B4958EA62DEF0AF02FEF7F
:101458000AF036EF0AF08EB434EF0AF036EF0AF0ED
:1014680028EF0AF08EB43BEF0AF03DEF0AF03FEFA9
:101478000AF051EF0AF07AEC0BF08EB646EF0AF05C
:1014880048EF0AF041EF0AF017EC09F08EB64FEF7B
:101498000AF051EF0AF04AEF0AF01200000E1B6E34
:1014A800190E1A6E20EE01F01450D9261550DA22C2
:1014B800000EDF6E20EE01F01650D9261750DA2202
:1014C800010EDF6E14C0D9FF15C0DAFF1AC0DFFFA6
:1014D80016C0D9FF17C0DAFF1AC0DFFF14C00EF01C
:1014E80015C00FF00CEC07F016C00EF017C00FF087
:1014F8000CEC07F00E0E196E120E186E690EE82E1F
:10150800FED7182EFCD7192EFAD700F0050E1A268A
:10151800000E1B221BBE9AEF0AF01B5009E1280E91
:101528001A5CD8A09AEF0AF09CEF0AF056EF0AF07E
:10153800000E1B6E1E0E1A6E20EE01F01450D926F6
:101548001550DA22000EDF6E20EE01F01650D92673
:101558001750DA22010EDF6E14C0D9FF15C0DAFF6A
:101568001AC0DFFF16C0D9FF17C0DAFF1AC0DFFFA5
:1015780014C00EF015C00FF00CEC07F016C00EF0FA
:1015880017C00FF00CEC07F00D0E196EBF0E186E99
:101598004C0EE82EFED7182EFCD7192EFAD7FB0EC4
:1015A8001A26FF0E1B221BBEE5EF0AF01B5007E1AF
:1015B800100E1A5CD8B0E3EF0AF0E5EF0AF0A0EFDE
:1015C8000AF01200000E1B6E170E1A6E20EE01F0C4
:1015D8001450D9261550DA22010EDF6E20EE01F0E4
:1015E8001650D9261750DA22000EDF6E14C0D9FF24
:1015F80015C0DAFF1AC0DFFF16C0D9FF17C0DAFF1F
:101608001AC0DFFF14C00EF015C00FF00CEC07F085
:1016180016C00EF017C00FF00CEC07F00D0E196E87
:10162800AA0E186E840EE82EFED7182EFCD7192E97
:10163800FAD700D0050E1A26000E1B221BBE2EEF6D
:101648000BF01B5009E1260E1A5CD8A02EEF0BF008
:1016580030EF0BF0EAEF0AF0000E1B6E1C0E1A6E4C
:1016680020EE01F01450D9261550DA22010EDF6E53
:1016780020EE01F01650D9261750DA22000EDF6E40
:1016880014C0D9FF15C0DAFF1AC0DFFF16C0D9FF92
:1016980017C0DAFF1AC0DFFF14C00EF015C00FF034
:1016A8000CEC07F016C00EF017C00FF00CEC07F0AA
:1016B8000D0E196E2D0E186ED80EE82EFED7182EA8
:1016C800FCD7192EFAD7FB0E1A26FF0E1B221BBEBB
:1016D80079EF0BF01B5007E10E0E1A5CD8B077EFCC
:1016E8000BF079EF0BF034EF0BF01200000E026EE6
:1016F800040E016E2DEC0FF0120E0D6EDC0E0C6E4A
:10170800600EE82EFED70C2EFCD70D2EFAD744EC2F
:101718000EF005C06CF006C06DF000016E6B6F6BCB
:10172800000E026E020E016E2DEC0FF0120E0D6E01
:10173800DC0E0C6E600EE82EFED70C2EFCD70D2E9C
:10174800FAD76CEC0EF005C070F006C071F000011D
:10175800726B736B000E026E010E016E2DEC0FF0B2
:10176800120E0D6EDC0E0C6E600EE82EFED70C2EDF
:10177800FCD70D2EFAD7BCEC0EF005C074F006C0ED
:1017880075F00001766B776B000E026E000E016E2D
:101798002DEC0FF01200000E156E000E166E000EE6
:1017A800176E000E186E1150121013101410D8B4C2
:1017B800E0EF0BF0E2EF0BF018EF0CF0010E196EF2
:1017C800ECEF0BF0D8901136123613361436192A6E
:1017D80014AEF1EF0BF0F3EF0BF0E6EF0BF0D8904F
:1017E800153616361736183611500D5C12500E582D
:1017F80013500F5814501058D8A005EF0CF007EFED
:101808000CF010EF0CF011500D5E12500E5A1350E0
:101818000F5A1450105A1580D890143213321232BD
:101828001132192EF3EF0BF015C00DF016C00EF0A3
:1018380017C00FF018C010F01200000E026E000E54
:10184800016E2DEC0FF0120E0F6EDC0E0E6E600E98
:10185800E82EFED70E2EFCD70F2EFAD794EC0EF0FA
:1018680005C010F006C011F0000E026E070E016EE2
:101878002DEC0FF0120E0F6EDC0E0E6E600EE82EC1
:10188800FED70E2EFCD70F2EFAD794EC0EF005C01B
:1018980012F006C013F0000E026E000E016E2DEC61
:1018A8000FF010C001F011C002F059C003F05AC087
:1018B80004F099EC0FF00150125C02501358D8B0A4
:1018C80068EF0CF06BEF0CF0010E6CEF0CF0000EF3
:1018D8000C6E0D6A1200980EF66E1F0EF76E000E53
:1018E800F86E01EE78F010EE18F00900F5CFEEFF73
:1018F800E550E150FAE1CE0EF66E1B0EF76E000EC3
:10190800F86E00EE60F010EE60F00900F5CFEEFF23
:10191800E550E150FAE1F60EF66E1F0EF76E000E76
:10192800F86E00EE57F010EE04F00900F5CFEEFF68
:10193800E550E150FAE102EE00F0C80EEE6AE80662
:10194800FDE101EE00F0780EEE6AE806FDE100EE3A
:10195800ECF00C0EEE6AE806FDE1566A556A546A28
:10196800536A526A516A5B905B9200018DEF05F0F1
:101978008594839E879C85987D947B9E7F9C7D988B
:10198800050E0E01746F060E766F070E696F080E4E
:10199800886FBD508F0B4009BD6EE00EBE16BF505C
:1019A800F00B0109BF6E630EBC6EBD8E000EAA6EF1
:1019B800000EA66E000E0F01256F000E216FFC0EA3
:1019C800AD16F30EAD16CF0EAD163F0EAD16AB88A5
:1019D800AB50F00B0C09AB6EAB8EA788A750F00B81
:1019E8000C09A76EA78E26892651F00B0C09266FC5
:1019F800268F22892251F00B0C09226F228F1200A8
:101A0800000E566E000E556E32EF0DF020EE01F00E
:101A18001450D9261550DA22010EDF6E20EE01F09F
:101A28001650D9261750DA22010EDF6E14C0D9FFDE
:101A380015C0DAFF280EDF6E16C0D9FF17C0DAFF0F
:101A4800270EDF6E14C00EF015C00FF00CEC07F077
:101A580016C00EF017C00FF00CEC07F01850555CCC
:101A680019505658D8A03BEF0DF03DEF0DF00AEF96
:101A78000DF01200000E566E000E556E6CEF0DF054
:101A880020EE01F01450D9261550DA22000EDF6E30
:101A980020EE01F01650D9261750DA22000EDF6E1C
:101AA80014C0D9FF15C0DAFF320EDF6E16C0D9FF99
:101AB80017C0DAFF320EDF6E14C00EF015C00FF03B
:101AC8000CEC07F016C00EF017C00FF00CEC07F086
:101AD8001850555C19505658D8A075EF0DF077EF8F
:101AE8000DF044EF0DF01200000E0C6E000E0B6EA0
:101AF80009500A10D8B483EF0DF085EF0DF0ADEF63
:101B08000DF0010E0D6E8DEF0DF0D89009360A36E6
:101B18000D2A0AAE92EF0DF094EF0DF089EF0DF05B
:101B2800D8900B360C360950075C0A500858D8A0D4
:101B3800A0EF0DF0A2EF0DF0A7EF0DF00950075E32
:101B48000A50085A0B80D8900A3209320D2E94EFA9
:101B58000DF00BC007F00CC008F01200000E096E63
:101B6800000E0A6E000E0B6E000E0C6E01A0BFEF89
:101B78000DF0C1EF0DF0C9EF0DF005500926065024
:101B88000A2207500B2208500C22D8900536063638
:101B980007360836D8900432033202320132015037
:101BA800021003100410D8A4DCEF0DF0DEEF0DF0E6
:101BB800BAEF0DF009C001F00AC002F00BC003F043
:101BC8000CC004F01200040400004B020000A10045
:101BD8000000FC280000551B0000700700005C0096
:101BE8000000270000001C0000004D0000003C0021
:101BF8000000400000005D0000004C0000001400E0
:101C08000000030000000900000024000000190083
:101C18000000360000000800000048000000020034
:101C2800000002000000000E566E000E556E20EEF9
:101C380001F01450D9261550DA22000EDF6E20EE7E
:101C480001F01650D9261750DA22000EDF6E14C0A4
:101C5800D9FF15C0DAFF320EDF6E16C0D9FF17C0E4
:101C6800DAFF320EDF6E14C00EF015C00FF00CEC68
:101C780007F016C00EF017C00FF00CEC07F01200BA
:101C8800EEEC0FF0520ED8EC0FF0B60ED8EC0FF0C9
:101C9800F3EC0FF0530ED8EC0FF0010E4FEC0FF0F1
:101CA800076E07500A6E0B6A000E4FEC0FF0076EB6
:101CB8000750096E086A0A5008100A6E0B5009107E
:101CC8000B6EE9EC0FF00AC005F00BC006F012002D
:101CD800EEEC0FF0520ED8EC0FF0B80ED8EC0FF077
:101CE800F3EC0FF0530ED8EC0FF0010E4FEC0FF0A1
:101CF800076E07500A6E0B6A000E4FEC0FF0076E66
:101D08000750096E086A0A5008100A6E0B5009102D
:101D18000B6EE9EC0FF00AC005F00BC006F01200DC
:101D2800EEEC0FF0520ED8EC0FF0B40ED8EC0FF02A
:101D3800F3EC0FF0530ED8EC0FF0010E4FEC0FF050
:101D4800076E07500A6E0B6A000E4FEC0FF0076E15
:101D58000750096E086A0A5008100A6E0B500910DD
:101D68000B6EE9EC0FF00AC005F00BC006F012008C
:101D7800EEEC0FF0520ED8EC0FF0BA0ED8EC0FF0D4
:101D8800F3EC0FF0530ED8EC0FF0010E4FEC0FF000
:101D9800076E07500A6E0B6A000E4FEC0FF0076EC5
:101DA8000750096E086A0A5008100A6E0B5009108D
:101DB8000B6EE9EC0FF00AC005F00BC006F012003C
:101DC80014C0D9FF15C0DAFF000EDF6E16C0D9FFA8
:101DD80017C0DAFF000EDF6E14C00EF015C00FF04A
:101DE8000CEC07F016C00EF017C00FF00CEC07F063
:101DF800520E196E2B0E186E000EE82EFED7182EF6
:101E0800FCD7192EFAD700D0120056BE15EF0FF0E6
:101E1800565009E1170E555CD8A015EF0FF017EFD3
:101E28000FF02CEF0FF0F50E5524016EFF0E562023
:101E3800026ED8905334D96E5434DA6E000ED92617
:101E4800020EDA2201C0DEFF02C0DDFF534A542A27
:101E5800120001A432EF0FF034EF0FF037EF0FF05C
:101E68007F8238EF0FF07F9201A23DEF0FF03FEF36
:101E78000FF042EF0FF0798843EF0FF0799801A047
:101E880048EF0FF04AEF0FF04DEF0FF07E8E4EEF58
:101E98000FF07E9E1200036E85EC0FF00E01DA87BC
:101EA80085EC0FF0D5CE04F085EC0FF00350D8B4D4
:101EB80060EF0FF064EF0FF0026A022A65EF0FF08F
:101EC800026A023A02460E01DA510218DF0B0218C2
:101ED800DA6FDA89045012000E01D951F00B0809A3
:101EE800D96FD98B9F0ED66F848A848CA79BA79DA8
:101EF8001D0E1D6F1E0E1C6F1C0E6F6F1B0E706F5C
:101F080012000E01D8B58BEF0FF08DEF0FF085EFB3
:101F18000FF0DACE01F01F0E0116D8A496EF0FF0DD
:101F280098EF0FF085EF0FF0120001500302F3CF86
:101F380005F0F4CF06F001500402F35006260250D3
:101F48000302F350062605C001F006C002F0120095
:101F5800046EEEEC0FF0520ED8EC0FF0045080092E
:101F6800D8EC0FF00350D8EC0FF0E9EC0FF01200AA
:101F7800D6501F0B4009D66ED688D650F00B0809EC
:101F8800D66EE70ED46E950ED36ED588D58E120018
:101F980064000000640000006400000026000000E7
:101FA8004800000054000000026E85EC0FF002C0EB
:101FB800D5FE1200F28C0E01298B2B81F28E1200B5
:101FC80051C001F052C002F0120085EC0FF00E0172
:101FD800DA85120085EC0FF00E01DA81120085EC2B
:101FE8000FF00E01DA831200554A562A1200DC005F
:021FF8000F00D8
:020000040020DA
:10000000FF0FFF0FFF0FFF0FFF0FFF0FFF0FFF0F80
:020000040030CA
:0C000000AAFFFFFF9FFFFFFFFFFFFFFFB5
:00000001FF
