:0400000051EF00F0CC
:100008004F820E0133AB0BEF00F00DEF00F04FEF16
:1000180000F00001F64BF72B454A462A0A0EF6195E
:10002800F711D8A41AEF00F01CEF00F023EF00F04E
:1000380008EC11F0000E0001F76F000EF66F160EB7
:1000480045184610D8A42BEF00F02DEF00F035EF3F
:1000580000F0000E0D6E000E0C6EB3EC0DF049EFC3
:1000680000F02C0E45184610D8A43DEF00F03FEFE5
:1000780000F049EF00F0000E0D6E010E0C6EB3ECAF
:100088000DF0000E466E000E456EFD0ED46E900EFD
:10009800D36E0E01339B4F92110070EF0CF02DC000
:1000A80021F02EC022F02FC023F030C024F0000E23
:1000B800266E0B0E256E05EC0DF02DC021F02EC01E
:1000C80022F02FC023F030C024F06EEC0FF02B503C
:1000D8002C10D8A472EF00F074EF00F08DEF00F050
:1000E8002DC021F02EC022F02FC023F030C024F004
:1000F800C1EC08F0D8904734D96E4834DA6E000E57
:10010800D926020EDA22FF0EDE6EFF0EDD6E474A9A
:10011800482A2B042C10D8A494EF00F096EF00F096
:10012800AFEF00F02DC021F02EC022F02FC023F039
:1001380030C024F014EC08F0D8904734D96E483415
:10014800DA6E000ED926020EDA22FE0EDE6EFF0EE1
:10015800DD6E474A482A020E2B182C10D8A4B7EF98
:1001680000F0B9EF00F0E6EF00F0000E346E000E7C
:10017800336E2DC021F02EC022F02FC023F030C0E6
:1001880024F0C1EC08F0D8904734D96E4834DA6EC0
:10019800000ED926020EDA22FF0EDE6EFF0EDD6E8D
:1001A800474A482A334A342A34BEE4EF00F0345030
:1001B80009E1020E335CD8A0E4EF00F0E6EF00F0AE
:1001C800BDEF00F0030E2B182C10D8A4EEEF00F0B2
:1001D800F0EF00F0A8EF01F02DC021F02EC022F0C2
:1001E8002FC023F030C024F0000E266E210E256E9D
:1001F80005EC0DF02DC021F02EC022F02FC023F009
:1002080030C024F06EEC0FF02DC021F02EC022F08B
:100218002FC023F030C024F0C1EC08F0D890473448
:10022800D96E4834DA6EFE0ED926010EDA22010E96
:10023800DBBE29EF01F0010EDB5009E10C0EDE5C9C
:10024800D8A029EF01F02BEF01F049EF01F0D89089
:100258004734D96E4834DA6EFE0ED926010EDA22FA
:10026800EA0EDE26FF0EDD22D8904734D96E4834D8
:10027800DA6E000ED926020EDA22FF0EDE6EFF0EAF
:10028800DD6E474A482AA8EF01F0D8904734D96E66
:100298004834DA6EFE0ED926010EDA22DE2806E18F
:1002A800DE28D8A45AEF01F05CEF01F069EF01F005
:1002B800D8904734D96E4834DA6EFE0ED926010E2E
:1002C800DA22FE0EDE6EFF0EDD6ED8904734D96E50
:1002D8004834DA6EFE0ED926010EDA22FE0EDE183A
:1002E80006E1DE28D8A47BEF01F07DEF01F08AEF6C
:1002F80001F0D8904734D96E4834DA6EFE0ED9260C
:10030800010EDA22FF0EDE6EFF0EDD6ED890473446
:10031800D96E4834DA6E000ED926020EDA22160E8D
:10032800DE6E000EDD6E474A482AD8904734D96EF3
:100338004834DA6E000ED926020EDA22FE0EDE6E80
:10034800FF0EDD6E474A482A040E2B182C10D8A43D
:10035800B0EF01F0B2EF01F06AEF02F02DC021F02A
:100368002EC022F02FC023F030C024F0000E266EDD
:10037800210E256E05EC0DF02DC021F02EC022F0C7
:100388002FC023F030C024F06EEC0FF02DC021F008
:100398002EC022F02FC023F030C024F014EC08F057
:1003A800D8904734D96E4834DA6EFE0ED926010E3D
:1003B800DA22010EDBBEEBEF01F0010EDB5009E1A2
:1003C8000C0EDE5CD8A0EBEF01F0EDEF01F00BEFC7
:1003D80002F0D8904734D96E4834DA6EFE0ED9262A
:1003E800010EDA22EA0EDE26FF0EDD22D89047340F
:1003F800D96E4834DA6E000ED926020EDA22FE0EC5
:10040800DE6EFF0EDD6E474A482A6AEF02F0D8908A
:100418004734D96E4834DA6EFE0ED926010EDA2238
:10042800DE2806E1DE28D8A41CEF02F01EEF02F059
:100438002BEF02F0D8904734D96E4834DA6EFE0EAE
:10044800D926010EDA22FE0EDE6EFF0EDD6ED89082
:100458004734D96E4834DA6EFE0ED926010EDA22F8
:10046800FE0EDE1806E1DE28D8A43DEF02F03FEFCD
:1004780002F04CEF02F0D8904734D96E4834DA6E67
:10048800FE0ED926010EDA22FF0EDE6EFF0EDD6E9D
:10049800D8904734D96E4834DA6E000ED926020E49
:1004A800DA22160EDE6E000EDD6E474A482AD89014
:1004B8004734D96E4834DA6E000ED926020EDA2295
:1004C800FF0EDE6EFF0EDD6E474A482A050E2B181A
:1004D8002C10D8A472EF02F074EF02F08DEF02F046
:1004E8002DC021F02EC022F02FC023F030C024F000
:1004F800A1EC0AF0D8904734D96E4834DA6E000E71
:10050800D926020EDA22FD0EDE6EFF0EDD6E474A98
:10051800482A060E2B182C10D8A495EF02F097EF56
:1005280002F0B0EF02F02DC021F02EC022F02FC053
:1005380023F030C024F035EC0BF0D8904734D96E56
:100548004834DA6E000ED926020EDA22FC0EDE6E70
:10055800FF0EDD6E474A482A070E2B182C10D8A428
:10056800B8EF02F0BAEF02F0DDEF02F0000E366EDF
:10057800000E356E2DC021F02EC022F02FC023F0C2
:1005880030C024F0C1EC08F0354A362A36BED6EF22
:1005980002F0365009E1020E355CD8A0D6EF02F021
:1005A800D8EF02F0BEEF02F0000E0001F96F010E65
:1005B800F86F2C5009E1080E2B5CD8A0E6EF02F08A
:1005C800E8EF02F0F6EF02F02DC021F02EC022F085
:1005D8002FC023F030C024F0000E266E0B0E256EBF
:1005E8003FEC0DF01200000E0F6E040E0E6EB7EC0D
:1005F8000FF0120E336EDC0E326E600EE82EFED750
:10060800322EFCD7332EFAD780EC0EF012C0EAF067
:1006180013C0EBF00001EC6BED6B000E0F6E020ED9
:100628000E6EB7EC0FF0120E336EDC0E326E600EEB
:10063800E82EFED7322EFCD7332EFAD7A8EC0EF0D0
:1006480012C0EEF013C0EFF00001F06BF16B000E7A
:100658000F6E010E0E6EB7EC0FF0120E336EDC0E3D
:10066800326E600EE82EFED7322EFCD7332EFAD724
:10067800F8EC0EF012C0F2F013C0F3F00001F46BC6
:10068800F56B000E0F6E000E0E6EB7EC0FF03950C2
:100698000001EA5D3A50EB593B50EC593C50ED599A
:1006A800D8B059EF03F05BEF03F065EF03F0000EED
:1006B800CA6F000ECB6F000ECC6F000ECD6F9AEF95
:1006C80003F03950EA5D0E6E3A50EB590F6E3B500D
:1006D800EC59106E3C50ED59116E640E126E000EFE
:1006E800136E000E146E000E156EECEC0DF00EC0BD
:1006F8001AF00FC01BF010C01CF011C01DF03950CB
:100708000001605D1E6E3A5061591F6E3B50625980
:10071800206E3C506359216E1EEC0CF01AC0CAF0D2
:100728001BC0CBF01CC0CCF01DC0CDF0CAC0DEF0A1
:10073800CBC0DFF0CCC0E0F0CDC0E1F03D5000010F
:10074800EE5D3E50EF593F50F0594050F159D8B046
:10075800B0EF03F0B2EF03F0BCEF03F0000ECE6F82
:10076800000ECF6F000ED06F000ED16FF1EF03F0C7
:100778003D50EE5D0E6E3E50EF590F6E3F50F059F2
:10078800106E4050F159116E640E126E000E136E09
:10079800000E146E000E156EECEC0DF00EC01AF083
:1007A8000FC01BF010C01CF011C01DF03D5000011F
:1007B800645D1E6E3E5065591F6E3F506659206E2F
:1007C80040506759216E1EEC0CF01AC0CEF01BC0C9
:1007D800CFF01CC0D0F01DC0D1F0CEC0E2F0CFC029
:1007E800E3F0D0C0E4F0D1C0E5F041500001F25D83
:1007F8004250F3594350F4594450F559D8B007EFD3
:1008080004F009EF04F013EF04F0000ED26F000EAD
:10081800D36F000ED46F000ED56F48EF04F041502F
:10082800F25D0E6E4250F3590F6E4350F459106E3C
:100838004450F559116E640E126E000E136E000EC0
:10084800146E000E156EECEC0DF00EC01AF00FC011
:100858001BF010C01CF011C01DF041500001685D74
:100868001E6E425069591F6E43506A59206E44509B
:100878006B59216E1EEC0CF01AC0D2F01BC0D3F0DD
:100888001CC0D4F01DC0D5F0D2C0E6F0D3C0E7F04C
:10089800D4C0E8F0D5C0E9F020EEDEF000EE14F0A8
:1008A8000B0EDBCFEBFFE806FCE221EE00F000EEDA
:1008B80020F00B0EDBCFEBFFE806FCE2A6EC06F01F
:1008C80014C0D6F015C0D7F0000E0001D96F000E85
:1008D800D86F000EDD6F010EDC6FDCC00EF0DDC0DE
:1008E8000FF0000E116E0C0E106E7AEC10F0000E68
:1008F8000E24D96E010E0F20DA6E10EEBEF00B0E2C
:10090800DBCFE3FFE806FCE220EEDEF000EE14F0B9
:100918000B0EDBCFEBFFE806FCE220EEBEF000EEAC
:1009280020F00B0EDBCFEBFFE806FCE2A6EC06F0AE
:1009380014C0DAF015C0DBF00001D651DA5DD751EA
:10094800DB59D8B0AAEF04F0ACEF04F0B4EF04F030
:10095800DCC0D8F0DDC0D9F0DAC0D6F0DBC0D7F003
:10096800DC4BDD2BDD5109E1090EDC5DD8A0BFEFC2
:1009780004F0C1EF04F071EF04F0D8C030F0D9C032
:1009880031F01200ADEF05F0D8904734D96E4834F5
:10099800DA6EFE0ED926010EDA22DE2806E1DE28FE
:1009A800D8A4D9EF04F0DBEF04F0E7EF04F02BC094
:1009B80021F02CC022F02DC023F02EC024F014EC1E
:1009C80008F0A0EF05F0D8904734D96E4834DA6EB5
:1009D800FE0ED926010EDA22FE0EDE1806E1DE280A
:1009E800D8A4F9EF04F0FBEF04F007EF05F02BC0F3
:1009F80021F02CC022F02DC023F02EC024F0C1EC31
:100A080008F0A0EF05F0D8904734D96E4834DA6E74
:100A1800FE0ED926010EDA22FD0EDE1806E1DE28CA
:100A2800D8A419EF05F01BEF05F027EF05F02BC050
:100A380021F02CC022F02DC023F02EC024F035EC7C
:100A48000BF0A0EF05F0D8904734D96E4834DA6E31
:100A5800FE0ED926010EDA22FC0EDE1806E1DE288B
:100A6800D8A439EF05F03BEF05F047EF05F02BC0B0
:100A780021F02CC022F02DC023F02EC024F0A1ECD0
:100A88000AF0A0EF05F0D8904734D96E4834DA6EF2
:100A9800FE0ED926010EDA22010EDBBE5DEF05F04F
:100AA800010EDB5008E1DE04D8A05DEF05F05FEF32
:100AB80005F0A0EF05F02BC021F02CC022F02DC0CE
:100AC80023F02EC024F0D8904734D96E4834DA6E1B
:100AD800FE0ED926010EDA22DECF25F0DDCF26F074
:100AE8003FEC0DF0110E306E3C0E2F6ECB0EE82E43
:100AF800FED72F2EFCD7302EFAD700F02BC021F0CE
:100B08002CC022F02DC023F02EC024F0000E266E3B
:100B18000B0E256E3FEC0DF02BC021F02CC022F0FF
:100B28002DC023F02EC024F0000E266E0B0E256E6D
:100B380005EC0DF0A0EF05F02BC021F02CC022F041
:100B48002DC023F02EC024F06EEC0FF04706D8A07D
:100B5800480648BEBAEF05F0485006E14704D8B049
:100B6800B8EF05F0BAEF05F0C8EF04F047504810A9
:100B7800D8A4C1EF05F0C3EF05F0C8EF05F0000EEB
:100B88000001F96F020EF86F120069EC09F0AFEC82
:100B980010F0D9EC10F0000E0F6E630E0E6EBDEC67
:100BA8000CF00E01B4958684000E0101A06F010EB1
:100BB800A16F010EA26FAA0EA56F0F0EA66FA60E4B
:100BC800A76F0F0EA86F000EA46F630EA36F000E21
:100BD800A96F010EAA6F010EAB6F250EAE6F0F0E37
:100BE800AF6F210EB06F0F0EB16F000EAD6F630EB9
:100BF800AC6F520E386E2B0E376E000EE82EFED7F5
:100C0800372EFCD7382EFAD700D0A00E216E010E51
:100C1800226EA90E236E010E246E53EC0EF0000E08
:100C28000F6E010E0E6EBFEC10F0E5EC10F00EC06A
:100C38009EF10FC09FF121EC0EF014041510D8A4FA
:100C480028EF06F02AEF06F088EF06F001019E5122
:100C58009F11D8A432EF06F034EF06F088EF06F0C3
:100C6800000E0F6E000E0E6EBFEC10F093EC0FF03E
:100C7800A00E216E010E226EA90E236E010E246EA7
:100C88006EEC0FF0F7EC02F030C09CF131C09DF132
:100C9800A00E216E010E226EA90E236E010E246E87
:100CA800000E266E050E256E3FEC0DF09CC12BF054
:100CB8009DC12CF0A00E2D6E010E2E6EA90E2F6E6A
:100CC800010E306E53EC00F001019E519F11D8A423
:100CD80070EF06F072EF06F013EF06F0A00E216E2B
:100CE800010E226EA90E236E010E246E6EEC0FF01B
:100CF800A00E216E010E226EA90E236E010E246E27
:100D080053EC0EF013EF06F001019E059F11D8A4D5
:100D180090EF06F092EF06F019EF06F0000E0F6E56
:100D2800000E0E6EBFEC10F0A00E2B6E010E2C6E96
:100D3800A90E2D6E010E2E6EC6EC04F019EF06F00A
:100D480051EF00F02050145C2150155822501658CD
:100D580023501758D8B0B3EF06F0B5EF06F0C4EF3C
:100D680006F01450205C0001AC6F15502158AD6F8F
:100D780016502258AE6F17502358AF6FD1EF06F0B8
:100D88002050145C0001AC6F21501558AD6F2250F3
:100D98001658AE6F23501758AF6FACC0B8F0ADC03F
:100DA800B9F02450185C2550195826501A58275065
:100DB8001B58D8B0E2EF06F0E4EF06F0F2EF06F0C9
:100DC8001850245CB06F19502558B16F1A50265826
:100DD800B26F1B502758B36FFEEF06F02450185C13
:100DE800B06F25501958B16F26501A58B26F275056
:100DF8001B58B36FB0C0BAF0B1C0BBF028501C5C30
:100E080029501D582A501E582B501F58D8B00FEF84
:100E180007F011EF07F01FEF07F01C50285CB46FC4
:100E28001D502958B56F1E502A58B66F1F502B58A1
:100E3800B76F2BEF07F028501C5CB46F29501D5872
:100E4800B56F2A501E58B66F2B501F58B76FB4C0D5
:100E5800BCF0B5C0BDF0B8C00EF0B9C00FF0B8C056
:100E680010F0B9C011F07AEC10F00EC02CF00FC0E1
:100E78002DF0BAC00EF0BBC00FF0BAC010F0BBC066
:100E880011F07AEC10F00E502C242E6E0F502D20FD
:100E98002F6EBCC00EF0BDC00FF0BCC010F0BDC0BE
:100EA80011F07AEC10F00E502E24146E0F502F20F3
:100EB800156E120020EE02F01B50D9261C50DA22C3
:100EC800DF50D8B46AEF07F06CEF07F0A0EF07F037
:100ED8001BC0D9FF1CC0DAFFDF501D6E1D500E6EFF
:100EE8000F6A20EE03F01B50D9261C50DA22DECF01
:100EF80010F0DDCF11F07AEC10F00EC014F00FC036
:100F080015F0000E176E640E166E79EC0DF020EEDB
:100F180003F01B50D9261C50DA22DF501E6E1450E5
:100F28001E5C1F6E20EE03F01B50D9261C50DA22DF
:100F3800DF50206EC3EF07F0000E1F6E1BC0D9FFF5
:100F48001CC0DAFFDF501D6E1D500E6E0F6A20EEBA
:100F580003F01B50D9261C50DA22DECF10F0DDCF6B
:100F680011F07AEC10F00EC014F00FC015F0000E5E
:100F7800176E640E166E79EC0DF01450206E20EE8C
:100F880001F01B50D9261C50DA22DF50D8B4CFEF1D
:100F980007F0D1EF07F0F3EF07F020EE05F01B5054
:100FA800D9261C50DA22DECF1DF0DDCF1EF01DC081
:100FB800D9FF1EC0DAFF1FC0DFFF20EE07F01B506D
:100FC800D9261C50DA22DECF1DF0DDCF1EF01DC061
:100FD800D9FF1EC0DAFF20C0DFFF13EF08F020EEB4
:100FE80005F01B50D9261C50DA22DECF1DF0DDCFCC
:100FF8001EF01DC0D9FF1EC0DAFF20C0DFFF20EEA3
:1010080007F01B50D9261C50DA22DECF1DF0DDCFA9
:101018001EF01DC0D9FF1EC0DAFF1FC0DFFF12007F
:10102800000E286E000E276E000E286E000E276E2A
:10103800000E2A6E2F0E296E20EE01F02150D926BF
:101048002250DA22010EDF6E20EE01F02350D9265D
:101058002450DA22000EDF6E21C0D9FF22C0DAFF49
:1010680029C0DFFF23C0D9FF24C0DAFF29C0DFFF72
:1010780021C01BF022C01CF05EEC07F023C01BF05F
:1010880024C01CF05EEC07F0050E266EB60E256E29
:101098002C0EE82EFED7252EFCD7262EFAD700D008
:1010A800050E2926000E2A222ABE64EF08F02A50CF
:1010B80009E13E0E295CD8A064EF08F066EF08F05D
:1010C80020EF08F0000E2A6E340E296E20EE01F093
:1010D8002150D9262250DA22010EDF6E20EE01F0CF
:1010E8002350D9262450DA22000EDF6E21C0D9FF02
:1010F80022C0DAFF29C0DFFF23C0D9FF24C0DAFFEE
:1011080029C0DFFF21C01BF022C01CF05EEC07F0F5
:1011180023C01BF024C01CF05EEC07F0050E266E01
:10112800A10E256E650EE82EFED7252EFCD7262E9D
:10113800FAD700F0FB0E2926FF0E2A222ABEB0EFAE
:1011480008F02A5007E1260E295CD8B0AEEF08F067
:10115800B0EF08F06AEF08F0274A282A28BEBEEF49
:1011680008F0285009E1020E275CD8A0BEEF08F06D
:10117800C0EF08F01CEF08F01200000E286E000EF9
:10118800276E000E2A6E1B0E296E20EE01F02150EC
:10119800D9262250DA22000EDF6E20EE01F023500D
:1011A800D9262450DA22010EDF6E21C0D9FF22C0D1
:1011B800DAFF29C0DFFF23C0D9FF24C0DAFF29C026
:1011C800DFFF21C01BF022C01CF05EEC07F023C03B
:1011D8001BF024C01CF05EEC07F0090E266EB00E62
:1011E800256E580EE82EFED7252EFCD7262EFAD7C8
:1011F80000D0050E2926000E2A222ABE0DEF09F07E
:101208002A5009E12A0E295CD8A00DEF09F00FEF4A
:1012180009F0C9EF08F0000E2A6E200E296E20EEA4
:1012280001F02150D9262250DA22000EDF6E20EE7E
:1012380001F02350D9262450DA22010EDF6E21C096
:10124800D9FF22C0DAFF29C0DFFF23C0D9FF24C09D
:10125800DAFF29C0DFFF21C01BF022C01CF05EECC2
:1012680007F023C01BF024C01CF05EEC07F0090E49
:10127800266E860E256ECA0EE82EFED7252EFCD7C2
:10128800262EFAD7FB0E2926FF0E2A222ABE58EF51
:1012980009F02A5007E1120E295CD8B056EF09F080
:1012A80058EF09F013EF09F0274A282A28BE66EFFD
:1012B80009F0285009E1020E275CD8A066EF09F072
:1012C80068EF09F0C5EF08F012003DEC10F0010ED0
:1012D800106E000E9FEC10F03F0E236E550EE82E98
:1012E800FED7232EFCD700F0030E106E000E9FECE5
:1012F80010F0D50E106E010E9FEC10F0869E8792AE
:10130800819820EE9CF011EE00F00B0EDBCFE3FF8E
:10131800E806FCE220EE90F011EE0CF00B0EDBCFAD
:10132800E3FFE806FCE220EE84F011EE18F00B0E65
:10133800DBCFE3FFE806FCE220EE78F011EE24F0C4
:101348000B0EDBCFE3FFE806FCE220EE6CF011EEBB
:1013580030F00B0EDBCFE3FFE806FCE221EE90F065
:1013680011EE3CF00B0EDBCFE3FFE806FCE221EECA
:1013780084F011EE48F00B0EDBCFE3FFE806FCE249
:1013880021EE78F011EE54F00B0EDBCFE3FFE80608
:10139800FCE221EE6CF011EE60F00B0EDBCFE3FF08
:1013A800E806FCE286860E01B4978684B4958EA67C
:1013B800E0EF09F0E2EF09F0E9EF09F08EB4E7EFAA
:1013C80009F0E9EF09F0DBEF09F08EB4EEEF09F070
:1013D800F0EF09F0F2EF09F004EF0AF0C9EC0BF0B6
:1013E8008EB6F9EF09F0FBEF09F0F4EF09F005EC20
:1013F8000AF08EB602EF0AF004EF0AF0FDEF09F0EA
:101408001200000E0F6E040E0E6EB7EC0FF0120EE7
:101418001C6EDC0E1B6E600EE82EFED71B2EFCD752
:101428001C2EFAD780EC0EF012C039F013C03AF037
:101438003B6A3C6A000E0F6E020E0E6EB7EC0FF0A0
:10144800120E1C6EDC0E1B6E600EE82EFED71B2ED5
:10145800FCD71C2EFAD7A8EC0EF012C03DF013C032
:101468003EF03F6A406A000E0F6E010E0E6EB7EC3A
:101478000FF0120E1C6EDC0E1B6E600EE82EFED7EF
:101488001B2EFCD71C2EFAD7F8EC0EF012C041F038
:1014980013C042F0436A446A000E0F6E000E0E6ECF
:1014A800B7EC0FF0120E1C6EDC0E1B6E600EE82EF1
:1014B800FED71B2EFCD71C2EFAD7D0EC0EF012C08C
:1014C8001DF013C01EF0000E0F6E070E0E6EB7EC67
:1014D8000FF0120E1C6EDC0E1B6E600EE82EFED78F
:1014E8001B2EFCD71C2EFAD7D0EC0EF012C01FF022
:1014F80013C020F0000E0F6E000E0E6EB7EC0FF04A
:101508001DC016F01EC017F01FC014F020C015F043
:1015180079EC0DF014C021F015C022F021C014F0B0
:1015280022C015F0000E176E050E166E79EC0DF040
:1015380014C0AAF015C0ABF01200000E286E190EE8
:10154800276E20EE01F02150D9262250DA22000E13
:10155800DF6E20EE01F02350D9262450DA22010E46
:10156800DF6E21C0D9FF22C0DAFF27C0DFFF23C00A
:10157800D9FF24C0DAFF27C0DFFF21C01BF022C03B
:101588001CF05EEC07F023C01BF024C01CF05EECDE
:1015980007F00E0E266E120E256E690EE82EFED787
:1015A800252EFCD7262EFAD700F0050E2726000E8A
:1015B800282228BEE9EF0AF0285009E1280E275C06
:1015C800D8A0E9EF0AF0EBEF0AF0A5EF0AF0000E59
:1015D800286E1E0E276E20EE01F02150D9262250CB
:1015E800DA22000EDF6E20EE01F02350D9262450B7
:1015F800DA22010EDF6E21C0D9FF22C0DAFF27C030
:10160800DFFF23C0D9FF24C0DAFF27C0DFFF21C0D6
:101618001BF022C01CF05EEC07F023C01BF024C0B6
:101628001CF05EEC07F00D0E266EBF0E256E4C0EFC
:10163800E82EFED7252EFCD7262EFAD7FB0E272616
:10164800FF0E282228BE34EF0BF0285007E1100EB9
:10165800275CD8B032EF0BF034EF0BF0EFEF0AF065
:101668001200000E286E170E276E20EE01F0215092
:10167800D9262250DA22010EDF6E20EE01F0235027
:10168800D9262450DA22000EDF6E21C0D9FF22C0ED
:10169800DAFF27C0DFFF23C0D9FF24C0DAFF27C045
:1016A800DFFF21C01BF022C01CF05EEC07F023C056
:1016B8001BF024C01CF05EEC07F00D0E266EAA0E7F
:1016C800256E840EE82EFED7252EFCD7262EFAD7B7
:1016D80000D0050E2726000E282228BE7DEF0BF02D
:1016E800285009E1260E275CD8A07DEF0BF07FEF8C
:1016F8000BF039EF0BF0000E286E1C0E276E20EE53
:1017080001F02150D9262250DA22010EDF6E20EE98
:1017180001F02350D9262450DA22000EDF6E21C0B2
:10172800D9FF22C0DAFF27C0DFFF23C0D9FF24C0BA
:10173800DAFF27C0DFFF21C01BF022C01CF05EECDF
:1017480007F023C01BF024C01CF05EEC07F00D0E60
:10175800266E2D0E256ED80EE82EFED7252EFCD728
:10176800262EFAD7FB0E2726FF0E282228BEC8EF02
:101778000BF0285007E10E0E275CD8B0C6EF0BF02F
:10178800C8EF0BF083EF0BF01200000E0F6E040E83
:101798000E6EB7EC0FF0120E1A6EDC0E196E600E9C
:1017A800E82EFED7192EFCD71A2EFAD780EC0EF0A9
:1017B80012C060F013C061F00001626B636B000E31
:1017C8000F6E020E0E6EB7EC0FF0120E1A6EDC0ED4
:1017D800196E600EE82EFED7192EFCD71A2EFAD7EE
:1017E800A8EC0EF012C064F013C065F00001666B3F
:1017F800676B000E0F6E010E0E6EB7EC0FF0120E37
:101808001A6EDC0E196E600EE82EFED7192EFCD764
:101818001A2EFAD7F8EC0EF012C068F013C069F06F
:1018280000016A6B6B6B000E0F6E000E0E6EB7EC4C
:101838000FF01200000E226E000E236E000E246EB2
:10184800000E256E1E501F1020102110D8B42FEF47
:101858000CF031EF0CF067EF0CF0010E266E3BEF49
:101868000CF0D8901E361F3620362136262A21AE97
:1018780040EF0CF042EF0CF035EF0CF0D890223628
:101888002336243625361E501A5C1F501B5820500C
:101898001C5821501D58D8A054EF0CF056EF0CF0EE
:1018A8005FEF0CF01E501A5E1F501B5A20501C5A36
:1018B80021501D5A2280D890213220321F321E32E8
:1018C800262E42EF0CF022C01AF023C01BF024C0D1
:1018D8001CF025C01DF012001A0EF66E210EF76ED0
:1018E800000EF86E01EE78F010EE24F00900F5CF46
:1018F800EEFFE550E150FAE1900EF66E1E0EF76E1F
:10190800000EF86E00EE60F010EE4CF00900F5CF16
:10191800EEFFE550E150FAE1980EF66E210EF76EF3
:10192800000EF86E00EE39F010EE0EF00900F5CF5B
:10193800EEFFE550E150FAE102EE00F0C80EEE6A63
:10194800E806FDE101EE00F0780EEE6AE806FDE13A
:1019580000EEEAF0120EEE6AE806FDE100EE47F04E
:10196800080EEE6AE806FDE14F904F920001C9EFBC
:1019780005F08594839E879C85987D947B9E7F9CAB
:101988007D98050E0E01746F060E766F070E696F4F
:10199800080E886FBD508F0B4009BD6EE00EBE1655
:1019A800BF50F00B0109BF6E630EBC6EBD8E000EFA
:1019B800AA6E000EA66E000E0F01256F000E216F95
:1019C800FC0EAD16F30EAD16CF0EAD163F0EAD16CE
:1019D800AB88AB50F00B0C09AB6EAB8EA788A75049
:1019E800F00B0C09A76EA78E26892651F00B0C095F
:1019F800266F268F22892251F00B0C09226F228F25
:101A08001200000E4A6E000E496E33EF0DF020EE04
:101A180001F02150D9262250DA22010EDF6E20EE85
:101A280001F02350D9262450DA22010EDF6E21C09E
:101A3800D9FF22C0DAFF280EDF6E23C0D9FF24C0E9
:101A4800DAFF270EDF6E21C01BF022C01CF05EEC0F
:101A580007F023C01BF024C01CF05EEC07F02550F3
:101A6800495C26504A58D8A03CEF0DF03EEF0DF0E7
:101A78000BEF0DF01200000E4A6E000E496E6DEF6E
:101A88000DF020EE01F02150D9262250DA22000E66
:101A9800DF6E20EE01F02350D9262450DA22000E02
:101AA800DF6E21C0D9FF22C0DAFF320EDF6E23C0FD
:101AB800D9FF24C0DAFF320EDF6E21C01BF022C02E
:101AC8001CF05EEC07F023C01BF024C01CF05EEC99
:101AD80007F02550495C26504A58D8A076EF0DF0FB
:101AE80078EF0DF045EF0DF01200000E1A6E000EA3
:101AF800196E16501710D8B484EF0DF086EF0DF05C
:101B0800AEEF0DF0010E186E8EEF0DF0D890163670
:101B18001736182A17AE93EF0DF095EF0DF08AEFF0
:101B28000DF0D89019361A361650145C17501558FF
:101B3800D8A0A1EF0DF0A3EF0DF0A8EF0DF016500F
:101B4800145E1750155A1980D89017321632182E6D
:101B580095EF0DF019C014F01AC015F0120000012D
:101B6800FA51FB11D8A4BBEF0DF0BDEF0DF0BFEF9C
:101B78000DF0EBEF0DF00C500D10D8A4C6EF0DF0E2
:101B8800C8EF0DF0D6EF0DF020EC0FF005C04DF0CA
:101B980006C04EF0000E026E070E016ED9EC0FF073
:101BA800EBEF0DF00C040D10D8A4DDEF0DF0DFEF16
:101BB8000DF0EBEF0DF020EC0FF005C04BF006C078
:101BC8004CF0000E026E000E016ED9EC0FF0120000
:101BD800000E166E000E176E000E186E000E196EAF
:101BE8000EA0F9EF0DF0FBEF0DF003EF0EF0125021
:101BF8001626135017221450182215501922D8905F
:101C08001236133614361536D890113210320F3278
:101C18000E320E500F1010101110D8A416EF0EF03F
:101C280018EF0EF0F4EF0DF016C00EF017C00FF01D
:101C380018C010F019C011F012004D504E10D8B451
:101C480028EF0EF02AEF0EF033EF0EF04B504C1049
:101C5800D8A431EF0EF033EF0EF039EF0EF0000E8E
:101C6800156E000E146E52EF0EF04DC00EF04EC001
:101C78000FF0AAC010F0ABC011F07AEC10F00E50C3
:101C88004B5C0F504C58D8B04CEF0EF04FEF0EF0A5
:101C9800010E50EF0EF0000E146E156A1200000EC1
:101CA8004A6E000E496E20EE01F02150D9262250CE
:101CB800DA22000EDF6E20EE01F02350D9262450E0
:101CC800DA22000EDF6E21C0D9FF22C0DAFF320E01
:101CD800DF6E23C0D9FF24C0DAFF320EDF6E21C0C9
:101CE8001BF022C01CF05EEC07F023C01BF024C0E0
:101CF8001CF05EEC07F01200EFEC10F0520ED3EC83
:101D080010F0B60ED3EC10F0F4EC10F0530ED3EC48
:101D180010F0010EFBEC0FF0146E1450176E186AD9
:101D2800000EFBEC0FF0146E1450166E156A175067
:101D38001510176E18501610186EEAEC10F017C030
:101D480012F018C013F01200EFEC10F0520ED3ECA2
:101D580010F0B80ED3EC10F0F4EC10F0530ED3ECF6
:101D680010F0010EFBEC0FF0146E1450176E186A89
:101D7800000EFBEC0FF0146E1450166E156A175017
:101D88001510176E18501610186EEAEC10F017C0E0
:101D980012F018C013F01200EFEC10F0520ED3EC52
:101DA80010F0B40ED3EC10F0F4EC10F0530ED3ECAA
:101DB80010F0010EFBEC0FF0146E1450176E186A39
:101DC800000EFBEC0FF0146E1450166E156A1750C7
:101DD8001510176E18501610186EEAEC10F017C090
:101DE80012F018C013F01200EFEC10F0520ED3EC02
:101DF80010F0BA0ED3EC10F0F4EC10F0530ED3EC54
:101E080010F0010EFBEC0FF0146E1450176E186AE8
:101E1800000EFBEC0FF0146E1450166E156A175076
:101E28001510176E18501610186EEAEC10F017C03F
:101E380012F018C013F01200FEEC10F0520EDFEC96
:101E480010F0B40EDFEC10F003EC11F0530EDFECE1
:101E580010F0010E1CEC10F0076E07500A6E0B6AAA
:101E6800000E1CEC10F0076E0750096E086A0A5045
:101E780008100A6E0B5009100B6EF9EC10F00AC02E
:101E880005F00BC006F01200FC280000551B0000EE
:101E9800700700004D0000003C00000040000000FA
:101EA8005D0000004C00000014000000030000006A
:101EB800090000002400000019000000360000009E
:101EC80008000000480000000200000002000000B6
:101ED800DC000F0021C0D9FF22C0DAFF000EDF6E40
:101EE80023C0D9FF24C0DAFF000EDF6E21C01BF02B
:101EF80022C01CF05EEC07F023C01BF024C01CF0CD
:101F08005EEC07F0520E266E2B0E256E000EE82EA4
:101F1800FED7252EFCD7262EFAD700D012004ABEAF
:101F28009FEF0FF04A5009E1170E495CD8A09FEFC8
:101F38000FF0A1EF0FF0B6EF0FF0F50E49240E6E7B
:101F4800FF0E4A200F6ED8904734D96E4834DA6EA7
:101F5800000ED926020EDA220EC0DEFF0FC0DDFF0A
:101F6800474A482A12000EA4BCEF0FF0BEEF0FF04C
:101F7800C1EF0FF07F82C2EF0FF07F920EA2C7EF82
:101F88000FF0C9EF0FF0CCEF0FF07988CDEF0FF01D
:101F980079980EA0D2EF0FF0D4EF0FF0D7EF0FF033
:101FA8007E8ED8EF0FF07E9E120001A4DEEF0FF0B8
:101FB800E0EF0FF0E3EF0FF07F82E4EF0FF07F9296
:101FC80001A2E9EF0FF0EBEF0FF0EEEF0FF07988D9
:101FD800EFEF0FF0799801A0F4EF0FF0F6EF0FF0A4
:101FE800F9EF0FF07E8EFAEF0FF07E9E1200106E62
:101FF80052EC10F00E01DA8752EC10F0D5CE11F049
:1020080052EC10F01050D8B40CEF10F010EF10F0A4
:102018000F6A0F2A11EF10F00F6A0F3A0F460E01E0
:10202800DA510F18DF0B0F18DA6FDA891150120026
:10203800036E66EC10F00E01DA8766EC10F0D5CE70
:1020480004F066EC10F00350D8B42DEF10F031EF27
:1020580010F0026A022A32EF10F0026A023A0246CF
:102068000E01DA510218DF0B0218DA6FDA89045010
:1020780012000E01D951F00B0809D96FD98B9F0EA8
:10208800D66F848A848CA79BA79D1D0E1D6F1E0E7C
:102098001C6F1C0E6F6F1B0E706F12000E01D8B5EF
:1020A80058EF10F05AEF10F052EF10F0DACE0EF0B1
:1020B8001F0E0E16D8A463EF10F065EF10F052EF64
:1020C80010F012000E01D8B56CEF10F06EEF10F0A2
:1020D80066EF10F0DACE01F01F0E0116D8A477EFE4
:1020E80010F079EF10F066EF10F012000E501002A9
:1020F800F3CF12F0F4CF13F00E501102F350132661
:102108000F501002F350132612C00EF013C00FF038
:102118001200640000006400000064000000260053
:10212800000048000000540000005C000000270088
:1021380000001C000000116EEFEC10F0520ED3EC02
:1021480010F011508009D3EC10F01050D3EC10F0BF
:10215800EAEC10F01200D6501F0B4009D66ED68854
:10216800D650F00B0809D66EFD0ED46E900ED36EC5
:10217800D588D58E12000EC0FAF00FC0FBF0000E05
:102188004E6E000E4D6E000E4C6E000E4B6E120021
:10219800040400004B020000A100000014000F6EB0
:1021A80052EC10F00FC0D5FE1200F28C0E01298BF4
:1021B8002B81F28E1200026E66EC10F002C0D5FE82
:1021C8001200F8C00EF0F9C00FF0120052EC10F037
:1021D8000E01DA85120052EC10F00E01DA811200BD
:1021E80052EC10F00E01DA83120066EC10F00E01CA
:1021F800DA85120066EC10F00E01DA81120066EC46
:0E22080010F00E01DA831200494A4A2A120031
:020000040020DA
:10000000FF0FFF0FFF0FFF0FFF0FFF0FFF0FFF0F80
:020000040030CA
:0C000000AAFFFFFF9FFFFFFFFFFFFFFFB5
:00000001FF
