:040000004FEF00F0CE
:100008004E820E0133AB0BEF00F00DEF00F04DEF19
:1000180000F00A0E3E26000E3F220A0E3E183F1040
:10002800D8A419EF00F01BEF00F021EF00F0E5EC89
:1000380010F0000E3F6E000E3E6E160E3C183D107E
:10004800D8A429EF00F02BEF00F033EF00F0000EFA
:100058000D6E000E0C6E40EC0EF047EF00F02C0E0B
:100068003C183D10D8A43BEF00F03DEF00F047EFFF
:1000780000F0000E0D6E010E0C6E40EC0EF0000E3E
:100088003D6E000E3C6EFD0ED46E900ED36E0E01CA
:10009800339B4E92110067EF0CF030C024F031C052
:1000A80025F032C026F033C027F0000E296E0B0E63
:1000B800286EFEEC0CF030C024F031C025F032C0C0
:1000C80026F033C027F035EC0FF02E502F10D8A4AF
:1000D80070EF00F072EF00F08BEF00F030C024F00A
:1000E80031C025F032C026F033C027F0B5EC08F057
:1000F800D8904234D96E4334DA6E000ED926020EF7
:10010800DA22FF0EDE6EFF0EDD6E424A432A2E040F
:100118002F10D8A492EF00F094EF00F0ADEF00F0AC
:1001280030C024F031C025F032C026F033C027F0AB
:1001380008EC08F0D8904234D96E4334DA6E000ED9
:10014800D926020EDA22FE0EDE6EFF0EDD6E424A60
:10015800432A020E2E182F10D8A4B5EF00F0B7EFDF
:1001680000F0E4EF00F0000E376E000E366E30C07F
:1001780024F031C025F032C026F033C027F0B5ECAA
:1001880008F0D8904234D96E4334DA6E000ED9267E
:10019800020EDA22FF0EDE6EFF0EDD6E424A432AA1
:1001A800364A372A37BEE2EF00F0375009E1020E2F
:1001B800365CD8A0E2EF00F0E4EF00F0BBEF00F00F
:1001C800030E2E182F10D8A4ECEF00F0EEEF00F07D
:1001D800A6EF01F030C024F031C025F032C026F07F
:1001E80033C027F0000E296E210E286EFEEC0CF0AD
:1001F80030C024F031C025F032C026F033C027F0DB
:1002080035EC0FF030C024F031C025F032C026F0B4
:1002180033C027F0B5EC08F0D8904234D96E433497
:10022800DA6EFE0ED926010EDA22010EDBBE27EFAA
:1002380001F0010EDB5009E10C0EDE5CD8A027EFBF
:1002480001F029EF01F047EF01F0D8904234D96E60
:100258004334DA6EFE0ED926010EDA22EA0EDE26C5
:10026800FF0EDD22D8904234D96E4334DA6E000E88
:10027800D926020EDA22FF0EDE6EFF0EDD6E424A2E
:10028800432AA6EF01F0D8904234D96E4334DA6E8F
:10029800FE0ED926010EDA22DE2806E1DE28D8A4D1
:1002A80058EF01F05AEF01F067EF01F0D8904234AF
:1002B800D96E4334DA6EFE0ED926010EDA22FE0E0E
:1002C800DE6EFF0EDD6ED8904234D96E4334DA6E9E
:1002D800FE0ED926010EDA22FE0EDE1806E1DE2811
:1002E800D8A479EF01F07BEF01F088EF01F0D89006
:1002F8004234D96E4334DA6EFE0ED926010EDA2264
:10030800FF0EDE6EFF0EDD6ED8904234D96E433498
:10031800DA6E000ED926020EDA22160EDE6E000EF6
:10032800DD6E424A432AD8904234D96E4334DA6E9D
:10033800000ED926020EDA22FE0EDE6EFF0EDD6EEC
:10034800424A432A040E2E182F10D8A4AEEF01F00B
:10035800B0EF01F068EF02F030C024F031C025F0B2
:1003680032C026F033C027F0000E296E210E286E09
:10037800FEEC0CF030C024F031C025F032C026F07D
:1003880033C027F035EC0FF030C024F031C025F031
:1003980032C026F033C027F008EC08F0D890423479
:1003A800D96E4334DA6EFE0ED926010EDA22010E1A
:1003B800DBBEE9EF01F0010EDB5009E10C0EDE5C5B
:1003C800D8A0E9EF01F0EBEF01F009EF02F0D890C7
:1003D8004234D96E4334DA6EFE0ED926010EDA2283
:1003E800EA0EDE26FF0EDD22D8904234D96E433461
:1003F800DA6E000ED926020EDA22FE0EDE6EFF0E2F
:10040800DD6E424A432A68EF02F0D8904234D96E32
:100418004334DA6EFE0ED926010EDA22DE2806E112
:10042800DE28D8A41AEF02F01CEF02F029EF02F040
:10043800D8904234D96E4334DA6EFE0ED926010EB6
:10044800DA22FE0EDE6EFF0EDD6ED8904234D96ED3
:100458004334DA6EFE0ED926010EDA22FE0EDE18BD
:1004680006E1DE28D8A43BEF02F03DEF02F04AEFA8
:1004780002F0D8904234D96E4334DA6EFE0ED92693
:10048800010EDA22FF0EDE6EFF0EDD6ED8904234CA
:10049800D96E4334DA6E000ED926020EDA22160E11
:1004A800DE6E000EDD6E424A432AD8904234D96E81
:1004B8004334DA6E000ED926020EDA22FF0EDE6E03
:1004C800FF0EDD6E424A432A050E2E182F10D8A4BF
:1004D80070EF02F072EF02F08BEF02F030C024F000
:1004E80031C025F032C026F033C027F098EC0AF06E
:1004F800D8904234D96E4334DA6E000ED926020EF3
:10050800DA22FD0EDE6EFF0EDD6E424A432A060E2B
:100518002E182F10D8A493EF02F095EF02F0AEEF4B
:1005280002F030C024F031C025F032C026F033C0CC
:1005380027F02CEC0BF0D8904234D96E4334DA6EA5
:10054800000ED926020EDA22FC0EDE6EFF0EDD6EDC
:10055800424A432A070E2E182F10D8A4B6EF02F0ED
:10056800B8EF02F0DAEF02F0000E396E000E386EC6
:1005780030C024F031C025F032C026F033C027F057
:10058800B5EC08F0384A392A39BED4EF02F03950B0
:1005980009E1020E385CD8A0D4EF02F0D6EF02F0E1
:1005A800BCEF02F0000E416E010E406E2F5009E1C3
:1005B800080E2E5CD8A0E3EF02F0E5EF02F0F3EFAF
:1005C80002F030C024F031C025F032C026F033C02C
:1005D80027F0000E296E0B0E286E38EC0DF0120075
:1005E800000E126E040E116EA2EC0FF0120E366E93
:1005F800DC0E356E600EE82EFED7352EFCD7362E73
:10060800FAD76DEC0EF015C0E6F016C0E7F0000161
:10061800E86BE96B000E126E020E116EA2EC0FF081
:10062800120E366EDC0E356E600EE82EFED7352EB5
:10063800FCD7362EFAD795EC0EF015C0EAF016C0A6
:10064800EBF00001EC6BED6B000E126E010E116EFB
:10065800A2EC0FF0120E366EDC0E356E600EE82E30
:10066800FED7352EFCD7362EFAD7E5EC0EF015C09E
:10067800EEF016C0EFF00001F06BF16B000E496E62
:10068800000E486E000E476E000E466E000E126E8B
:10069800000E116EA2EC0FF000016051E65D615191
:1006A800E7596251E8596351E959D8B05EEF03F050
:1006B80060EF03F06AEF03F0000EC66F000EC76F1D
:1006C800000EC86F000EC96F9FEF03F06051E65D22
:1006D800116E6151E759126E6251E859136E6351F8
:1006E800E959146E640E156E000E166E000E176E24
:1006F800000E186EACEC0DF011C01DF012C01EF00B
:1007080013C01FF014C020F0000160516C5D216E11
:1007180061516D59226E62516E59236E63516F5942
:10072800246E15EC0CF01DC0C6F01EC0C7F01FC02B
:10073800C8F020C0C9F0C6C0DAF0C7C0DBF0C8C036
:10074800DCF0C9C0DDF000016451EA5D6551EB5988
:100758006651EC596751ED59D8B0B5EF03F0B7EFD2
:1007680003F0C1EF03F0000ECA6F000ECB6F000E4E
:10077800CC6F000ECD6FF6EF03F06451EA5D116E99
:100788006551EB59126E6651EC59136E6751ED596C
:10079800146E640E156E000E166E000E176E000EA7
:1007A800186EACEC0DF011C01DF012C01EF013C095
:1007B8001FF014C020F000016451705D216E655176
:1007C8007159226E66517259236E67517359246E9E
:1007D80015EC0CF01DC0CAF01EC0CBF01FC0CCF049
:1007E80020C0CDF0CAC0DEF0CBC0DFF0CCC0E0F056
:1007F800CDC0E1F000016851EE5D6951EF596A51D1
:10080800F0596B51F159D8B00CEF04F00EEF04F029
:1008180018EF04F0000ECE6F000ECF6F000ED06FF1
:10082800000ED16F4DEF04F06851EE5D116E695105
:10083800EF59126E6A51F059136E6B51F159146EDB
:10084800640E156E000E166E000E176E000E186EF2
:10085800ACEC0DF011C01DF012C01EF013C01FF05B
:1008680014C020F000016851745D216E69517559FA
:10087800226E6A517659236E6B517759246E15ECA6
:100888000CF01DC0CEF01EC0CFF01FC0D0F020C0AD
:10089800D1F0CEC0E2F0CFC0E3F0D0C0E4F0D1C0D8
:1008A800E5F020EEDAF000EE17F00B0EDBCFEBFFF1
:1008B800E806FCE221EE00F000EE23F00B0EDBCFA1
:1008C800EBFFE806FCE29AEC06F017C0D2F018C07D
:1008D800D3F0000E0001D56F000ED46F000ED96F53
:1008E800010ED86FD8C011F0D9C012F0000E146EE6
:1008F8000C0E136E7DEC10F0000E1124D96E010E53
:100908001220DA6E10EEBAF00B0EDBCFE3FFE8062A
:10091800FCE220EEDAF000EE17F00B0EDBCFEBFF77
:10092800E806FCE220EEBAF000EE23F00B0EDBCF77
:10093800EBFFE806FCE29AEC06F017C0D6F018C008
:10094800D7F00001D251D65DD351D759D8B0AFEF07
:1009580004F0B1EF04F0B9EF04F0D8C0D4F0D9C076
:10096800D5F0D6C0D2F0D7C0D3F0D84BD92BD951B7
:1009780009E1090ED85DD8A0C4EF04F0C6EF04F071
:1009880076EF04F0D4C033F0D5C034F01200B2EFE3
:1009980005F0D8904234D96E4334DA6EFE0ED9266B
:1009A800010EDA22DE2806E1DE28D8A4DEEF04F004
:1009B800E0EF04F0ECEF04F02EC024F02FC025F097
:1009C80030C026F031C027F008EC08F0A5EF05F09C
:1009D800D8904234D96E4334DA6EFE0ED926010E11
:1009E800DA22FE0EDE1806E1DE28D8A4FEEF04F0B7
:1009F80000EF05F00CEF05F02EC024F02FC025F015
:100A080030C026F031C027F0B5EC08F0A5EF05F0AE
:100A1800D8904234D96E4334DA6EFE0ED926010ED0
:100A2800DA22FD0EDE1806E1DE28D8A41EEF05F056
:100A380020EF05F02CEF05F02EC024F02FC025F094
:100A480030C026F031C027F02CEC0BF0A5EF05F0F4
:100A5800D8904234D96E4334DA6EFE0ED926010E90
:100A6800DA22FC0EDE1806E1DE28D8A43EEF05F0F7
:100A780040EF05F04CEF05F02EC024F02FC025F014
:100A880030C026F031C027F098EC0AF0A5EF05F049
:100A9800D8904234D96E4334DA6EFE0ED926010E50
:100AA800DA22010EDBBE62EF05F0010EDB5008E131
:100AB800DE04D8A062EF05F064EF05F0A5EF05F0BD
:100AC8002EC024F02FC025F030C026F031C027F00A
:100AD800D8904234D96E4334DA6EFE0ED926010E10
:100AE800DA22DECF28F0DDCF29F038EC0DF0110E38
:100AF800336E3C0E326ECB0EE82EFED7322EFCD76C
:100B0800332EFAD700F02EC024F02FC025F030C0C5
:100B180026F031C027F0000E296E0B0E286E38EC37
:100B28000DF02EC024F02FC025F030C026F031C0C3
:100B380027F0000E296E0B0E286EFEEC0CF0A5EFC8
:100B480005F02EC024F02FC025F030C026F031C0AB
:100B580027F035EC0FF04206D8A0430643BEBFEF9E
:100B680005F0435006E14204D8B0BDEF05F0BFEFF1
:100B780005F0CDEF04F042504310D8A4C6EF05F0BD
:100B8800C8EF05F0CCEF05F0000E416E020E406E86
:100B98001200A0EC10F0B6EC10F0000E126E630E0E
:100BA800116EB6EC0CF0FCEC09F00E01B4958684DD
:100BB800000E0101AC6F010EAD6F010EAE6FAA0EF3
:100BC800B16F0F0EB26FA60EB36F0F0EB46F000E9B
:100BD800B06F630EAF6F000EB56F010EB66F010EEA
:100BE800B76F250EBA6F0F0EBB6F210EBC6F0F0EBD
:100BF800BD6F000EB96F630EB86F520E3B6E2B0EB1
:100C08003A6E000EE82EFED73A2EFCD73B2EFAD7C6
:100C180000D0AC0E246E010E256EB50E266E010EA8
:100C2800276E13EC0EF0C2EC10F011C0AAF112C03E
:100C3800ABF1E1EC0DF017041810D8A426EF06F07C
:100C480028EF06F080EF06F00101AA51AB11D8A4F5
:100C580030EF06F032EF06F080EF06F07EEC0FF092
:100C6800AC0E246E010E256EB50E266E010E276E93
:100C780035EC0FF0F4EC02F033C0A8F134C0A9F160
:100C8800AC0E246E010E256EB50E266E010E276E73
:100C9800000E296E050E286E38EC0DF0A8C12EF056
:100CA800A9C12FF0AC0E306E010E316EB50E326E4A
:100CB800010E336E51EC00F00101AA51AB11D8A41A
:100CC80068EF06F06AEF06F017EF06F0AC0E246E38
:100CD800010E256EB50E266E010E276E35EC0FF04F
:100CE800AC0E246E010E256EB50E266E010E276E13
:100CF80013EC0EF017EF06F00101AA05AB11D8A40A
:100D080088EF06F08AEF06F096EF06F0AC0E2E6E2E
:100D1800010E2F6EB50E306E010E316ECBEC04F065
:100D280017EF06F017EF06F04FEF00F02350175CAF
:100D3800245018582550195826501A58D8B0A7EFDB
:100D480006F0A9EF06F0B8EF06F01750235C000193
:100D5800A86F18502458A96F19502558AA6F1A500F
:100D68002658AB6FC5EF06F02350175C0001A86F3B
:100D780024501858A96F25501958AA6F26501A5888
:100D8800AB6FA8C0B4F0A9C0B5F027501B5C2850C1
:100D98001C5829501D582A501E58D8B0D6EF06F0B6
:100DA800D8EF06F0E6EF06F01B50275CAC6F1C503E
:100DB8002858AD6F1D502958AE6F1E502A58AF6F76
:100DC800F2EF06F027501B5CAC6F28501C58AD6F33
:100DD80029501D58AE6F2A501E58AF6FACC0B6F0E0
:100DE800ADC0B7F02B501F5C2C5020582D50215807
:100DF8002E502258D8B003EF07F005EF07F013EF95
:100E080007F01F502B5CB06F20502C58B16F215049
:100E18002D58B26F22502E58B36F1FEF07F02B508A
:100E28001F5CB06F2C502058B16F2D502158B26FF5
:100E38002E502258B36FB0C0B8F0B1C0B9F0B4C0EA
:100E480011F0B5C012F0B4C013F0B5C014F07DECC9
:100E580010F011C02FF012C030F0B6C011F0B7C0BA
:100E680012F0B6C013F0B7C014F07DEC10F01150BA
:100E78002F24316E12503020326EB8C011F0B9C034
:100E880012F0B8C013F0B9C014F07DEC10F0115096
:100E98003124176E12503220186E120020EE02F024
:100EA8001E50D9261F50DA22DF50D8B45EEF07F063
:100EB80060EF07F094EF07F01EC0D9FF1FC0DAFFFC
:100EC800DF50206E2050116E126A20EE03F01E5083
:100ED800D9261F50DA22DECF13F0DDCF14F07DECD7
:100EE80010F011C017F012C018F0000E1A6E640E40
:100EF800196E72EC0DF020EE03F01E50D9261F502B
:100F0800DA22DF50216E1750215C226E20EE03F0AA
:100F18001E50D9261F50DA22DF50236EB7EF07F094
:100F2800000E226E1EC0D9FF1FC0DAFFDF50206EF0
:100F38002050116E126A20EE03F01E50D9261F5061
:100F4800DA22DECF13F0DDCF14F07DEC10F011C003
:100F580017F012C018F0000E1A6E640E196E72ECBB
:100F68000DF01750236E20EE01F01E50D9261F50A9
:100F7800DA22DF50D8B4C3EF07F0C5EF07F0E7EF88
:100F880007F020EE05F01E50D9261F50DA22DECFDA
:100F980020F0DDCF21F020C0D9FF21C0DAFF22C028
:100FA800DFFF20EE07F01E50D9261F50DA22DECFD1
:100FB80020F0DDCF21F020C0D9FF21C0DAFF23C007
:100FC800DFFF07EF08F020EE05F01E50D9261F506E
:100FD800DA22DECF20F0DDCF21F020C0D9FF21C0FA
:100FE800DAFF23C0DFFF20EE07F01E50D9261F507E
:100FF800DA22DECF20F0DDCF21F020C0D9FF21C0DA
:10100800DAFF22C0DFFF1200000E2B6E000E2A6EE0
:10101800000E2B6E000E2A6E000E2D6E2F0E2C6EFB
:1010280020EE01F02450D9262550DA22010EDF6E79
:1010380020EE01F02650D9262750DA22000EDF6E66
:1010480024C0D9FF25C0DAFF2CC0DFFF26C0D9FF96
:1010580027C0DAFF2CC0DFFF24C01EF025C01FF018
:1010680052EC07F026C01EF027C01FF052EC07F024
:10107800050E296EB60E286E2C0EE82EFED7282EE9
:10108800FCD7292EFAD700D0050E2C26000E2D22CB
:101098002DBE58EF08F02D5009E13E0E2C5CD8A06B
:1010A80058EF08F05AEF08F014EF08F0000E2D6E14
:1010B800340E2C6E20EE01F02450D9262550DA2269
:1010C800010EDF6E20EE01F02650D9262750DA22D5
:1010D800000EDF6E24C0D9FF25C0DAFF2CC0DFFF69
:1010E80026C0D9FF27C0DAFF2CC0DFFF24C01EF0BE
:1010F80025C01FF052EC07F026C01EF027C01FF0D5
:1011080052EC07F0050E296EA10E286E650EE82E2A
:10111800FED7282EFCD7292EFAD700F0FB0E2C2656
:10112800FF0E2D222DBEA4EF08F02D5007E1260E4C
:101138002C5CD8B0A2EF08F0A4EF08F05EEF08F03E
:101148002A4A2B2A2BBEB2EF08F02B5009E1020ED7
:101158002A5CD8A0B2EF08F0B4EF08F010EF08F05E
:101168001200000E2B6E000E2A6E000E2D6E1B0E46
:101178002C6E20EE01F02450D9262550DA22000EDC
:10118800DF6E20EE01F02650D9262750DA22010E14
:10119800DF6E24C0D9FF25C0DAFF2CC0DFFF26C0D0
:1011A800D9FF27C0DAFF2CC0DFFF24C01EF025C0FE
:1011B8001FF052EC07F026C01EF027C01FF052ECBB
:1011C80007F0090E296EB00E286E580EE82EFED7CD
:1011D800282EFCD7292EFAD700D0050E2C26000E73
:1011E8002D222DBE01EF09F02D5009E12A0E2C5CAD
:1011F800D8A001EF09F003EF09F0BDEF08F0000EE9
:101208002D6E200E2C6E20EE01F02450D92625508C
:10121800DA22000EDF6E20EE01F02650D926275084
:10122800DA22010EDF6E24C0D9FF25C0DAFF2CC0F8
:10123800DFFF26C0D9FF27C0DAFF2CC0DFFF24C09C
:101248001EF025C01FF052EC07F026C01EF027C084
:101258001FF052EC07F0090E296E860E286ECA0E92
:10126800E82EFED7282EFCD7292EFAD7FB0E2C26DF
:10127800FF0E2D222DBE4CEF09F02D5007E1120E66
:101288002C5CD8B04AEF09F04CEF09F007EF09F0F1
:101298002A4A2B2A2BBE5AEF09F02B5009E1020EDD
:1012A8002A5CD8A05AEF09F05CEF09F0B9EF08F012
:1012B8001200000E126E040E116EA2EC0FF0120E48
:1012C8001F6EDC0E1E6E600EE82EFED71E2EFCD79B
:1012D8001F2EFAD76DEC0EF015C060F016C061F045
:1012E8000001626B636B000E126E020E116EA2ECAF
:1012F8000FF0120E1F6EDC0E1E6E600EE82EFED76B
:101308001E2EFCD71F2EFAD795EC0EF015C064F0F0
:1013180016C065F00001666B676B000E126E010E59
:10132800116EA2EC0FF0120E1F6EDC0E1E6E600E18
:10133800E82EFED71E2EFCD71F2EFAD7E5EC0EF0AE
:1013480015C068F016C069F000016A6B6B6B000E7F
:10135800126E000E116EA2EC0FF0120E1F6EDC0E54
:101368001E6E600EE82EFED71E2EFCD71F2EFAD753
:10137800BDEC0EF015C020F016C021F0000E126E64
:10138800070E116EA2EC0FF0120E1F6EDC0E1E6E11
:10139800600EE82EFED71E2EFCD71F2EFAD7BDEC06
:1013A8000EF015C022F016C023F0000E126E000ECB
:1013B800116EA2EC0FF020C019F021C01AF022C063
:1013C80017F023C018F072EC0DF017C024F018C005
:1013D80025F024C017F025C018F0000E1A6E050E6F
:1013E800196E72EC0DF017C04CF018C04DF01200D9
:1013F80040EC10F0010E136E000E90EC10F03F0E52
:10140800266E550EE82EFED7262EFCD700F0030ECA
:10141800136E000E90EC10F0D50E136E010E90ECCA
:1014280010F0869E8792819820EE9CF011EE00F0D5
:101438000B0EDBCFE3FFE806FCE220EE90F011EEA6
:101448000CF00B0EDBCFE3FFE806FCE220EE84F0A5
:1014580011EE18F00B0EDBCFE3FFE806FCE220EEFE
:1014680078F011EE24F00B0EDBCFE3FFE806FCE288
:1014780021EE9CF011EE30F00B0EDBCFE3FFE80617
:10148800FCE221EE90F011EE3CF00B0EDBCFE3FF17
:10149800E806FCE221EE84F011EE48F00B0EDBCFFB
:1014A800E3FFE806FCE221EE78F011EE54F00B0EB3
:1014B800DBCFE3FFE806FCE221EE6CF011EE60F012
:1014C8000B0EDBCFE3FFE806FCE286860E01B4973D
:1014D8008684B4958EA673EF0AF075EF0AF07CEF58
:1014E8000AF08EB47AEF0AF07CEF0AF06EEF0AF099
:1014F8008EB481EF0AF083EF0AF085EF0AF097EFD8
:101508000AF0C0EC0BF08EB68CEF0AF08EEF0AF002
:1015180087EF0AF05DEC09F08EB695EF0AF097EFC9
:101528000AF090EF0AF01200000E2B6E190E2A6EC8
:1015380020EE01F02450D9262550DA22000EDF6E65
:1015480020EE01F02650D9262750DA22010EDF6E50
:1015580024C0D9FF25C0DAFF2AC0DFFF26C0D9FF83
:1015680027C0DAFF2AC0DFFF24C01EF025C01FF005
:1015780052EC07F026C01EF027C01FF052EC07F00F
:101588000E0E296E120E286E690EE82EFED7282E32
:10159800FCD7292EFAD700F0050E2A26000E2B229A
:1015A8002BBEE0EF0AF02B5009E1280E2A5CD8A0E8
:1015B800E0EF0AF0E2EF0AF09CEF0AF0000E2B6E63
:1015C8001E0E2A6E20EE01F02450D9262550DA226C
:1015D800000EDF6E20EE01F02650D9262750DA22C1
:1015E800010EDF6E24C0D9FF25C0DAFF2AC0DFFF55
:1015F80026C0D9FF27C0DAFF2AC0DFFF24C01EF0AB
:1016080025C01FF052EC07F026C01EF027C01FF0BF
:1016180052EC07F00D0E296EBF0E286E4C0EE82E08
:10162800FED7282EFCD7292EFAD7FB0E2A26FF0E26
:101638002B222BBE2BEF0BF02B5007E1100E2A5C50
:10164800D8B029EF0BF02BEF0BF0E6EF0AF0120001
:10165800000E2B6E170E2A6E20EE01F02450D926AC
:101668002550DA22010EDF6E20EE01F02650D92631
:101678002750DA22000EDF6E24C0D9FF25C0DAFF1A
:101688002AC0DFFF26C0D9FF27C0DAFF2AC0DFFF44
:1016980024C01EF025C01FF052EC07F026C01EF033
:1016A80027C01FF052EC07F00D0E296EAA0E286E07
:1016B800840EE82EFED7282EFCD7292EFAD700D084
:1016C800050E2A26000E2B222BBE74EF0BF02B5092
:1016D80009E1260E2A5CD8A074EF0BF076EF0BF028
:1016E80030EF0BF0000E2B6E1C0E2A6E20EE01F070
:1016F8002450D9262550DA22010EDF6E20EE01F0A3
:101708002650D9262750DA22000EDF6E24C0D9FFD2
:1017180025C0DAFF2AC0DFFF26C0D9FF27C0DAFFBD
:101728002AC0DFFF24C01EF025C01FF052EC07F0CE
:1017380026C01EF027C01FF052EC07F00D0E296ED0
:101748002D0E286ED80EE82EFED7282EFCD7292E6F
:10175800FAD7FB0E2A26FF0E2B222BBEBFEF0BF06B
:101768002B5007E10E0E2A5CD8B0BDEF0BF0BFEF8F
:101778000BF07AEF0BF01200000E126E040E116ED1
:10178800A2EC0FF0120E1D6EDC0E1C6E600EE82E21
:10179800FED71C2EFCD71D2EFAD76DEC0EF015C007
:1017A8006CF016C06DF000016E6B6F6B000E126E60
:1017B800020E116EA2EC0FF0120E1D6EDC0E1C6EE6
:1017C800600EE82EFED71C2EFCD71D2EFAD795ECFE
:1017D8000EF015C070F016C071F00001726B736BDB
:1017E800000E126E010E116EA2EC0FF0120E1D6E9D
:1017F800DC0E1C6E600EE82EFED71C2EFCD71D2EAC
:10180800FAD7E5EC0EF015C074F016C075F00001BB
:10181800766B776B000E126E000E116EA2EC0FF055
:101828001200000E256E000E266E000E276E000EAA
:10183800286E2150221023102410D8B426EF0CF063
:1018480028EF0CF05EEF0CF0010E296E32EF0CF071
:10185800D8902136223623362436292A24AE37EF6B
:101868000CF039EF0CF02CEF0CF0D890253626361A
:101878002736283621501D5C22501E5823501F58E9
:1018880024502058D8A04BEF0CF04DEF0CF056EF39
:101898000CF021501D5E22501E5A23501F5A24500E
:1018A800205A2580D8902432233222322132292E00
:1018B80039EF0CF025C01DF026C01EF027C01FF020
:1018C80028C020F01200500EF66E200EF76E000EA3
:1018D800F86E01EE78F010EE30F00900F5CFEEFF6B
:1018E800E550E150FAE1B40EF66E1E0EF76E000EEA
:1018F800F86E00EE60F010EE48F00900F5CFEEFF4C
:10190800E550E150FAE1D00EF66E210EF76E000EAA
:10191800F86E00EE4AF010EE04F00900F5CFEEFF85
:10192800E550E150FAE102EE00F0C80EEE6AE80672
:10193800FDE101EE00F0780EEE6AE806FDE100EE4A
:10194800E6F00C0EEE6AE806FDE100EE3CF00E0E45
:10195800EE6AE806FDE14E904E92000EF86E000128
:10196800CDEF05F08594839E879C85987D947B9E1A
:101978007F9C7D98050E0E01746F060E766F070E1C
:10198800696F080E886FBD508F0B4009BD6EE00E61
:10199800BE16BF50F00B0109BF6E630EBC6EBD8E44
:1019A800000EAA6E000EA66E000E0F01256F000E27
:1019B800216FFC0EAD16F30EAD16CF0EAD163F0E11
:1019C800AD16AB88AB50F00B0C09AB6EAB8EA7888D
:1019D800A750F00B0C09A76EA78E26892651F00B8D
:1019E8000C09266F268F22892251F00B0C09226FD1
:1019F800228F1200000E456E000E446E2CEF0DF083
:101A080020EE01F02450D9262550DA22010EDF6E8F
:101A180020EE01F02650D9262750DA22010EDF6E7B
:101A280024C0D9FF25C0DAFF280EDF6E26C0D9FFF3
:101A380027C0DAFF270EDF6E24C01EF025C01FF076
:101A480052EC07F026C01EF027C01FF052EC07F03A
:101A58002850445C29504558D8A035EF0DF037EF91
:101A68000DF004EF0DF01200000E456E000E446EEE
:101A780066EF0DF020EE01F02450D9262550DA2229
:101A8800000EDF6E20EE01F02650D9262750DA220C
:101A9800000EDF6E24C0D9FF25C0DAFF320EDF6EDC
:101AA80026C0D9FF27C0DAFF320EDF6E24C01EF031
:101AB80025C01FF052EC07F026C01EF027C01FF00B
:101AC80052EC07F02850445C29504558D8A06FEFD5
:101AD8000DF071EF0DF03EEF0DF01200000E1D6ECF
:101AE800000E1C6E19501A10D8B47DEF0DF07FEF60
:101AF8000DF0A7EF0DF0010E1B6E87EF0DF0D890DB
:101B080019361A361B2A1AAE8CEF0DF08EEF0DF02F
:101B180083EF0DF0D8901C361D361950175C1A50FB
:101B28001858D8A09AEF0DF09CEF0DF0A1EF0DF02A
:101B38001950175E1A50185A1C80D8901A32193248
:101B48001B2E8EEF0DF01CC017F01DC018F01200F0
:101B5800000E196E000E1A6E000E1B6E000E1C6E23
:101B680011A0B9EF0DF0BBEF0DF0C3EF0DF015505C
:101B7800192616501A2217501B2218501C22D890CA
:101B88001536163617361836D890143213321232E4
:101B980011321150121013101410D8A4D6EF0DF0F2
:101BA800D8EF0DF0B4EF0DF019C011F01AC012F013
:101BB8001BC013F01CC014F0120048504910D8B4D0
:101BC800E8EF0DF0EAEF0DF0F3EF0DF04650471097
:101BD800D8A4F1EF0DF0F3EF0DF0F9EF0DF0000ED2
:101BE800186E000E176E12EF0EF048C011F049C0C3
:101BF80012F04CC013F04DC014F07DEC10F01150F1
:101C0800465C12504758D8B00CEF0EF00FEF0EF0AC
:101C1800010E10EF0EF0000E176E186A1200000E7B
:101C2800456E000E446E20EE01F02450D926255052
:101C3800DA22000EDF6E20EE01F02650D92627505A
:101C4800DA22000EDF6E24C0D9FF25C0DAFF320E7B
:101C5800DF6E26C0D9FF27C0DAFF320EDF6E24C040
:101C68001EF025C01FF052EC07F026C01EF027C05A
:101C78001FF052EC07F012000C040D10D8A447EF27
:101C88000EF049EF0EF066EF0EF0000E0E6E000E2D
:101C98000F6E000E106E070E0E180F101010D8A43D
:101CA80058EF0EF05AEF0EF066EF0EF00DEC0FF055
:101CB80005C046F006C047F0000E026E000E016E29
:101CC800C4EC0FF0000E026E000E016EC4EC0FF0B3
:101CD8001200CCEC10F0520EB0EC10F0B60EB0ECD6
:101CE80010F0D1EC10F0530EB0EC10F0010EE6EC51
:101CF8000FF0176E17501A6E1B6A000EE6EC0FF005
:101D0800176E1750196E186A1A5018101A6E1B5051
:101D180019101B6EC7EC10F01AC015F01BC016F096
:101D28001200CCEC10F0520EB0EC10F0B80EB0EC83
:101D380010F0D1EC10F0530EB0EC10F0010EE6EC00
:101D48000FF0176E17501A6E1B6A000EE6EC0FF0B4
:101D5800176E1750196E186A1A5018101A6E1B5001
:101D680019101B6EC7EC10F01AC015F01BC016F046
:101D78001200CCEC10F0520EB0EC10F0B40EB0EC37
:101D880010F0D1EC10F0530EB0EC10F0010EE6ECB0
:101D98000FF0176E17501A6E1B6A000EE6EC0FF064
:101DA800176E1750196E186A1A5018101A6E1B50B1
:101DB80019101B6EC7EC10F01AC015F01BC016F0F6
:101DC8001200CCEC10F0520EB0EC10F0BA0EB0ECE1
:101DD80010F0D1EC10F0530EB0EC10F0010EE6EC60
:101DE8000FF0176E17501A6E1B6A000EE6EC0FF014
:101DF800176E1750196E186A1A5018101A6E1B5061
:101E080019101B6EC7EC10F01AC015F01BC016F0A5
:101E18001200DBEC10F0520EBCEC10F0B40EBCEC6F
:101E280010F0E0EC10F0530EBCEC10F0010E07ECD3
:101E380010F0076E07500A6E0B6A000E07EC10F0E0
:101E4800076E0750096E086A0A5008100A6E0B5090
:101E580009100B6ED6EC10F00AC005F00BC006F0A6
:101E6800120024C0D9FF25C0DAFF000EDF6E26C09D
:101E7800D9FF27C0DAFF000EDF6E24C01EF025C090
:101E88001FF052EC07F026C01EF027C01FF052ECDE
:101E980007F0520E296E2B0E286E000EE82EFED784
:101EA800282EFCD7292EFAD700D0120004040000EF
:101EB8004B020000A1000000FC280000551B000098
:101EC800700700005D0000004C00000014000000D6
:101ED80003000000090000002400000019000000B1
:101EE8003600000008000000480000000200000062
:101EF8000200000045BE8AEF0FF0455009E1170EB9
:101F0800445CD8A08AEF0FF08CEF0FF0A1EF0FF030
:101F1800F50E4424116EFF0E4520126ED8904234FF
:101F2800D96E4334DA6E000ED926020EDA2211C0B9
:101F3800DEFF12C0DDFF424A432A120011A4A7EFB8
:101F48000FF0A9EF0FF0ACEF0FF07F82ADEF0FF0BD
:101F58007F9211A2B2EF0FF0B4EF0FF0B7EF0FF0CE
:101F68007988B8EF0FF0799811A0BDEF0FF0BFEFA7
:101F78000FF0C2EF0FF07E8EC3EF0FF07E9E1200BF
:101F880001A4C9EF0FF0CBEF0FF0CEEF0FF07F8277
:101F9800CFEF0FF07F9201A2D4EF0FF0D6EF0FF042
:101FA800D9EF0FF07988DAEF0FF0799801A0DFEF19
:101FB8000FF0E1EF0FF0E4EF0FF07E8EE5EF0FF09A
:101FC8007E9E1200136E55EC10F00E01DA8755EC68
:101FD80010F0D5CE14F055EC10F01350D8B4F7EF3C
:101FE8000FF0FBEF0FF0126A122AFCEF0FF0126AE3
:101FF800123A12460E01DA511218DF0B1218DA6F74
:10200800DA8914501200036E69EC10F00E01DA87B9
:1020180069EC10F0D5CE04F069EC10F00350D8B498
:1020280018EF10F01CEF10F0026A022A1DEF10F0F2
:10203800026A023A02460E01DA510218DF0B021850
:10204800DA6FDA89045012006400000064000000AE
:102058006400000026000000480000005400000052
:102068005C000000270000001C0000004D0000007C
:102078003C000000400000000E01D951F00B080997
:10208800D96FD98B9F0ED66F848A848CA79BA79D06
:102098001D0E1D6F1E0E1C6F1C0E6F6F1B0E706FBA
:1020A80012000E01D8B55BEF10F05DEF10F055EFA0
:1020B80010F0DACE11F01F0E1116D8A466EF10F04A
:1020C80068EF10F055EF10F012000E01D8B56FEF61
:1020D80010F071EF10F069EF10F0DACE01F01F0E7A
:1020E8000116D8A47AEF10F07CEF10F069EF10F029
:1020F800120011501302F3CF15F0F4CF16F011505F
:102108001402F350162612501302F350162615C067
:1021180011F016C012F01200146ECCEC10F0520E32
:10212800B0EC10F014508009B0EC10F01350B0EC83
:1021380010F0C7EC10F01200D6501F0B4009D66EF5
:10214800D688D650F00B0809D66EFD0ED46E900EC8
:10215800D36ED588D58E1200126E55EC10F012C0D1
:10216800D5FE1200F28C0E01298B2B81F28E120003
:10217800026E69EC10F002C0D5FE120040C011F0EA
:1021880041C012F0120055EC10F00E01DA85120071
:1021980055EC10F00E01DA81120055EC10F00E012A
:1021A800DA83120069EC10F00E01DA85120069EC8E
:1021B80010F00E01DA81120069EC10F00E01DA83DA
:0C21C8001200444A452A1200DC000F00FF
:020000040020DA
:10000000FF0FFF0FFF0FFF0FFF0FFF0FFF0FFF0F80
:020000040030CA
:0C000000AAFFFFFF9FFFFFFFFFFFFFFFB5
:00000001FF
