:0400000017EF00F006
:100008005B820E0133AB0BEF00F00DEF00F015EF44
:1000180000F0B7EC0FF0E70ED46E950ED36E0E011C
:10002800339B5B9211002EEF0CF01E501F10D8A4CA
:1000380020EF00F022EF00F03BEF00F020C014F0BA
:1000480021C015F022C016F023C017F02EEC08F0DE
:10005800D8905334D96E5434DA6E000ED926020E75
:10006800DA22FF0EDE6EFF0EDD6E534A542A1E049E
:100078001F10D8A442EF00F044EF00F05DEF00F04D
:1000880020C014F021C015F022C016F023C017F0CC
:1000980081EC07F0D8905334D96E5434DA6E000EE0
:1000A800D926020EDA22FE0EDE6EFF0EDD6E534AF0
:1000B800542A020E1E181F10D8A465EF00F067EF2F
:1000C80000F094EF00F0000E276E000E266E20C0A0
:1000D80014F021C015F022C016F023C017F02EEC42
:1000E80008F0D8905334D96E5434DA6E000ED926FD
:1000F800020EDA22FF0EDE6EFF0EDD6E534A542A20
:10010800264A272A27BE92EF00F0275009E1020E5F
:10011800265CD8A092EF00F094EF00F06BEF00F0AF
:10012800030E1E181F10D8A49CEF00F09EEF00F0DD
:1001380056EF01F020C014F021C015F022C016F0CF
:1001480023C017F0000E196E210E186EFDEC0CF08E
:1001580020C014F021C015F022C016F023C017F0FB
:10016800A3EC0EF020C014F021C015F022C016F048
:1001780023C017F02EEC08F0D8905334D96E5434BD
:10018800DA6EFE0ED926010EDA22010EDBBED7EF9B
:1001980000F0010EDB5009E10C0EDE5CD8A0D7EFB1
:1001A80000F0D9EF00F0F7EF00F0D8905334D96E93
:1001B8005434DA6EFE0ED926010EDA22EA0EDE2655
:1001C800FF0EDD22D8905334D96E5434DA6E000E07
:1001D800D926020EDA22FF0EDE6EFF0EDD6E534ABE
:1001E800542A56EF01F0D8905334D96E5434DA6E4D
:1001F800FE0ED926010EDA22DE2806E1DE28D8A472
:1002080008EF01F00AEF01F017EF01F0D89053342E
:10021800D96E5434DA6EFE0ED926010EDA22FE0E9D
:10022800DE6EFF0EDD6ED8905334D96E5434DA6E1C
:10023800FE0ED926010EDA22FE0EDE1806E1DE28B1
:10024800D8A429EF01F02BEF01F038EF01F0D89096
:100258005334D96E5434DA6EFE0ED926010EDA22E2
:10026800FF0EDE6EFF0EDD6ED8905334D96E543417
:10027800DA6E000ED926020EDA22160EDE6E000E97
:10028800DD6E534A542AD8905334D96E5434DA6EFA
:10029800000ED926020EDA22FE0EDE6EFF0EDD6E8D
:1002A800534A542A040E1E181F10D8A45EEF01F0FA
:1002B80060EF01F018EF02F020C014F021C015F033
:1002C80022C016F023C017F0000E196E210E186E0A
:1002D800FDEC0CF020C014F021C015F022C016F07F
:1002E80023C017F0A3EC0EF020C014F021C015F0C5
:1002F80022C016F023C017F081EC07F0D8905334D1
:10030800D96E5434DA6EFE0ED926010EDA22010EA9
:10031800DBBE99EF01F0010EDB5009E10C0EDE5C4B
:10032800D8A099EF01F09BEF01F0B9EF01F0D89058
:100338005334D96E5434DA6EFE0ED926010EDA2201
:10034800EA0EDE26FF0EDD22D8905334D96E5434DF
:10035800DA6E000ED926020EDA22FE0EDE6EFF0ECF
:10036800DD6E534A542A18EF02F0D8905334D96EF0
:100378005434DA6EFE0ED926010EDA22DE2806E1A2
:10038800DE28D8A4CAEF01F0CCEF01F0D9EF01F0D4
:10039800D8905334D96E5434DA6EFE0ED926010E35
:1003A800DA22FE0EDE6EFF0EDD6ED8905334D96E63
:1003B8005434DA6EFE0ED926010EDA22FE0EDE184D
:1003C80006E1DE28D8A4EBEF01F0EDEF01F0FAEF3B
:1003D80001F0D8905334D96E5434DA6EFE0ED92613
:1003E800010EDA22FF0EDE6EFF0EDD6ED89053345A
:1003F800D96E5434DA6E000ED926020EDA22160EA1
:10040800DE6E000EDD6E534A542AD8905334D96EEE
:100418005434DA6E000ED926020EDA22FF0EDE6E92
:10042800FF0EDD6E534A542A050E1E181F10D8A45D
:1004380020EF02F022EF02F03BEF02F020C014F0B0
:1004480021C015F022C016F023C017F011EC0AF0F5
:10045800D8905334D96E5434DA6E000ED926020E71
:10046800DA22FD0EDE6EFF0EDD6E534A542A060EAA
:100478001E181F10D8A443EF02F045EF02F05EEFFC
:1004880002F020C014F021C015F022C016F023C0DD
:1004980017F0A5EC0AF0D8905334D96E5434DA6EBC
:1004A800000ED926020EDA22FC0EDE6EFF0EDD6E7D
:1004B800534A542A070E1E181F10D8A466EF02F0DC
:1004C80068EF02F08AEF02F0000E296E000E286E27
:1004D80020C014F021C015F022C016F023C017F078
:1004E8002EEC08F0284A292A29BE84EF02F0295068
:1004F80009E1020E285CD8A084EF02F086EF02F032
:100508006CEF02F0000E526E010E516E1200000EDA
:10051800026E040E016EECEC0EF0120E386EDC0E5C
:10052800376E600EE82EFED7372EFCD7382EFAD756
:1005380003EC0EF005C0ECF006C0EDF00001EE6B28
:10054800EF6B000E026E020E016EECEC0EF0120E56
:10055800386EDC0E376E600EE82EFED7372EFCD7CD
:10056800382EFAD72BEC0EF005C0F0F006C0F1F0EB
:100578000001F26BF36B000E026E010E016EECECE3
:100588000EF0120E386EDC0E376E600EE82EFED7B7
:10059800372EFCD7382EFAD77BEC0EF005C0F4F0D6
:1005A80006C0F5F00001F66BF76B000E026E000E48
:1005B800016EECEC0EF000016051EC5D6151ED59FB
:1005C8006251EE596351EF59D8B0EDEF02F0EFEFF9
:1005D80002F0F9EF02F0000ECC6F000ECD6F000EA6
:1005E800CE6F000ECF6F2EEF03F06051EC5D016E01
:1005F8006151ED59026E6251EE59036E6351EF5924
:10060800046E640E056E000E066E000E076E000E78
:10061800086E71EC0DF001C00DF002C00EF003C0C1
:100628000FF004C010F0000160516C5D116E615153
:100638006D59126E62516E59136E63516F59146E73
:100648008EEC0BF00DC0CCF00EC0CDF00FC0CEF08C
:1006580010C0CFF0CCC0E0F0CDC0E1F0CEC0E2F0E9
:10066800CFC0E3F000016451F05D6551F159665166
:10067800F2596751F359D8B044EF03F046EF03F04D
:1006880050EF03F0000ED06F000ED16F000ED26F46
:10069800000ED36F85EF03F06451F05D016E655174
:1006A800F159026E6651F259036E6751F359046E9F
:1006B800640E056E000E066E000E076E000E086EC4
:1006C80071EC0DF001C00DF002C00EF003C00FF088
:1006D80004C010F000016451705D116E65517159CC
:1006E800126E66517259136E67517359146E8EECFF
:1006F8000BF00DC0D0F00EC0D1F00FC0D2F010C07A
:10070800D3F0D0C0E4F0D1C0E5F0D2C0E6F0D3C059
:10071800E7F000016851F45D6951F5596A51F659DD
:100728006B51F759D8B09BEF03F09DEF03F0A7EF9B
:1007380003F0000ED46F000ED56F000ED66F000EBA
:10074800D76FDCEF03F06851F45D016E6951F5591C
:10075800026E6A51F659036E6B51F759046E640EB6
:10076800056E000E066E000E076E000E086E71EC28
:100778000DF001C00DF002C00EF003C00FF004C070
:1007880010F000016851745D116E69517559126E4F
:100798006A517659136E6B517759146E8EEC0BF0C3
:1007A8000DC0D4F00EC0D5F00FC0D6F010C0D7F0F1
:1007B800D4C0E8F0D5C0E9F0D6C0EAF0D7C0EBF075
:1007C80020EEE0F000EE07F00B0EDBCFEBFFE806C3
:1007D800FCE221EE00F000EE13F00B0EDBCFEBFF96
:1007E800E806FCE215EC06F007C0D8F008C0D9F01E
:1007F800000E0001DB6F000EDA6F000EDF6F010ED6
:10080800DE6FDEC001F0DFC002F0000E046E0C0ED9
:10081800036E58EC0FF0000E0124D96E010E022071
:10082800DA6E10EEC0F00B0EDBCFE3FFE806FCE259
:1008380020EEE0F000EE07F00B0EDBCFEBFFE80652
:10084800FCE220EEC0F000EE13F00B0EDBCFEBFF66
:10085800E806FCE215EC06F007C0DCF008C0DDF0A5
:100868000001D851DC5DD951DD59D8B03EEF04F014
:1008780040EF04F048EF04F0DEC0DAF0DFC0DBF050
:10088800DCC0D8F0DDC0D9F0DE4BDF2BDF5109E149
:10089800090EDE5DD8A053EF04F055EF04F005EF24
:1008A80004F0DAC035F0DBC036F012007BEC0FF054
:1008B8009DEC0FF0000E026E630E016E7BEC0CF0E7
:1008C80075EC09F00E01B4958684000E3F6E010E9A
:1008D800406E010E416EAA0E446E0F0E456EA60EB6
:1008E800466E0F0E476E000E436E630E426E000E8C
:1008F800486E010E496E010E4A6E250E4D6E0F0EA2
:100908004E6E210E4F6E0F0E506E000E4C6E630E23
:100918004B6E520E3A6E2B0E396E000EE82EFED735
:10092800392EFCD73A2EFAD700D03F0E146E000E9F
:10093800156E480E166E000E176ED6EC0DF0A3EC71
:100948000FF001C03DF002C03EF0E0EC0BF00C04EB
:100958000D10D8A4B2EF04F0B4EF04F022EF05F0C4
:100968003D503E10D8A4BBEF04F0BDEF04F022EFD9
:1009780005F0C8EC0EF03F0E146E000E156E480E12
:10098800166E000E176EA3EC0EF08BEC02F035C05D
:100998003BF036C03CF03F0E146E000E156E480E4C
:1009A800166E000E176E000E196E050E186EC3EC4B
:1009B8000CF03F0E146E000E156E480E166E000EEB
:1009C800176E000E196E0B0E186EFDEC0CF03F0E34
:1009D800146E000E156E480E166E000E176EA3EC00
:1009E8000EF03BC01EF03CC01FF03F0E206E000E04
:1009F800216E480E226E000E236E19EC00F03D5059
:100A08003E10D8A40AEF05F00CEF05F0A3EF04F0B0
:100A18003F0E146E000E156E480E166E000E176E01
:100A2800A3EC0EF03F0E146E000E156E480E166EF7
:100A3800000E176ED6EC0DF0A3EF04F03D043E1047
:100A4800D8A429EF05F02BEF05F037EF05F03F0E9E
:100A58001E6E000E1F6E480E206E000E216E3BECBF
:100A680005F0A3EF04F0A3EF04F017EF00F0FAEF9E
:100A780005F0D8905334D96E5434DA6EFE0ED92668
:100A8800010EDA22DE2806E1DE28D8A44EEF05F0B2
:100A980050EF05F05CEF05F01EC014F01FC015F014
:100AA80020C016F021C017F081EC07F0EDEF05F03B
:100AB800D8905334D96E5434DA6EFE0ED926010E0E
:100AC800DA22FE0EDE1806E1DE28D8A46EEF05F065
:100AD80070EF05F07CEF05F01EC014F01FC015F094
:100AE80020C016F021C017F02EEC08F0EDEF05F04D
:100AF800D8905334D96E5434DA6EFE0ED926010ECE
:100B0800DA22FD0EDE1806E1DE28D8A48EEF05F005
:100B180090EF05F09CEF05F01EC014F01FC015F013
:100B280020C016F021C017F0A5EC0AF0EDEF05F093
:100B3800D8905334D96E5434DA6EFE0ED926010E8D
:100B4800DA22FC0EDE1806E1DE28D8A4AEEF05F0A6
:100B5800B0EF05F0BCEF05F01EC014F01FC015F093
:100B680020C016F021C017F011EC0AF0EDEF05F0E7
:100B7800D8905334D96E5434DA6EFE0ED926010E4D
:100B8800DA22010EDBBED2EF05F0010EDB5008E1E0
:100B9800DE04D8A0D2EF05F0D4EF05F0EDEF05F0B4
:100BA8001EC014F01FC015F020C016F021C017F0A9
:100BB800D8905334D96E5434DA6EFE0ED926010E0D
:100BC800DA22DECF18F0DDCF19F0C3EC0CF0EDEF30
:100BD80005F01EC014F01FC015F020C016F021C08B
:100BE80017F0A3EC0EF05306D8A0540654BE07EF36
:100BF80006F0545006E15304D8B005EF06F007EFAD
:100C080006F03DEF05F053505410D8A40EEF06F04F
:100C180010EF06F014EF06F0000E526E020E516E41
:100C280012001350075C14500858155009581650F4
:100C38000A58D8B022EF06F024EF06F032EF06F09B
:100C48000750135C236E08501458246E0950155829
:100C5800256E0A501658266E3EEF06F01350075CB4
:100C6800236E14500858246E15500958256E1650D6
:100C78000A58266E23C02FF024C030F017500B5CA2
:100C880018500C5819500D581A500E58D8B04FEF2C
:100C980006F051EF06F05FEF06F00B50175C276E79
:100CA8000C501858286E0D501958296E0E501A58A5
:100CB8002A6E6BEF06F017500B5C276E18500C5815
:100CC800286E19500D58296E1A500E582A6E27C0D2
:100CD80031F028C032F01B500F5C1C5010581D50CA
:100CE80011581E501258D8B07CEF06F07EEF06F06F
:100CF8008CEF06F00F501B5C2B6E10501C582C6E9E
:100D080011501D582D6E12501E582E6E98EF06F079
:100D18001B500F5C2B6E1C5010582C6E1D50115818
:100D28002D6E1E5012582E6E2BC033F02CC034F08E
:100D38002FC001F030C002F02FC003F030C004F023
:100D480058EC0FF001C01FF002C020F031C001F0D4
:100D580032C002F031C003F032C004F058EC0FF09A
:100D680001501F24216E02502020226E33C001F052
:100D780034C002F033C003F034C004F058EC0FF074
:100D880001502124076E02502220086E120020EE26
:100D980002F00E50D9260F50DA22DF50D8B4D7EF20
:100DA80006F0D9EF06F00DEF07F00EC0D9FF0FC01F
:100DB800DAFFDF50106E1050016E026A20EE03F069
:100DC8000E50D9260F50DA22DECF03F0DDCF04F023
:100DD80058EC0FF001C007F002C008F0000E0A6ED0
:100DE800640E096E37EC0DF020EE03F00E50D92694
:100DF8000F50DA22DF50116E0750115C126E20EE90
:100E080003F00E50D9260F50DA22DF50136E30EF60
:100E180007F0000E126E0EC0D9FF0FC0DAFFDF50C8
:100E2800106E1050016E026A20EE03F00E50D926A3
:100E38000F50DA22DECF03F0DDCF04F058EC0FF0CC
:100E480001C007F002C008F0000E0A6E640E096EB9
:100E580037EC0DF00750136E20EE01F00E50D92636
:100E68000F50DA22DF50D8B43CEF07F03EEF07F01E
:100E780060EF07F020EE05F00E50D9260F50DA2269
:100E8800DECF10F0DDCF11F010C0D9FF11C0DAFFAE
:100E980012C0DFFF20EE07F00E50D9260F50DA22DD
:100EA800DECF10F0DDCF11F010C0D9FF11C0DAFF8E
:100EB80013C0DFFF80EF07F020EE05F00E50D926B3
:100EC8000F50DA22DECF10F0DDCF11F010C0D9FFBD
:100ED80011C0DAFF13C0DFFF20EE07F00E50D9264D
:100EE8000F50DA22DECF10F0DDCF11F010C0D9FF9D
:100EF80011C0DAFF12C0DFFF1200000E1B6E000ED9
:100F08001A6E000E1B6E000E1A6E000E1D6E2F0E4E
:100F18001C6E20EE01F01450D9261550DA22010E6D
:100F2800DF6E20EE01F01650D9261750DA22000E97
:100F3800DF6E14C0D9FF15C0DAFF1CC0DFFF16C072
:100F4800D9FF17C0DAFF1CC0DFFF14C00EF015C0B0
:100F58000FF0CBEC06F016C00EF017C00FF0CBEC7C
:100F680006F0050E196EB60E186E2C0EE82EFED77A
:100F7800182EFCD7192EFAD700D0050E1C26000E05
:100F88001D221DBED1EF07F01D5009E13E0E1C5C6D
:100F9800D8A0D1EF07F0D3EF07F08DEF07F0000EE0
:100FA8001D6E340E1C6E20EE01F01450D92615501B
:100FB800DA22010EDF6E20EE01F01650D926175006
:100FC800DA22000EDF6E14C0D9FF15C0DAFF1CC08C
:100FD800DFFF16C0D9FF17C0DAFF1CC0DFFF14C03F
:100FE8000EF015C00FF0CBEC06F016C00EF017C0CF
:100FF8000FF0CBEC06F0050E196EA10E186E650EFB
:10100800E82EFED7182EFCD7192EFAD700F0FB0EC3
:101018001C26FF0E1D221DBE1DEF08F01D5007E106
:10102800260E1C5CD8B01BEF08F01DEF08F0D7EFB8
:1010380007F01A4A1B2A1BBE2BEF08F01B5009E1C8
:10104800020E1A5CD8A02BEF08F02DEF08F089EFFC
:1010580007F01200000E1B6E000E1A6E000E1D6EB9
:101068001B0E1C6E20EE01F01450D9261550DA2202
:10107800000EDF6E20EE01F01650D9261750DA2246
:10108800010EDF6E14C0D9FF15C0DAFF1CC0DFFFE8
:1010980016C0D9FF17C0DAFF1CC0DFFF14C00EF05E
:1010A80015C00FF0CBEC06F016C00EF017C00FF00D
:1010B800CBEC06F0090E196EB00E186E580EE82E1D
:1010C800FED7182EFCD7192EFAD700D0050E1C26ED
:1010D800000E1D221DBE7AEF08F01D5009E12A0EF0
:1010E8001C5CD8A07AEF08F07CEF08F036EF08F027
:1010F800000E1D6E200E1C6E20EE01F01450D92635
:101108001550DA22000EDF6E20EE01F01650D926B7
:101118001750DA22010EDF6E14C0D9FF15C0DAFFAE
:101128001CC0DFFF16C0D9FF17C0DAFF1CC0DFFFE5
:1011380014C00EF015C00FF0CBEC06F016C00EF080
:1011480017C00FF0CBEC06F0090E196E860E186E5C
:10115800CA0EE82EFED7182EFCD7192EFAD7FB0E8A
:101168001C26FF0E1D221DBEC5EF08F01D5007E10D
:10117800120E1C5CD8B0C3EF08F0C5EF08F080EF82
:1011880008F01A4A1B2A1BBED3EF08F01B5009E1CE
:10119800020E1A5CD8A0D3EF08F0D5EF08F032EFB2
:1011A80008F01200000E026E040E016EECEC0EF058
:1011B800120E0F6EDC0E0E6E600EE82EFED70E2E8F
:1011C800FCD70F2EFAD703EC0EF005C060F006C06E
:1011D80061F00001626B636B000E026E020E016E1D
:1011E800ECEC0EF0120E0F6EDC0E0E6E600EE82E9A
:1011F800FED70E2EFCD70F2EFAD72BEC0EF005C01B
:1012080064F006C065F00001666B676B000E026E45
:10121800010E016EECEC0EF0120E0F6EDC0E0E6E6F
:10122800600EE82EFED70E2EFCD70F2EFAD77BECD9
:101238000EF005C068F006C069F000016A6B6B6BC0
:10124800000E026E000E016EECEC0EF0120E0F6E28
:10125800DC0E0E6E600EE82EFED70E2EFCD70F2E7B
:10126800FAD753EC0EF005C010F006C011F0000ECE
:10127800026E070E016EECEC0EF0120E0F6EDC0E15
:101288000E6E600EE82EFED70E2EFCD70F2EFAD764
:1012980053EC0EF005C012F006C013F0000E026EFB
:1012A800000E016EECEC0EF010C009F011C00AF04F
:1012B80012C007F013C008F037EC0DF007C014F0A7
:1012C80008C015F014C007F015C008F0000E0A6E2B
:1012D800050E096E37EC0DF007C059F008C05AF03A
:1012E80012002FEC0FF0010E036E000E6BEC0FF0E6
:1012F8003F0E166E550EE82EFED7162EFCD700F0C0
:10130800030E036E000E6BEC0FF0D50E036E010E8C
:101318006BEC0FF0869E8792819820EEB4F011EE68
:1013280000F00B0EDBCFE3FFE806FCE220EEA8F0AE
:1013380011EE0CF00B0EDBCFE3FFE806FCE220EE2B
:101348009CF011EE18F00B0EDBCFE3FFE806FCE291
:1013580020EE90F011EE24F00B0EDBCFE3FFE80651
:10136800FCE220EE84F011EE30F00B0EDBCFE3FF51
:10137800E806FCE220EE78F011EE3CF00B0EDBCF35
:10138800E3FFE806FCE221EE84F011EE48F00B0ED4
:10139800DBCFE3FFE806FCE221EE78F011EE54F033
:1013A8000B0EDBCFE3FFE806FCE221EE6CF011EE5A
:1013B80060F00B0EDBCFE3FFE806FCE286860E0149
:1013C800B4978684B4958EA6ECEF09F0EEEF09F099
:1013D800F5EF09F08EB4F3EF09F0F5EF09F0E7EF58
:1013E80009F08EB4FAEF09F0FCEF09F0FEEF09F00E
:1013F80010EF0AF039EC0BF08EB605EF0AF007EFA4
:101408000AF000EF0AF0D6EC08F08EB60EEF0AF0FC
:1014180010EF0AF009EF0AF01200000E1B6E190E09
:101428001A6E20EE01F01450D9261550DA22000E5B
:10143800DF6E20EE01F01650D9261750DA22010E81
:10144800DF6E14C0D9FF15C0DAFF1AC0DFFF16C05F
:10145800D9FF17C0DAFF1AC0DFFF14C00EF015C09D
:101468000FF0CBEC06F016C00EF017C00FF0CBEC67
:1014780006F00E0E196E120E186E690EE82EFED7C3
:10148800182EFCD7192EFAD700F0050E1A26000ED2
:101498001B221BBE59EF0AF01B5009E1280E1A5CEB
:1014A800D8A059EF0AF05BEF0AF015EF0AF0000E2A
:1014B8001B6E1E0E1A6E20EE01F01450D926155020
:1014C800DA22000EDF6E20EE01F01650D9261750F2
:1014D800DA22010EDF6E14C0D9FF15C0DAFF1AC078
:1014E800DFFF16C0D9FF17C0DAFF1AC0DFFF14C02C
:1014F8000EF015C00FF0CBEC06F016C00EF017C0BA
:101508000FF0CBEC06F00D0E196EBF0E186E4C0ED8
:10151800E82EFED7182EFCD7192EFAD7FB0E1A265E
:10152800FF0E1B221BBEA4EF0AF01B5007E1100E92
:101538001A5CD8B0A2EF0AF0A4EF0AF05FEF0AF045
:101548001200000E1B6E170E1A6E20EE01F01450DA
:10155800D9261550DA22010EDF6E20EE01F0165062
:10156800D9261750DA22000EDF6E14C0D9FF15C035
:10157800DAFF1AC0DFFF16C0D9FF17C0DAFF1AC09A
:10158800DFFF14C00EF015C00FF0CBEC06F016C04C
:101598000EF017C00FF0CBEC06F00D0E196EAA0E68
:1015A800186E840EE82EFED7182EFCD7192EFAD7FF
:1015B80000D0050E1A26000E1B221BBEEDEF0AF006
:1015C8001B5009E1260E1A5CD8A0EDEF0AF0EFEFE8
:1015D8000AF0A9EF0AF0000E1B6E1C0E1A6E20EE20
:1015E80001F01450D9261550DA22010EDF6E20EED4
:1015F80001F01650D9261750DA22000EDF6E14C0FB
:10160800D9FF15C0DAFF1AC0DFFF16C0D9FF17C00F
:10161800DAFF1AC0DFFF14C00EF015C00FF0CBECD4
:1016280006F016C00EF017C00FF0CBEC06F00D0E4A
:10163800196E2D0E186ED80EE82EFED7182EFCD770
:10164800192EFAD7FB0E1A26FF0E1B221BBE38EFE7
:101658000BF01B5007E10E0E1A5CD8B036EF0BF0FA
:1016680038EF0BF0F3EF0AF01200000E026E040ED2
:10167800016EECEC0EF0120E0D6EDC0E0C6E600EB0
:10168800E82EFED70C2EFCD70D2EFAD703EC0EF061
:1016980005C06CF006C06DF000016E6B6F6B000E3C
:1016A800026E020E016EECEC0EF0120E0D6EDC0EE8
:1016B8000C6E600EE82EFED70C2EFCD70D2EFAD736
:1016C8002BEC0EF005C070F006C071F00001726BD3
:1016D800736B000E026E010E016EECEC0EF0120E32
:1016E8000D6EDC0E0C6E600EE82EFED70C2EFCD7AD
:1016F8000D2EFAD77BEC0EF005C074F006C075F01D
:101708000001766B776B000E026E000E016EECEC3A
:101718000EF01200000E156E000E166E000E176EFB
:10172800000E186E1150121013101410D8B49FEF39
:101738000BF0A1EF0BF0D7EF0BF0010E196EABEF2A
:101748000BF0D8901136123613361436192A14AE07
:10175800B0EF0BF0B2EF0BF0A5EF0BF0D890153609
:1017680016361736183611500D5C12500E58135095
:101778000F5814501058D8A0C4EF0BF0C6EF0BF058
:10178800CFEF0BF011500D5E12500E5A13500F5A36
:101798001450105A1580D890143213321232113264
:1017A800192EB2EF0BF015C00DF016C00EF017C0D1
:1017B8000FF018C010F01200000E026E000E016E3D
:1017C800ECEC0EF0120E0F6EDC0E0E6E600EE82EB4
:1017D800FED70E2EFCD70F2EFAD753EC0EF005C00D
:1017E80010F006C011F0000E026E070E016EECEC50
:1017F8000EF0120E0F6EDC0E0E6E600EE82EFED787
:101808000E2EFCD70F2EFAD753EC0EF005C012F0AF
:1018180006C013F0000E026E000E016EECEC0EF026
:1018280010C001F011C002F059C003F05AC004F012
:1018380058EC0FF00150125C02501358D8B027EF43
:101848000CF02AEF0CF0010E2BEF0CF0000E0C6ED2
:101858000D6A1200160EF66E1F0EF76E000EF86E69
:1018680001EE78F010EE18F00900F5CFEEFFE55024
:10187800E150FAE14C0EF66E1B0EF76E000EF86E94
:1018880000EE60F010EE60F00900F5CFEEFFE550D5
:10189800E150FAE1740EF66E1F0EF76E000EF86E48
:1018A80000EE57F010EE04F00900F5CFEEFFE5501A
:1018B800E150FAE102EE00F0C80EEE6AE806FDE13A
:1018C80001EE00F0780EEE6AE806FDE100EEECF0BD
:1018D8000C0EEE6AE806FDE1566A556A546A536AC8
:1018E800526A516A5B905B9200015AEF04F085944A
:1018F800839E879C85987D947B9E7F9C7D98050E12
:101908000E01746F060E766F070E696F080E886FEA
:10191800BD508F0B4009BD6EE00EBE16BF50F00BD8
:101928000109BF6E630EBC6EBD8E000EAA6E000E5E
:10193800A66E000E0F01256F000E216FFC0EAD166E
:10194800F30EAD16CF0EAD163F0EAD16AB88AB50ED
:10195800F00B0C09AB6EAB8EA788A750F00B0C09E7
:10196800A76EA78E26892651F00B0C09266F268FA5
:1019780022892251F00B0C09226F228F1200000ECF
:10198800566E000E556EF1EF0CF020EE01F014507B
:10199800D9261550DA22000EDF6E20EE01F016501F
:1019A800D9261750DA22000EDF6E14C0D9FF15C0F1
:1019B800DAFF320EDF6E16C0D9FF17C0DAFF320E1B
:1019C800DF6E14C00EF015C00FF0CBEC06F016C099
:1019D8000EF017C00FF0CBEC06F01850555C1950FC
:1019E8005658D8A0FAEF0CF0FCEF0CF0C9EF0CF049
:1019F8001200000E566E000E556E2BEF0DF020EE05
:101A080001F01450D9261550DA22010EDF6E20EEAF
:101A180001F01650D9261750DA22010EDF6E14C0D5
:101A2800D9FF15C0DAFF280EDF6E16C0D9FF17C020
:101A3800DAFF270EDF6E14C00EF015C00FF0CBECE6
:101A480006F016C00EF017C00FF0CBEC06F01850D9
:101A5800555C19505658D8A034EF0DF036EF0DF0FC
:101A680003EF0DF01200000E0C6E000E0B6E095005
:101A78000A10D8B442EF0DF044EF0DF06CEF0DF002
:101A8800010E0D6E4CEF0DF0D89009360A360D2A6E
:101A98000AAE51EF0DF053EF0DF048EF0DF0D8906E
:101AA8000B360C360950075C0A500858D8A05FEF6F
:101AB8000DF061EF0DF066EF0DF00950075E0A506A
:101AC800085A0B80D8900A3209320D2E53EF0DF0C8
:101AD8000BC007F00CC008F01200000E096E000ED3
:101AE8000A6E000E0B6E000E0C6E01A07EEF0DF05C
:101AF80080EF0DF088EF0DF00550092606500A22F8
:101B080007500B2208500C22D890053606360736A7
:101B18000836D890043203320232013201500210E2
:101B280003100410D8A49BEF0DF09DEF0DF079EF92
:101B38000DF009C001F00AC002F00BC003F00CC0A0
:101B480004F01200040400004B020000A100000091
:101B5800FC280000551B0000700700005C00000016
:101B6800270000001C0000004D0000003C000000A1
:101B7800400000005D0000004C0000001400000060
:101B88000300000009000000240000001900000004
:101B980036000000080000004800000002000000B5
:101BA80002000000000E566E000E556E20EE01F089
:101BB8001450D9261550DA22000EDF6E20EE01F0FF
:101BC8001650D9261750DA22000EDF6E14C0D9FF3E
:101BD80015C0DAFF320EDF6E16C0D9FF17C0DAFF64
:101BE800320EDF6E14C00EF015C00FF0CBEC06F00D
:101BF80016C00EF017C00FF0CBEC06F01200ADECDB
:101C08000FF0520E97EC0FF0B60E97EC0FF0B2EC07
:101C18000FF0530E97EC0FF0010E0EEC0FF0076E5D
:101C280007500A6E0B6A000E0EEC0FF0076E075095
:101C3800096E086A0A5008100A6E0B5009100B6EDC
:101C4800A8EC0FF00AC005F00BC006F01200ADECCE
:101C58000FF0520E97EC0FF0B80E97EC0FF0B2ECB5
:101C68000FF0530E97EC0FF0010E0EEC0FF0076E0D
:101C780007500A6E0B6A000E0EEC0FF0076E075045
:101C8800096E086A0A5008100A6E0B5009100B6E8C
:101C9800A8EC0FF00AC005F00BC006F01200ADEC7E
:101CA8000FF0520E97EC0FF0B40E97EC0FF0B2EC69
:101CB8000FF0530E97EC0FF0010E0EEC0FF0076EBD
:101CC80007500A6E0B6A000E0EEC0FF0076E0750F5
:101CD800096E086A0A5008100A6E0B5009100B6E3C
:101CE800A8EC0FF00AC005F00BC006F01200ADEC2E
:101CF8000FF0520E97EC0FF0BA0E97EC0FF0B2EC13
:101D08000FF0530E97EC0FF0010E0EEC0FF0076E6C
:101D180007500A6E0B6A000E0EEC0FF0076E0750A4
:101D2800096E086A0A5008100A6E0B5009100B6EEB
:101D3800A8EC0FF00AC005F00BC006F0120014C0A2
:101D4800D9FF15C0DAFF000EDF6E16C0D9FF17C025
:101D5800DAFF000EDF6E14C00EF015C00FF0CBECEA
:101D680006F016C00EF017C00FF0CBEC06F0520EBE
:101D7800196E2B0E186E000EE82EFED7182EFCD703
:101D8800192EFAD700D0120056BED4EF0EF05650D6
:101D980009E1170E555CD8A0D4EF0EF0D6EF0EF07F
:101DA800EBEF0EF0F50E5524016EFF0E5620026E75
:101DB800D8905334D96E5434DA6E000ED926020EF8
:101DC800DA2201C0DEFF02C0DDFF534A542A1200A6
:101DD80001A4F1EF0EF0F3EF0EF0F6EF0EF07F82B4
:101DE800F7EF0EF07F9201A2FCEF0EF0FEEF0EF07F
:101DF80001EF0FF0798802EF0FF0799801A007EF53
:101E08000FF009EF0FF00CEF0FF07E8E0DEF0FF0D3
:101E18007E9E1200036E44EC0FF00E01DA8744EC4C
:101E28000FF0D5CE04F044EC0FF00350D8B41FEFF8
:101E38000FF023EF0FF0026A022A24EF0FF0026A74
:101E4800023A02460E01DA510218DF0B0218DA6F65
:101E5800DA89045012000E01D951F00B0809D96F24
:101E6800D98B9F0ED66F848A848CA79BA79D1D0E45
:101E78001D6F1E0E1C6F1C0E6F6F1B0E706F1200F5
:101E88000E01D8B54AEF0FF04CEF0FF044EF0FF00A
:101E9800DACE01F01F0E0116D8A455EF0FF057EF58
:101EA8000FF044EF0FF0120001500302F3CF05F0DA
:101EB800F4CF06F001500402F35006260250030244
:101EC800F350062605C001F006C002F01200046EA9
:101ED800ADEC0FF0520E97EC0FF00450800997EC20
:101EE8000FF0035097EC0FF0A8EC0FF01200D6504B
:101EF8001F0B4009D66ED688D650F00B0809D66E4F
:101F0800E70ED46E950ED36ED588D58E1200640078
:101F18000000640000006400000026000000480083
:101F2800000054000000026E44EC0FF002C0D5FE21
:101F38001200F28C0E01298B2B81F28E120051C0F7
:101F480001F052C002F0120044EC0FF00E01DA85E5
:101F5800120044EC0FF00E01DA81120044EC0FF08D
:101F68000E01DA831200554A562A1200DC000F00CF
:020000040020DA
:10000000FF0FFF0FFF0FFF0FFF0FFF0FFF0FFF0F80
:020000040030CA
:0C000000AAFFFFFF9FFFFFFFFFFFFFFFB5
:00000001FF
