:0400000017EF00F006
:100008001C820E0133AB0BEF00F00DEF00F015EF83
:1000180000F07BEC01F0E70ED46E950ED36E0E0166
:10002800339B1C9211005EEF01F04EEC01F06BEC7B
:1000380001F0F8EC00F0000E026E630E016E86EC23
:1000480000F00E01B4958684000E086E010E096E4C
:10005800010E0A6EAA0E0D6E0F0E0E6EA60E0F6E14
:100068000F0E106E000E0C6E630E0B6E000E116EEE
:10007800010E126E010E136E250E166E0F0E176E00
:10008800210E186E0F0E196E000E156E630E146E8B
:10009800000E026E000E016ECEEC00F0520E076EDE
:1000A8002B0E066E000EE82EFED7062EFCD7072E66
:1000B800FAD700D0000E026E010E016ECEEC00F0F1
:1000C800520E076E2B0E066E000EE82EFED7062E79
:1000D800FCD7072EFAD700D0000E026E020E016E72
:1000E800CEEC00F0520E076E2B0E066E000EE82EB8
:1000F800FED7062EFCD7072EFAD700D04CEF00F01B
:1001080017EF00F08594839E879C85987D947B9E4D
:100118007F9C7D98050E0E01746F060E766F070E94
:10012800696F080E886FBD508F0B4009BD6EE00ED9
:10013800BE16BF50F00B0109BF6E630EBC6EBD8EBC
:10014800000EAA6E000EA66E000E0F01256F000E9F
:10015800216FFC0EAD16F30EAD16CF0EAD163F0E89
:10016800AD16AB88AB50F00B0C09AB6EAB8EA78805
:10017800A750F00B0C09A76EA78E26892651F00B05
:100188000C09266F268F22892251F00B0C09226F49
:10019800228F120001500210D8A4D5EF00F0D7EF3B
:1001A80000F0DCEF00F07F8279987E9EF7EF00F098
:1001B80001040210D8A4E3EF00F0E5EF00F0EAEF45
:1001C80000F07F9279887E9EF7EF00F0020E01180A
:1001D8000210D8A4F2EF00F0F4EF00F0F7EF00F00F
:1001E8007F9279987E8E120015EC01F0010E036E55
:1001F800000E3EEC01F03F0E056E550EE82EFED7C0
:10020800052EFCD700F0030E036E000E3EEC01F045
:10021800D50E036E010E3EEC01F0869E8792819802
:1002280012000E01D951F00B0809D96FD98B9F0E16
:10023800D66F848A848CA79BA79D1D0E1D6F1E0EEA
:100248001C6F1C0E6F6F1B0E706F12000E01D8B55D
:1002580030EF01F032EF01F02AEF01F0DACE01F0D1
:100268001F0E0116D8A43BEF01F03DEF01F02AEF75
:1002780001F01200046E76EC01F0520E65EC01F00C
:100288000450800965EC01F0035065EC01F071EC55
:1002980001F01200D6501F0B4009D66ED688D650F2
:1002A800F00B0809D66EE70ED46E950ED36ED5887E
:1002B800D58E12001B6A1A6A1C901C92000119EF55
:1002C80000F0026E2AEC01F002C0D5FE1200F28C9A
:1002D8000E01298B2B81F28E12002AEC01F00E01FF
:1002E800DA8512002AEC01F00E01DA8112001A4AAE
:0402F8001B2A1200AB
:020000040020DA
:10000000FF0FFF0FFF0FFF0FFF0FFF0FFF0FFF0F80
:020000040030CA
:0C000000AAFFFFFF9FFFFFFFFFFFFFFFB5
:00000001FF
