:0400000017EF00F006
:100008005F820E0133AB0BEF00F00DEF00F015EF40
:1000180000F0AEEC0DF0E70ED46E950ED36E0E0127
:10002800339B5F921100F8EF0AF01C501D10D8A402
:1000380020EF00F022EF00F03BEF00F01E0E146EF0
:10004800000E156E200E166E000E176EAEEC06F042
:10005800D8905B34D96E5C34DA6E6C0ED926010EFA
:10006800DA22FF0EDE6EFF0EDD6E5B4A5C2A1C0490
:100078001D10D8A442EF00F044EF00F05DEF00F04F
:100088001E0E146E000E156E200E166E000E176EE4
:10009800D6EC07F0D8905B34D96E5C34DA6E6C0E0F
:1000A800D926010EDA22FE0EDE6EFF0EDD6E5B4AE9
:1000B8005C2A020E1C181D10D8A465EF00F067EF2B
:1000C80000F094EF00F0000E256E000E246E1E0E58
:1000D800146E000E156E200E166E000E176EAEEC26
:1000E80006F0D8905B34D96E5C34DA6E6C0ED92683
:1000F800010EDA22FF0EDE6EFF0EDD6E5B4A5C2A11
:10010800244A252A25BE92EF00F0255009E1020E67
:10011800245CD8A092EF00F094EF00F06BEF00F0B1
:10012800030E1C181D10D8A49CEF00F09EEF00F0E1
:1001380034EF01F0D8905B34D96E5C34DA6E6A0E15
:10014800D926010EDA22010EDBBEB5EF00F0010E52
:10015800DB5009E10B0EDE5CD8A0B5EF00F0B7EF7D
:1001680000F0D5EF00F0D8905B34D96E5C34DA6ECD
:100178006A0ED926010EDA22EC0EDE26FF0EDD22EB
:10018800D8905B34D96E5C34DA6E6C0ED926010EC9
:10019800DA22FF0EDE6EFF0EDD6E5B4A5C2A34EF5C
:1001A80001F0D8905B34D96E5C34DA6E6A0ED926C9
:1001B800010EDA22DE2806E1DE28D8A4E6EF00F0F8
:1001C800E8EF00F0F5EF00F0D8905B34D96E5C34BE
:1001D800DA6E6A0ED926010EDA22FE0EDE6EFF0EE8
:1001E800DD6ED8905B34D96E5C34DA6E6A0ED9262F
:1001F800010EDA22FE0EDE1806E1DE28D8A407EF8B
:1002080001F009EF01F016EF01F0D8905B34D96ED8
:100218005C34DA6E6A0ED926010EDA22FF0EDE6E23
:10022800FF0EDD6ED8905B34D96E5C34DA6E6C0EDE
:10023800D926010EDA22140EDE6E000EDD6E5B4A40
:100248005C2AD8905B34D96E5C34DA6E6C0ED92691
:10025800010EDA22FE0EDE6EFF0EDD6E5B4A5C2AB0
:10026800040E1C181D10D8A43CEF01F03EEF01F05D
:10027800D4EF01F0D8905B34D96E5C34DA6E6A0E34
:10028800D926010EDA22010EDBBE55EF01F0010E70
:10029800DB5009E10B0EDE5CD8A055EF01F057EFFB
:1002A80001F075EF01F0D8905B34D96E5C34DA6EEA
:1002B8006A0ED926010EDA22EC0EDE26FF0EDD22AA
:1002C800D8905B34D96E5C34DA6E6C0ED926010E88
:1002D800DA22FE0EDE6EFF0EDD6E5B4A5C2AD4EF7C
:1002E80001F0D8905B34D96E5C34DA6E6A0ED92688
:1002F800010EDA22DE2806E1DE28D8A486EF01F016
:1003080088EF01F095EF01F0D8905B34D96E5C343A
:10031800DA6E6A0ED926010EDA22FE0EDE6EFF0EA6
:10032800DD6ED8905B34D96E5C34DA6E6A0ED926ED
:10033800010EDA22FE0EDE1806E1DE28D8A4A7EFA9
:1003480001F0A9EF01F0B6EF01F0D8905B34D96E57
:100358005C34DA6E6A0ED926010EDA22FF0EDE6EE2
:10036800FF0EDD6ED8905B34D96E5C34DA6E6C0E9D
:10037800D926010EDA22140EDE6E000EDD6E5B4AFF
:100388005C2AD8905B34D96E5C34DA6E6C0ED92650
:10039800010EDA22FF0EDE6EFF0EDD6E5B4A5C2A6E
:1003A800050E1C181D10D8A4DCEF01F0DEEF01F0DB
:1003B800F7EF01F01E0E146E000E156E200E166E6D
:1003C800000E176E1AEC06F0D8905B34D96E5C34C8
:1003D800DA6E6C0ED926010EDA22FD0EDE6EFF0EE5
:1003E800DD6E5B4A5C2A060E1C181D10D8A4FFEFB0
:1003F80001F001EF02F01AEF02F01E0E146E000E6B
:10040800156E200E166E000E176E42EC07F0D8908F
:100418005B34D96E5C34DA6E6C0ED926010EDA22A2
:10042800FC0EDE6EFF0EDD6E5B4A5C2A070E1C18A2
:100438001D10D8A422EF02F024EF02F042EF02F0E0
:10044800000E276E000E266E1E0E146E000E156E20
:10045800200E166E000E176EAEEC06F0264A272AFE
:1004680027BE40EF02F0275009E1020E265CD8A013
:1004780040EF02F042EF02F028EF02F01200000E07
:10048800026E040E016ECEEC0CF0120E386EDC0E0D
:10049800376E600EE82EFED7372EFCD7382EFAD7E7
:1004A8000AEC0CF005C0EEF006C0EFF00001F06BAE
:1004B800F16B000E026E020E016ECEEC0CF0120E05
:1004C800386EDC0E376E600EE82EFED7372EFCD75E
:1004D800382EFAD732EC0CF005C0F2F006C0F3F073
:1004E8000001F46BF56B000E026E010E016ECEEC8E
:1004F8000CF0120E386EDC0E376E600EE82EFED74A
:10050800372EFCD7382EFAD782EC0CF005C0F6F05F
:1005180006C0F7F00001F86BF96B000E026E000ED2
:10052800016ECEEC0CF04D500001EE5D4E50EF59CF
:100538004F50F0595050F159D8B0A5EF02F0A7EF3D
:1005480002F0B1EF02F0000ECE6F000ECF6F000E7A
:10055800D06F000ED16FE6EF02F04D50EE5D016EE8
:100568004E50EF59026E4F50F059036E5050F159EA
:10057800046E640E056E000E066E000E076E000E09
:10058800086E77EC0BF001C00DF002C00EF003C04E
:100598000FF004C010F04D500001605D116E4E5018
:1005A8006159126E4F506259136E50506359146E50
:1005B800CAEC09F00DC0CEF00EC0CFF00FC0D0F0DD
:1005C80010C0D1F0CEC0E2F0CFC0E3F0D0C0E4F06C
:1005D800D1C0E5F051500001F25D5250F35953502B
:1005E800F4595450F559D8B0FCEF02F0FEEF02F080
:1005F80008EF03F0000ED26F000ED36F000ED46F19
:10060800000ED56F3DEF03F05150F25D016E525070
:10061800F359026E5350F459036E5450F559046E51
:10062800640E056E000E066E000E076E000E086E54
:1006380077EC0BF001C00DF002C00EF003C00FF014
:1006480004C010F051500001645D116E525065599C
:10065800126E53506659136E54506759146ECAEC93
:1006680009F00DC0D2F00EC0D3F00FC0D4F010C006
:10067800D5F0D2C0E6F0D3C0E7F0D4C0E8F0D5C0DA
:10068800E9F055500001F65D5650F7595750F859A2
:100698005850F959D8B053EF03F055EF03F05FEF16
:1006A80003F0000ED66F000ED76F000ED86F000E45
:1006B800D96F94EF03F05550F65D016E5650F75917
:1006C800026E5750F859036E5850F959046E640E6B
:1006D800056E000E066E000E076E000E086E77ECB3
:1006E8000BF001C00DF002C00EF003C00FF004C003
:1006F80010F055500001685D116E56506959126E20
:1007080057506A59136E58506B59146ECAEC09F059
:100718000DC0D6F00EC0D7F00FC0D8F010C0D9F079
:10072800D6C0EAF0D7C0EBF0D8C0ECF0D9C0EDF0F5
:1007380020EEE2F000EE07F00B0EDBCFEBFFE80651
:10074800FCE221EE00F000EE13F00B0EDBCFEBFF26
:10075800E806FCE212EC04F007C0DAF008C0DBF0AF
:10076800000E0001DD6F000EDC6F000EE16F010E60
:10077800E06FE0C001F0E1C002F0000E046E0C0E64
:10078800036E53EC0DF0000E0124D96E010E022009
:10079800DA6E10EEC2F00B0EDBCFE3FFE806FCE2E8
:1007A80020EEE2F000EE07F00B0EDBCFEBFFE806E1
:1007B800FCE220EEC2F000EE13F00B0EDBCFEBFFF5
:1007C800E806FCE212EC04F007C0DEF008C0DFF037
:1007D8000001DA51DE5DDB51DF59D8B0F6EF03F0E6
:1007E800F8EF03F000EF04F0E0C0DCF0E1C0DDF06A
:1007F800DEC0DAF0DFC0DBF0E04BE12BE15109E1CC
:10080800090EE05DD8A00BEF04F00DEF04F0BDEF8A
:1008180003F0DCC035F0DDC036F012001350075C81
:10082800145008581550095816500A58D8B01FEFD8
:1008380004F021EF04F02FEF04F00750135C236E4F
:1008480008501458246E09501558256E0A50165829
:10085800266E3BEF04F01350075C236E14500858C3
:10086800246E15500958256E16500A58266E23C056
:100878002FF024C030F017500B5C18500C5819504A
:100888000D581A500E58D8B04CEF04F04EEF04F043
:100898005CEF04F00B50175C276E0C501858286E4C
:1008A8000D501958296E0E501A582A6E68EF04F028
:1008B80017500B5C276E18500C58286E19500D589D
:1008C800296E1A500E582A6E27C031F028C032F00F
:1008D8001B500F5C1C5010581D5011581E501258B8
:1008E800D8B079EF04F07BEF04F089EF04F00F50F3
:1008F8001B5C2B6E10501C582C6E11501D582D6E01
:1009080012501E582E6E95EF04F01B500F5C2B6E84
:100918001C5010582C6E1D5011582D6E1E50125818
:100928002E6E2BC033F02CC034F02FC001F030C035
:1009380002F02FC003F030C004F053EC0DF001C0FA
:100948001FF002C020F031C001F032C002F031C007
:1009580003F032C004F053EC0DF001501F24216E57
:1009680002502020226E33C001F034C002F033C0A0
:1009780003F034C004F053EC0DF001502124076E4D
:1009880002502220086E120020EE02F00E50D926E6
:100998000F50DA22DF50D8B4D4EF04F0D6EF04F0C9
:1009A8000AEF05F00EC0D9FF0FC0DAFFDF50106E56
:1009B8001050016E026A20EE03F00E50D9260F5037
:1009C800DA22DECF03F0DDCF04F053EC0DF001C0E6
:1009D80007F002C008F0000E0A6E640E096E3DECC6
:1009E8000BF020EE03F00E50D9260F50DA22DF501C
:1009F800116E0750115C126E20EE03F00E50D926CE
:100A08000F50DA22DF50136E2DEF05F0000E126E34
:100A18000EC0D9FF0FC0DAFFDF50106E1050016E04
:100A2800026A20EE03F00E50D9260F50DA22DECFEC
:100A380003F0DDCF04F053EC0DF001C007F002C065
:100A480008F0000E0A6E640E096E3DEC0BF00750BC
:100A5800136E20EE01F00E50D9260F50DA22DF5027
:100A6800D8B439EF05F03BEF05F05DEF05F020EE67
:100A780005F00E50D9260F50DA22DECF10F0DDCF68
:100A880011F010C0D9FF11C0DAFF12C0DFFF20EE4D
:100A980007F00E50D9260F50DA22DECF10F0DDCF46
:100AA80011F010C0D9FF11C0DAFF13C0DFFF7DEFCE
:100AB80005F020EE05F00E50D9260F50DA22DECFD1
:100AC80010F0DDCF11F010C0D9FF11C0DAFF13C04C
:100AD800DFFF20EE07F00E50D9260F50DA22DECFC6
:100AE80010F0DDCF11F010C0D9FF11C0DAFF12C02D
:100AF800DFFF12002AEC0DF0010E036E000E66EC0B
:100B08000DF03F0E146E550EE82EFED7142EFCD7AE
:100B180000F0030E036E000E66EC0DF0D50E036EAA
:100B2800010E66EC0DF0869E8792819820EEB4F057
:100B380011EE00F00B0EDBCFE3FFE806FCE220EE3F
:100B4800A8F011EE0CF00B0EDBCFE3FFE806FCE299
:100B580020EE9CF011EE18F00B0EDBCFE3FFE80659
:100B6800FCE220EE90F011EE24F00B0EDBCFE3FF59
:100B7800E806FCE220EE84F011EE30F00B0EDBCF3D
:100B8800E3FFE806FCE220EE78F011EE3CF00B0EF5
:100B9800DBCFE3FFE806FCE220EE6CF011EE48F054
:100BA8000B0EDBCFE3FFE806FCE221EEDCF011EEF2
:100BB80054F00B0EDBCFE3FFE806FCE221EED0F0A9
:100BC80011EE60F00B0EDBCFE3FFE806FCE2868651
:100BD8000E01B4978684B4958EA6F5EF05F0F7EF6D
:100BE80005F0FEEF05F08EB4FCEF05F0FEEF05F022
:100BF800F0EF05F08EB403EF06F005EF06F007EF0F
:100C080006F019EF06F075EC09F08EB60EEF06F057
:100C180010EF06F009EF06F06AEC08F08EB617EF51
:100C280006F019EF06F012EF06F01200000E1B6E28
:100C3800190E1A6E20EE01F01450D9261550DA223A
:100C4800010EDF6E20EE01F01650D9261750DA2279
:100C5800000EDF6E14C0D9FF15C0DAFF1AC0DFFF1F
:100C680016C0D9FF17C0DAFF1AC0DFFF14C00EF094
:100C780015C00FF0C8EC04F016C00EF017C00FF046
:100C8800C8EC04F00E0E196E120E186E690EE82EDE
:100C9800FED7182EFCD7192EFAD700F0050E1A2603
:100CA800000E1B221BBE62EF06F01B5009E1280E46
:100CB8001A5CD8A062EF06F064EF06F01EEF06F0AB
:100CC800000E1B6E1E0E1A6E20EE01F01450D9266F
:100CD8001550DA22010EDF6E20EE01F01650D926EB
:100CE8001750DA22000EDF6E14C0D9FF15C0DAFFE4
:100CF8001AC0DFFF16C0D9FF17C0DAFF1AC0DFFF1E
:100D080014C00EF015C00FF0C8EC04F016C00EF0B9
:100D180017C00FF0C8EC04F00D0E196EBF0E186E58
:100D28004C0EE82EFED7182EFCD7192EFAD7FB0E3C
:100D38001A26FF0E1B221BBEADEF06F01B5007E163
:100D4800100E1A5CD8B0ABEF06F0ADEF06F068EF06
:100D580006F01200000E1B6E190E1A6E20EE01F03E
:100D68001450D9261550DA22010EDF6E20EE01F05C
:100D78001650D9261750DA22000EDF6E14C0D9FF9C
:100D880015C0DAFF1AC0DFFF16C0D9FF17C0DAFF97
:100D98001AC0DFFF14C00EF015C00FF0C8EC04F045
:100DA80016C00EF017C00FF0C8EC04F0090E196E4B
:100DB800B00E186E580EE82EFED7182EFCD7192E36
:100DC800FAD700D0050E1A26000E1B221BBEF6EF1E
:100DD80006F01B5009E1280E1A5CD8A0F6EF06F0C1
:100DE800F8EF06F0B2EF06F0000E1B6E1E0E1A6E3C
:100DF80020EE01F01450D9261550DA22010EDF6ECC
:100E080020EE01F01650D9261750DA22000EDF6EB8
:100E180014C0D9FF15C0DAFF1AC0DFFF16C0D9FF0A
:100E280017C0DAFF1AC0DFFF14C00EF015C00FF0AC
:100E3800C8EC04F016C00EF017C00FF0C8EC04F0B0
:100E4800090E196E860E186ECA0EE82EFED7182ED9
:100E5800FCD7192EFAD7FB0E1A26FF0E1B221BBE33
:100E680041EF07F01B5007E1100E1A5CD8B03FEFB6
:100E780007F041EF07F0FCEF06F01200000E1B6EC2
:100E8800170E1A6E20EE01F01450D9261550DA22EA
:100E9800000EDF6E20EE01F01650D9261750DA2228
:100EA800010EDF6E14C0D9FF15C0DAFF1AC0DFFFCC
:100EB80016C0D9FF17C0DAFF1AC0DFFF14C00EF042
:100EC80015C00FF0C8EC04F016C00EF017C00FF0F4
:100ED800C8EC04F00D0E196EAA0E186E840EE82EDA
:100EE800FED7182EFCD7192EFAD700D0050E1A26D1
:100EF800000E1B221BBE8AEF07F01B5009E1260ECD
:100F08001A5CD8A08AEF07F08CEF07F046EF07F0DD
:100F1800000E1B6E1C0E1A6E20EE01F01450D9261E
:100F28001550DA22000EDF6E20EE01F01650D92699
:100F38001750DA22010EDF6E14C0D9FF15C0DAFF90
:100F48001AC0DFFF16C0D9FF17C0DAFF1AC0DFFFCB
:100F580014C00EF015C00FF0C8EC04F016C00EF067
:100F680017C00FF0C8EC04F00D0E196E2D0E186E98
:100F7800D80EE82EFED7182EFCD7192EFAD7FB0E5E
:100F88001A26FF0E1B221BBED5EF07F01B5007E1E8
:100F98000E0E1A5CD8B0D3EF07F0D5EF07F090EF3C
:100FA80007F01200000E1B6E170E1A6E20EE01F0ED
:100FB8001450D9261550DA22000EDF6E20EE01F00B
:100FC8001650D9261750DA22010EDF6E14C0D9FF49
:100FD80015C0DAFF1AC0DFFF16C0D9FF17C0DAFF45
:100FE8001AC0DFFF14C00EF015C00FF0C8EC04F0F3
:100FF80016C00EF017C00FF0C8EC04F0090E196EF9
:10100800720E186E020EE82EFED7182EFCD7192E77
:10101800FAD7050E1A26000E1B221BBE1DEF08F07C
:101028001B5009E1260E1A5CD8A01DEF08F01FEF2F
:1010380008F0DAEF07F0000E1B6E1C0E1A6E20EE99
:1010480001F01450D9261550DA22000EDF6E20EE7A
:1010580001F01650D9261750DA22010EDF6E14C09F
:10106800D9FF15C0DAFF1AC0DFFF16C0D9FF17C0B5
:10107800DAFF1AC0DFFF14C00EF015C00FF0C8EC7D
:1010880004F016C00EF017C00FF0C8EC04F0090EFB
:10109800196E1E0E186EE40EE82EFED7182EFCD719
:1010A800192EFAD700D0FB0E1A26FF0E1B221BBEE4
:1010B80069EF08F01B5007E10E0E1A5CD8B067EF15
:1010C80008F069EF08F023EF08F01200000E026E36
:1010D800040E016ECEEC0CF0120E0F6EDC0E0E6ECE
:1010E800600EE82EFED70E2EFCD70F2EFAD70AEC8C
:1010F8000CF005C04DF006C04EF04F6A506A000E65
:10110800026E020E016ECEEC0CF0120E0F6EDC0EAB
:101118000E6E600EE82EFED70E2EFCD70F2EFAD7D5
:1011280032EC0CF005C051F006C052F0536A546A14
:10113800000E026E010E016ECEEC0CF0120E0F6E58
:10114800DC0E0E6E600EE82EFED70E2EFCD70F2E8C
:10115800FAD782EC0CF005C055F006C056F0576A75
:10116800586A000E026E000E016ECEEC0CF0120EE4
:101178000F6EDC0E0E6E600EE82EFED70E2EFCD71C
:101188000F2EFAD75AEC0CF005C010F006C011F07B
:10119800000E026E070E016ECEEC0CF0120E0F6EF2
:1011A800DC0E0E6E600EE82EFED70E2EFCD70F2E2C
:1011B800FAD75AEC0CF005C012F006C013F0000E76
:1011C800026E000E016ECEEC0CF012C007F013C0D8
:1011D80008F010C009F011C00AF03DEC0BF0D890EF
:1011E80008300E6E0730596E0EC05AF0120076ECB9
:1011F8000DF099EC0DF0000E026E630E016E6AECB4
:101208000AF07EEC05F00E01B4958684000E3B6E64
:10121800010E3C6E010E3D6EAA0E406E0F0E416E21
:10122800A60E426E0F0E436E000E3F6E630E3E6EAC
:10123800000E446E010E456E010E466E250E496E77
:101248000F0E4A6E210E4B6E0F0E4C6E000E486E3E
:10125800630E476E3B0E146E000E156E440E166E2E
:10126800000E176EDDEC0BF01CEC0AF00C040D10F0
:10127800D8A441EF09F043EF09F038EF09F0AAECE0
:101288000CF03B0E146E000E156E440E166E000E1A
:10129800176E11EC0DF043EC02F035C039F036C092
:1012A8003AF03B0E146E000E156E440E166E000ECC
:1012B800176E000E196E0A0E186EB2EC0AF039C0DD
:1012C8001CF03AC01DF03B0E1E6E000E1F6E440E41
:1012D800206E000E216E19EC00F02EEF09F017EFCA
:1012E80000F0000E026E040E016ECEEC0CF0120E31
:1012F8000D6EDC0E0C6E600EE82EFED70C2EFCD7A1
:101308000D2EFAD70AEC0CF005C060F006C061F0AB
:101318000001626B636B000E026E020E016ECEEC72
:101328000CF0120E0D6EDC0E0C6E600EE82EFED761
:101338000C2EFCD70D2EFAD732EC0CF005C064F059
:1013480006C065F00001666B676B000E026E010E49
:10135800016ECEEC0CF0120E0D6EDC0E0C6E600EF3
:10136800E82EFED70C2EFCD70D2EFAD782EC0CF007
:1013780005C068F006C069F000016A6B6B6B000E6F
:10138800026E000E016ECEEC0CF01200000E156E0F
:10139800000E166E000E176E000E186E1150121009
:1013A80013101410D8B4DBEF09F0DDEF09F013EFD8
:1013B8000AF0010E196EE7EF09F0D89011361236CF
:1013C80013361436192A14AEECEF09F0EEEF09F0D3
:1013D800E1EF09F0D8901536163617361836115041
:1013E8000D5C12500E5813500F5814501058D8A0B6
:1013F80000EF0AF002EF0AF00BEF0AF011500D5E51
:1014080012500E5A13500F5A1450105A1580D89073
:101418001432133212321132192EEEEF09F015C0C0
:101428000DF016C00EF017C00FF018C010F0120023
:10143800000E026E000E016ECEEC0CF0120E0F6E56
:10144800DC0E0E6E600EE82EFED70E2EFCD70F2E89
:10145800FAD75AEC0CF005C010F006C011F0000ED7
:10146800026E070E016ECEEC0CF0120E0F6EDC0E43
:101478000E6E600EE82EFED70E2EFCD70F2EFAD772
:101488005AEC0CF005C012F006C013F0000E026E04
:10149800000E016ECEEC0CF010C001F011C002F08D
:1014A80059C003F05AC004F053EC0DF00150125C1F
:1014B80002501358D8B063EF0AF066EF0AF0010E35
:1014C80067EF0AF0000E0C6E0D6A12008594839E79
:1014D800879C85987D947B9E7F9C7D98050E0E0148
:1014E800746F060E766F070E696F080E886FBD5011
:1014F8008F0B4009BD6EE00EBE16BF50F00B010900
:10150800BF6E630EBC6EBD8E000EAA6E000EA66E78
:10151800000E0F01256F000E216FFC0EAD16F30EA5
:10152800AD16CF0EAD163F0EAD16AB88AB50F00B17
:101538000C09AB6EAB8EA788A750F00B0C09A76EF1
:10154800A78E26892651F00B0C09266F268F228933
:101558002251F00B0C09226F228F1200000E5E6ED2
:10156800000E5D6EECEF0AF020EE01F01450D92663
:101578001550DA22000EDF6E20EE01F01650D92643
:101588001750DA22000EDF6E14C0D9FF15C0DAFF3B
:10159800320EDF6E16C0D9FF17C0DAFF320EDF6ECB
:1015A80014C00EF015C00FF0C8EC04F016C00EF011
:1015B80017C00FF0C8EC04F0290E1B6E960E1A6EB9
:1015C8007F0EE82EFED71A2EFCD71B2EFAD700F076
:1015D80018505D5C19505E58D8A0F5EF0AF0F7EF87
:1015E8000AF0B8EF0AF012001A0EF66E1B0EF76E2C
:1015F800000EF86E01EEDCF010EE0CF00900F5CFED
:10160800EEFFE550E150FAE1580EF66E170EF76E50
:10161800000EF86E00EE60F010EE62F00900F5CFF3
:10162800EEFFE550E150FAE10C0EF66E1B0EF76E78
:10163800000EF86E00EE4DF010EE0EF00900F5CF3A
:10164800EEFFE550E150FAE101EE00F0DC0EEE6A43
:10165800E806FDE100EEEEF00C0EEE6AE806FDE1AC
:101668005E6A5D6A5C6A5B6A5F905F920001FBEF8D
:1016780008F0000E0C6E000E0B6E09500A10D8B45C
:1016880048EF0BF04AEF0BF072EF0BF0010E0D6E06
:1016980052EF0BF0D89009360A360D2A0AAE57EFEA
:1016A8000BF059EF0BF04EEF0BF0D8900B360C36D1
:1016B8000950075C0A500858D8A065EF0BF067EF8F
:1016C8000BF06CEF0BF00950075E0A50085A0B80BC
:1016D800D8900A3209320D2E59EF0BF00BC007F0E3
:1016E8000CC008F01200000E096E000E0A6E000E03
:1016F8000B6E000E0C6E01A084EF0BF086EF0BF062
:101708008EEF0BF00550092606500A2207500B22CF
:1017180008500C22D8900536063607360836D89079
:101728000432033202320132015002100310041055
:10173800D8A4A1EF0BF0A3EF0BF07FEF0BF009C0DB
:1017480001F00AC002F00BC003F00CC004F0120054
:10175800FC280000551B0000700700002600000050
:1017680048000000540000005C0000002700000052
:101778001C0000004D0000003C000000400000007C
:101788005D0000004C000000140000000300000091
:1017980009000000240000001900000036000000C5
:1017A80008000000480000000200000002000000DD
:1017B800DC00000E5E6E000E5D6E20EE01F014502F
:1017C800D9261550DA22010EDF6E20EE01F01650F0
:1017D800D9261750DA22010EDF6E14C0D9FF15C0C2
:1017E800DAFF280EDF6E16C0D9FF17C0DAFF260E03
:1017F800DF6E14C00EF015C00FF0C8EC04F016C070
:101808000EF017C00FF0C8EC04F01200A4EC0DF0B5
:10181800520E93EC0DF0B60E93EC0DF0A9EC0DF012
:10182800530E93EC0DF0010EF0EC0CF0076E075020
:101838000A6E0B6A000EF0EC0CF0076E0750096E8A
:10184800086A0A5008100A6E0B5009100B6E9FECBC
:101858000DF00AC005F00BC006F01200A4EC0DF064
:10186800520E93EC0DF0B80E93EC0DF0A9EC0DF0C0
:10187800530E93EC0DF0010EF0EC0CF0076E0750D0
:101888000A6E0B6A000EF0EC0CF0076E0750096E3A
:10189800086A0A5008100A6E0B5009100B6E9FEC6C
:1018A8000DF00AC005F00BC006F01200A4EC0DF014
:1018B800520E93EC0DF0B40E93EC0DF0A9EC0DF074
:1018C800530E93EC0DF0010EF0EC0CF0076E075080
:1018D8000A6E0B6A000EF0EC0CF0076E0750096EEA
:1018E800086A0A5008100A6E0B5009100B6E9FEC1C
:1018F8000DF00AC005F00BC006F01200A4EC0DF0C4
:10190800520E93EC0DF0BA0E93EC0DF0A9EC0DF01D
:10191800530E93EC0DF0010EF0EC0CF0076E07502F
:101928000A6E0B6A000EF0EC0CF0076E0750096E99
:10193800086A0A5008100A6E0B5009100B6E9FECCB
:101948000DF00AC005F00BC006F012005EBEB6EF3F
:101958000CF05E5009E1150E5D5CD8A0B6EF0CF0F6
:10196800B8EF0CF0CDEF0CF0F60E5D24016EFF0E13
:101978005E20026ED8905B34D96E5C34DA6E6C0EE1
:10198800D926010EDA2201C0DEFF02C0DDFF5B4A64
:101998005C2A120001A4D3EF0CF0D5EF0CF0D8EFBD
:1019A8000CF07F82D9EF0CF07F9201A2DEEF0CF0F1
:1019B800E0EF0CF0E3EF0CF07988E4EF0CF07998A5
:1019C80001A0E9EF0CF0EBEF0CF0EEEF0CF07E8EDF
:1019D800EFEF0CF07E9E1200036E3FEC0DF00E014F
:1019E800DA873FEC0DF0D5CE04F03FEC0DF0035054
:1019F800D8B401EF0DF005EF0DF0026A022A06EFE8
:101A08000DF0026A023A02460E01DA510218DF0BA3
:101A18000218DA6FDA890450120014C0D9FF15C011
:101A2800DAFF000EDF6E16C0D9FF17C0DAFF000E0E
:101A3800DF6E14C00EF015C00FF0C8EC04F016C02D
:101A48000EF017C00FF0C8EC04F012000E01D951C7
:101A5800F00B0809D96FD98B9F0ED66F848A848CB6
:101A6800A79BA79D1D0E1D6F1E0E1C6F1C0E6F6F72
:101A78001B0E706F12000E01D8B545EF0DF047EF41
:101A88000DF03FEF0DF0DACE01F01F0E0116D8A4CD
:101A980050EF0DF052EF0DF03FEF0DF01200015036
:101AA8000302F3CF05F0F4CF06F001500402F3501F
:101AB800062602500302F350062605C001F006C0B0
:101AC80002F01200046EA4EC0DF0520E93EC0DF02F
:101AD8000450800993EC0DF0035093EC0DF09FEC4B
:101AE8000DF01200D6501F0B4009D66ED688D6507E
:101AF800F00B0809D66EE70ED46E950ED36ED58816
:101B0800D58E1200040400004B020000A100000062
:101B18000F00640000006400000064000000026E12
:101B28003FEC0DF002C0D5FE1200F28C0E01298B9D
:101B38002B81F28E12003FEC0DF00E01DA851200B7
:101B48003FEC0DF00E01DA8112003FEC0DF00E01B2
:0A1B5800DA8312005D4A5E2A1200D3
:020000040020DA
:10000000FF0FFF0FFF0FFF0FFF0FFF0FFF0FFF0F80
:020000040030CA
:0C000000AAFFFFFF9FFFFFFFFFFFFFFFB5
:00000001FF
