:0400000017EF00F006
:100008005F820E0133AB0BEF00F00DEF00F015EF40
:1000180000F003EC09F0E70ED46E950ED36E0E01D6
:10002800339B5F92110075EF06F0000E026E040E0E
:10003800016E22EC08F0120E386EDC0E376E600E80
:10004800E82EFED7372EFCD7382EFAD782EC07F0E9
:1000580005C0ECF006C0EDF00001EE6BEF6B000E92
:10006800026E020E016E22EC08F0120E386EDC0EE3
:10007800376E600EE82EFED7372EFCD7382EFAD70B
:10008800AAEC07F005C0F0F006C0F1F00001F26B31
:10009800F36B000E026E010E016E22EC08F0120ED8
:1000A800386EDC0E376E600EE82EFED7372EFCD782
:1000B800382EFAD7FAEC07F005C0F4F006C0F5F0D0
:1000C8000001F66BF76B000E026E000E016E22EC5B
:1000D80008F04B500001EC5D4C50ED594D50EE5975
:1000E8004E50EF59D8B07BEF00F07DEF00F087EF6E
:1000F80000F0000ECC6F000ECD6F000ECE6F000E1C
:10010800CF6FBCEF00F04B50EC5D016E4C50ED59D9
:10011800026E4D50EE59036E4E50EF59046E640E48
:10012800056E000E066E000E076E000E086EF4ECEB
:1001380006F001C00DF002C00EF003C00FF004C0BD
:1001480010F04B500001605D116E4C506159126EF9
:100158004D506259136E4E506359146E47EC05F0BA
:100168000DC0CCF00EC0CDF00FC0CEF010C0CFF057
:10017800CCC0E0F0CDC0E1F0CEC0E2F0CFC0E3F0FB
:100188004F500001F05D5050F1595150F259525002
:10019800F359D8B0D2EF00F0D4EF00F0DEEF00F062
:1001A800000ED06F000ED16F000ED26F000ED36F0D
:1001B80013EF01F04F50F05D016E5050F159026E8F
:1001C8005150F259036E5250F359046E640E056E85
:1001D800000E066E000E076E000E086EF4EC06F0B8
:1001E80001C00DF002C00EF003C00FF004C010F003
:1001F8004F500001645D116E50506559126E515098
:100208006659136E52506759146E47EC05F00DC0CD
:10021800D0F00EC0D1F00FC0D2F010C0D3F0D0C0D3
:10022800E4F0D1C0E5F0D2C0E6F0D3C0E7F0535017
:100238000001F45D5450F5595550F6595650F75988
:10024800D8B029EF01F02BEF01F035EF01F0000EE7
:10025800D46F000ED56F000ED66F000ED76F6AEF01
:1002680001F05350F45D016E5450F559026E55502B
:10027800F659036E5650F759046E640E056E000E5B
:10028800066E000E076E000E086EF4EC06F001C054
:100298000DF002C00EF003C00FF004C010F0535070
:1002A8000001685D116E54506959126E55506A59B3
:1002B800136E56506B59146E47EC05F00DC0D4F010
:1002C8000EC0D5F00FC0D6F010C0D7F0D4C0E8F0FB
:1002D800D5C0E9F0D6C0EAF0D7C0EBF020EEE0F0E8
:1002E80000EE07F00B0EDBCFEBFFE806FCE221EE99
:1002F80000F000EE13F00B0EDBCFEBFFE806FCE29C
:100308009EEC02F007C0D8F008C0D9F0000E00013A
:10031800DB6F000EDA6F000EDF6F010EDE6FDEC0DE
:1003280001F0DFC002F0000E046E0C0E036EA7ECA5
:1003380008F0000E0124D96E010E0220DA6E10EECC
:10034800C0F00B0EDBCFE3FFE806FCE220EEE0F0A6
:1003580000EE07F00B0EDBCFEBFFE806FCE220EE29
:10036800C0F000EE13F00B0EDBCFEBFFE806FCE26B
:100378009EEC02F007C0DCF008C0DDF00001D851A7
:10038800DC5DD951DD59D8B0CCEF01F0CEEF01F0EA
:10039800D6EF01F0DEC0DAF0DFC0DBF0DCC0D8F069
:1003A800DDC0D9F0DE4BDF2BDF5109E1090EDE5D40
:1003B800D8A0E1EF01F0E3EF01F093EF01F0DAC02C
:1003C80035F0DBC036F0120020EE02F00E50D926D0
:1003D8000F50DA22DF50D8B4F4EF01F0F6EF01F055
:1003E8002AEF02F00EC0D9FF0FC0DAFFDF50106EFF
:1003F8001050016E026A20EE03F00E50D9260F50FD
:10040800DA22DECF03F0DDCF04F0A7EC08F001C05C
:1004180007F002C008F0000E0A6E640E096EBAEC0E
:1004280006F020EE03F00E50D9260F50DA22DF50E6
:10043800116E0750115C126E20EE03F00E50D92693
:100448000F50DA22DF50136E4DEF02F0000E126EDD
:100458000EC0D9FF0FC0DAFFDF50106E1050016ECA
:10046800026A20EE03F00E50D9260F50DA22DECFB2
:1004780003F0DDCF04F0A7EC08F001C007F002C0DC
:1004880008F0000E0A6E640E096EBAEC06F007500A
:10049800136E20EE01F00E50D9260F50DA22DF50ED
:1004A800D8B459EF02F05BEF02F07DEF02F020EED6
:1004B80005F00E50D9260F50DA22DECF10F0DDCF2E
:1004C80011F010C0D9FF11C0DAFF12C0DFFF20EE13
:1004D80007F00E50D9260F50DA22DECF10F0DDCF0C
:1004E80011F010C0D9FF11C0DAFF13C0DFFF9DEF74
:1004F80002F020EE05F00E50D9260F50DA22DECF9A
:1005080010F0DDCF11F010C0D9FF11C0DAFF13C011
:10051800DFFF20EE07F00E50D9260F50DA22DECF8B
:1005280010F0DDCF11F010C0D9FF11C0DAFF12C0F2
:10053800DFFF12001350075C145008581550095873
:1005480016500A58D8B0ABEF02F0ADEF02F0BBEF8F
:1005580002F00750135C236E08501458246E09509B
:100568001558256E0A501658266EC7EF02F013501C
:10057800075C236E14500858246E15500958256ED0
:1005880016500A58266E23C02FF024C030F017509A
:100598000B5C18500C5819500D581A500E58D8B0FA
:1005A800D8EF02F0DAEF02F0E8EF02F00B50175C38
:1005B800276E0C501858286E0D501958296E0E5079
:1005C8001A582A6EF4EF02F017500B5C276E185079
:1005D8000C58286E19500D58296E1A500E582A6E4C
:1005E80027C031F028C032F01B500F5C1C50105847
:1005F8001D5011581E501258D8B005EF03F007EFE0
:1006080003F015EF03F00F501B5C2B6E10501C58B5
:100618002C6E11501D582D6E12501E582E6E21EF43
:1006280003F01B500F5C2B6E1C5010582C6E1D5085
:1006380011582D6E1E5012582E6E2BC033F02CC040
:1006480034F02FC001F030C002F02FC003F030C0EA
:1006580004F0A7EC08F001C01FF002C020F031C080
:1006680001F032C002F031C003F032C004F0A7EC50
:1006780008F001501F24216E02502020226E33C042
:1006880001F034C002F033C003F034C004F0A7EC2A
:1006980008F001502124076E02502220086E120033
:1006A8007EEC08F0010E036E000EBAEC08F03F0E67
:1006B800166E550EE82EFED7162EFCD700F0030E48
:1006C800036E000EBAEC08F0D50E036E010EBAECFC
:1006D80008F0869E8792819820EEB4F011EE00F023
:1006E8000B0EDBCFE3FFE806FCE220EEA8F011EEEC
:1006F8000CF00B0EDBCFE3FFE806FCE220EE9CF0EB
:1007080011EE18F00B0EDBCFE3FFE806FCE220EE5B
:1007180090F011EE24F00B0EDBCFE3FFE806FCE2CD
:1007280020EE84F011EE30F00B0EDBCFE3FFE8068D
:10073800FCE220EE78F011EE3CF00B0EDBCFE3FF8D
:10074800E806FCE220EE6CF011EE48F00B0EDBCF71
:10075800E3FFE806FCE221EEDCF011EE54F00B0EAC
:10076800DBCFE3FFE806FCE221EED0F011EE60F00B
:100778000B0EDBCFE3FFE806FCE286860E01B4979A
:100788008684B4958EA6CBEF03F0CDEF03F0D4EFBB
:1007980003F08EB4D2EF03F0D4EF03F0C6EF03F00A
:1007A8008EB4D9EF03F0DBEF03F0DDEF03F0EFEFEA
:1007B80003F0F2EC04F08EB6E4EF03F0E6EF03F09A
:1007C800DFEF03F0F0EC03F08EB6EDEF03F0EFEFA0
:1007D80003F0E8EF03F01200000E026E040E016E43
:1007E80022EC08F0120E0F6EDC0E0E6E600EE82E74
:1007F800FED70E2EFCD70F2EFAD782EC07F005C0D5
:100808004BF006C04CF04D6A4E6A000E026E020EA6
:10081800016E22EC08F0120E0F6EDC0E0E6E600EEA
:10082800E82EFED70E2EFCD70F2EFAD7AAEC07F02B
:1008380005C04FF006C050F0516A526A000E026EB1
:10084800010E016E22EC08F0120E0F6EDC0E0E6E19
:10085800600EE82EFED70E2EFCD70F2EFAD7FAEC34
:1008680007F005C053F006C054F0556A566A000EEA
:10087800026E000E016E22EC08F0120E0F6EDC0EF6
:100888000E6E600EE82EFED70E2EFCD70F2EFAD76E
:10089800D2EC07F005C010F006C011F0000E026E91
:1008A800070E016E22EC08F0120E0F6EDC0E0E6EB3
:1008B800600EE82EFED70E2EFCD70F2EFAD7D2ECFC
:1008C80007F005C012F006C013F0000E026E000E0D
:1008D800016E22EC08F010C009F011C00AF012C035
:1008E80007F013C008F0BAEC06F007C014F008C00F
:1008F80015F014C007F015C008F0000E0A6E050EBA
:10090800096EBAEC06F007C059F008C05AF0120098
:10091800CAEC08F0EEEC08F0000E026E630E016EF1
:10092800E7EC05F054EC03F00E01B4958684000E54
:10093800396E010E3A6E010E3B6EAA0E3E6E0F0E18
:100948003F6EA60E406E0F0E416E000E3D6E630E9A
:100958003C6E000E426E010E436E010E446E250E73
:10096800476E0F0E486E210E496E0F0E4A6E000E2E
:10097800466E630E456E390E146E000E156E420EED
:10098800166E000E176E59EC07F099EC05F00C0482
:100998000D10D8A4D2EF04F0D4EF04F0C9EF04F09E
:1009A800390E146E000E156E420E166E000E176E7E
:1009B80065EC08F019EC00F0390E146E000E156E97
:1009C800420E166E000E176E000E196E140E186E7B
:1009D8002FEC06F0BFEF04F017EF00F0000E026EE8
:1009E800040E016E22EC08F0120E0D6EDC0E0C6E79
:1009F800600EE82EFED70C2EFCD70D2EFAD782EC0F
:100A080007F005C060F006C061F00001626B636B1F
:100A1800000E026E020E016E22EC08F0120E0D6E30
:100A2800DC0E0C6E600EE82EFED70C2EFCD70D2EB9
:100A3800FAD7AAEC07F005C064F006C065F000011B
:100A4800666B676B000E026E010E016E22EC08F0F9
:100A5800120E0D6EDC0E0C6E600EE82EFED70C2EFC
:100A6800FCD70D2EFAD7FAEC07F005C068F006C0DF
:100A780069F000016A6B6B6B000E026E000E016E6E
:100A880022EC08F01200000E156E000E166E000E15
:100A9800176E000E186E1150121013101410D8B4DF
:100AA80058EF05F05AEF05F090EF05F0010E196EBA
:100AB80064EF05F0D8901136123613361436192A19
:100AC80014AE69EF05F06BEF05F05EEF05F0D89016
:100AD800153616361736183611500D5C12500E584A
:100AE80013500F5814501058D8A07DEF05F07FEF21
:100AF80005F088EF05F011500D5E12500E5A135094
:100B08000F5A1450105A1580D890143213321232DA
:100B18001132192E6BEF05F015C00DF016C00EF04E
:100B280017C00FF018C010F01200000E026E000E71
:100B3800016E22EC08F0120E0F6EDC0E0E6E600EC7
:100B4800E82EFED70E2EFCD70F2EFAD7D2EC07F0E0
:100B580005C010F006C011F0000E026E070E016EFF
:100B680022EC08F0120E0F6EDC0E0E6E600EE82EF0
:100B7800FED70E2EFCD70F2EFAD7D2EC07F005C001
:100B880012F006C013F0000E026E000E016E22EC89
:100B980008F010C001F011C002F059C003F05AC0AB
:100BA80004F0A7EC08F00150125C02501358D8B0BA
:100BB800E0EF05F0E3EF05F0010EE4EF05F0000EBD
:100BC8000C6E0D6A12008594839E879C85987D948F
:100BD8007B9E7F9C7D98050E0E01746F060E766FC6
:100BE800070E696F080E886FBD508F0B4009BD6EE8
:100BF800E00EBE16BF50F00B0109BF6E630EBC6E4F
:100C0800BD8E000EAA6E000EA66E000E0F01256F97
:100C1800000E216FFC0EAD16F30EAD16CF0EAD16FD
:100C28003F0EAD16AB88AB50F00B0C09AB6EAB8E1C
:100C3800A788A750F00B0C09A76EA78E2689265106
:100C4800F00B0C09266F268F22892251F00B0C0914
:100C5800226F228F1200000E5E6E000E5D6E69EF2D
:100C680006F020EE01F01450D9261550DA22000EB5
:100C7800DF6E20EE01F01650D9261750DA22000E4A
:100C8800DF6E14C0D9FF15C0DAFF320EDF6E16C052
:100C9800D9FF17C0DAFF320EDF6E14C00EF015C090
:100CA8000FF0E8EC01F016C00EF017C00FF0E8ECFA
:100CB80001F0290E1B6E960E1A6E7F0EE82EFED7D7
:100CC8001A2EFCD71B2EFAD700F018505D5C19506D
:100CD8005E58D8A072EF06F074EF06F035EF06F014
:100CE8001200C40EF66E110EF76E000EF86E01EECD
:100CF800DCF010EE0CF00900F5CFEEFFE550E15006
:100D0800FAE1520EF66E0E0EF76E000EF86E00EE59
:100D180060F010EE60F00900F5CFEEFFE550E1500D
:100D2800FAE1B40EF66E110EF76E000EF86E00EED4
:100D38004BF010EE10F00900F5CFEEFFE550E15052
:100D4800FAE101EE00F0DC0EEE6AE806FDE100EEE5
:100D5800ECF00C0EEE6AE806FDE15E6A5D6A5C6A1C
:100D68005B6A5F905F9200018CEF04F0000E0C6EDE
:100D7800000E0B6E09500A10D8B4C5EF06F0C7EF85
:100D880006F0EFEF06F0010E0D6ECFEF06F0D890EB
:100D980009360A360D2A0AAED4EF06F0D6EF06F069
:100DA800CBEF06F0D8900B360C360950075C0A508A
:100DB8000858D8A0E2EF06F0E4EF06F0E9EF06F0F5
:100DC8000950075E0A50085A0B80D8900A32093237
:100DD8000D2ED6EF06F00BC007F00CC008F012007D
:100DE800000E096E000E0A6E000E0B6E000E0C6EE1
:100DF80001A001EF07F003EF07F00BEF07F0055034
:100E0800092606500A2207500B2208500C22D890B7
:100E18000536063607360836D890043203320232D1
:100E280001320150021003100410D8A41EEF07F07D
:100E380020EF07F0FCEF06F009C001F00AC002F04D
:100E48000BC003F00CC004F01200FC280000551B76
:100E58000000700700002600000048000000540051
:100E680000005C000000270000001C0000004D008E
:100E780000003C000000400000005D0000004C0045
:100E88000000140000000300000009000000240016
:100E980000001900000036000000080000004800AB
:100EA8000000020000000200000020EE01F01450D3
:100EB800D9261550DA22FF0EDF6E20EE01F016500B
:100EC800D9261750DA22FF0EDF6E14C0D9FF15C0DD
:100ED800DAFF320EDF6E16C0D9FF17C0DAFF320E06
:100EE800DF6E14C00EF015C00FF0E8EC01F016C06C
:100EF8000EF017C00FF0E8EC01F01200F9EC08F062
:100F0800520EE8EC08F0B60EE8EC08F0FEEC08F03B
:100F1800530EE8EC08F0010E44EC08F0076E075099
:100F28000A6E0B6A000E44EC08F0076E0750096E53
:100F3800086A0A5008100A6E0B5009100B6EF4EC80
:100F480008F00AC005F00BC006F01200F9EC08F032
:100F5800520EE8EC08F0B80EE8EC08F0FEEC08F0E9
:100F6800530EE8EC08F0010E44EC08F0076E075049
:100F78000A6E0B6A000E44EC08F0076E0750096E03
:100F8800086A0A5008100A6E0B5009100B6EF4EC30
:100F980008F00AC005F00BC006F01200F9EC08F0E2
:100FA800520EE8EC08F0B40EE8EC08F0FEEC08F09D
:100FB800530EE8EC08F0010E44EC08F0076E0750F9
:100FC8000A6E0B6A000E44EC08F0076E0750096EB3
:100FD800086A0A5008100A6E0B5009100B6EF4ECE0
:100FE80008F00AC005F00BC006F01200F9EC08F092
:100FF800520EE8EC08F0BA0EE8EC08F0FEEC08F047
:10100800530EE8EC08F0010E44EC08F0076E0750A8
:101018000A6E0B6A000E44EC08F0076E0750096E62
:10102800086A0A5008100A6E0B5009100B6EF4EC8F
:1010380008F00AC005F00BC006F0120001A427EF63
:1010480008F029EF08F02CEF08F07F822DEF08F068
:101058007F9201A232EF08F034EF08F037EF08F082
:10106800798838EF08F0799801A03DEF08F03FEF54
:1010780008F042EF08F07E8E43EF08F07E9E1200E3
:10108800036E93EC08F00E01DA8793EC08F0D5CEE6
:1010980004F093EC08F00350D8B455EF08F059EF7A
:1010A80008F0026A022A5AEF08F0026A023A024677
:1010B8000E01DA510218DF0B0218DA6FDA890450D0
:1010C800120014C0D9FF15C0DAFF000EDF6E16C07B
:1010D800D9FF17C0DAFF000EDF6E14C00EF015C07E
:1010E8000FF0E8EC01F016C00EF017C00FF0E8ECB6
:1010F80001F012000E01D951F00B0809D96FD98BF4
:101108009F0ED66F848A848CA79BA79D1D0E1D6F8A
:101118001E0E1C6F1C0E6F6F1B0E706F12000E01DF
:10112800D8B599EF08F09BEF08F093EF08F0DACE06
:1011380001F01F0E0116D8A4A4EF08F0A6EF08F0DE
:1011480093EF08F0120001500302F3CF05F0F4CF3B
:1011580006F001500402F350062602500302F35031
:10116800062605C001F006C002F01200046EF9EC74
:1011780008F0520EE8EC08F004508009E8EC08F09A
:101188000350E8EC08F0F4EC08F01200D6501F0BFE
:101198004009D66ED688D650F00B0809D66EE70EF1
:1011A800D46E950ED36ED588D58E12000404000037
:1011B8004B020000A1000000DC000F0064000000EA
:1011C8006400000064000000026E93EC08F002C0A6
:1011D800D5FE1200F28C0E01298B2B81F28E1200A3
:1011E80093EC08F00E01DA85120093EC08F00E017A
:1011F800DA81120093EC08F00E01DA8312005D4ADE
:041208005E2A120048
:020000040020DA
:10000000FF0FFF0FFF0FFF0FFF0FFF0FFF0FFF0F80
:020000040030CA
:0C000000AAFFFFFF9FFFFFFFFFFFFFFFB5
:00000001FF
