:0400000017EF00F006
:1000080030820E0133AB0BEF00F00DEF00F015EF6F
:1000180000F0B7EC02F0E70ED46E950ED36E0E0129
:10002800339B309211003CEF02F0000E026E000E7E
:10003800016ED8EC01F038EC01F005C024F006C0E0
:1000480025F0290E0F6E960E0E6E7F0EE82EFED747
:100058000E2EFCD70F2EFAD700F0000E026E000EFF
:10006800016ED8EC01F060EC01F005C026F006C086
:1000780027F0290E0F6E960E0E6E7F0EE82EFED715
:100088000E2EFCD70F2EFAD700F0000E026E000ECF
:10009800016ED8EC01F0B0EC01F005C028F006C004
:1000A80029F0290E0F6E960E0E6E7F0EE82EFED7E3
:1000B8000E2EFCD70F2EFAD700F0000E026E000E9F
:1000C800016ED8EC01F088EC01F005C02AF006C0FA
:1000D8002BF0290E0F6E960E0E6E7F0EE82EFED7B1
:1000E8000E2EFCD70F2EFAD700F0000E026E000E6F
:1000F800016ED8EC01F02450265C25502758D8B062
:1001080088EF00F08AEF00F0A6EF00F02450285C9A
:1001180025502958D8B093EF00F095EF00F0A6EFDE
:1001280000F024502A5C25502B58D8B09EEF00F0E0
:10013800A0EF00F0A6EF00F0000E0D6E010E0C6EA1
:10014800AAEF00F0000E0D6E000E0C6E12008594E2
:10015800839E879C85987D947B9E7F9C7D98050EC9
:100168000E01746F060E766F070E696F080E886FA2
:10017800BD508F0B4009BD6EE00EBE16BF50F00B90
:100188000109BF6E630EBC6EBD8E000EAA6E000E16
:10019800A66E000E0F01256F000E216FFC0EAD1626
:1001A800F30EAD16CF0EAD163F0EAD16AB88AB50A5
:1001B800F00B0C09AB6EAB8EA788A750F00B0C099F
:1001C800A76EA78E26892651F00B0C09266F268F5D
:1001D80022892251F00B0C09226F228F12008CEC1D
:1001E80002F0A2EC02F01BEC02F0000E026E630EAD
:1001F800016EABEC00F00E01B4958684000E126E11
:10020800010E136E010E146EAA0E176E0F0E186EE5
:10021800A60E196E0F0E1A6E000E166E630E156E70
:10022800000E1B6E010E1C6E010E1D6E250E206E3B
:100238000F0E216E210E226E0F0E236E000E1F6E02
:10024800630E1E6E19EC00F0520E116E2B0E106E1E
:10025800000EE82EFED7102EFCD7112EFAD700D0AC
:1002680026EF01F017EF00F0B2EC02F0520E9CEC12
:1002780002F0B60E9CEC02F0A8EC02F0530E9CECD7
:1002880002F0010EFAEC01F0076E07500A6E0B6AD5
:10029800000EFAEC01F0076E0750096E086A0A5062
:1002A80008100A6E0B5009100B6EADEC02F00AC074
:1002B80005F00BC006F01200B2EC02F0520E9CECF6
:1002C80002F0B80E9CEC02F0A8EC02F0530E9CEC85
:1002D80002F0010EFAEC01F0076E07500A6E0B6A85
:1002E800000EFAEC01F0076E0750096E086A0A5012
:1002F80008100A6E0B5009100B6EADEC02F00AC024
:1003080005F00BC006F01200B2EC02F0520E9CECA5
:1003180002F0B40E9CEC02F0A8EC02F0530E9CEC38
:1003280002F0010EFAEC01F0076E07500A6E0B6A34
:10033800000EFAEC01F0076E0750096E086A0A50C1
:1003480008100A6E0B5009100B6EADEC02F00AC0D3
:1003580005F00BC006F01200B2EC02F0520E9CEC55
:1003680002F0BA0E9CEC02F0A8EC02F0530E9CECE2
:1003780002F0010EFAEC01F0076E07500A6E0B6AE4
:10038800000EFAEC01F0076E0750096E086A0A5071
:1003980008100A6E0B5009100B6EADEC02F00AC083
:1003A80005F00BC006F0120001A4DDEF01F0DFEF4D
:1003B80001F0E2EF01F07F82E3EF01F07F9201A20A
:1003C800E8EF01F0EAEF01F0EDEF01F07988EEEFE8
:1003D80001F0799801A0F3EF01F0F5EF01F0F8EFE3
:1003E80001F07E8EF9EF01F07E9E1200036E68EC3C
:1003F80002F00E01DA8768EC02F0D5CE04F068EC62
:1004080002F00350D8B40BEF02F00FEF02F0026ACB
:10041800022A10EF02F0026A023A02460E01DA518D
:100428000218DF0B0218DA6FDA890450120053EC55
:1004380002F0010E036E000E7CEC02F03F0E056E1A
:10044800550EE82EFED7052EFCD700F0030E036EDE
:10045800000E7CEC02F0D50E036E010E7CEC02F06F
:10046800869E879281988892849680827C861200E4
:10047800740EF66E050EF76E000EF86E0900F5CFD5
:100488002EF00900F5CF2FF000EE24F00A0EEE6AE8
:10049800E806FDE1309030920001F3EF00F00E0124
:1004A800D951F00B0809D96FD98B9F0ED66F848A62
:1004B800848CA79BA79D1D0E1D6F1E0E1C6F1C0E06
:1004C8006F6F1B0E706F12000E01D8B56EEF02F041
:1004D80070EF02F068EF02F0DACE01F01F0E01169D
:1004E800D8A479EF02F07BEF02F068EF02F0120077
:1004F800046EB2EC02F0520E9CEC02F0045080093B
:100508009CEC02F003509CEC02F0ADEC02F01200FF
:10051800D6501F0B4009D66ED688D650F00B080966
:10052800D66EE70ED46E950ED36ED588D58E120092
:10053800026E68EC02F002C0D5FE1200F28C0E01C9
:10054800298B2B81F28E120068EC02F00E01DA83FF
:10055800120068EC02F00E01DA85120068EC02F075
:0E0568000E01DA8112002C4A2D2A1200F40135
:020000040020DA
:10000000FF0FFF0FFF0FFF0FFF0FFF0FFF0FFF0F80
:020000040030CA
:0C000000AAFFFFFF9FFFFFFFFFFFFFFFB5
:00000001FF
