:0400000017EF00F006
:100008005F820E0133AB0BEF00F00DEF00F015EF40
:1000180000F047EC10F0E70ED46E950ED36E0E018B
:10002800339B5F921100B8EF0CF020C014F021C090
:1000380015F022C016F023C017F0000E196E050E39
:10004800186E4DEC0DF020C014F021C015F022C040
:1000580016F023C017F02FEC0FF01E501F10D8A475
:1000680038EF00F03AEF00F053EF00F020C014F042
:1000780021C015F022C016F023C017F0E0EC09F0FB
:10008800D8905B34D96E5C34DA6E000ED926020E35
:10009800DA22FF0EDE6EFF0EDD6E5B4A5C2A1E045E
:1000A8001F10D8A45AEF00F05CEF00F075EF00F0D5
:1000B80020C014F021C015F022C016F023C017F09C
:1000C8008BEC08F0D8905B34D96E5C34DA6E000E95
:1000D800D926020EDA22FE0EDE6EFF0EDD6E5B4AB8
:1000E8005C2A020E1E181F10D8A47DEF00F07FEFC7
:1000F80000F0ACEF00F0000E276E000E266E20C058
:1001080014F021C015F022C016F023C017F0E0EC5F
:1001180009F0D8905B34D96E5C34DA6E000ED926BB
:10012800020EDA22FF0EDE6EFF0EDD6E5B4A5C2ADF
:10013800264A272A27BEAAEF00F0275009E1020E17
:10014800265CD8A0AAEF00F0ACEF00F083EF00F037
:10015800030E1E181F10D8A4B4EF00F0B6EF00F07D
:1001680070EF01F020C014F021C015F022C016F085
:1001780023C017F0000E196E100E186E4DEC0DF01E
:1001880020C014F021C015F022C016F023C017F0CB
:100198002FEC0FF020C014F021C015F022C016F08B
:1001A80023C017F0E0EC09F0D8905B34D96E5C34CA
:1001B800DA6EFE0ED926010EDA22010EDBBEEFEF53
:1001C80000F0010EDB5009E1060EDE5CD8A0EFEF6F
:1001D80000F0F1EF00F00FEF01F0D8905B34D96E2A
:1001E8005C34DA6EFE0ED926010EDA22F50EDE2612
:1001F800FF0EDD22D8905B34D96E5C34DA6E000EC7
:10020800D926020EDA22FF0EDE6EFF0EDD6E5B4A85
:100218005C2A70EF01F0D8905B34D96E5C34DA6EEA
:10022800FE0ED926010EDA22DE2806E1DE28D8A441
:1002380020EF01F022EF01F031EF01F0D8905B34AC
:10024800D96E5C34DA6EFE0ED926010EDA22FE0E65
:10025800DE6EFF0EDD6E52EF01F0D8905B34D96E82
:100268005C34DA6EFE0ED926010EDA22FE0EDE1896
:1002780006E1DE28D8A443EF01F045EF01F052EF84
:1002880001F0D8905B34D96E5C34DA6EFE0ED92654
:10029800010EDA22FF0EDE6EFF0EDD6ED8905B34A3
:1002A800D96E5C34DA6E000ED926020EDA22100EF0
:1002B800DE6E000EDD6E5B4A5C2AD8905B34D96E28
:1002C8005C34DA6E000ED926020EDA22FE0EDE6EDD
:1002D800FF0EDD6E5B4A5C2A040E1E181F10D8A4A0
:1002E80078EF01F07AEF01F034EF02F020C014F05B
:1002F80021C015F022C016F023C017F0000E196EA9
:10030800100E186E4DEC0DF020C014F021C015F041
:1003180022C016F023C017F02FEC0FF020C014F005
:1003280021C015F022C016F023C017F08BEC08F09E
:10033800D8905B34D96E5C34DA6EFE0ED926010E85
:10034800DA22010EDBBEB3EF01F0010EDB5009E14A
:10035800060EDE5CD8A0B3EF01F0B5EF01F0D3EFE5
:1003680001F0D8905B34D96E5C34DA6EFE0ED92673
:10037800010EDA22F50EDE26FF0EDD22D8905B3460
:10038800D96E5C34DA6E000ED926020EDA22FE0E21
:10039800DE6EFF0EDD6E5B4A5C2A34EF02F0D89009
:1003A8005B34D96E5C34DA6EFE0ED926010EDA2281
:1003B800DE2806E1DE28D8A4E4EF01F0E6EF01F03C
:1003C800F5EF01F0D8905B34D96E5C34DA6EFE0E2E
:1003D800D926010EDA22FE0EDE6EFF0EDD6E16EF56
:1003E80002F0D8905B34D96E5C34DA6EFE0ED926F2
:1003F800010EDA22FE0EDE1806E1DE28D8A407EF89
:1004080002F009EF02F016EF02F0D8905B34D96ED3
:100418005C34DA6EFE0ED926010EDA22FF0EDE6E8D
:10042800FF0EDD6ED8905B34D96E5C34DA6E000E48
:10043800D926020EDA22100EDE6E000EDD6E5B4A41
:100448005C2AD8905B34D96E5C34DA6E000ED926FB
:10045800020EDA22FF0EDE6EFF0EDD6E5B4A5C2AAC
:10046800050E1E181F10D8A43CEF02F03EEF02F054
:1004780057EF02F020C014F021C015F022C016F08A
:1004880023C017F038EC09F0D8905B34D96E5C348F
:10049800DA6E000ED926020EDA22FD0EDE6EFF0E8F
:1004A800DD6E5B4A5C2A060E1E181F10D8A45FEF8B
:1004B80002F061EF02F07AEF02F020C014F021C0E0
:1004C80015F022C016F023C017F0DEEC07F0D89024
:1004D8005B34D96E5C34DA6E000ED926020EDA224D
:1004E800FC0EDE6EFF0EDD6E5B4A5C2A070E1E18E0
:1004F8001F10D8A482EF02F084EF02F0A6EF02F0FA
:10050800000E296E000E286E20C014F021C015F0D0
:1005180022C016F023C017F0E0EC09F0284A292A77
:1005280029BEA0EF02F0295009E1020E285CD8A0EC
:10053800A0EF02F0A2EF02F088EF02F0000E5A6E70
:10054800010E596E1F5009E1080E1E5CD8A0AFEFCE
:1005580002F0B1EF02F0BFEF02F020C014F021C0AA
:1005680015F022C016F023C017F0000E196E050E04
:10057800186E87EC0DF01200000E026E040E016E6C
:1005880078EC0FF0120E386EDC0E376E600EE82E27
:10059800FED7372EFCD7382EFAD78FEC0EF005C0D1
:1005A800F0F006C0F1F00001F26BF36B000E026E82
:1005B800020E016E78EC0FF0120E386EDC0E376EFC
:1005C800600EE82EFED7372EFCD7382EFAD7B7ECB8
:1005D8000EF005C0F4F006C0F5F00001F66BF76BFD
:1005E800000E026E010E016E78EC0FF0120E386EDE
:1005F800DC0E376E600EE82EFED7372EFCD7382E6D
:10060800FAD707EC0FF005C0F8F006C0F9F00001C2
:10061800FA6BFB6B000E026E000E016E78EC0FF0A9
:1006280000016051F05D6151F1596251F259635115
:10063800F359D8B022EF03F024EF03F02EEF03F0C4
:10064800000ED06F000ED16F000ED26F000ED36F68
:1006580063EF03F06051F05D016E6151F159026E74
:100668006251F259036E6351F359046E640E056EBC
:10067800000E066E000E076E000E086EFBEC0DF005
:1006880001C00DF002C00EF003C00FF004C010F05E
:10069800000160516C5D116E61516D59126E6251AD
:1006A8006E59136E63516F59146E18EC0CF00DC02F
:1006B800D0F00EC0D1F00FC0D2F010C0D3F0D0C02F
:1006C800E4F0D1C0E5F0D2C0E6F0D3C0E7F0000115
:1006D8006451F45D6551F5596651F6596751F759FA
:1006E800D8B079EF03F07BEF03F085EF03F0000E4D
:1006F800D46F000ED56F000ED66F000ED76FBAEF0D
:1007080003F06451F45D016E6551F559026E66514E
:10071800F659036E6751F759046E640E056E000EA4
:10072800066E000E076E000E086EFBEC0DF001C0A1
:100738000DF002C00EF003C00FF004C010F000016D
:100748006451705D116E65517159126E665172591E
:10075800136E67517359146E18EC0CF00DC0D4F079
:100768000EC0D5F00FC0D6F010C0D7F0D4C0E8F056
:10077800D5C0E9F0D6C0EAF0D7C0EBF00001685167
:10078800F85D6951F9596A51FA596B51FB59D8B05A
:10079800D0EF03F0D2EF03F0DCEF03F0000ED86FD8
:1007A800000ED96F000EDA6F000EDB6F11EF04F048
:1007B8006851F85D016E6951F959026E6A51FA592A
:1007C800036E6B51FB59046E640E056E000E066EC7
:1007D800000E076E000E086EFBEC0DF001C00DF068
:1007E80002C00EF003C00FF004C010F00001685101
:1007F800745D116E69517559126E6A517659136E8E
:100808006B517759146E18EC0CF00DC0D8F00EC06F
:10081800D9F00FC0DAF010C0DBF0D8C0ECF0D9C0C6
:10082800EDF0DAC0EEF0DBC0EFF020EEE4F000EE21
:1008380007F00B0EDBCFEBFFE806FCE221EE00F041
:1008480000EE13F00B0EDBCFEBFFE806FCE272ECD8
:1008580006F007C0DCF008C0DDF0000E0001DF6F15
:10086800000EDE6F000EE36F010EE26FE2C001F0D2
:10087800E3C002F0000E046E0C0E036EE4EC0FF001
:10088800000E0124D96E010E0220DA6E10EEC4F0BB
:100898000B0EDBCFE3FFE806FCE220EEE4F000EE0F
:1008A80007F00B0EDBCFEBFFE806FCE220EEC4F00E
:1008B80000EE13F00B0EDBCFEBFFE806FCE272EC68
:1008C80006F007C0E0F008C0E1F00001DC51E05D8F
:1008D800DD51E159D8B073EF04F075EF04F07DEF06
:1008E80004F0E2C0DEF0E3C0DFF0E0C0DCF0E1C01D
:1008F800DDF0E24BE32BE35109E1090EE25DD8A0FC
:1009080088EF04F08AEF04F03AEF04F0DEC035F027
:10091800DFC036F012008EEF05F0D8905B34D96E48
:100928005C34DA6EFE0ED926010EDA22DE2806E1E4
:10093800DE28D8A4A2EF04F0A4EF04F0B0EF04F08E
:100948001EC014F01FC015F020C016F021C017F00B
:100958008BEC08F081EF05F0D8905B34D96E5C34ED
:10096800DA6EFE0ED926010EDA22FE0EDE1806E138
:10097800DE28D8A4C2EF04F0C4EF04F0D0EF04F0EE
:100988001EC014F01FC015F020C016F021C017F0CB
:10099800E0EC09F081EF05F0D8905B34D96E5C3457
:1009A800DA6EFE0ED926010EDA22FD0EDE1806E1F9
:1009B800DE28D8A4E2EF04F0E4EF04F0F0EF04F04E
:1009C8001EC014F01FC015F020C016F021C017F08B
:1009D800DEEC07F081EF05F0D8905B34D96E5C341B
:1009E800DA6EFE0ED926010EDA22FC0EDE1806E1BA
:1009F800DE28D8A402EF05F004EF05F010EF05F0AB
:100A08001EC014F01FC015F020C016F021C017F04A
:100A180038EC09F081EF05F0D8905B34D96E5C347E
:100A2800DA6EFE0ED926010EDA22010EDBBE28EFA1
:100A380005F0010EDB5006E1DE04D8B026EF05F024
:100A480028EF05F040EF05F0D8905B34D96E5C34A0
:100A5800DA6EFC0ED926010EDA22010EDBAE40EF6B
:100A680005F0FE0EDE5CFF0EDE58D8A03EEF05F066
:100A780040EF05F081EF05F01EC014F01FC015F01F
:100A880020C016F021C017F0D8905B34D96E5C34C2
:100A9800DA6EFE0ED926010EDA22DECF18F0DDCF8F
:100AA80019F087EC0DF0110E236E3C0E226ECB0E62
:100AB800E82EFED7222EFCD7232EFAD700F01EC030
:100AC80014F01FC015F020C016F021C017F0000E5A
:100AD800196E050E186E87EC0DF01EC014F01FC0BD
:100AE80015F020C016F021C017F0000E196E050E83
:100AF800186E4DEC0DF081EF05F01EC014F01FC00C
:100B080015F020C016F021C017F02FEC0FF05B068F
:100B1800D8A05C065CBE9BEF05F05C5006E15B0468
:100B2800D8B099EF05F09BEF05F091EF04F05B501A
:100B38005C10D8A4A2EF05F0A4EF05F0A8EF05F02B
:100B4800000E5A6E020E596E120007EC10F029ECD6
:100B580010F0000E026E630E016E05EC0DF027EC2E
:100B68000BF00E01B4958684000E3F6E010E406EA8
:100B7800010E416EAA0E446E0F0E456EA60E466E0D
:100B88000F0E476E000E436E630E426E000E486EE7
:100B9800010E496E010E4A6E250E4D6E0F0E4E6EF9
:100BA800210E4F6E0F0E506E000E4C6E630E4B6E84
:100BB800520E3A6E2B0E396E000EE82EFED7392EE5
:100BC800FCD73A2EFAD700D03F0E146E000E156EE1
:100BD800480E166E000E176E62EC0EF02FEC10F039
:100BE80001C03DF002C03EF06AEC0CF00C040D10A0
:100BF800D8A401EF06F003EF06F059EF06F03D50D8
:100C08003E10D8A40AEF06F00CEF06F059EF06F0F4
:100C180054EC0FF03F0E146E000E156E480E166E53
:100C2800000E176E2FEC0FF0C0EC02F035C03BF051
:100C380036C03CF03F0E146E000E156E480E166E50
:100C4800000E176E000E196E050E186E87EC0DF06B
:100C58003BC01EF03CC01FF03F0E206E000E216E00
:100C6800480E226E000E236E19EC00F03D503E1027
:100C7800D8A441EF06F043EF06F0F2EF05F03F0E7F
:100C8800146E000E156E480E166E000E176E2FECC1
:100C98000FF03F0E146E000E156E480E166E000E05
:100CA800176E62EC0EF0F2EF05F03D043E10D8A48A
:100CB80060EF06F062EF06F06EEF06F03F0E1E6E74
:100CC800000E1F6E480E206E000E216E8FEC04F091
:100CD800F2EF05F0F2EF05F017EF00F01350075CA4
:100CE800145008581550095816500A58D8B07FEFB4
:100CF80006F081EF06F08FEF06F00750135C236EC5
:100D080008501458246E09501558256E0A50165864
:100D1800266E9BEF06F01350075C236E145008589C
:100D2800246E15500958256E16500A58266E23C091
:100D38002FF024C030F017500B5C18500C58195085
:100D48000D581A500E58D8B0ACEF06F0AEEF06F0BA
:100D5800BCEF06F00B50175C276E0C501858286E25
:100D68000D501958296E0E501A582A6EC8EF06F001
:100D780017500B5C276E18500C58286E19500D58D8
:100D8800296E1A500E582A6E27C031F028C032F04A
:100D98001B500F5C1C5010581D5011581E501258F3
:100DA800D8B0D9EF06F0DBEF06F0E9EF06F00F5008
:100DB8001B5C2B6E10501C582C6E11501D582D6E3C
:100DC80012501E582E6EF5EF06F01B500F5C2B6E5E
:100DD8001C5010582C6E1D5011582D6E1E50125854
:100DE8002E6E2BC033F02CC034F02FC001F030C071
:100DF80002F02FC003F030C004F0E4EC0FF001C0A3
:100E08001FF002C020F031C001F032C002F031C042
:100E180003F032C004F0E4EC0FF001501F24216EFF
:100E280002502020226E33C001F034C002F033C0DB
:100E380003F034C004F0E4EC0FF001502124076EF5
:100E480002502220086E120020EE02F00E50D92621
:100E58000F50DA22DF50D8B434EF07F036EF07F03E
:100E68006AEF07F00EC0D9FF0FC0DAFFDF50106E2F
:100E78001050016E026A20EE03F00E50D9260F5072
:100E8800DA22DECF03F0DDCF04F0E4EC0FF001C08E
:100E980007F002C008F0000E0A6E640E096EC1EC7D
:100EA8000DF020EE03F00E50D9260F50DA22DF5055
:100EB800116E0750115C126E20EE03F00E50D92609
:100EC8000F50DA22DF50136E8DEF07F0000E126E0E
:100ED8000EC0D9FF0FC0DAFFDF50106E1050016E40
:100EE800026A20EE03F00E50D9260F50DA22DECF28
:100EF80003F0DDCF04F0E4EC0FF001C007F002C00E
:100F080008F0000E0A6E640E096EC1EC0DF0075071
:100F1800136E20EE01F00E50D9260F50DA22DF5062
:100F2800D8B499EF07F09BEF07F0BDEF07F020EE7C
:100F380005F00E50D9260F50DA22DECF10F0DDCFA3
:100F480011F010C0D9FF11C0DAFF12C0DFFF20EE88
:100F580007F00E50D9260F50DA22DECF10F0DDCF81
:100F680011F010C0D9FF11C0DAFF13C0DFFFDDEFA9
:100F780007F020EE05F00E50D9260F50DA22DECF0A
:100F880010F0DDCF11F010C0D9FF11C0DAFF13C087
:100F9800DFFF20EE07F00E50D9260F50DA22DECF01
:100FA80010F0DDCF11F010C0D9FF11C0DAFF12C068
:100FB800DFFF1200000E1B6E000E1A6E000E1B6E75
:100FC800000E1A6E000E1D6E290E1C6E20EE01F02A
:100FD8001450D9261550DA22010EDF6E20EE01F0EA
:100FE8001650D9261750DA22000EDF6E14C0D9FF2A
:100FF80015C0DAFF1CC0DFFF16C0D9FF17C0DAFF23
:101008001CC0DFFF14C00EF015C00FF028EC07F06D
:1010180016C00EF017C00FF028EC07F0050E196E79
:10102800B60E186E2C0EE82EFED7182EFCD7192EE9
:10103800FAD700D0050E1C26000E1D221DBE2EEF6D
:1010480008F01D5009E1380E1C5CD8A02EEF08F0FE
:1010580030EF08F0EAEF07F0000E1D6E2E0E1C6E42
:1010680020EE01F01450D9261550DA22010EDF6E59
:1010780020EE01F01650D9261750DA22000EDF6E46
:1010880014C0D9FF15C0DAFF1CC0DFFF16C0D9FF96
:1010980017C0DAFF1CC0DFFF14C00EF015C00FF038
:1010A80028EC07F016C00EF017C00FF028EC07F078
:1010B800050E196EA10E186E650EE82EFED7182EB5
:1010C800FCD7192EFAD700F0FB0E1C26FF0E1D22A6
:1010D8001DBE7AEF08F01D5007E1200E1C5CD8B049
:1010E80078EF08F07AEF08F034EF08F01A4A1B2A74
:1010F8001BBE88EF08F01B5009E1030E1A5CD8A04C
:1011080088EF08F08AEF08F0E6EF07F01200000E0B
:101118001B6E000E1A6E000E1B6E000E1A6E000E6D
:101128001D6E290E1C6E20EE01F01450D9261550A4
:10113800DA22010EDF6E20EE01F01650D926175084
:10114800DA22000EDF6E14C0D9FF15C0DAFF1CC00A
:10115800DFFF16C0D9FF17C0DAFF1CC0DFFF14C0BD
:101168000EF015C00FF028EC07F016C00EF017C0EF
:101178000FF028EC07F0050E196EB60E186E2C0E3F
:10118800E82EFED7182EFCD7192EFAD700D0050E58
:101198001C26000E1D221DBEDBEF08F01D5009E1C4
:1011A800380E1C5CD8A0DBEF08F0DDEF08F097EFF5
:1011B80008F0000E1D6E2E0E1C6E20EE01F014506D
:1011C800D9261550DA22010EDF6E20EE01F01650F6
:1011D800D9261750DA22000EDF6E14C0D9FF15C0C9
:1011E800DAFF1CC0DFFF16C0D9FF17C0DAFF1CC02A
:1011F800DFFF14C00EF015C00FF028EC07F016C082
:101208000EF017C00FF028EC07F0050E196EA10EAE
:10121800186E650EE82EFED7182EFCD7192EFAD7B1
:1012280000F0FB0E1C26FF0E1D221DBE27EF09F045
:101238001D5007E1200E1C5CD8B025EF09F027EF00
:1012480009F0E1EF08F01A4A1B2A1BBE35EF09F036
:101258001B5009E1020E1A5CD8A035EF09F037EFF0
:1012680009F093EF08F01200000E1B6E000E1A6EC4
:10127800000E1D6E170E1C6E20EE01F01450D926BC
:101288001550DA22000EDF6E20EE01F01650D92636
:101298001750DA22010EDF6E14C0D9FF15C0DAFF2D
:1012A8001CC0DFFF16C0D9FF17C0DAFF1CC0DFFF64
:1012B80014C00EF015C00FF028EC07F016C00EF0A1
:1012C80017C00FF028EC07F0090E196EB00E186E53
:1012D800580EE82EFED7182EFCD7192EFAD700D0B4
:1012E800050E1C26000E1D221DBE84EF09F01D50A0
:1012F80009E1260E1C5CD8A084EF09F086EF09F0FE
:1013080040EF09F0000E1D6E1C0E1C6E20EE01F061
:101318001450D9261550DA22000EDF6E20EE01F0A7
:101328001650D9261750DA22010EDF6E14C0D9FFE5
:1013380015C0DAFF1CC0DFFF16C0D9FF17C0DAFFDF
:101348001CC0DFFF14C00EF015C00FF028EC07F02A
:1013580016C00EF017C00FF028EC07F0090E196E32
:10136800860E186ECA0EE82EFED7182EFCD7192E38
:10137800FAD7FB0E1C26FF0E1D221DBECFEF09F06B
:101388001D5007E10E0E1C5CD8B0CDEF09F0CFEF71
:1013980009F08AEF09F01A4A1B2A1BBEDDEF09F093
:1013A8001B5009E1030E1A5CD8A0DDEF09F0DFEF4E
:1013B80009F03CEF09F01200000E1B6E000E1A6EC9
:1013C800000E1D6E170E1C6E20EE01F01450D9266B
:1013D8001550DA22000EDF6E20EE01F01650D926E5
:1013E8001750DA22010EDF6E14C0D9FF15C0DAFFDC
:1013F8001CC0DFFF16C0D9FF17C0DAFF1CC0DFFF13
:1014080014C00EF015C00FF028EC07F016C00EF04F
:1014180017C00FF028EC07F0090E196EB00E186E01
:10142800580EE82EFED7182EFCD7192EFAD700D062
:10143800050E1C26000E1D221DBE2CEF0AF01D50A5
:1014480009E1260E1C5CD8A02CEF0AF02EEF0AF05A
:10145800E8EF09F0000E1D6E1C0E1C6E20EE01F068
:101468001450D9261550DA22000EDF6E20EE01F056
:101478001650D9261750DA22010EDF6E14C0D9FF94
:1014880015C0DAFF1CC0DFFF16C0D9FF17C0DAFF8E
:101498001CC0DFFF14C00EF015C00FF028EC07F0D9
:1014A80016C00EF017C00FF028EC07F0090E196EE1
:1014B800860E186ECA0EE82EFED7182EFCD7192EE7
:1014C800FAD7FB0E1C26FF0E1D221DBE77EF0AF071
:1014D8001D5007E10E0E1C5CD8B075EF0AF077EFCF
:1014E8000AF032EF0AF01A4A1B2A1BBE85EF0AF0EF
:1014F8001B5009E1020E1A5CD8A085EF0AF087EFAD
:101508000AF0E4EF09F01200000E026E040E016EFC
:1015180078EC0FF0120E0F6EDC0E0E6E600EE82ED9
:10152800FED70E2EFCD70F2EFAD78FEC0EF005C083
:1015380060F006C061F00001626B636B000E026E22
:10154800020E016E78EC0FF0120E0F6EDC0E0E6EAE
:10155800600EE82EFED70E2EFCD70F2EFAD7B7EC6A
:101568000EF005C064F006C065F00001666B676B9D
:10157800000E026E010E016E78EC0FF0120E0F6E67
:10158800DC0E0E6E600EE82EFED70E2EFCD70F2E48
:10159800FAD707EC0FF005C068F006C069F0000143
:1015A8006A6B6B6B000E026E000E016E78EC0FF02A
:1015B800120E0F6EDC0E0E6E600EE82EFED70E2E8B
:1015C800FCD70F2EFAD7DFEC0EF005C010F006C0DE
:1015D80011F0000E026E070E016E78EC0FF0120E7D
:1015E8000F6EDC0E0E6E600EE82EFED70E2EFCD7A8
:1015F8000F2EFAD7DFEC0EF005C012F006C013F07C
:10160800000E026E000E016E78EC0FF010C009F0AB
:1016180011C00AF012C007F013C008F0C1EC0DF0B9
:1016280007C014F008C015F014C007F015C008F082
:10163800000E0A6E050E096EC1EC0DF007C057F0DA
:1016480008C058F01200BBEC0FF0010E036E000E3C
:10165800F7EC0FF03F0E166E550EE82EFED7162E3D
:10166800FCD700F0030E036E000EF7EC0FF0D50E5A
:10167800036E010EF7EC0FF0869E8792819820EE9C
:10168800B4F011EE00F00B0EDBCFE3FFE806FCE24E
:1016980020EEA8F011EE0CF00B0EDBCFE3FFE8060E
:1016A800FCE220EE9CF011EE18F00B0EDBCFE3FF0E
:1016B800E806FCE220EE90F011EE24F00B0EDBCFF2
:1016C800E3FFE806FCE220EE84F011EE30F00B0EAA
:1016D800DBCFE3FFE806FCE220EE78F011EE3CF009
:1016E8000B0EDBCFE3FFE806FCE221EE84F011EEFF
:1016F80048F00B0EDBCFE3FFE806FCE221EE78F0C2
:1017080011EE54F00B0EDBCFE3FFE806FCE221EE0E
:101718006CF011EE60F00B0EDBCFE3FFE806FCE2A5
:1017280086860E01B4978684B4958EA69EEF0BF03C
:10173800A0EF0BF0A7EF0BF08EB4A5EF0BF0A7EF1F
:101748000BF099EF0BF08EB4ACEF0BF0AEEF0BF0A3
:10175800B0EF0BF0C2EF0BF0C3EC0BF08EB6B7EFA7
:101768000BF0B9EF0BF0B2EF0BF088EC0AF08EB685
:10177800C0EF0BF0C2EF0BF0BBEF0BF01200000E46
:10178800026E040E016E78EC0FF0120E0D6EDC0E78
:101798000C6E600EE82EFED70C2EFCD70D2EFAD755
:1017A8008FEC0EF005C06CF006C06DF000016E6B9A
:1017B8006F6B000E026E020E016E78EC0FF0120EC7
:1017C8000D6EDC0E0C6E600EE82EFED70C2EFCD7CC
:1017D8000D2EFAD7B7EC0EF005C070F006C071F008
:1017E8000001726B736B000E026E010E016E78ECD5
:1017F8000FF0120E0D6EDC0E0C6E600EE82EFED78A
:101808000C2EFCD70D2EFAD707EC0FF005C074F09C
:1018180006C075F00001766B776B000E026E000E45
:10182800016E78EC0FF01200000E156E000E166EA9
:10183800000E176E000E186E1150121013101410AF
:10184800D8B429EF0CF02BEF0CF061EF0CF0010E7F
:10185800196E35EF0CF0D89011361236133614364F
:10186800192A14AE3AEF0CF03CEF0CF02FEF0CF005
:10187800D890153616361736183611500D5C12509A
:101888000E5813500F5814501058D8A04EEF0CF0A3
:1018980050EF0CF059EF0CF011500D5E12500E5A2B
:1018A80013500F5A1450105A1580D890143213320E
:1018B80012321132192E3CEF0CF015C00DF016C083
:1018C8000EF017C00FF018C010F01200000E026ED4
:1018D800000E016E78EC0FF0120E0F6EDC0E0E6E1D
:1018E800600EE82EFED70E2EFCD70F2EFAD7DFECAF
:1018F8000EF005C010F006C011F0000E026E070EC3
:10190800016E78EC0FF0120E0F6EDC0E0E6E600E8C
:10191800E82EFED70E2EFCD70F2EFAD7DFEC0EF0EE
:1019280005C012F006C013F0000E026E000E016E24
:1019380078EC0FF010C001F011C002F057C003F0AE
:1019480058C004F0E4EC0FF00150125C0250135838
:10195800D8B0B1EF0CF0B4EF0CF0010EB5EF0CF00D
:10196800000E0C6E0D6A12002E0EF66E200EF76E2B
:10197800000EF86E01EE78F010EE18F00900F5CFC1
:10198800EEFFE550E150FAE1600EF66E1C0EF76EC0
:10199800000EF86E00EE60F010EE64F00900F5CF6E
:1019A800EEFFE550E150FAE1860EF66E200EF76E76
:1019B800000EF86E00EE51F010EE08F00900F5CFB9
:1019C800EEFFE550E150FAE102EE00F0C80EEE6AD3
:1019D800E806FDE101EE00F0780EEE6AE806FDE1AA
:1019E80000EEF0F00C0EEE6AE806FDE15E6A5D6A54
:1019F8005C6A5B6A5A6A596A5F905F920001A9EF54
:101A080005F08594839E879C85987D947B9E7F9C1A
:101A18007D98050E0E01746F060E766F070E696FBE
:101A2800080E886FBD508F0B4009BD6EE00EBE16C4
:101A3800BF50F00B0109BF6E630EBC6EBD8E000E69
:101A4800AA6E000EA66E000E0F01256F000E216F04
:101A5800FC0EAD16F30EAD16CF0EAD163F0EAD163D
:101A6800AB88AB50F00B0C09AB6EAB8EA788A750B8
:101A7800F00B0C09A76EA78E26892651F00B0C09CE
:101A8800266F268F22892251F00B0C09226F228F94
:101A98001200000E5E6E000E5D6E7BEF0DF020EE04
:101AA80001F01450D9261550DA22010EDF6E20EE0F
:101AB80001F01650D9261750DA22010EDF6E14C035
:101AC800D9FF15C0DAFF460EDF6E16C0D9FF17C062
:101AD800DAFF440EDF6E14C00EF015C00FF028ECCC
:101AE80007F016C00EF017C00FF028EC07F01850DA
:101AF8005D5C19505E58D8A084EF0DF086EF0DF0AC
:101B080053EF0DF01200000E5E6E000E5D6EB5EF25
:101B18000DF020EE01F01450D9261550DA22000EEF
:101B2800DF6E20EE01F01650D9261750DA22000E8B
:101B3800DF6E14C0D9FF15C0DAFF440EDF6E16C081
:101B4800D9FF17C0DAFF440EDF6E14C00EF015C0BF
:101B58000FF028EC07F016C00EF017C00FF028ECB5
:101B680007F018505D5C19505E58D8A0BEEF0DF014
:101B7800C0EF0DF08DEF0DF01200000E0C6E000E90
:101B88000B6E09500A10D8B4CCEF0DF0CEEF0DF063
:101B9800F6EF0DF0010E0D6ED6EF0DF0D890093668
:101BA8000A360D2A0AAEDBEF0DF0DDEF0DF0D2EFAD
:101BB8000DF0D8900B360C360950075C0A500858BF
:101BC800D8A0E9EF0DF0EBEF0DF0F0EF0DF00950B4
:101BD800075E0A50085A0B80D8900A3209320D2E37
:101BE800DDEF0DF00BC007F00CC008F01200000E7E
:101BF800096E000E0A6E000E0B6E000E0C6E01A030
:101C080008EF0EF00AEF0EF012EF0EF0055009265D
:101C180006500A2207500B2208500C22D89005368D
:101C2800063607360836D8900432033202320132BB
:101C38000150021003100410D8A425EF0EF027EF6E
:101C48000EF003EF0EF009C001F00AC002F00BC05D
:101C580003F00CC004F01200040400004B02000062
:101C6800A1000000FC280000551B000070070000C0
:101C78005C000000270000001C0000004D00000070
:101C88003C000000400000005D0000004C00000027
:101C980014000000030000000900000024000000F8
:101CA800190000003600000008000000480000008D
:101CB80002000000020000000B000500000E5E6E2E
:101CC800000E5D6E20EE01F01450D9261550DA2270
:101CD800000EDF6E20EE01F01650D9261750DA22DA
:101CE800000EDF6E14C0D9FF15C0DAFF440EDF6E98
:101CF80016C0D9FF17C0DAFF440EDF6E14C00EF00D
:101D080015C00FF028EC07F016C00EF017C00FF042
:101D180028EC07F0120039EC10F0520E23EC10F00A
:101D2800B60E23EC10F03EEC10F0530E23EC10F03E
:101D3800010E9AEC0FF0076E07500A6E0B6A000E40
:101D48009AEC0FF0076E0750096E086A0A500810DF
:101D58000A6E0B5009100B6E34EC10F00AC005F037
:101D68000BC006F0120039EC10F0520E23EC10F004
:101D7800B80E23EC10F03EEC10F0530E23EC10F0EC
:101D8800010E9AEC0FF0076E07500A6E0B6A000EF0
:101D98009AEC0FF0076E0750096E086A0A5008108F
:101DA8000A6E0B5009100B6E34EC10F00AC005F0E7
:101DB8000BC006F0120039EC10F0520E23EC10F0B4
:101DC800B40E23EC10F03EEC10F0530E23EC10F0A0
:101DD800010E9AEC0FF0076E07500A6E0B6A000EA0
:101DE8009AEC0FF0076E0750096E086A0A5008103F
:101DF8000A6E0B5009100B6E34EC10F00AC005F097
:101E08000BC006F0120039EC10F0520E23EC10F063
:101E1800BA0E23EC10F03EEC10F0530E23EC10F049
:101E2800010E9AEC0FF0076E07500A6E0B6A000E4F
:101E38009AEC0FF0076E0750096E086A0A500810EE
:101E48000A6E0B5009100B6E34EC10F00AC005F046
:101E58000BC006F0120014C0D9FF15C0DAFF000E3F
:101E6800DF6E16C0D9FF17C0DAFF000EDF6E14C090
:101E78000EF015C00FF028EC07F016C00EF017C0D2
:101E88000FF028EC07F0290E196E960E186E7F0ECB
:101E9800E82EFED7182EFCD7192EFAD700F012001C
:101EA8005EBE60EF0FF05E5009E10C0E5D5CD8A0DD
:101EB80060EF0FF062EF0FF077EF0FF0FB0E5D248D
:101EC800016EFF0E5E20026ED8905B34D96E5C34D2
:101ED800DA6E000ED926020EDA2201C0DEFF02C039
:101EE800DDFF5B4A5C2A120001A47DEF0FF07FEF53
:101EF8000FF082EF0FF07F8283EF0FF07F9201A245
:101F080088EF0FF08AEF0FF08DEF0FF079888EEFE2
:101F18000FF0799801A093EF0FF095EF0FF098EF7D
:101F28000FF07E8E99EF0FF07E9E1200036ED0ECBC
:101F38000FF00E01DA87D0EC0FF0D5CE04F0D0EC1C
:101F48000FF00350D8B4ABEF0FF0AFEF0FF0026A09
:101F5800022AB0EF0FF0026A023A02460E01DA5185
:101F68000218DF0B0218DA6FDA89045012000E012A
:101F7800D951F00B0809D96FD98B9F0ED66F848A77
:101F8800848CA79BA79D1D0E1D6F1E0E1C6F1C0E1B
:101F98006F6F1B0E706F12000E01D8B5D6EF0FF0E1
:101FA800D8EF0FF0D0EF0FF0DACE01F01F0E0116C8
:101FB800D8A4E1EF0FF0E3EF0FF0D0EF0FF012002D
:101FC80001500302F3CF05F0F4CF06F001500402EC
:101FD800F350062602500302F350062605C001F00E
:101FE80006C002F01200046E39EC10F0520E23EC19
:101FF80010F00450800923EC10F0035023EC10F08B
:1020080034EC10F01200D6501F0B4009D66ED6885B
:10201800D650F00B0809D66EFD0ED46E900ED36E16
:10202800D588D58E120064000000640000006400AA
:102038000000260000004800000054000000026E66
:10204800D0EC0FF002C0D5FE1200F28C0E01298BE5
:102058002B81F28E120059C001F05AC002F0120012
:10206800D0EC0FF00E01DA851200D0EC0FF00E0163
:10207800DA811200D0EC0FF00E01DA8312001000A2
:0C2088001000DC000F005D4A5E2A120010
:020000040020DA
:10000000FF0FFF0FFF0FFF0FFF0FFF0FFF0FFF0F80
:020000040030CA
:0C000000AAFFFFFF9FFFFFFFFFFFFFFFB5
:00000001FF
