:0400000017EF00F006
:1000080058820E0133AB0BEF00F00DEF00F015EF47
:1000180000F058EC05F0E70ED46E950ED36E0E0185
:10002800339B5892110064EF03F020EE02F00E505B
:10003800D9260F50DA22DF50D8B425EF00F027EF89
:1000480000F05BEF00F00EC0D9FF0FC0DAFFDF5001
:10005800106E1050016E026A20EE03F00E50D92681
:100068000F50DA22DECF03F0DDCF04F0FCEC04F011
:1000780001C007F002C008F0000E0A6E640E096E97
:100088002AEC03F020EE03F00E50D9260F50DA22A6
:10009800DF50116E0750115C126E20EE03F00E5007
:1000A800D9260F50DA22DF50136E7EEF00F0000ED3
:1000B800126E0EC0D9FF0FC0DAFFDF50106E10505D
:1000C800016E026A20EE03F00E50D9260F50DA2294
:1000D800DECF03F0DDCF04F0FCEC04F001C007F044
:1000E80002C008F0000E0A6E640E096E2AEC03F0D6
:1000F8000750136E20EE01F00E50D9260F50DA2269
:10010800DF50D8B48AEF00F08CEF00F0AEEF00F0CB
:1001180020EE05F00E50D9260F50DA22DECF10F06F
:10012800DDCF11F010C0D9FF11C0DAFF12C0DFFF18
:1001380020EE07F00E50D9260F50DA22DECF10F04D
:10014800DDCF11F010C0D9FF11C0DAFF13C0DFFFF7
:10015800CEEF00F020EE05F00E50D9260F50DA222F
:10016800DECF10F0DDCF11F010C0D9FF11C0DAFFDB
:1001780013C0DFFF20EE07F00E50D9260F50DA2209
:10018800DECF10F0DDCF11F010C0D9FF11C0DAFFBB
:1001980012C0DFFF1200D3EC04F0010E036E000E54
:1001A8000FEC05F03F0E166E550EE82EFED7162EF4
:1001B800FCD700F0030E036E000E0FEC05F0D50E11
:1001C800036E010E0FEC05F0869E8792819820EE53
:1001D800B4F011EE00F00B0EDBCFE3FFE806FCE213
:1001E80020EEA8F011EE0CF00B0EDBCFE3FFE806D3
:1001F800FCE220EE9CF011EE18F00B0EDBCFE3FFD3
:10020800E806FCE220EE90F011EE24F00B0EDBCFB6
:10021800E3FFE806FCE220EE84F011EE30F00B0E6E
:10022800DBCFE3FFE806FCE220EE78F011EE3CF0CD
:100238000B0EDBCFE3FFE806FCE220EE6CF011EEDC
:1002480048F00B0EDBCFE3FFE806FCE220EE60F09F
:1002580011EE54F00B0EDBCFE3FFE806FCE220EED4
:10026800C0F011EE60F00B0EDBCFE3FFE806FCE216
:1002780086860E01B4978684B4958EA646EF01F063
:1002880048EF01F04FEF01F08EB44DEF01F04FEF62
:1002980001F041EF01F08EB454EF01F056EF01F098
:1002A80058EF01F06AEF01F007EC02F08EB65FEF4D
:1002B80001F061EF01F05AEF01F06BEC01F08EB63E
:1002C80068EF01F06AEF01F063EF01F01200000E31
:1002D800026E040E016E90EC04F0120E0F6EDC0E2E
:1002E8000E6E600EE82EFED70E2EFCD70F2EFAD714
:1002F800CBEC03F005C02CF006C02DF02E6A2F6A57
:10030800000E026E020E016E90EC04F0120E0F6EDB
:10031800DC0E0E6E600EE82EFED70E2EFCD70F2ECA
:10032800FAD7F3EC03F005C030F006C031F0326ABA
:10033800336A000E026E010E016E90EC04F0120E8C
:100348000F6EDC0E0E6E600EE82EFED70E2EFCD75A
:100358000F2EFAD743EC04F005C034F006C035F090
:10036800366A376A000E026E000E016E90EC04F0D9
:10037800120E0F6EDC0E0E6E600EE82EFED70E2EDD
:10038800FCD70F2EFAD71BEC04F005C010F006C0FE
:1003980011F0000E026E070E016E90EC04F0120EC2
:1003A8000F6EDC0E0E6E600EE82EFED70E2EFCD7FA
:1003B8000F2EFAD71BEC04F005C012F006C013F09C
:1003C800000E026E000E016E90EC04F010C009F0F1
:1003D80011C00AF012C007F013C008F02AEC03F0AD
:1003E80007C014F008C015F014C007F015C008F0D5
:1003F800000E0A6E050E096E2AEC03F007C046F0DF
:1004080008C047F01200000E026E040E016E90EC58
:1004180004F0120E0D6EDC0E0C6E600EE82EFED788
:100428000C2EFCD70D2EFAD7CBEC03F005C038F014
:1004380006C039F03A6A3B6A000E026E020E016E7F
:1004480090EC04F0120E0D6EDC0E0C6E600EE82EB1
:10045800FED70C2EFCD70D2EFAD7F3EC03F005C00F
:100468003CF006C03DF03E6A3F6A000E026E010E87
:10047800016E90EC04F0120E0D6EDC0E0C6E600E28
:10048800E82EFED70C2EFCD70D2EFAD743EC04F03D
:1004980005C040F006C041F0426A436A000E026E91
:1004A800000E016E90EC04F012001FEC05F043EC16
:1004B80005F0000E026E630E016EA8EC02F0CFECA0
:1004C80000F00E01B4958684000E1A6E010E1B6EA4
:1004D800010E1C6EAA0E1F6E0F0E206EA60E216E48
:1004E8000F0E226E000E1E6E630E1D6E000E236E22
:1004F800010E246E010E256E250E286E0F0E296E34
:10050800210E2A6E0F0E2B6E000E276E630E266EBE
:100518001A0E146E000E156E230E166E000E176E50
:10052800000E196E0A0E186EF0EC02F01A0E146E18
:10053800000E156E230E166E000E176E6BEC04F08F
:100548008CEF02F017EF00F08594839E879C8598C6
:100558007D947B9E7F9C7D98050E0E01746F060E20
:10056800766F070E696F080E886FBD508F0B4009B4
:10057800BD6EE00EBE16BF50F00B0109BF6E630ED4
:10058800BC6EBD8E000EAA6E000EA66E000E0F0188
:10059800256F000E216FFC0EAD16F30EAD16CF0EB3
:1005A800AD163F0EAD16AB88AB50F00B0C09AB6E19
:1005B800AB8EA788A750F00B0C09A76EA78E2689CB
:1005C8002651F00B0C09266F268F22892251F00B39
:1005D8000C09226F228F1200000E576E000E566E05
:1005E8001EEF03F020EE01F01450D9261550DA2240
:1005F800010EDF6E20EE01F01650D9261750DA22D0
:10060800010EDF6E14C0D9FF15C0DAFF320EDF6E9F
:1006180016C0D9FF17C0DAFF320EDF6E14C00EF015
:1006280015C00FF019EC00F016C00EF017C00FF04F
:1006380019EC00F01850565C19505758D8A027EFFD
:1006480003F029EF03F0F6EF02F01200000E0C6E33
:10065800000E0B6E09500A10D8B435EF03F037EFCF
:1006680003F05FEF03F0010E0D6E3FEF03F0D8903B
:1006780009360A360D2A0AAE44EF03F046EF03F0B6
:100688003BEF03F0D8900B360C360950075C0A5044
:100698000858D8A052EF03F054EF03F059EF03F0D5
:1006A8000950075E0A50085A0B80D8900A3209325E
:1006B8000D2E46EF03F00BC007F00CC008F0120037
:1006C800360EF66E070EF76E000EF86E00EE60F04E
:1006D80010EE60F00900F5CFEEFFE550E150FAE1C9
:1006E8005E0EF66E0A0EF76E000EF86E00EE2CF037
:1006F80010EE1CF00900F5CFEEFFE550E150FAE1ED
:1007080001EE00F0D00EEE6AE806FDE100EEC0F062
:100718000C0EEE6AE806FDE100EE48F0100EEE6AF7
:10072800E806FDE158905892000159EF02F0640084
:10073800000064000000640000002600000048007B
:100748000000540000005C000000270000001C00AE
:1007580000004D0000003C000000400000005D006B
:1007680000004C0000001400000003000000090015
:1007780000002400000019000000360000000800F6
:1007880000004800000002000000020000004EECDB
:1007980005F0520E3DEC05F0B60E3DEC05F053ECBD
:1007A80005F0530E3DEC05F0010EB2EC04F0076EB7
:1007B80007500A6E0B6A000EB2EC04F0076E075081
:1007C800096E086A0A5008100A6E0B5009100B6E61
:1007D80049EC05F00AC005F00BC006F012004EEC1B
:1007E80005F0520E3DEC05F0B80E3DEC05F053EC6B
:1007F80005F0530E3DEC05F0010EB2EC04F0076E67
:1008080007500A6E0B6A000EB2EC04F0076E075030
:10081800096E086A0A5008100A6E0B5009100B6E10
:1008280049EC05F00AC005F00BC006F012004EECCA
:1008380005F0520E3DEC05F0B40E3DEC05F053EC1E
:1008480005F0530E3DEC05F0010EB2EC04F0076E16
:1008580007500A6E0B6A000EB2EC04F0076E0750E0
:10086800096E086A0A5008100A6E0B5009100B6EC0
:1008780049EC05F00AC005F00BC006F012004EEC7A
:1008880005F0520E3DEC05F0BA0E3DEC05F053ECC8
:1008980005F0530E3DEC05F0010EB2EC04F0076EC6
:1008A80007500A6E0B6A000EB2EC04F0076E075090
:1008B800096E086A0A5008100A6E0B5009100B6E70
:1008C80049EC05F00AC005F00BC006F0120014C090
:1008D800D9FF15C0DAFF000EDF6E16C0D9FF17C0AA
:1008E800DAFF000EDF6E14C00EF015C00FF019EC21
:1008F80000F016C00EF017C00FF019EC00F0520E01
:10090800196E2B0E186E000EE82EFED7182EFCD787
:10091800192EFAD700D0120001A495EF04F097EF32
:1009280004F09AEF04F07F829BEF04F07F9201A21B
:10093800A0EF04F0A2EF04F0A5EF04F07988A6EF89
:1009480004F0799801A0ABEF04F0ADEF04F0B0EF3C
:1009580004F07E8EB1EF04F07E9E1200036EE8EC88
:1009680004F00E01DA87E8EC04F0D5CE04F0E8ECE8
:1009780004F00350D8B4C3EF04F0C7EF04F0026AE0
:10098800022AC8EF04F0026A023A02460E01DA515E
:100998000218DF0B0218DA6FDA89045012000E0110
:1009A800D951F00B0809D96FD98B9F0ED66F848A5D
:1009B800848CA79BA79D1D0E1D6F1E0E1C6F1C0E01
:1009C8006F6F1B0E706F12000E01D8B5EEEF04F0BA
:1009D800F0EF04F0E8EF04F0DACE01F01F0E011694
:1009E800D8A4F9EF04F0FBEF04F0E8EF04F01200EC
:1009F80001500302F3CF05F0F4CF06F001500402D2
:100A0800F350062602500302F350062605C001F0F3
:100A180006C002F01200046E4EEC05F0520E3DECDA
:100A280005F0045080093DEC05F003503DEC05F05D
:100A380049EC05F01200D6501F0B4009D66ED68837
:100A4800D650F00B0809D66EE70ED46E950ED36E0D
:100A5800D588D58E1200040400004B020000A100C6
:100A68000000FC280000551B000070070000DC0097
:100A78000F00026EE8EC04F002C0D5FE1200F28C02
:100A88000E01298B2B81F28E1200E8EC04F00E0186
:100A9800DA851200E8EC04F00E01DA811200E8ECC5
:0E0AA80004F00E01DA831200564A572A12009B
:020000040020DA
:10000000FF0FFF0FFF0FFF0FFF0FFF0FFF0FFF0F80
:020000040030CA
:0C000000AAFFFFFF9FFFFFFFFFFFFFFFB5
:00000001FF
