:0400000017EF00F006
:100008005F820E0133AB0BEF00F00DEF00F015EF40
:1000180000F0E3EC0DF0E70ED46E950ED36E0E01F2
:10002800339B5F92110021EF0BF01C501D10D8A4D8
:1000380020EF00F022EF00F03BEF00F01EC014F0BC
:100048001FC015F020C016F021C017F04AEC07F0C9
:10005800D8905B34D96E5C34DA6E6C0ED926010EFA
:10006800DA22FF0EDE6EFF0EDD6E5B4A5C2A1C0490
:100078001D10D8A442EF00F044EF00F05DEF00F04F
:100088001EC014F01FC015F020C016F021C017F0D4
:1000980072EC08F0D8905B34D96E5C34DA6E6C0E72
:1000A800D926010EDA22FE0EDE6EFF0EDD6E5B4AE9
:1000B8005C2A020E1C181D10D8A465EF00F067EF2B
:1000C80000F094EF00F0000E256E000E246E1EC0A6
:1000D80014F01FC015F020C016F021C017F04AEC2C
:1000E80007F0D8905B34D96E5C34DA6E6C0ED92682
:1000F800010EDA22FF0EDE6EFF0EDD6E5B4A5C2A11
:10010800244A252A25BE92EF00F0255009E1020E67
:10011800245CD8A092EF00F094EF00F06BEF00F0B1
:10012800030E1C181D10D8A49CEF00F09EEF00F0E1
:1001380034EF01F0D8905B34D96E5C34DA6E6A0E15
:10014800D926010EDA22010EDBBEB5EF00F0010E52
:10015800DB5009E10B0EDE5CD8A0B5EF00F0B7EF7D
:1001680000F0D5EF00F0D8905B34D96E5C34DA6ECD
:100178006A0ED926010EDA22EC0EDE26FF0EDD22EB
:10018800D8905B34D96E5C34DA6E6C0ED926010EC9
:10019800DA22FF0EDE6EFF0EDD6E5B4A5C2A34EF5C
:1001A80001F0D8905B34D96E5C34DA6E6A0ED926C9
:1001B800010EDA22DE2806E1DE28D8A4E6EF00F0F8
:1001C800E8EF00F0F5EF00F0D8905B34D96E5C34BE
:1001D800DA6E6A0ED926010EDA22FE0EDE6EFF0EE8
:1001E800DD6ED8905B34D96E5C34DA6E6A0ED9262F
:1001F800010EDA22FE0EDE1806E1DE28D8A407EF8B
:1002080001F009EF01F016EF01F0D8905B34D96ED8
:100218005C34DA6E6A0ED926010EDA22FF0EDE6E23
:10022800FF0EDD6ED8905B34D96E5C34DA6E6C0EDE
:10023800D926010EDA22140EDE6E000EDD6E5B4A40
:100248005C2AD8905B34D96E5C34DA6E6C0ED92691
:10025800010EDA22FE0EDE6EFF0EDD6E5B4A5C2AB0
:10026800040E1C181D10D8A43CEF01F03EEF01F05D
:10027800D4EF01F0D8905B34D96E5C34DA6E6A0E34
:10028800D926010EDA22010EDBBE55EF01F0010E70
:10029800DB5009E10B0EDE5CD8A055EF01F057EFFB
:1002A80001F075EF01F0D8905B34D96E5C34DA6EEA
:1002B8006A0ED926010EDA22EC0EDE26FF0EDD22AA
:1002C800D8905B34D96E5C34DA6E6C0ED926010E88
:1002D800DA22FE0EDE6EFF0EDD6E5B4A5C2AD4EF7C
:1002E80001F0D8905B34D96E5C34DA6E6A0ED92688
:1002F800010EDA22DE2806E1DE28D8A486EF01F016
:1003080088EF01F095EF01F0D8905B34D96E5C343A
:10031800DA6E6A0ED926010EDA22FE0EDE6EFF0EA6
:10032800DD6ED8905B34D96E5C34DA6E6A0ED926ED
:10033800010EDA22FE0EDE1806E1DE28D8A4A7EFA9
:1003480001F0A9EF01F0B6EF01F0D8905B34D96E57
:100358005C34DA6E6A0ED926010EDA22FF0EDE6EE2
:10036800FF0EDD6ED8905B34D96E5C34DA6E6C0E9D
:10037800D926010EDA22140EDE6E000EDD6E5B4AFF
:100388005C2AD8905B34D96E5C34DA6E6C0ED92650
:10039800010EDA22FF0EDE6EFF0EDD6E5B4A5C2A6E
:1003A800050E1C181D10D8A4DCEF01F0DEEF01F0DB
:1003B800F7EF01F01EC014F01FC015F020C016F0B2
:1003C80021C017F0B6EC06F0D8905B34D96E5C34D7
:1003D800DA6E6C0ED926010EDA22FD0EDE6EFF0EE5
:1003E800DD6E5B4A5C2A060E1C181D10D8A4FFEFB0
:1003F80001F001EF02F01AEF02F01EC014F01FC066
:1004080015F020C016F021C017F0DEEC07F0D890E8
:100418005B34D96E5C34DA6E6C0ED926010EDA22A2
:10042800FC0EDE6EFF0EDD6E5B4A5C2A070E1C18A2
:100438001D10D8A422EF02F024EF02F042EF02F0E0
:10044800000E276E000E266E1EC014F01FC015F099
:1004580020C016F021C017F04AEC07F0264A272AD8
:1004680027BE40EF02F0275009E1020E265CD8A013
:1004780040EF02F042EF02F028EF02F01200000E07
:10048800026E040E016E1CEC0DF0120E386EDC0EBE
:10049800376E600EE82EFED7372EFCD7382EFAD7E7
:1004A80033EC0CF005C0EEF006C0EFF00001F06B85
:1004B800F16B000E026E020E016E1CEC0DF0120EB6
:1004C800386EDC0E376E600EE82EFED7372EFCD75E
:1004D800382EFAD75BEC0CF005C0F2F006C0F3F04A
:1004E8000001F46BF56B000E026E010E016E1CEC40
:1004F8000DF0120E386EDC0E376E600EE82EFED749
:10050800372EFCD7382EFAD7ABEC0CF005C0F6F036
:1005180006C0F7F00001F86BF96B000E026E000ED2
:10052800016E1CEC0DF04D500001EE5D4E50EF5980
:100538004F50F0595050F159D8B0A5EF02F0A7EF3D
:1005480002F0B1EF02F0000ECE6F000ECF6F000E7A
:10055800D06F000ED16FE6EF02F04D50EE5D016EE8
:100568004E50EF59026E4F50F059036E5050F159EA
:10057800046E640E056E000E066E000E076E000E09
:10058800086EA0EC0BF001C00DF002C00EF003C025
:100598000FF004C010F04D500001605D116E4E5018
:1005A8006159126E4F506259136E50506359146E50
:1005B800E9EC09F00DC0CEF00EC0CFF00FC0D0F0BE
:1005C80010C0D1F0CEC0E2F0CFC0E3F0D0C0E4F06C
:1005D800D1C0E5F051500001F25D5250F35953502B
:1005E800F4595450F559D8B0FCEF02F0FEEF02F080
:1005F80008EF03F0000ED26F000ED36F000ED46F19
:10060800000ED56F3DEF03F05150F25D016E525070
:10061800F359026E5350F459036E5450F559046E51
:10062800640E056E000E066E000E076E000E086E54
:10063800A0EC0BF001C00DF002C00EF003C00FF0EB
:1006480004C010F051500001645D116E525065599C
:10065800126E53506659136E54506759146EE9EC74
:1006680009F00DC0D2F00EC0D3F00FC0D4F010C006
:10067800D5F0D2C0E6F0D3C0E7F0D4C0E8F0D5C0DA
:10068800E9F055500001F65D5650F7595750F859A2
:100698005850F959D8B053EF03F055EF03F05FEF16
:1006A80003F0000ED66F000ED76F000ED86F000E45
:1006B800D96F94EF03F05550F65D016E5650F75917
:1006C800026E5750F859036E5850F959046E640E6B
:1006D800056E000E066E000E076E000E086EA0EC8A
:1006E8000BF001C00DF002C00EF003C00FF004C003
:1006F80010F055500001685D116E56506959126E20
:1007080057506A59136E58506B59146EE9EC09F03A
:100718000DC0D6F00EC0D7F00FC0D8F010C0D9F079
:10072800D6C0EAF0D7C0EBF0D8C0ECF0D9C0EDF0F5
:1007380020EEE2F000EE07F00B0EDBCFEBFFE80651
:10074800FCE221EE00F000EE13F00B0EDBCFEBFF26
:10075800E806FCE212EC04F007C0DAF008C0DBF0AF
:10076800000E0001DD6F000EDC6F000EE16F010E60
:10077800E06FE0C001F0E1C002F0000E046E0C0E64
:10078800036E88EC0DF0000E0124D96E010E0220D4
:10079800DA6E10EEC2F00B0EDBCFE3FFE806FCE2E8
:1007A80020EEE2F000EE07F00B0EDBCFEBFFE806E1
:1007B800FCE220EEC2F000EE13F00B0EDBCFEBFFF5
:1007C800E806FCE212EC04F007C0DEF008C0DFF037
:1007D8000001DA51DE5DDB51DF59D8B0F6EF03F0E6
:1007E800F8EF03F000EF04F0E0C0DCF0E1C0DDF06A
:1007F800DEC0DAF0DFC0DBF0E04BE12BE15109E1CC
:10080800090EE05DD8A00BEF04F00DEF04F0BDEF8A
:1008180003F0DCC035F0DDC036F012001350075C81
:10082800145008581550095816500A58D8B01FEFD8
:1008380004F021EF04F02FEF04F00750135C236E4F
:1008480008501458246E09501558256E0A50165829
:10085800266E3BEF04F01350075C236E14500858C3
:10086800246E15500958256E16500A58266E23C056
:100878002FF024C030F017500B5C18500C5819504A
:100888000D581A500E58D8B04CEF04F04EEF04F043
:100898005CEF04F00B50175C276E0C501858286E4C
:1008A8000D501958296E0E501A582A6E68EF04F028
:1008B80017500B5C276E18500C58286E19500D589D
:1008C800296E1A500E582A6E27C031F028C032F00F
:1008D8001B500F5C1C5010581D5011581E501258B8
:1008E800D8B079EF04F07BEF04F089EF04F00F50F3
:1008F8001B5C2B6E10501C582C6E11501D582D6E01
:1009080012501E582E6E95EF04F01B500F5C2B6E84
:100918001C5010582C6E1D5011582D6E1E50125818
:100928002E6E2BC033F02CC034F02FC001F030C035
:1009380002F02FC003F030C004F088EC0DF001C0C5
:100948001FF002C020F031C001F032C002F031C007
:1009580003F032C004F088EC0DF001501F24216E22
:1009680002502020226E33C001F034C002F033C0A0
:1009780003F034C004F088EC0DF001502124076E18
:1009880002502220086E120020EE02F00E50D926E6
:100998000F50DA22DF50D8B4D4EF04F0D6EF04F0C9
:1009A8000AEF05F00EC0D9FF0FC0DAFFDF50106E56
:1009B8001050016E026A20EE03F00E50D9260F5037
:1009C800DA22DECF03F0DDCF04F088EC0DF001C0B1
:1009D80007F002C008F0000E0A6E640E096E66EC9D
:1009E8000BF020EE03F00E50D9260F50DA22DF501C
:1009F800116E0750115C126E20EE03F00E50D926CE
:100A08000F50DA22DF50136E2DEF05F0000E126E34
:100A18000EC0D9FF0FC0DAFFDF50106E1050016E04
:100A2800026A20EE03F00E50D9260F50DA22DECFEC
:100A380003F0DDCF04F088EC0DF001C007F002C030
:100A480008F0000E0A6E640E096E66EC0BF0075093
:100A5800136E20EE01F00E50D9260F50DA22DF5027
:100A6800D8B439EF05F03BEF05F05DEF05F020EE67
:100A780005F00E50D9260F50DA22DECF10F0DDCF68
:100A880011F010C0D9FF11C0DAFF12C0DFFF20EE4D
:100A980007F00E50D9260F50DA22DECF10F0DDCF46
:100AA80011F010C0D9FF11C0DAFF13C0DFFF7DEFCE
:100AB80005F020EE05F00E50D9260F50DA22DECFD1
:100AC80010F0DDCF11F010C0D9FF11C0DAFF13C04C
:100AD800DFFF20EE07F00E50D9260F50DA22DECFC6
:100AE80010F0DDCF11F010C0D9FF11C0DAFF12C02D
:100AF800DFFF12005FEC0DF0010E036E000E9BECA1
:100B08000DF03F0E166E550EE82EFED7162EFCD7AA
:100B180000F0030E036E000E9BEC0DF0D50E036E75
:100B2800010E9BEC0DF0869E8792819820EEB4F022
:100B380011EE00F00B0EDBCFE3FFE806FCE220EE3F
:100B4800A8F011EE0CF00B0EDBCFE3FFE806FCE299
:100B580020EE9CF011EE18F00B0EDBCFE3FFE80659
:100B6800FCE220EE90F011EE24F00B0EDBCFE3FF59
:100B7800E806FCE220EE84F011EE30F00B0EDBCF3D
:100B8800E3FFE806FCE220EE78F011EE3CF00B0EF5
:100B9800DBCFE3FFE806FCE220EE6CF011EE48F054
:100BA8000B0EDBCFE3FFE806FCE221EEDCF011EEF2
:100BB80054F00B0EDBCFE3FFE806FCE221EED0F0A9
:100BC80011EE60F00B0EDBCFE3FFE806FCE2868651
:100BD8000E01B4978684B4958EA6F5EF05F0F7EF6D
:100BE80005F0FEEF05F08EB4FCEF05F0FEEF05F022
:100BF800F0EF05F08EB403EF06F005EF06F007EF0F
:100C080006F019EF06F094EC09F08EB60EEF06F038
:100C180010EF06F009EF06F01AEC06F08EB617EFA3
:100C280006F019EF06F012EF06F01200000E026E41
:100C3800040E016E1CEC0DF0120E0F6EDC0E0E6E23
:100C4800600EE82EFED70E2EFCD70F2EFAD733EC07
:100C58000CF005C04DF006C04EF04F6A506A000E09
:100C6800026E020E016E1CEC0DF0120E0F6EDC0E01
:100C78000E6E600EE82EFED70E2EFCD70F2EFAD77A
:100C88005BEC0CF005C051F006C052F0536A546A90
:100C9800000E026E010E016E1CEC0DF0120E0F6EAE
:100CA800DC0E0E6E600EE82EFED70E2EFCD70F2E31
:100CB800FAD7ABEC0CF005C055F006C056F0576AF1
:100CC800586A000E026E000E016E1CEC0DF0120E3A
:100CD8000F6EDC0E0E6E600EE82EFED70E2EFCD7C1
:100CE8000F2EFAD783EC0CF005C010F006C011F0F7
:100CF800000E026E070E016E1CEC0DF0120E0F6E48
:100D0800DC0E0E6E600EE82EFED70E2EFCD70F2ED0
:100D1800FAD783EC0CF005C012F006C013F0000EF1
:100D2800026E000E016E1CEC0DF010C009F011C02F
:100D38000AF012C007F013C008F066EC0BF007C009
:100D480014F008C015F014C007F015C008F0000E24
:100D58000A6E050E096E66EC0BF007C059F008C064
:100D68005AF01200000E1B6E190E1A6E20EE01F0DA
:100D78001450D9261550DA22010EDF6E20EE01F04C
:100D88001650D9261750DA22000EDF6E14C0D9FF8C
:100D980015C0DAFF1AC0DFFF16C0D9FF17C0DAFF87
:100DA8001AC0DFFF14C00EF015C00FF0C8EC04F035
:100DB80016C00EF017C00FF0C8EC04F00E0E196E36
:100DC800120E186E690EE82EFED7182EFCD7192EB3
:100DD800FAD700F0050E1A26000E1B221BBEFEEFE6
:100DE80006F01B5009E1280E1A5CD8A0FEEF06F0A9
:100DF80000EF07F0BAEF06F0000E1B6E1E0E1A6E1B
:100E080020EE01F01450D9261550DA22010EDF6EBB
:100E180020EE01F01650D9261750DA22000EDF6EA8
:100E280014C0D9FF15C0DAFF1AC0DFFF16C0D9FFFA
:100E380017C0DAFF1AC0DFFF14C00EF015C00FF09C
:100E4800C8EC04F016C00EF017C00FF0C8EC04F0A0
:100E58000D0E196EBF0E186E4C0EE82EFED7182E0A
:100E6800FCD7192EFAD7FB0E1A26FF0E1B221BBE23
:100E780049EF07F01B5007E1100E1A5CD8B047EF96
:100E880007F049EF07F004EF07F01200000E1B6EA1
:100E9800190E1A6E20EE01F01450D9261550DA22D8
:100EA800010EDF6E20EE01F01650D9261750DA2217
:100EB800000EDF6E14C0D9FF15C0DAFF1AC0DFFFBD
:100EC80016C0D9FF17C0DAFF1AC0DFFF14C00EF032
:100ED80015C00FF0C8EC04F016C00EF017C00FF0E4
:100EE800C8EC04F0090E196EB00E186E580EE82EF4
:100EF800FED7182EFCD7192EFAD700D0050E1A26C1
:100F0800000E1B221BBE92EF07F01B5009E1280EB2
:100F18001A5CD8A092EF07F094EF07F04EEF07F0B5
:100F2800000E1B6E1E0E1A6E20EE01F01450D9260C
:100F38001550DA22010EDF6E20EE01F01650D92688
:100F48001750DA22000EDF6E14C0D9FF15C0DAFF81
:100F58001AC0DFFF16C0D9FF17C0DAFF1AC0DFFFBB
:100F680014C00EF015C00FF0C8EC04F016C00EF057
:100F780017C00FF0C8EC04F0090E196E860E186E33
:100F8800CA0EE82EFED7182EFCD7192EFAD7FB0E5C
:100F98001A26FF0E1B221BBEDDEF07F01B5007E1D0
:100FA800100E1A5CD8B0DBEF07F0DDEF07F098EF12
:100FB80007F01200000E1B6E170E1A6E20EE01F0DD
:100FC8001450D9261550DA22000EDF6E20EE01F0FB
:100FD8001650D9261750DA22010EDF6E14C0D9FF39
:100FE80015C0DAFF1AC0DFFF16C0D9FF17C0DAFF35
:100FF8001AC0DFFF14C00EF015C00FF0C8EC04F0E3
:1010080016C00EF017C00FF0C8EC04F00D0E196EE4
:10101800AA0E186E840EE82EFED7182EFCD7192EAD
:10102800FAD700D0050E1A26000E1B221BBE26EF8B
:1010380008F01B5009E1260E1A5CD8A026EF08F02C
:1010480028EF08F0E2EF07F0000E1B6E1C0E1A6E78
:1010580020EE01F01450D9261550DA22000EDF6E6A
:1010680020EE01F01650D9261750DA22010EDF6E55
:1010780014C0D9FF15C0DAFF1AC0DFFF16C0D9FFA8
:1010880017C0DAFF1AC0DFFF14C00EF015C00FF04A
:10109800C8EC04F016C00EF017C00FF0C8EC04F04E
:1010A8000D0E196E2D0E186ED80EE82EFED7182EBE
:1010B800FCD7192EFAD7FB0E1A26FF0E1B221BBED1
:1010C80071EF08F01B5007E10E0E1A5CD8B06FEFF5
:1010D80008F071EF08F02CEF08F01200000E1B6EFC
:1010E800170E1A6E20EE01F01450D9261550DA2288
:1010F800000EDF6E20EE01F01650D9261750DA22C6
:10110800010EDF6E14C0D9FF15C0DAFF1AC0DFFF69
:1011180016C0D9FF17C0DAFF1AC0DFFF14C00EF0DF
:1011280015C00FF0C8EC04F016C00EF017C00FF091
:10113800C8EC04F0090E196E720E186E020EE82E35
:10114800FED7182EFCD7192EFAD7050E1A26000E30
:101158001B221BBEB9EF08F01B5009E1260E1A5CD2
:10116800D8A0B9EF08F0BBEF08F076EF08F0000E52
:101178001B6E1C0E1A6E20EE01F01450D926155065
:10118800DA22000EDF6E20EE01F01650D926175035
:10119800DA22010EDF6E14C0D9FF15C0DAFF1AC0BB
:1011A800DFFF16C0D9FF17C0DAFF1AC0DFFF14C06F
:1011B8000EF015C00FF0C8EC04F016C00EF017C002
:1011C8000FF0C8EC04F0090E196E1E0E186EE40E2E
:1011D800E82EFED7182EFCD7192EFAD700D0FB0E12
:1011E8001A26FF0E1B221BBE05EF09F01B5007E154
:1011F8000E0E1A5CD8B003EF09F005EF09F0BFEF47
:1012080008F01200ABEC0DF0CEEC0DF0000E026E03
:10121800630E016ED9EC0AF07EEC05F00E01B49570
:101228008684000E3B6E010E3C6E010E3D6EAA0ECA
:10123800406E0F0E416EA60E426E0F0E436E000EEC
:101248003F6E630E3E6E000E446E010E456E010E3B
:10125800466E250E496E0F0E4A6E210E4B6E0F0E0E
:101268004C6E000E486E630E476E3B0E146E000EF9
:10127800156E440E166E000E176E06EC0CF08BEC15
:101288000AF00C040D10D8A44CEF09F04EEF09F049
:1012980043EF09F0F8EC0CF03B0E146E000E156EDF
:1012A800440E166E000E176ED3EC0CF043EC02F0F1
:1012B80035C039F036C03AF03B0E1A6E000E1B6E80
:1012C800440E1C6E000E1D6E000E1F6E0A0E1E6E62
:1012D8003BEC0AF03B0E146E000E156E440E166EB3
:1012E800000E176ED3EC0CF039C01CF03AC01DF09C
:1012F8003B0E1E6E000E1F6E440E206E000E216EF9
:1013080019EC00F03B0E146E000E156E440E166EAE
:10131800000E176ED3EC0CF039EF09F017EF00F060
:10132800000E026E040E016E1CEC0DF0120E0D6E16
:10133800DC0E0C6E600EE82EFED70C2EFCD70D2EA0
:10134800FAD733EC0CF005C060F006C061F000017C
:10135800626B636B000E026E020E016E1CEC0DF0E8
:10136800120E0D6EDC0E0C6E600EE82EFED70C2EE3
:10137800FCD70D2EFAD75BEC0CF005C064F006C064
:1013880065F00001666B676B000E026E010E016E60
:101398001CEC0DF0120E0D6EDC0E0C6E600EE82EBD
:1013A800FED70C2EFCD70D2EFAD7ABEC0CF005C0EF
:1013B80068F006C069F000016A6B6B6B000E026E84
:1013C800000E016E1CEC0DF01200000E156E000EE2
:1013D800166E000E176E000E186E115012101310B4
:1013E8001410D8B4FAEF09F0FCEF09F032EF0AF064
:1013F800010E196E06EF0AF0D89011361236133620
:101408001436192A14AE0BEF0AF00DEF0AF000EFAC
:101418000AF0D890153616361736183611500D5C66
:1014280012500E5813500F5814501058D8A01FEFD0
:101438000AF021EF0AF02AEF0AF011500D5E12505F
:101448000E5A13500F5A1450105A1580D89014324F
:10145800133212321132192E0DEF0AF015C00DF0A9
:1014680016C00EF017C00FF018C010F01200000ED2
:101478005E6E000E5D6E75EF0AF020EE01F01A50F8
:10148800D9261B50DA22000EDF6E20EE01F01C5028
:10149800D9261D50DA22000EDF6E1AC0D9FF1BC0F4
:1014A800DAFF320EDF6E1CC0D9FF1DC0DAFF320E24
:1014B800DF6E1AC00EF01BC00FF0C8EC04F01CC0A1
:1014C8000EF01DC00FF0C8EC04F0290E216E960E28
:1014D800206E7F0EE82EFED7202EFCD7212EFAD7BD
:1014E80000F01E505D5C1F505E58D8A07EEF0AF0D9
:1014F80080EF0AF041EF0AF01A0E146E000E156E16
:101508001C0E166E000E176ED3EC0CF01200000EB7
:10151800026E000E016E1CEC0DF0120E0F6EDC0E4A
:101528000E6E600EE82EFED70E2EFCD70F2EFAD7C1
:1015380083EC0CF005C010F006C011F0000E026E2E
:10154800070E016E1CEC0DF0120E0F6EDC0E0E6E07
:10155800600EE82EFED70E2EFCD70F2EFAD783EC9E
:101568000CF005C012F006C013F0000E026E000E5B
:10157800016E1CEC0DF010C001F011C002F059C052
:1015880003F05AC004F088EC0DF00150125C0250D0
:101598001358D8B0D2EF0AF0D5EF0AF0010ED6EF03
:1015A8000AF0000E0C6E0D6A12008594839E879CCB
:1015B80085987D947B9E7F9C7D98050E0E01746FA7
:1015C800060E766F070E696F080E886FBD508F0B79
:1015D8004009BD6EE00EBE16BF50F00B0109BF6E8C
:1015E800630EBC6EBD8E000EAA6E000EA66E000EB7
:1015F8000F01256F000E216FFC0EAD16F30EAD1610
:10160800CF0EAD163F0EAD16AB88AB50F00B0C09E4
:10161800AB6EAB8EA788A750F00B0C09A76EA78EF0
:1016280026892651F00B0C09266F268F2289225114
:10163800F00B0C09226F228F1200840EF66E1B0E1F
:10164800F76E000EF86E01EEDCF010EE0CF00900FB
:10165800F5CFEEFFE550E150FAE1AA0EF66E170E4F
:10166800F76E000EF86E00EE60F010EE62F0090002
:10167800F5CFEEFFE550E150FAE1760EF66E1B0E5F
:10168800F76E000EF86E00EE4DF010EE0EF0090049
:10169800F5CFEEFFE550E150FAE101EE00F0DC0E87
:1016A800EE6AE806FDE100EEEEF00C0EEE6AE806E2
:1016B800FDE15E6A5D6A5C6A5B6A5F905F92000149
:1016C80006EF09F0000E0C6E000E0B6E09500A10A2
:1016D800D8B471EF0BF073EF0BF09BEF0BF0010E2A
:1016E8000D6E7BEF0BF0D89009360A360D2A0AAE3C
:1016F80080EF0BF082EF0BF077EF0BF0D8900B3602
:101708000C360950075C0A500858D8A08EEF0BF029
:1017180090EF0BF095EF0BF00950075E0A50085A4E
:101728000B80D8900A3209320D2E82EF0BF00BC0D5
:1017380007F00CC008F01200000E096E000E0A6EC9
:10174800000E0B6E000E0C6E01A0ADEF0BF0AFEFAC
:101758000BF0B7EF0BF00550092606500A22075088
:101768000B2208500C22D890053606360736083664
:10177800D8900432033202320132015002100310B1
:101788000410D8A4CAEF0BF0CCEF0BF0A8EF0BF0C5
:1017980009C001F00AC002F00BC003F00CC004F04D
:1017A8001200FC280000551B0000700700002600EE
:1017B800000048000000540000005C000000270002
:1017C80000001C0000004D0000003C00000040002C
:1017D80000005D0000004C00000014000000030041
:1017E8000000090000002400000019000000360075
:1017F800000008000000480000000200000002008D
:101808000000DC00000E5E6E000E5D6E20EE01F042
:101818001450D9261550DA22010EDF6E20EE01F0A1
:101828001650D9261750DA22010EDF6E14C0D9FFE0
:1018380015C0DAFF280EDF6E16C0D9FF17C0DAFF11
:10184800260EDF6E14C00EF015C00FF0C8EC04F0C1
:1018580016C00EF017C00FF0C8EC04F01200D9EC57
:101868000DF0520EC8EC0DF0B60EC8EC0DF0DEEC23
:101878000DF0530EC8EC0DF0010E3EEC0DF0076EA6
:1018880007500A6E0B6A000E3EEC0DF0076E07500B
:10189800096E086A0A5008100A6E0B5009100B6E80
:1018A800D4EC0DF00AC005F00BC006F01200D9EC1C
:1018B8000DF0520EC8EC0DF0B80EC8EC0DF0DEECD1
:1018C8000DF0530EC8EC0DF0010E3EEC0DF0076E56
:1018D80007500A6E0B6A000E3EEC0DF0076E0750BB
:1018E800096E086A0A5008100A6E0B5009100B6E30
:1018F800D4EC0DF00AC005F00BC006F01200D9ECCC
:101908000DF0520EC8EC0DF0B40EC8EC0DF0DEEC84
:101918000DF0530EC8EC0DF0010E3EEC0DF0076E05
:1019280007500A6E0B6A000E3EEC0DF0076E07506A
:10193800096E086A0A5008100A6E0B5009100B6EDF
:10194800D4EC0DF00AC005F00BC006F01200D9EC7B
:101958000DF0520EC8EC0DF0BA0EC8EC0DF0DEEC2E
:101968000DF0530EC8EC0DF0010E3EEC0DF0076EB5
:1019780007500A6E0B6A000E3EEC0DF0076E07501A
:10198800096E086A0A5008100A6E0B5009100B6E8F
:10199800D4EC0DF00AC005F00BC006F0120014C01C
:1019A800D9FF15C0DAFF000EDF6E16C0D9FF17C0C9
:1019B800DAFF000EDF6E14C00EF015C00FF0C8EC91
:1019C80004F016C00EF017C00FF0C8EC04F0520E69
:1019D800196E2B0E186E000EE82EFED7182EFCD7A7
:1019E800192EFAD700D012005EBE04EF0DF05E503B
:1019F80009E1150E5D5CD8A004EF0DF006EF0DF0BF
:101A08001BEF0DF0F60E5D24016EFF0E5E20026ED8
:101A1800D8905B34D96E5C34DA6E6C0ED926010E20
:101A2800DA2201C0DEFF02C0DDFF5B4A5C2A120039
:101A380001A421EF0DF023EF0DF026EF0DF07F82CA
:101A480027EF0DF07F9201A22CEF0DF02EEF0DF095
:101A580031EF0DF0798832EF0DF0799801A037EF6A
:101A68000DF039EF0DF03CEF0DF07E8E3DEF0DF0EF
:101A78007E9E1200036E74EC0DF00E01DA8774EC92
:101A88000DF0D5CE04F074EC0DF00350D8B44FEF40
:101A98000DF053EF0DF0026A022A54EF0DF0026ABE
:101AA800023A02460E01DA510218DF0B0218DA6F09
:101AB800DA89045012000E01D951F00B0809D96FC8
:101AC800D98B9F0ED66F848A848CA79BA79D1D0EE9
:101AD8001D6F1E0E1C6F1C0E6F6F1B0E706F120099
:101AE8000E01D8B57AEF0DF07CEF0DF074EF0DF024
:101AF800DACE01F01F0E0116D8A485EF0DF087EF9E
:101B08000DF074EF0DF0120001500302F3CF05F051
:101B1800F4CF06F001500402F350062602500302E7
:101B2800F350062605C001F006C002F01200046E4C
:101B3800D9EC0DF0520EC8EC0DF004508009C8EC39
:101B48000DF00350C8EC0DF0D4EC0DF01200D65097
:101B58001F0B4009D66ED688D650F00B0809D66EF2
:101B6800E70ED46E950ED36ED588D58E1200040478
:101B780000004B020000A10000000F0064000000FC
:101B88006400000064000000026E74EC0DF002C0F6
:101B9800D5FE1200F28C0E01298B2B81F28E1200D9
:101BA80074EC0DF00E01DA85120074EC0DF00E01E4
:101BB800DA81120074EC0DF00E01DA8312005D4A2E
:041BC8005E2A12007F
:020000040020DA
:10000000FF0FFF0FFF0FFF0FFF0FFF0FFF0FFF0F80
:020000040030CA
:0C000000AAFFFFFF9FFFFFFFFFFFFFFFB5
:00000001FF
