:0400000017EF00F006
:100008005E820E0133AB0BEF00F00DEF00F015EF41
:1000180000F03FEC03F0E70ED46E950ED36E0E01A0
:10002800339B5E9211005FEF01F0DBEC02F0010EF2
:10003800356E000E04EC03F03F0E406E550EE82EB0
:10004800FED7402EFCD700F0030E356E000E04ECF0
:1000580003F0D50E356E010E04EC03F0869E8792F0
:10006800819820EE25F011EE00F00B0EDBCFE3FFB8
:10007800E806FCE220EE19F011EE0CF00B0EDBCFD7
:10008800E3FFE806FCE220EE9CF011EE18F00B0E00
:10009800DBCFE3FFE806FCE220EE90F011EE24F05F
:1000A8000B0EDBCFE3FFE806FCE220EE84F011EE56
:1000B80030F00B0EDBCFE3FFE806FCE220EE78F031
:1000C80011EE3CF00B0EDBCFE3FFE806FCE220EE7E
:1000D8006CF011EE48F00B0EDBCFE3FFE806FCE214
:1000E80020EE60F011EE54F00B0EDBCFE3FFE806D4
:1000F800FCE220EEA8F011EE60F00B0EDBCFE3FF80
:10010800E806FCE286860E01B4978684B4958EA62E
:1001180090EF00F092EF00F099EF00F08EB497EFB7
:1001280000F099EF00F08BEF00F08EB49EEF00F036
:10013800A0EF00F0A2EF00F0B4EF00F0B5EC00F093
:100148008EB6A9EF00F0ABEF00F0A4EF00F00AECD8
:1001580001F08EB6B2EF00F0B4EF00F0ADEF00F0B2
:100168001200000E346E040E336E7FEC02F0290E7E
:100178003F6E960E3E6E7F0EE82EFED73E2EFCD7C3
:100188003F2EFAD700F0BFEC01F037C00DF038C0B1
:100198000EF00F6A106A000E346E020E336E7FEC9A
:1001A80002F0290E3F6E960E3E6E7F0EE82EFED7A9
:1001B8003E2EFCD73F2EFAD700F0E7EC01F037C00F
:1001C80011F038C012F0136A146A000E346E010E72
:1001D800336E7FEC02F0290E3F6E960E3E6E7F0E58
:1001E800E82EFED73E2EFCD73F2EFAD700F00FECB4
:1001F80002F037C015F038C016F0176A186A000EFA
:10020800346E000E336E7FEC02F01200000E346E76
:10021800040E336E7FEC02F0290E3F6E960E3E6E92
:100228007F0EE82EFED73E2EFCD73F2EFAD700F0E1
:10023800BFEC01F037C001F038C002F0036A046A6D
:10024800000E346E020E336E7FEC02F0290E3F6E04
:10025800960E3E6E7F0EE82EFED73E2EFCD73F2E22
:10026800FAD700F0E7EC01F037C005F038C006F027
:10027800076A086A000E346E010E336E7FEC02F0D6
:10028800290E3F6E960E3E6E7F0EE82EFED73E2E4E
:10029800FCD73F2EFAD700F00FEC02F037C009F078
:1002A80038C00AF00B6A0C6A000E346E000E336E0A
:1002B8007FEC02F012006E0EF66E040EF76E000E62
:1002C800F86E00EE60F010EE48F00900F5CFEEFF92
:1002D800E550E150FAE1840EF66E050EF76E000E59
:1002E800F86E00EE01F010EE32F00900F5CFEEFFE7
:1002F800E550E150FAE101EE00F06C0EEE6AE80616
:10030800FDE100EEA8F00C0EEE6AE806FDE100EE55
:1003180050F00E0EEE6AE806FDE15E905E92000176
:100328005BEF02F0BFEC01F037C040F038C041F09D
:10033800426A436AE7EC01F037C044F038C045F040
:10034800466A476A0FEC02F037C048F038C049F0F7
:100358004A6A4B6A000E346E000E336E7FEC02F070
:10036800010E4026000E412242224322000E3F6E1B
:10037800010E3E6E120035EC03F0520E24EC03F031
:10038800B60E24EC03F03AEC03F0530E24EC03F021
:10039800010EA1EC02F0396E39503C6E3D6A000E38
:1003A800A1EC02F0396E39503B6E3A6A3C503A1073
:1003B8003C6E3D503B103D6E30EC03F03CC037F0D6
:1003C8003DC038F0120035EC03F0520E24EC03F077
:1003D800B80E24EC03F03AEC03F0530E24EC03F0CF
:1003E800010EA1EC02F0396E39503C6E3D6A000EE8
:1003F800A1EC02F0396E39503B6E3A6A3C503A1023
:100408003C6E3D503B103D6E30EC03F03CC037F085
:100418003DC038F0120035EC03F0520E24EC03F026
:10042800BA0E24EC03F03AEC03F0530E24EC03F07C
:10043800010EA1EC02F0396E39503C6E3D6A000E97
:10044800A1EC02F0396E39503B6E3A6A3C503A10D2
:100458003C6E3D503B103D6E30EC03F03CC037F035
:100468003DC038F012006400000064000000640021
:1004780000002600000048000000540000005C0056
:100488000000270000001C0000004D0000003C0098
:100498000000400000005D0000004C000000140057
:1004A800000003000000090000002400000014EC14
:1004B80003F02AEC03F019EC00F0000E346E070E7E
:1004C800336E7FEC02F0520E4D6E2B0E4C6E000E0A
:1004D800E82EFED74C2EFCD74D2EFAD700D096EC3E
:1004E80001F03EC04EF03FC04FF04E4A4F2A61EF38
:1004F80002F017EF00F033A484EF02F086EF02F069
:1005080089EF02F07F828AEF02F07F9233A28FEFA9
:1005180002F091EF02F094EF02F0798895EF02F083
:10052800799833A09AEF02F09CEF02F09FEF02F067
:100538007E8EA0EF02F07E9E1200356EF0EC02F087
:100548000E01DA87F0EC02F0D5CE36F0F0EC02F0CE
:100558003550D8B4B2EF02F0B6EF02F0346A342A5C
:10056800B7EF02F0346A343A34460E01DA513418DF
:10057800DF0B3418DA6FDA893650120004040000F1
:100588004B020000A1000000FC280000551B0000E1
:100598007007000019000000360000000800000085
:1005A800480000000200000002000000F4010E01F3
:1005B800D951F00B0809D96FD98B9F0ED66F848A51
:1005C800848CA79BA79D1D0E1D6F1E0E1C6F1C0EF5
:1005D8006F6F1B0E706F12000E01D8B5F6EF02F0A8
:1005E800F8EF02F0F0EF02F0DACE33F01F0E331618
:1005F800D8A401EF03F003EF03F0F0EF02F01200CC
:10060800366E35EC03F0520E24EC03F036508009B8
:1006180024EC03F0355024EC03F030EC03F0120026
:10062800D6501F0B4009D66ED688D650F00B080955
:10063800D66EE70ED46E950ED36ED588D58E120081
:10064800346EF0EC02F034C0D5FE1200F28C0E01CC
:10065800298B2B81F28E1200F0EC02F00E01DA8564
:100668001200F0EC02F00E01DA811200F0EC02F058
:0C0678000E01DA8312005C4A5D2A1200B9
:020000040020DA
:10000000FF0FFF0FFF0FFF0FFF0FFF0FFF0FFF0F80
:020000040030CA
:0C000000AAFFFFFF9FFFFFFFFFFFFFFFB5
:00000001FF
