:0400000017EF00F006
:1000080056820E0133AB0BEF00F00DEF00F015EF49
:1000180000F080EC03F0E70ED46E950ED36E0E015F
:10002800339B56921100A7EF01F01CEC03F0010E70
:10003800356E000E45EC03F03F0E406E550EE82E6F
:10004800FED7402EFCD700F0030E356E000E45ECAF
:1000580003F0D50E356E010E45EC03F0869E8792AF
:10006800819820EE25F011EE00F00B0EDBCFE3FFB8
:10007800E806FCE220EE19F011EE0CF00B0EDBCFD7
:10008800E3FFE806FCE220EE9CF011EE18F00B0E00
:10009800DBCFE3FFE806FCE220EE90F011EE24F05F
:1000A8000B0EDBCFE3FFE806FCE220EE84F011EE56
:1000B80030F00B0EDBCFE3FFE806FCE220EE78F031
:1000C80011EE3CF00B0EDBCFE3FFE806FCE220EE7E
:1000D8006CF011EE48F00B0EDBCFE3FFE806FCE214
:1000E80020EE60F011EE54F00B0EDBCFE3FFE806D4
:1000F800FCE220EEA8F011EE60F00B0EDBCFE3FF80
:10010800E806FCE286860E01B4978684B4958EA62E
:1001180090EF00F092EF00F099EF00F08EB497EFB7
:1001280000F099EF00F08BEF00F08EB49EEF00F036
:10013800A0EF00F0A2EF00F0B4EF00F0B5EC00F093
:100148008EB6A9EF00F0ABEF00F0A4EF00F007ECDB
:1001580001F08EB6B2EF00F0B4EF00F0ADEF00F0B2
:100168001200000E346E040E336EA2EC02F0120E72
:100178003F6EDC0E3E6E600EE82EFED73E2EFCD79C
:100188003F2EFAD706EC02F037C00DF038C00EF05B
:100198000F6A106A000E346E020E336EA2EC02F083
:1001A800120E3F6EDC0E3E6E600EE82EFED73E2E1F
:1001B800FCD73F2EFAD72EEC02F037C011F038C02A
:1001C80012F0136A146A000E346E010E336EA2EC3C
:1001D80002F0120E3F6EDC0E3E6E600EE82EFED769
:1001E8003E2EFCD73F2EFAD756EC02F037C015F05A
:1001F80038C016F0176A186A000E346E000E336E97
:10020800A2EC02F01200000E346E040E336EA2EC63
:1002180002F0120E3F6EDC0E3E6E600EE82EFED728
:100228003E2EFCD73F2EFAD706EC02F037C001F07D
:1002380038C002F0036A046A000E346E020E336E90
:10024800A2EC02F0120E3F6EDC0E3E6E600EE82E3F
:10025800FED73E2EFCD73F2EFAD72EEC02F037C041
:1002680005F038C006F0076A086A000E346E010E01
:10027800336EA2EC02F0120E3F6EDC0E3E6E600E84
:10028800E82EFED73E2EFCD73F2EFAD756EC02F0CA
:1002980037C009F038C00AF00B6A0C6A000E346ED9
:1002A800000E336EA2EC02F01200000E346E000E47
:1002B800336EA2EC02F0120E416EDC0E406E600E40
:1002C800E82EFED7402EFCD7412EFAD7DEEC01F0FF
:1002D80037C042F038C043F0000E346E070E336E5C
:1002E800A2EC02F0120E416EDC0E406E600EE82E9B
:1002F800FED7402EFCD7412EFAD7DEEC01F037C0EE
:1003080044F038C045F0000E346E000E336EA2EC97
:1003180002F042C040F043C041F0D8904036413628
:10032800D890403641364050445C41504558D8B08A
:10033800A0EF01F0A3EF01F0010EA4EF01F0000E11
:100348003E6E3F6A1200FC0EF66E040EF76E000E4B
:10035800F86E00EE60F010EE48F00900F5CFEEFF01
:10036800E550E150FAE1060EF66E060EF76E000E45
:10037800F86E00EE01F010EE32F00900F5CFEEFF56
:10038800E550E150FAE101EE00F06C0EEE6AE80685
:10039800FDE100EEA8F00C0EEE6AE806FDE100EEC5
:1003A80048F00E0EEE6AE806FDE1569056920001FE
:1003B800E5EF02F076EC03F0520E65EC03F0B40EB4
:1003C80065EC03F07BEC03F0530E65EC03F0010ED3
:1003D800C4EC02F0396E39503C6E3D6A000EC4EC34
:1003E80002F0396E39503B6E3A6A3C503A103C6E16
:1003F8003D503B103D6E71EC03F03CC037F03DC002
:1004080038F0120076EC03F0520E65EC03F0B60EED
:1004180065EC03F07BEC03F0530E65EC03F0010E82
:10042800C4EC02F0396E39503C6E3D6A000EC4ECE3
:1004380002F0396E39503B6E3A6A3C503A103C6EC5
:100448003D503B103D6E71EC03F03CC037F03DC0B1
:1004580038F0120076EC03F0520E65EC03F0B80E9B
:1004680065EC03F07BEC03F0530E65EC03F0010E32
:10047800C4EC02F0396E39503C6E3D6A000EC4EC93
:1004880002F0396E39503B6E3A6A3C503A103C6E75
:100498003D503B103D6E71EC03F03CC037F03DC061
:1004A80038F0120076EC03F0520E65EC03F0BA0E49
:1004B80065EC03F07BEC03F0530E65EC03F0010EE2
:1004C800C4EC02F0396E39503C6E3D6A000EC4EC43
:1004D80002F0396E39503B6E3A6A3C503A103C6E25
:1004E8003D503B103D6E71EC03F03CC037F03DC011
:1004F80038F012006400000064000000640000008E
:100508002600000048000000540000005C000000C5
:10051800270000001C0000004D0000003C00000007
:10052800400000005D0000004C00000014000000C6
:1005380003000000090000002400000033A4A7EF16
:1005480002F0A9EF02F0ACEF02F07F82ADEF02F00B
:100558007F9233A2B2EF02F0B4EF02F0B7EF02F0ED
:100568007988B8EF02F0799833A0BDEF02F0BFEFB9
:1005780002F0C2EF02F07E8EC3EF02F07E9E120000
:10058800356E31EC03F00E01DA8731EC03F0D5CE8D
:1005980036F031EC03F03550D8B4D5EF02F0D9EF8E
:1005A80002F0346A342ADAEF02F0346A343A344614
:1005B8000E01DA513418DF0B3418DA6FDA89365045
:1005C800120055EC03F06BEC03F019EC00F0889680
:1005D80059EC01F03EC046F03FC047F046044710D2
:1005E800D8A4F9EF02F0FBEF02F0FEEF02F08086EC
:1005F800ECEF02F08096ECEF02F017EF00F0040445
:1006080000004B020000A1000000FC280000551B60
:100618000000700700001900000036000000080004
:100628000000480000000200000002000000DC009A
:100638000E01D951F00B0809D96FD98B9F0ED66FCF
:10064800848A848CA79BA79D1D0E1D6F1E0E1C6F90
:100658001C0E6F6F1B0E706F12000E01D8B537EFAE
:1006680003F039EF03F031EF03F0DACE33F01F0E69
:100678003316D8A442EF03F044EF03F031EF03F050
:100688001200366E76EC03F0520E65EC03F036502D
:10069800800965EC03F0355065EC03F071EC03F06C
:1006A8001200D6501F0B4009D66ED688D650F00BD4
:1006B8000809D66EE70ED46E950ED36ED588D58E02
:1006C8001200346E31EC03F034C0D5FE1200F28C07
:1006D8000E01298B2B81F28E120031EC03F00E01F2
:1006E800DA85120031EC03F00E01DA81120031ECE8
:0E06F80003F00E01DA831200544A552A120054
:020000040020DA
:10000000FF0FFF0FFF0FFF0FFF0FFF0FFF0FFF0F80
:020000040030CA
:0C000000AAFFFFFF9FFFFFFFFFFFFFFFB5
:00000001FF
