:0400000051EF00F0CC
:100008004F820E0133AB0BEF00F00DEF00F04FEF16
:1000180000F00001F24BF32B454A462A0A0EF2196A
:10002800F311D8A41AEF00F01CEF00F023EF00F052
:1000380035EC12F0000E0001F36F000EF26F160E91
:1000480045184610D8A42BEF00F02DEF00F035EF3F
:1000580000F0000E0D6E000E0C6EDDEC0EF049EF98
:1000680000F02C0E45184610D8A43DEF00F03FEFE5
:1000780000F049EF00F0000E0D6E010E0C6EDDEC85
:100088000EF0000E466E000E456EFD0ED46E900EFC
:10009800D36E0E01339B4F9211009AEF0DF02DC0D5
:1000A80021F02EC022F02FC023F030C024F0000E23
:1000B800266E050E256E2FEC0EF02DC021F02EC0F9
:1000C80022F02FC023F030C024F072EC10F02B5037
:1000D8002C10D8A472EF00F074EF00F08DEF00F050
:1000E8002DC021F02EC022F02FC023F030C024F004
:1000F80013EC0BF0D8904734D96E4834DA6E000E02
:10010800D926020EDA22FF0EDE6EFF0EDD6E474A9A
:10011800482A2B042C10D8A494EF00F096EF00F096
:10012800AFEF00F02DC021F02EC022F02FC023F039
:1001380030C024F0BEEC09F0D8904734D96E48346A
:10014800DA6E000ED926020EDA22FE0EDE6EFF0EE1
:10015800DD6E474A482A020E2B182C10D8A4B7EF98
:1001680000F0B9EF00F0E6EF00F0000E346E000E7C
:10017800336E2DC021F02EC022F02FC023F030C0E6
:1001880024F013EC0BF0D8904734D96E4834DA6E6B
:10019800000ED926020EDA22FF0EDE6EFF0EDD6E8D
:1001A800474A482A334A342A34BEE4EF00F0345030
:1001B80009E1020E335CD8A0E4EF00F0E6EF00F0AE
:1001C800BDEF00F0030E2B182C10D8A4EEEF00F0B2
:1001D800F0EF00F0F0EF01F02DC021F02EC022F07A
:1001E8002FC023F030C024F0000E266E100E256EAE
:1001F8002FEC0EF02DC021F02EC022F02FC023F0DE
:1002080030C024F072EC10F02DC021F02EC022F086
:100218002FC023F030C024F013EC0BF0D8904734F3
:10022800D96E4834DA6EFE0ED926010EDA22010E96
:10023800DBBE29EF01F0010EDB5009E1060EDE5CA2
:10024800D8A029EF01F02BEF01F049EF01F0D89089
:100258004734D96E4834DA6EFE0ED926010EDA22FA
:10026800F50EDE26FF0EDD22D8904734D96E4834CD
:10027800DA6E000ED926020EDA22FF0EDE6EFF0EAF
:10028800DD6E474A482AF0EF01F0D8904734D96E1E
:100298004834DA6EFE0ED926010EDA22DE2806E18F
:1002A800DE28D8A45AEF01F05CEF01F06BEF01F003
:1002B800D8904734D96E4834DA6EFE0ED926010E2E
:1002C800DA22FE0EDE6EFF0EDD6ED2EF01F0D89060
:1002D8004734D96E4834DA6EFE0ED926010EDA227A
:1002E800FE0EDE1806E1DE28D8A47DEF01F07FEFD0
:1002F80001F08EEF01F0D8904734D96E4834DA6EA9
:10030800FE0ED926010EDA22FF0EDE6EFF0EDD6E1E
:10031800D2EF01F0D8904734D96E4834DA6EFE0E29
:10032800D926010EDA22FD0EDE1806E1DE28D8A451
:10033800A0EF01F0A2EF01F0B1EF01F0D89047343F
:10034800D96E4834DA6EFE0ED926010EDA22FC0E7A
:10035800DE6EFF0EDD6ED2EF01F0D8904734D96E15
:100368004834DA6EFE0ED926010EDA22FC0EDE18AB
:1003780006E1DE28D8A4C3EF01F0C5EF01F0D2EF03
:1003880001F0D8904734D96E4834DA6EFE0ED9267B
:10039800010EDA22FD0EDE6EFF0EDD6ED8904734B8
:1003A800D96E4834DA6E000ED926020EDA22100E03
:1003B800DE6E000EDD6E474A482AD8904734D96E63
:1003C8004834DA6E000ED926020EDA22FE0EDE6EF0
:1003D800FF0EDD6E474A482A040E2B182C10D8A4AD
:1003E800F8EF01F0FAEF01F0FAEF02F02DC021F07A
:1003F8002EC022F02FC023F030C024F0000E266E4D
:10040800100E256E2FEC0EF02DC021F02EC022F01C
:100418002FC023F030C024F072EC10F02DC021F072
:100428002EC022F02FC023F030C024F0BEEC09F01B
:10043800D8904734D96E4834DA6EFE0ED926010EAC
:10044800DA22010EDBBE33EF02F0010EDB5009E1C8
:10045800060EDE5CD8A033EF02F035EF02F053EF62
:1004680002F0D8904734D96E4834DA6EFE0ED92699
:10047800010EDA22F50EDE26FF0EDD22D890473473
:10048800D96E4834DA6E000ED926020EDA22FE0E34
:10049800DE6EFF0EDD6E474A482AFAEF02F0D8906A
:1004A8004734D96E4834DA6EFE0ED926010EDA22A8
:1004B800DE2806E1DE28D8A464EF02F066EF02F039
:1004C80075EF02F0D8904734D96E4834DA6EFE0ED4
:1004D800D926010EDA22FE0EDE6EFF0EDD6EDCEF8F
:1004E80002F0D8904734D96E4834DA6EFE0ED92619
:1004F800010EDA22FE0EDE1806E1DE28D8A487EF08
:1005080002F089EF02F098EF02F0D8904734D96EE4
:100518004834DA6EFE0ED926010EDA22FF0EDE6EA0
:10052800FF0EDD6EDCEF02F0D8904734D96E483408
:10053800DA6EFE0ED926010EDA22FD0EDE1806E16D
:10054800DE28D8A4AAEF02F0ACEF02F0BBEF02F06D
:10055800D8904734D96E4834DA6EFE0ED926010E8B
:10056800DA22FC0EDE6EFF0EDD6EDCEF02F0D890B4
:100578004734D96E4834DA6EFE0ED926010EDA22D7
:10058800FC0EDE1806E1DE28D8A4CDEF02F0CFEF8E
:1005980002F0DCEF02F0D8904734D96E4834DA6EB6
:1005A800FE0ED926010EDA22FD0EDE6EFF0EDD6E7E
:1005B800D8904734D96E4834DA6E000ED926020E28
:1005C800DA22100EDE6E000EDD6E474A482AD890F9
:1005D8004734D96E4834DA6E000ED926020EDA2274
:1005E800FF0EDE6EFF0EDD6E474A482A050E2B18F9
:1005F8002C10D8A402EF03F004EF03F01DEF03F072
:100608002DC021F02EC022F02FC023F030C024F0DE
:100618006BEC0AF0D8904734D96E4834DA6E000E85
:10062800D926020EDA22FD0EDE6EFF0EDD6E474A77
:10063800482A060E2B182C10D8A425EF03F027EF14
:1006480003F040EF03F02DC021F02EC022F02FC0A0
:1006580023F030C024F011EC09F0D8904734D96E5B
:100668004834DA6E000ED926020EDA22FC0EDE6E4F
:10067800FF0EDD6E474A482A070E2B182C10D8A407
:1006880048EF03F04AEF03F06DEF03F0000E366E0B
:10069800000E356E2DC021F02EC022F02FC023F0A1
:1006A80030C024F013EC0BF0354A362A36BE66EF1C
:1006B80003F0365009E1020E355CD8A066EF03F06E
:1006C80068EF03F04EEF03F0000E0001F56F010E26
:1006D800F46F2C5009E1080E2B5CD8A076EF03F0DC
:1006E80078EF03F086EF03F02DC021F02EC022F042
:1006F8002FC023F030C024F0000E266E050E256EA4
:1007080069EC0EF01200000E0F6E040E0E6EDFEC98
:1007180010F0120E336EDC0E326E600EE82EFED72D
:10072800322EFCD7332EFAD7AAEC0FF012C0E6F01F
:1007380013C0E7F00001E86BE96B000E0F6E020EC4
:100748000E6EDFEC10F0120E336EDC0E326E600EA1
:10075800E82EFED7322EFCD7332EFAD7D2EC0FF084
:1007680012C0EAF013C0EBF00001EC6BED6B000E69
:100778000F6E010E0E6EDFEC10F0120E336EDC0EF3
:10078800326E600EE82EFED7322EFCD7332EFAD703
:1007980022EC10F012C0EEF013C0EFF00001F06B85
:1007A800F16B000E0F6E000E0E6EDFEC10F039507C
:1007B8000001E65D3A50E7593B50E8593C50E95989
:1007C800D8B0E9EF03F0EBEF03F0F5EF03F0000E1C
:1007D800C66F000EC76F000EC86F000EC96F2AEFF4
:1007E80004F03950E65D0E6E3A50E7590F6E3B50F3
:1007F800E859106E3C50E959116E640E126E000EE5
:10080800136E000E146E000E156E16EC0FF00EC06F
:100818001AF00FC01BF010C01CF011C01DF03950A9
:100828000001605D1E6E3A5061591F6E3B5062595F
:10083800206E3C506359216E48EC0DF01AC0C6F08A
:100848001BC0C7F01CC0C8F01DC0C9F0C6C0DAF094
:10085800C7C0DBF0C8C0DCF0C9C0DDF03D50000106
:10086800EA5D3E50EB593F50EC594050ED59D8B035
:1008780040EF04F042EF04F04CEF04F0000ECA6FB2
:10088800000ECB6F000ECC6F000ECD6F81EF04F021
:100898003D50EA5D0E6E3E50EB590F6E3F50EC59DD
:1008A800106E4050ED59116E640E126E000E136EEC
:1008B800000E146E000E156E16EC0FF00EC01AF036
:1008C8000FC01BF010C01CF011C01DF03D500001FE
:1008D800645D1E6E3E5065591F6E3F506659206E0E
:1008E80040506759216E48EC0DF01AC0CAF01BC081
:1008F800CBF01CC0CCF01DC0CDF0CAC0DEF0CBC020
:10090800DFF0CCC0E0F0CDC0E1F041500001EE5D79
:100918004250EF594350F0594450F159D8B097EF2D
:1009280004F099EF04F0A3EF04F0000ECE6F000E70
:10093800CF6F000ED06F000ED16FD8EF04F041508A
:10094800EE5D0E6E4250EF590F6E4350F059106E27
:100958004450F159116E640E126E000E136E000EA3
:10096800146E000E156E16EC0FF00EC01AF00FC0C4
:100978001BF010C01CF011C01DF041500001685D53
:100988001E6E425069591F6E43506A59206E44507A
:100998006B59216E48EC0DF01AC0CEF01BC0CFF099
:1009A8001CC0D0F01DC0D1F0CEC0E2F0CFC0E3F043
:1009B800D0C0E4F0D1C0E5F020EEDAF000EE14F09B
:1009C8000B0EDBCFEBFFE806FCE221EE00F000EEB9
:1009D80020F00B0EDBCFEBFFE806FCE2A3EC07F000
:1009E80014C0D2F015C0D3F0000E0001D56F000E70
:1009F800D46F000ED96F010ED86FD8C00EF0D9C0D1
:100A08000FF0000E116E0C0E106EBAEC11F0000E05
:100A18000E24D96E010E0F20DA6E10EEBAF00B0E0E
:100A2800DBCFE3FFE806FCE220EEDAF000EE14F09C
:100A38000B0EDBCFEBFFE806FCE220EEBAF000EE8F
:100A480020F00B0EDBCFEBFFE806FCE2A3EC07F08F
:100A580014C0D6F015C0D7F00001D251D65DD351DD
:100A6800D759D8B03AEF05F03CEF05F044EF05F060
:100A7800D8C0D4F0D9C0D5F0D6C0D2F0D7C0D3F002
:100A8800D84BD92BD95109E1090ED85DD8A04FEF21
:100A980005F051EF05F001EF05F0D4C030F0D5C0F6
:100AA80031F01200AAEF06F0D8904734D96E4834D6
:100AB800DA6EFE0ED926010EDA22DE2806E1DE28DD
:100AC800D8A469EF05F06BEF05F077EF05F02BC0C0
:100AD80021F02CC022F02DC023F02EC024F0BEEC53
:100AE80009F09DEF06F0D8904734D96E4834DA6E95
:100AF800FE0ED926010EDA22FE0EDE1806E1DE28E9
:100B0800D8A489EF05F08BEF05F097EF05F02BC01F
:100B180021F02CC022F02DC023F02EC024F013ECBD
:100B28000BF09DEF06F0D8904734D96E4834DA6E52
:100B3800FE0ED926010EDA22FD0EDE1806E1DE28A9
:100B4800D8A4A9EF05F0ABEF05F0B7EF05F02BC07F
:100B580021F02CC022F02DC023F02EC024F011EC7F
:100B680009F09DEF06F0D8904734D96E4834DA6E14
:100B7800FE0ED926010EDA22FC0EDE1806E1DE286A
:100B8800D8A4C9EF05F0CBEF05F0D7EF05F02BC0DF
:100B980021F02CC022F02DC023F02EC024F06BECE5
:100BA8000AF09DEF06F0D8904734D96E4834DA6ED3
:100BB800FE0ED926010EDA22010EDBBEEDEF05F09E
:100BC800010EDB5008E1DE04D8A0EDEF05F0EFEFF1
:100BD80005F048EF06F0D8904734D96E4834DA6EFD
:100BE800FC0ED926010EDA22010EDBAE07EF06F065
:100BF800FE0EDE5CFF0EDE58D8A005EF06F007EF0C
:100C080006F048EF06F02BC021F02CC022F02DC0D2
:100C180023F02EC024F0D8904734D96E4834DA6EC9
:100C2800FE0ED926010EDA22DECF25F0DDCF26F022
:100C380069EC0EF0110E306E3C0E2F6ECB0EE82EC6
:100C4800FED72F2EFCD7302EFAD700F02BC021F07C
:100C58002CC022F02DC023F02EC024F0000E266EEA
:100C6800050E256E69EC0EF02BC021F02CC022F089
:100C78002DC023F02EC024F0000E266E050E256E22
:100C88002FEC0EF09DEF06F0D8904734D96E48341B
:100C9800DA6EFE0ED926010EDA22010EDBBE5EEFF9
:100CA80006F0010EDB5008E1DE04D8A05EEF06F086
:100CB80060EF06F09DEF06F0D8904734D96E4834BF
:100CC800DA6EFC0ED926010EDA22010EDBAE76EFC3
:100CD80006F0FE0EDE5CFF0EDE58D8B076EF06F0AA
:100CE80078EF06F09DEF06F02BC021F02CC022F023
:100CF8002DC023F02EC024F0D8904734D96E483444
:100D0800DA6EFE0ED926010EDA22DECF25F0DDCF0F
:100D180026F069EC0EF0110E306E3C0E2F6ECB0EE5
:100D2800E82EFED72F2EFCD7302EFAD700F09DEFF5
:100D380006F02BC021F02CC022F02DC023F02EC0CD
:100D480024F072EC10F04706D8A0480648BEB7EF6A
:100D580006F0485006E14704D8B0B5EF06F0B7EF03
:100D680006F058EF05F047504810D8A4BEEF06F03B
:100D7800C0EF06F0C5EF06F0000E0001F56F020E99
:100D8800F46F1200BBEC0BF0DDEC11F006EC12F086
:100D9800000E0F6E630E0E6EE7EC0DF00E01B495AB
:100DA8008684000E0101AC6F010EAD6F010EAE6FAF
:100DB800AA0EB16F0F0EB26FA60EB36F0F0EB46FFF
:100DC800000EB06F630EAF6F000EB56F010EB66FF9
:100DD800010EB76F250EBA6F0F0EBB6F210EBC6FD9
:100DE8000F0EBD6F000EB96F630EB86F520E386EDE
:100DF8002B0E376E000EE82EFED7372EFCD7382E76
:100E0800FAD700D0AC0E216E010E226EB50E236EFD
:100E1800010E246E7DEC0FF0000E0F6E010E0E6EAB
:100E2800EDEC11F012EC12F00EC0AAF10FC0ABF10C
:100E38004BEC0FF014041510D8A425EF07F027EF9A
:100E480007F085EF07F00101AA51AB11D8A42FEFE5
:100E580007F031EF07F085EF07F0000E0F6E000E78
:100E68000E6EEDEC11F0BBEC10F0AC0E216E010E25
:100E7800226EB50E236E010E246E72EC10F087EC14
:100E880003F030C0A8F131C0A9F1AC0E216E010EFB
:100E9800226EB50E236E010E246E000E266E050E10
:100EA800256E69EC0EF0A8C12BF0A9C12CF0AC0E90
:100EB8002D6E010E2E6EB50E2F6E010E306E53EC98
:100EC80000F00101AA51AB11D8A46DEF07F06FEF44
:100ED80007F010EF07F0AC0E216E010E226EB50E72
:100EE800236E010E246E72EC10F0AC0E216E010E12
:100EF800226EB50E236E010E246E7DEC0FF010EFFE
:100F080007F00101AA05AB11D8A48DEF07F08FEF08
:100F180007F016EF07F0000E0F6E000E0E6EEDECE8
:100F280011F0AC0E2B6E010E2C6EB50E2D6E010E4F
:100F38002E6E56EC05F016EF07F051EF00F020503A
:100F4800145C215015582250165823501758D8B001
:100F5800B0EF07F0B2EF07F0C1EF07F01450205CD4
:100F68000001A86F15502158A96F16502258AA6F72
:100F780017502358AB6FCEEF07F02050145C0001D8
:100F8800A86F21501558A96F22501658AA6F2350E0
:100F98001758AB6FA8C0B4F0A9C0B5F02450185CBE
:100FA8002550195826501A5827501B58D8B0DFEF2B
:100FB80007F0E1EF07F0EFEF07F01850245CAC6F93
:100FC80019502558AD6F1A502658AE6F1B50275828
:100FD800AF6FFBEF07F02450185CAC6F2550195821
:100FE800AD6F26501A58AE6F27501B58AF6FACC064
:100FF800B6F0ADC0B7F028501C5C29501D582A50D7
:101008001E582B501F58D8B00CEF08F00EEF08F000
:101018001CEF08F01C50285CB06F1D502958B16FA8
:101028001E502A58B26F1F502B58B36F28EF08F084
:1010380028501C5CB06F29501D58B16F2A501E589B
:10104800B26F2B501F58B36FB0C0B8F0B1C0B9F031
:10105800B4C00EF0B5C00FF0B4C010F0B5C011F0B8
:10106800BAEC11F00EC02CF00FC02DF0B6C00EF087
:10107800B7C00FF0B6C010F0B7C011F0BAEC11F05D
:101088000E502C242E6E0F502D202F6EB8C00EF04F
:10109800B9C00FF0B8C010F0B9C011F0BAEC11F037
:1010A8000E502E24146E0F502F20156E120020EEB5
:1010B80002F01B50D9261C50DA22DF50D8B467EF53
:1010C80008F069EF08F09DEF08F01BC0D9FF1CC0BD
:1010D800DAFFDF501D6E1D500E6E0F6A20EE03F012
:1010E8001B50D9261C50DA22DECF10F0DDCF11F0CC
:1010F800BAEC11F00EC014F00FC015F0000E176E08
:10110800640E166EA3EC0EF020EE03F01B50D926E9
:101118001C50DA22DF501E6E14501E5C1F6E20EE2B
:1011280003F01B50D9261C50DA22DF50206EC0EF86
:1011380008F0000E1F6E1BC0D9FF1CC0DAFFDF507D
:101148001D6E1D500E6E0F6A20EE03F01B50D9263F
:101158001C50DA22DECF10F0DDCF11F0BAEC11F01E
:101168000EC014F00FC015F0000E176E640E166E48
:10117800A3EC0EF01450206E20EE01F01B50D9267F
:101188001C50DA22DF50D8B4CCEF08F0CEEF08F0CC
:10119800F0EF08F020EE05F01B50D9261C50DA229B
:1011A800DECF1DF0DDCF1EF01DC0D9FF1EC0DAFF57
:1011B8001FC0DFFF20EE07F01B50D9261C50DA2293
:1011C800DECF1DF0DDCF1EF01DC0D9FF1EC0DAFF37
:1011D80020C0DFFF10EF09F020EE05F01B50D926E4
:1011E8001C50DA22DECF1DF0DDCF1EF01DC0D9FF66
:1011F8001EC0DAFF20C0DFFF20EE07F01B50D92603
:101208001C50DA22DECF1DF0DDCF1EF01DC0D9FF45
:101218001EC0DAFF1FC0DFFF1200000E286E000E8E
:10122800276E000E286E000E276E000E2A6E290EFD
:10123800296E20EE01F02150D9262250DA22010E23
:10124800DF6E20EE01F02350D9262450DA22000E5A
:10125800DF6E21C0D9FF22C0DAFF29C0DFFF23C01B
:10126800D9FF24C0DAFF29C0DFFF21C01BF022C04C
:101278001CF05BEC08F023C01BF024C01CF05BECF6
:1012880008F0050E266EB60E256E2C0EE82EFED73B
:10129800252EFCD7262EFAD700D0050E2926000EBB
:1012A8002A222ABE61EF09F02A5009E1380E295C8A
:1012B800D8A061EF09F063EF09F01DEF09F0000E07
:1012C8002A6E2E0E296E20EE01F02150D9262250CA
:1012D800DA22010EDF6E20EE01F02350D9262450C9
:1012E800DA22000EDF6E21C0D9FF22C0DAFF29C042
:1012F800DFFF23C0D9FF24C0DAFF29C0DFFF21C0E8
:101308001BF022C01CF05BEC08F023C01BF024C0CB
:101318001CF05BEC08F0050E266EA10E256E650E1E
:10132800E82EFED7252EFCD7262EFAD700F0FB0E86
:101338002926FF0E2A222ABEADEF09F02A5007E11E
:10134800200E295CD8B0ABEF09F0ADEF09F067EFDC
:1013580009F0274A282A28BEBBEF09F0285009E1DE
:10136800030E275CD8A0BBEF09F0BDEF09F019EF19
:1013780009F01200000E286E000E276E000E286E6F
:10138800000E276E000E2A6E290E296E20EE01F03F
:101398002150D9262250DA22010EDF6E20EE01F00C
:1013A8002350D9262450DA22000EDF6E21C0D9FF3F
:1013B80022C0DAFF29C0DFFF23C0D9FF24C0DAFF2B
:1013C80029C0DFFF21C01BF022C01CF05BEC08F035
:1013D80023C01BF024C01CF05BEC08F0050E266E41
:1013E800B60E256E2C0EE82EFED7252EFCD7262EFF
:1013F800FAD700D0050E2926000E2A222ABE0EEFA3
:101408000AF02A5009E1380E295CD8A00EEF0AF03C
:1014180010EF0AF0CAEF09F0000E2A6E2E0E296EA0
:1014280020EE01F02150D9262250DA22010EDF6E7B
:1014380020EE01F02350D9262450DA22000EDF6E68
:1014480021C0D9FF22C0DAFF29C0DFFF23C0D9FF9E
:1014580024C0DAFF29C0DFFF21C01BF022C01CF026
:101468005BEC08F023C01BF024C01CF05BEC08F018
:10147800050E266EA10E256E650EE82EFED7252ECA
:10148800FCD7262EFAD700F0FB0E2926FF0E2A22BB
:101498002ABE5AEF0AF02A5007E1200E295CD8B07C
:1014A80058EF0AF05AEF0AF014EF0AF0274A282AF0
:1014B80028BE68EF0AF0285009E1020E275CD8A080
:1014C80068EF0AF06AEF0AF0C6EF09F01200000EA2
:1014D800286E000E276E000E2A6E170E296E20EE5B
:1014E80001F02150D9262250DA22000EDF6E20EEBC
:1014F80001F02350D9262450DA22010EDF6E21C0D4
:10150800D9FF22C0DAFF29C0DFFF23C0D9FF24C0DA
:10151800DAFF29C0DFFF21C01BF022C01CF05BEC02
:1015280008F023C01BF024C01CF05BEC08F0090E87
:10153800266EB00E256E580EE82EFED7252EFCD747
:10154800262EFAD700D0050E2926000E2A222ABEFA
:10155800B7EF0AF02A5009E1260E295CD8A0B7EFA8
:101568000AF0B9EF0AF073EF0AF0000E2A6E1C0EAB
:10157800296E20EE01F02150D9262250DA22000EE1
:10158800DF6E20EE01F02350D9262450DA22010E16
:10159800DF6E21C0D9FF22C0DAFF29C0DFFF23C0D8
:1015A800D9FF24C0DAFF29C0DFFF21C01BF022C009
:1015B8001CF05BEC08F023C01BF024C01CF05BECB3
:1015C80008F0090E266E860E256ECA0EE82EFED786
:1015D800252EFCD7262EFAD7FB0E2926FF0E2A2207
:1015E8002ABE02EF0BF02A5007E10E0E295CD8B094
:1015F80000EF0BF002EF0BF0BDEF0AF0274A282AA4
:1016080028BE10EF0BF0285009E1030E275CD8A084
:1016180010EF0BF012EF0BF06FEF0AF01200000E54
:10162800286E000E276E000E2A6E180E296E20EE08
:1016380001F02150D9262250DA22000EDF6E20EE6A
:1016480001F02350D9262450DA22010EDF6E21C082
:10165800D9FF22C0DAFF29C0DFFF23C0D9FF24C089
:10166800DAFF29C0DFFF21C01BF022C01CF05BECB1
:1016780008F023C01BF024C01CF05BEC08F0090E36
:10168800266EB00E256E580EE82EFED7252EFCD7F6
:10169800262EFAD700D0050E2926000E2A222ABEA9
:1016A8005FEF0BF02A5009E1270E295CD8A05FEF05
:1016B8000BF061EF0BF01BEF0BF0000E2A6E1D0E06
:1016C800296E20EE01F02150D9262250DA22000E90
:1016D800DF6E20EE01F02350D9262450DA22010EC5
:1016E800DF6E21C0D9FF22C0DAFF29C0DFFF23C087
:1016F800D9FF24C0DAFF29C0DFFF21C01BF022C0B8
:101708001CF05BEC08F023C01BF024C01CF05BEC61
:1017180008F0090E266E860E256ECA0EE82EFED734
:10172800252EFCD7262EFAD7FB0E2926FF0E2A22B5
:101738002ABEAAEF0BF02A5007E10F0E295CD8B099
:10174800A8EF0BF0AAEF0BF065EF0BF0274A282A59
:1017580028BEB8EF0BF0285009E1020E275CD8A08C
:10176800B8EF0BF0BAEF0BF017EF0BF012007DECAF
:1017780011F0010E106E000ECDEC11F03F0E236E2D
:10178800550EE82EFED7232EFCD700F0030E106E60
:10179800000ECDEC11F0D50E106E010ECDEC11F04F
:1017A800869E8792819820EE90F011EE00F00B0E45
:1017B800DBCFE3FFE806FCE220EE84F011EE0CF04C
:1017C8000B0EDBCFE3FFE806FCE220EE78F011EE2B
:1017D80018F00B0EDBCFE3FFE806FCE220EE6CF01E
:1017E80011EE24F00B0EDBCFE3FFE806FCE221EE5E
:1017F8009CF011EE30F00B0EDBCFE3FFE806FCE2C5
:1018080021EE90F011EE3CF00B0EDBCFE3FFE80683
:10181800FCE221EE84F011EE48F00B0EDBCFE3FF83
:10182800E806FCE221EE78F011EE54F00B0EDBCF67
:10183800E3FFE806FCE221EE6CF011EE60F00B0E1F
:10184800DBCFE3FFE806FCE286860E01B4978684C8
:10185800B4958EA632EF0CF034EF0CF03BEF0CF0A1
:101868008EB439EF0CF03BEF0CF02DEF0CF08EB48A
:1018780040EF0CF042EF0CF044EF0CF056EF0CF098
:10188800F3EC0CF08EB64BEF0CF04DEF0CF046EF8E
:101898000CF057EC0CF08EB654EF0CF056EF0CF041
:1018A8004FEF0CF01200000E0F6E040E0E6EDFEC00
:1018B80010F0120E1C6EDC0E1B6E600EE82EFED7AA
:1018C8001B2EFCD71C2EFAD7AAEC0FF012C039F049
:1018D80013C03AF03B6A3C6A000E0F6E020E0E6EA1
:1018E800DFEC10F0120E1C6EDC0E1B6E600EE82E84
:1018F800FED71B2EFCD71C2EFAD7D2EC0FF012C045
:101908003DF013C03EF03F6A406A000E0F6E010EB4
:101918000E6EDFEC10F0120E1C6EDC0E1B6E600EED
:10192800E82EFED71B2EFCD71C2EFAD722EC10F07F
:1019380012C041F013C042F0436A446A000E0F6EB1
:10194800000E0E6EDFEC10F0120E1C6EDC0E1B6E1D
:10195800600EE82EFED71B2EFCD71C2EFAD7FAEC09
:101968000FF012C01DF013C01EF0000E0F6E070E10
:101978000E6EDFEC10F0120E1C6EDC0E1B6E600E8D
:10198800E82EFED71B2EFCD71C2EFAD7FAEC0FF048
:1019980012C01FF013C020F0000E0F6E000E0E6E66
:1019A800DFEC10F01DC016F01EC017F01FC014F0B9
:1019B80020C015F0A3EC0EF014C021F015C022F0E1
:1019C80021C014F022C015F0000E176E050E166E19
:1019D800A3EC0EF014C0A6F015C0A7F01200000E7C
:1019E8000F6E040E0E6EDFEC10F0120E1A6EDC0E87
:1019F800196E600EE82EFED7192EFCD71A2EFAD7CC
:101A0800AAEC0FF012C060F013C061F00001626B25
:101A1800636B000E0F6E020E0E6EDFEC10F0120EEE
:101A28001A6EDC0E196E600EE82EFED7192EFCD742
:101A38001A2EFAD7D2EC0FF012C064F013C065F07A
:101A48000001666B676B000E0F6E010E0E6EDFEC09
:101A580010F0120E1A6EDC0E196E600EE82EFED70C
:101A6800192EFCD71A2EFAD722EC10F012C068F003
:101A780013C069F000016A6B6B6B000E0F6E000EED
:101A88000E6EDFEC10F01200000E226E000E236EB8
:101A9800000E246E000E256E1E501F1020102110FF
:101AA800D8B459EF0DF05BEF0DF091EF0DF0010E8A
:101AB800266E65EF0DF0D8901E361F36203621367B
:101AC800262A21AE6AEF0DF06CEF0DF05FEF0DF0F6
:101AD800D89022362336243625361E501A5C1F50DD
:101AE8001B5820501C5821501D58D8A07EEF0DF0CF
:101AF80080EF0DF089EF0DF01E501A5E1F501B5A33
:101B080020501C5A21501D5A2280D8902132203250
:101B18001F321E32262E6CEF0DF022C01AF023C0A1
:101B28001BF024C01CF025C01DF01200CA0EF66E72
:101B3800220EF76E000EF86E01EE78F010EE30F01F
:101B48000900F5CFEEFFE550E150FAE12E0EF66EF2
:101B5800210EF76E000EF86E00EE60F010EE48F001
:101B68000900F5CFEEFFE550E150FAE1F40EF66E0C
:101B7800230EF76E000EF86E00EE39F010EE0CF042
:101B88000900F5CFEEFFE550E150FAE102EE00F072
:101B9800C80EEE6AE806FDE101EE00F0780EEE6A86
:101BA800E806FDE100EEE6F0120EEE6AE806FDE159
:101BB80000EE45F00A0EEE6AE806FDE14F904F92FE
:101BC8000001C6EF06F08594839E879C85987D94D6
:101BD8007B9E7F9C7D98050E0E01746F060E766FB6
:101BE800070E696F080E886FBD508F0B4009BD6ED8
:101BF800E00EBE16BF50F00B0109BF6E630EBC6E3F
:101C0800BD8E000EAA6E000EA66E000E0F01256F87
:101C1800000E216FFC0EAD16F30EAD16CF0EAD16ED
:101C28003F0EAD16AB88AB50F00B0C09AB6EAB8E0C
:101C3800A788A750F00B0C09A76EA78E26892651F6
:101C4800F00B0C09266F268F22892251F00B0C0904
:101C5800226F228F1200000E4A6E000E496E5DEF51
:101C68000EF020EE01F02150D9262250DA22010E82
:101C7800DF6E20EE01F02350D9262450DA22010E1F
:101C8800DF6E21C0D9FF22C0DAFF460EDF6E23C007
:101C9800D9FF24C0DAFF440EDF6E21C01BF022C03A
:101CA8001CF05BEC08F023C01BF024C01CF05BECBC
:101CB80008F02550495C26504A58D8A066EF0EF027
:101CC80068EF0EF035EF0EF01200000E4A6E000EAF
:101CD800496E97EF0EF020EE01F02150D9262250E0
:101CE800DA22000EDF6E20EE01F02350D9262450B0
:101CF800DA22000EDF6E21C0D9FF22C0DAFF440EBF
:101D0800DF6E23C0D9FF24C0DAFF440EDF6E21C086
:101D18001BF022C01CF05BEC08F023C01BF024C0B1
:101D28001CF05BEC08F02550495C26504A58D8A0B6
:101D3800A0EF0EF0A2EF0EF06FEF0EF01200000E03
:101D48001A6E000E196E16501710D8B4AEEF0EF0BA
:101D5800B0EF0EF0D8EF0EF0010E186EB8EF0EF0DF
:101D6800D89016361736182A17AEBDEF0EF0BFEF0B
:101D78000EF0B4EF0EF0D89019361A361650145CDF
:101D880017501558D8A0CBEF0EF0CDEF0EF0D2EFCC
:101D98000EF01650145E1750155A1980D890173245
:101DA8001632182EBFEF0EF019C014F01AC015F035
:101DB80012000001F651F711D8A4E5EF0EF0E7EF95
:101DC8000EF0E9EF0EF015EF0FF00C500D10D8A43F
:101DD800F0EF0EF0F2EF0EF000EF0FF04AEC10F01B
:101DE80005C04DF006C04EF0000E026E070E016EE3
:101DF80001EC11F015EF0FF00C040D10D8A407EF4B
:101E08000FF009EF0FF015EF0FF04AEC10F005C0D6
:101E18004BF006C04CF0000E026E000E016E01EC95
:101E280011F01200000E166E000E176E000E186EDE
:101E3800000E196E0EA023EF0FF025EF0FF02DEF17
:101E48000FF012501626135017221450182215504E
:101E58001922D8901236133614361536D890113206
:101E680010320F320E320E500F1010101110D8A46D
:101E780040EF0FF042EF0FF01EEF0FF016C00EF01C
:101E880017C00FF018C010F019C011F012004D5013
:101E98004E10D8B452EF0FF054EF0FF05DEF0FF083
:101EA8004B504C10D8A45BEF0FF05DEF0FF063EFD1
:101EB8000FF0000E156E000E146E7CEF0FF04DC083
:101EC8000EF04EC00FF0A6C010F0A7C011F0BAEC8B
:101ED80011F00E504B5C0F504C58D8B076EF0FF005
:101EE80079EF0FF0010E7AEF0FF0000E146E156AFD
:101EF8001200000E4A6E000E496E20EE01F02150CD
:101F0800D9262250DA22000EDF6E20EE01F023508F
:101F1800D9262450DA22000EDF6E21C0D9FF22C054
:101F2800DAFF440EDF6E23C0D9FF24C0DAFF440E67
:101F3800DF6E21C01BF022C01CF05BEC08F023C050
:101F48001BF024C01CF05BEC08F012001CEC12F033
:101F5800520E00EC12F0B60E00EC12F021EC12F06A
:101F6800530E00EC12F0010E23EC11F0146E145015
:101F7800176E186A000E23EC11F0146E1450166ECA
:101F8800156A17501510176E18501610186E17ECA2
:101F980012F017C012F018C013F012001CEC12F067
:101FA800520E00EC12F0B80E00EC12F021EC12F018
:101FB800530E00EC12F0010E23EC11F0146E1450C5
:101FC800176E186A000E23EC11F0146E1450166E7A
:101FD800156A17501510176E18501610186E17EC52
:101FE80012F017C012F018C013F012001CEC12F017
:101FF800520E00EC12F0B40E00EC12F021EC12F0CC
:10200800530E00EC12F0010E23EC11F0146E145074
:10201800176E186A000E23EC11F0146E1450166E29
:10202800156A17501510176E18501610186E17EC01
:1020380012F017C012F018C013F012001CEC12F0C6
:10204800520E00EC12F0BA0E00EC12F021EC12F075
:10205800530E00EC12F0010E23EC11F0146E145024
:10206800176E186A000E23EC11F0146E1450166ED9
:10207800156A17501510176E18501610186E17ECB1
:1020880012F017C012F018C013F012002BEC12F067
:10209800520E0CEC12F0B40E0CEC12F030EC12F004
:1020A800530E0CEC12F0010E44EC11F0076E0750C1
:1020B8000A6E0B6A000E44EC11F0076E0750096EA9
:1020C800086A0A5008100A6E0B5009100B6E26ECAD
:1020D80012F00AC005F00BC006F0120021C0D9FFAB
:1020E80022C0DAFF000EDF6E23C0D9FF24C0DAFF5A
:1020F800000EDF6E21C01BF022C01CF05BEC08F064
:1021080023C01BF024C01CF05BEC08F0290E266EDF
:10211800960E256E7F0EE82EFED7252EFCD7262E8E
:10212800FAD700F01200FC280000551B00007007C9
:1021380000005D0000004C000000140000000300D7
:10214800000009000000240000001900000036000B
:102158000000080000004800000002000000020023
:1021680000000B00050010001000DC000F004ABE44
:10217800C7EF10F04A5009E10C0E495CD8A0C7EF30
:1021880010F0C9EF10F0DEEF10F0FB0E49240E6ED0
:10219800FF0E4A200F6ED8904734D96E4834DA6E55
:1021A800000ED926020EDA220EC0DEFF0FC0DDFFB8
:1021B800474A482A12000EA4E4EF10F0E6EF10F0A8
:1021C800E9EF10F07F82EAEF10F07F920EA2EFEFB6
:1021D80010F0F1EF10F0F4EF10F07988F5EF10F04F
:1021E80079980EA0FAEF10F0FCEF10F0FFEF10F066
:1021F8007E8E00EF11F07E9E120001A406EF11F012
:1022080008EF11F00BEF11F07F820CEF11F07F92C5
:1022180001A211EF11F013EF11F016EF11F0798808
:1022280017EF11F0799801A01CEF11F01EEF11F0D3
:1022380021EF11F07E8E22EF11F07E9E1200106EBB
:1022480092EC11F00E01DA8792EC11F0D5CE11F074
:1022580092EC11F01050D8B434EF11F038EF11F0BF
:102268000F6A0F2A39EF11F00F6A0F3A0F460E0165
:10227800DA510F18DF0B0F18DA6FDA8911501200D4
:10228800036EA6EC11F00E01DA87A6EC11F0D5CE9C
:1022980004F0A6EC11F00350D8B455EF11F059EF43
:1022A80011F0026A022A5AEF11F0026A023A024653
:1022B8000E01DA510218DF0B0218DA6FDA890450BE
:1022C80012006400000064000000640000002600A2
:1022D800000048000000540000005C0000002700D7
:1022E80000001C0000004D0000003C000000400001
:1022F80000000E01D951F00B0809D96FD98B9F0E38
:10230800D66F848A848CA79BA79D1D0E1D6F1E0EF9
:102318001C6F1C0E6F6F1B0E706F12000E01D8B56C
:1023280098EF11F09AEF11F092EF11F0DACE0EF06B
:102338001F0E0E16D8A4A3EF11F0A5EF11F092EF1F
:1023480011F012000E01D8B5ACEF11F0AEEF11F09C
:10235800A6EF11F0DACE01F01F0E0116D8A4B7EFE0
:1023680011F0B9EF11F0A6EF11F012000E501002A3
:10237800F3CF12F0F4CF13F00E501102F3501326DE
:102388000F501002F350132612C00EF013C00FF0B6
:102398001200116E1CEC12F0520E00EC12F01150EB
:1023A800800900EC12F0105000EC12F017EC12F05B
:1023B8001200D6501F0B4009D66ED688D650F00BA7
:1023C8000809D66EFD0ED46E900ED36ED588D58EC4
:1023D80012000EC0F6F00FC0F7F0000E4E6E000EA1
:1023E8004D6E000E4C6E000E4B6E12000404000081
:1023F8004B020000A10000000F6E92EC11F00FC01C
:10240800D5FE1200F28C0E01298B2B81F28E120060
:10241800026EA6EC11F002C0D5FE1200F4C00EF058
:10242800F5C00FF0120092EC11F00E01DA851200DF
:1024380092EC11F00E01DA81120092EC11F00E010B
:10244800DA831200A6EC11F00E01DA851200A6EC70
:1024580011F00E01DA811200A6EC11F00E01DA83F8
:082468001200494A4A2A120041
:020000040020DA
:10000000FF0FFF0FFF0FFF0FFF0FFF0FFF0FFF0F80
:020000040030CA
:0C000000AAFFFFFF9FFFFFFFFFFFFFFFB5
:00000001FF
