:0400000017EF00F006
:100008005A820E0133AB0BEF00F00DEF00F015EF45
:1000180000F0AEEC05F0E70ED46E950ED36E0E012F
:10002800339B5A921100BAEF03F020EE02F00E5003
:10003800D9260F50DA22DF50D8B425EF00F027EF89
:1000480000F05BEF00F00EC0D9FF0FC0DAFFDF5001
:10005800106E1050016E026A20EE03F00E50D92681
:100068000F50DA22DECF03F0DDCF04F052EC05F0BA
:1000780001C007F002C008F0000E0A6E640E096E97
:1000880080EC03F020EE03F00E50D9260F50DA2250
:10009800DF50116E0750115C126E20EE03F00E5007
:1000A800D9260F50DA22DF50136E7EEF00F0000ED3
:1000B800126E0EC0D9FF0FC0DAFFDF50106E10505D
:1000C800016E026A20EE03F00E50D9260F50DA2294
:1000D800DECF03F0DDCF04F052EC05F001C007F0ED
:1000E80002C008F0000E0A6E640E096E80EC03F080
:1000F8000750136E20EE01F00E50D9260F50DA2269
:10010800DF50D8B48AEF00F08CEF00F0AEEF00F0CB
:1001180020EE05F00E50D9260F50DA22DECF10F06F
:10012800DDCF11F010C0D9FF11C0DAFF12C0DFFF18
:1001380020EE07F00E50D9260F50DA22DECF10F04D
:10014800DDCF11F010C0D9FF11C0DAFF13C0DFFFF7
:10015800CEEF00F020EE05F00E50D9260F50DA222F
:10016800DECF10F0DDCF11F010C0D9FF11C0DAFFDB
:1001780013C0DFFF20EE07F00E50D9260F50DA2209
:10018800DECF10F0DDCF11F010C0D9FF11C0DAFFBB
:1001980012C0DFFF120029EC05F0010E036E000EFD
:1001A80065EC05F03F0E166E550EE82EFED7162E9E
:1001B800FCD700F0030E036E000E65EC05F0D50EBB
:1001C800036E010E65EC05F0869E8792819820EEFD
:1001D800B4F011EE00F00B0EDBCFE3FFE806FCE213
:1001E80020EEA8F011EE0CF00B0EDBCFE3FFE806D3
:1001F800FCE220EE9CF011EE18F00B0EDBCFE3FFD3
:10020800E806FCE220EE90F011EE24F00B0EDBCFB6
:10021800E3FFE806FCE220EE84F011EE30F00B0E6E
:10022800DBCFE3FFE806FCE220EE78F011EE3CF0CD
:100238000B0EDBCFE3FFE806FCE220EE6CF011EEDC
:1002480048F00B0EDBCFE3FFE806FCE220EE60F09F
:1002580011EE54F00B0EDBCFE3FFE806FCE220EED4
:10026800C0F011EE60F00B0EDBCFE3FFE806FCE216
:1002780086860E01B4978684B4958EA646EF01F063
:1002880048EF01F04FEF01F08EB44DEF01F04FEF62
:1002980001F041EF01F08EB454EF01F056EF01F098
:1002A80058EF01F06AEF01F09BEC02F08EB65FEFB9
:1002B80001F061EF01F05AEF01F06BEC01F08EB63E
:1002C80068EF01F06AEF01F063EF01F01200000E31
:1002D800026E040E016EE6EC04F0120E0F6EDC0ED8
:1002E8000E6E600EE82EFED70E2EFCD70F2EFAD714
:1002F80021EC04F005C02EF006C02FF0306A316AF8
:10030800000E026E020E016EE6EC04F0120E0F6E85
:10031800DC0E0E6E600EE82EFED70E2EFCD70F2ECA
:10032800FAD749EC04F005C032F006C033F0346A5D
:10033800356A000E026E010E016EE6EC04F0120E34
:100348000F6EDC0E0E6E600EE82EFED70E2EFCD75A
:100358000F2EFAD799EC04F005C036F006C037F036
:10036800386A396A000E026E000E016EE6EC04F07F
:10037800120E0F6EDC0E0E6E600EE82EFED70E2EDD
:10038800FCD70F2EFAD771EC04F005C010F006C0A8
:1003980011F0000E026E070E016EE6EC04F0120E6C
:1003A8000F6EDC0E0E6E600EE82EFED70E2EFCD7FA
:1003B8000F2EFAD771EC04F005C012F006C013F046
:1003C800000E026E000E016EE6EC04F010C009F09B
:1003D80011C00AF012C007F013C008F080EC03F057
:1003E80007C014F008C015F014C007F015C008F0D5
:1003F800000E0A6E050E096E80EC03F007C048F087
:1004080008C049F01200000E1B6E1B0E1A6E20EE7B
:1004180001F01450D9261550DA22010EDF6E20EEB5
:1004280001F01650D9261750DA22000EDF6E14C0DC
:10043800D9FF15C0DAFF1AC0DFFF16C0D9FF17C0F1
:10044800DAFF1AC0DFFF14C00EF015C00FF019EC68
:1004580000F016C00EF017C00FF019EC00F0090EEE
:10046800196E720E186E020EE82EFED7182EFCD7E3
:10047800192EFAD7050E1A26000E1B221BBE4EEFA8
:1004880002F01B5009E12A0E1A5CD8A04EEF02F0C8
:1004980050EF02F00BEF02F0000E1B6E200E1A6EEA
:1004A80020EE01F01450D9261550DA22010EDF6E25
:1004B80020EE01F01650D9261750DA22000EDF6E12
:1004C80014C0D9FF15C0DAFF1AC0DFFF16C0D9FF64
:1004D80017C0DAFF1AC0DFFF14C00EF015C00FF006
:1004E80019EC00F016C00EF017C00FF019EC00F070
:1004F800090E196E1E0E186EE40EE82EFED7182E81
:10050800FCD7192EFAD700D0FB0E1A26FF0E1B2295
:100518001BBE9AEF02F01B5007E1120E1A5CD8B00E
:1005280098EF02F09AEF02F054EF02F01200000E7A
:10053800026E040E016EE6EC04F0120E0D6EDC0E77
:100548000C6E600EE82EFED70C2EFCD70D2EFAD7B7
:1005580021EC04F005C03AF006C03BF03C6A3D6A65
:10056800000E026E020E016EE6EC04F0120E0D6E25
:10057800DC0E0C6E600EE82EFED70C2EFCD70D2E6E
:10058800FAD749EC04F005C03EF006C03FF0406AD7
:10059800416A000E026E010E016EE6EC04F0120EC6
:1005A8000D6EDC0E0C6E600EE82EFED70C2EFCD7FE
:1005B8000D2EFAD799EC04F005C042F006C043F0BE
:1005C800446A456A000E026E000E016EE6EC04F005
:1005D800120075EC05F099EC05F0000E026E630E42
:1005E800016E38EC03F0CFEC00F00E01B495868470
:1005F800000E1C6E010E1D6E010E1E6EAA0E216EDF
:100608000F0E226EA60E236E0F0E246E000E206EA5
:10061800630E1F6E000E256E010E266E010E276EEC
:10062800250E2A6E0F0E2B6E210E2C6E0F0E2D6EC0
:10063800000E296E630E286E1C0E146E000E156EC9
:10064800250E166E000E176E07EC02F01C0E146EC7
:10065800000E156E250E166E000E176EC1EC04F016
:1006680020EF03F017EF00F08594839E879C859810
:100678007D947B9E7F9C7D98050E0E01746F060EFF
:10068800766F070E696F080E886FBD508F0B400993
:10069800BD6EE00EBE16BF50F00B0109BF6E630EB3
:1006A800BC6EBD8E000EAA6E000EA66E000E0F0167
:1006B800256F000E216FFC0EAD16F30EAD16CF0E92
:1006C800AD163F0EAD16AB88AB50F00B0C09AB6EF8
:1006D800AB8EA788A750F00B0C09A76EA78E2689AA
:1006E8002651F00B0C09266F268F22892251F00B18
:1006F8000C09226F228F1200000E0C6E000E0B6E7A
:1007080009500A10D8B48BEF03F08DEF03F0B5EF62
:1007180003F0010E0D6E95EF03F0D89009360A36F6
:100728000D2A0AAE9AEF03F09CEF03F091EF03F065
:10073800D8900B360C360950075C0A500858D8A0D8
:10074800A8EF03F0AAEF03F0AFEF03F00950075E3C
:100758000A50085A0B80D8900A3209320D2E9CEFA5
:1007680003F00BC007F00CC008F01200E20EF66EA2
:10077800070EF76E000EF86E00EE60F010EE60F0F7
:100788000900F5CFEEFFE550E150FAE10A0EF66EEA
:100798000B0EF76E000EF86E00EE2EF010EE1CF049
:1007A8000900F5CFEEFFE550E150FAE101EE00F067
:1007B800D00EEE6AE806FDE100EEC0F00C0EEE6A1F
:1007C800E806FDE100EE4AF0100EEE6AE806FDE1EB
:1007D8005A905A920001EDEF02F0640000006400A4
:1007E80000006400000026000000480000005400DB
:1007F80000005C000000270000001C0000004D0005
:1008080000003C000000400000005D0000004C00BB
:10081800000014000000030000000900000024008C
:100828000000190000003600000008000000480021
:1008380000000200000002000000A4EC05F0520EC7
:1008480093EC05F0B60E93EC05F0A9EC05F0530E09
:1008580093EC05F0010E08EC05F0076E07500A6EE0
:100868000B6A000E08EC05F0076E0750096E086A5F
:100878000A5008100A6E0B5009100B6E9FEC05F019
:100888000AC005F00BC006F01200A4EC05F0520EE9
:1008980093EC05F0B80E93EC05F0A9EC05F0530EB7
:1008A80093EC05F0010E08EC05F0076E07500A6E90
:1008B8000B6A000E08EC05F0076E0750096E086A0F
:1008C8000A5008100A6E0B5009100B6E9FEC05F0C9
:1008D8000AC005F00BC006F01200A4EC05F0520E99
:1008E80093EC05F0B40E93EC05F0A9EC05F0530E6B
:1008F80093EC05F0010E08EC05F0076E07500A6E40
:100908000B6A000E08EC05F0076E0750096E086ABE
:100918000A5008100A6E0B5009100B6E9FEC05F078
:100928000AC005F00BC006F01200A4EC05F0520E48
:1009380093EC05F0BA0E93EC05F0A9EC05F0530E14
:1009480093EC05F0010E08EC05F0076E07500A6EEF
:100958000B6A000E08EC05F0076E0750096E086A6E
:100968000A5008100A6E0B5009100B6E9FEC05F028
:100978000AC005F00BC006F0120014C0D9FF15C05C
:10098800DAFF000EDF6E16C0D9FF17C0DAFF000EBF
:10099800DF6E14C00EF015C00FF019EC00F016C091
:1009A8000EF017C00FF019EC00F0520E196E2B0E56
:1009B800186E000EE82EFED7182EFCD7192EFAD77F
:1009C80000D0120001A4EBEF04F0EDEF04F0F0EF1B
:1009D80004F07F82F1EF04F07F9201A2F6EF04F0B9
:1009E800F8EF04F0FBEF04F07988FCEF04F0799855
:1009F80001A001EF05F003EF05F006EF05F07E8E8C
:100A080007EF05F07E9E1200036E3EEC05F00E0126
:100A1800DA873EEC05F0D5CE04F03EEC05F0035045
:100A2800D8B419EF05F01DEF05F0026A022A1EEF8F
:100A380005F0026A023A02460E01DA510218DF0B8B
:100A48000218DA6FDA89045012000E01D951F00B3E
:100A58000809D96FD98B9F0ED66F848A848CA79B7F
:100A6800A79D1D0E1D6F1E0E1C6F1C0E6F6F1B0E9B
:100A7800706F12000E01D8B544EF05F046EF05F08F
:100A88003EEF05F0DACE01F01F0E0116D8A44FEFA5
:100A980005F051EF05F03EEF05F01200015003029A
:100AA800F3CF05F0F4CF06F001500402F350062608
:100AB80002500302F350062605C001F006C002F0FA
:100AC8001200046EA4EC05F0520E93EC05F00450ED
:100AD800800993EC05F0035093EC05F09FEC05F0CA
:100AE8001200D6501F0B4009D66ED688D650F00B90
:100AF8000809D66EE70ED46E950ED36ED588D58EBE
:100B08001200040400004B020000A1000000FC28B1
:100B18000000551B000070070000DC000F00026E8B
:100B28003EEC05F002C0D5FE1200F28C0E01298BB6
:100B38002B81F28E12003EEC05F00E01DA851200D0
:100B48003EEC05F00E01DA8112003EEC05F00E01D4
:0A0B5800DA831200584A592A1200ED
:020000040020DA
:10000000FF0FFF0FFF0FFF0FFF0FFF0FFF0FFF0F80
:020000040030CA
:0C000000AAFFFFFF9FFFFFFFFFFFFFFFB5
:00000001FF
