:0400000051EF00F0CC
:100008004F820E0133AB0BEF00F00DEF00F04FEF16
:1000180000F00001F24BF32B454A462A0A0EF2196A
:10002800F311D8A41AEF00F01CEF00F023EF00F052
:10003800E0EC11F0000E0001F36F000EF26F160EE7
:1000480045184610D8A42BEF00F02DEF00F035EF3F
:1000580000F0000E0D6E000E0C6E88EC0EF049EFED
:1000680000F02C0E45184610D8A43DEF00F03FEFE5
:1000780000F049EF00F0000E0D6E010E0C6E88ECDA
:100088000EF0000E466E000E456EFD0ED46E900EFC
:10009800D36E0E01339B4F92110045EF0DF02DC02A
:1000A80021F02EC022F02FC023F030C024F0000E23
:1000B800266E050E256EDAEC0DF02DC021F02EC04F
:1000C80022F02FC023F030C024F01DEC10F02B508C
:1000D8002C10D8A472EF00F074EF00F08DEF00F050
:1000E8002DC021F02EC022F02FC023F030C024F004
:1000F800BEEC0AF0D8904734D96E4834DA6E000E58
:10010800D926020EDA22FF0EDE6EFF0EDD6E474A9A
:10011800482A2B042C10D8A494EF00F096EF00F096
:10012800AFEF00F02DC021F02EC022F02FC023F039
:1001380030C024F069EC09F0D8904734D96E4834BF
:10014800DA6E000ED926020EDA22FE0EDE6EFF0EE1
:10015800DD6E474A482A020E2B182C10D8A4B7EF98
:1001680000F0B9EF00F0E6EF00F0000E346E000E7C
:10017800336E2DC021F02EC022F02FC023F030C0E6
:1001880024F0BEEC0AF0D8904734D96E4834DA6EC1
:10019800000ED926020EDA22FF0EDE6EFF0EDD6E8D
:1001A800474A482A334A342A34BEE4EF00F0345030
:1001B80009E1020E335CD8A0E4EF00F0E6EF00F0AE
:1001C800BDEF00F0030E2B182C10D8A4EEEF00F0B2
:1001D800F0EF00F0F0EF01F02DC021F02EC022F07A
:1001E8002FC023F030C024F0000E266E100E256EAE
:1001F800DAEC0DF02DC021F02EC022F02FC023F034
:1002080030C024F01DEC10F02DC021F02EC022F0DB
:100218002FC023F030C024F0BEEC0AF0D890473449
:10022800D96E4834DA6EFE0ED926010EDA22010E96
:10023800DBBE29EF01F0010EDB5009E1060EDE5CA2
:10024800D8A029EF01F02BEF01F049EF01F0D89089
:100258004734D96E4834DA6EFE0ED926010EDA22FA
:10026800F50EDE26FF0EDD22D8904734D96E4834CD
:10027800DA6E000ED926020EDA22FF0EDE6EFF0EAF
:10028800DD6E474A482AF0EF01F0D8904734D96E1E
:100298004834DA6EFE0ED926010EDA22DE2806E18F
:1002A800DE28D8A45AEF01F05CEF01F06BEF01F003
:1002B800D8904734D96E4834DA6EFE0ED926010E2E
:1002C800DA22FE0EDE6EFF0EDD6ED2EF01F0D89060
:1002D8004734D96E4834DA6EFE0ED926010EDA227A
:1002E800FE0EDE1806E1DE28D8A47DEF01F07FEFD0
:1002F80001F08EEF01F0D8904734D96E4834DA6EA9
:10030800FE0ED926010EDA22FF0EDE6EFF0EDD6E1E
:10031800D2EF01F0D8904734D96E4834DA6EFE0E29
:10032800D926010EDA22FD0EDE1806E1DE28D8A451
:10033800A0EF01F0A2EF01F0B1EF01F0D89047343F
:10034800D96E4834DA6EFE0ED926010EDA22FC0E7A
:10035800DE6EFF0EDD6ED2EF01F0D8904734D96E15
:100368004834DA6EFE0ED926010EDA22FC0EDE18AB
:1003780006E1DE28D8A4C3EF01F0C5EF01F0D2EF03
:1003880001F0D8904734D96E4834DA6EFE0ED9267B
:10039800010EDA22FD0EDE6EFF0EDD6ED8904734B8
:1003A800D96E4834DA6E000ED926020EDA22100E03
:1003B800DE6E000EDD6E474A482AD8904734D96E63
:1003C8004834DA6E000ED926020EDA22FE0EDE6EF0
:1003D800FF0EDD6E474A482A040E2B182C10D8A4AD
:1003E800F8EF01F0FAEF01F0FAEF02F02DC021F07A
:1003F8002EC022F02FC023F030C024F0000E266E4D
:10040800100E256EDAEC0DF02DC021F02EC022F072
:100418002FC023F030C024F01DEC10F02DC021F0C7
:100428002EC022F02FC023F030C024F069EC09F070
:10043800D8904734D96E4834DA6EFE0ED926010EAC
:10044800DA22010EDBBE33EF02F0010EDB5009E1C8
:10045800060EDE5CD8A033EF02F035EF02F053EF62
:1004680002F0D8904734D96E4834DA6EFE0ED92699
:10047800010EDA22F50EDE26FF0EDD22D890473473
:10048800D96E4834DA6E000ED926020EDA22FE0E34
:10049800DE6EFF0EDD6E474A482AFAEF02F0D8906A
:1004A8004734D96E4834DA6EFE0ED926010EDA22A8
:1004B800DE2806E1DE28D8A464EF02F066EF02F039
:1004C80075EF02F0D8904734D96E4834DA6EFE0ED4
:1004D800D926010EDA22FE0EDE6EFF0EDD6EDCEF8F
:1004E80002F0D8904734D96E4834DA6EFE0ED92619
:1004F800010EDA22FE0EDE1806E1DE28D8A487EF08
:1005080002F089EF02F098EF02F0D8904734D96EE4
:100518004834DA6EFE0ED926010EDA22FF0EDE6EA0
:10052800FF0EDD6EDCEF02F0D8904734D96E483408
:10053800DA6EFE0ED926010EDA22FD0EDE1806E16D
:10054800DE28D8A4AAEF02F0ACEF02F0BBEF02F06D
:10055800D8904734D96E4834DA6EFE0ED926010E8B
:10056800DA22FC0EDE6EFF0EDD6EDCEF02F0D890B4
:100578004734D96E4834DA6EFE0ED926010EDA22D7
:10058800FC0EDE1806E1DE28D8A4CDEF02F0CFEF8E
:1005980002F0DCEF02F0D8904734D96E4834DA6EB6
:1005A800FE0ED926010EDA22FD0EDE6EFF0EDD6E7E
:1005B800D8904734D96E4834DA6E000ED926020E28
:1005C800DA22100EDE6E000EDD6E474A482AD890F9
:1005D8004734D96E4834DA6E000ED926020EDA2274
:1005E800FF0EDE6EFF0EDD6E474A482A050E2B18F9
:1005F8002C10D8A402EF03F004EF03F01DEF03F072
:100608002DC021F02EC022F02FC023F030C024F0DE
:1006180016EC0AF0D8904734D96E4834DA6E000EDA
:10062800D926020EDA22FD0EDE6EFF0EDD6E474A77
:10063800482A060E2B182C10D8A425EF03F027EF14
:1006480003F040EF03F02DC021F02EC022F02FC0A0
:1006580023F030C024F0BCEC08F0D8904734D96EB1
:100668004834DA6E000ED926020EDA22FC0EDE6E4F
:10067800FF0EDD6E474A482A070E2B182C10D8A407
:1006880048EF03F04AEF03F06DEF03F0000E366E0B
:10069800000E356E2DC021F02EC022F02FC023F0A1
:1006A80030C024F0BEEC0AF0354A362A36BE66EF72
:1006B80003F0365009E1020E355CD8A066EF03F06E
:1006C80068EF03F04EEF03F0000E0001F56F010E26
:1006D800F46F2C5009E1080E2B5CD8A076EF03F0DC
:1006E80078EF03F086EF03F02DC021F02EC022F042
:1006F8002FC023F030C024F0000E266E050E256EA4
:1007080014EC0EF01200000E0F6E040E0E6E8AEC42
:1007180010F0120E336EDC0E326E600EE82EFED72D
:10072800322EFCD7332EFAD755EC0FF012C0E6F074
:1007380013C0E7F00001E86BE96B000E0F6E020EC4
:100748000E6E8AEC10F0120E336EDC0E326E600EF6
:10075800E82EFED7322EFCD7332EFAD77DEC0FF0D9
:1007680012C0EAF013C0EBF00001EC6BED6B000E69
:100778000F6E010E0E6E8AEC10F0120E336EDC0E48
:10078800326E600EE82EFED7322EFCD7332EFAD703
:10079800CDEC0FF012C0EEF013C0EFF00001F06BDB
:1007A800F16B000E0F6E000E0E6E8AEC10F03950D1
:1007B8000001E65D3A50E7593B50E8593C50E95989
:1007C800D8B0E9EF03F0EBEF03F0F5EF03F0000E1C
:1007D800C66F000EC76F000EC86F000EC96F2AEFF4
:1007E80004F03950E65D0E6E3A50E7590F6E3B50F3
:1007F800E859106E3C50E959116E640E126E000EE5
:10080800136E000E146E000E156EC1EC0EF00EC0C5
:100818001AF00FC01BF010C01CF011C01DF03950A9
:100828000001605D1E6E3A5061591F6E3B5062595F
:10083800206E3C506359216EF3EC0CF01AC0C6F0E0
:100848001BC0C7F01CC0C8F01DC0C9F0C6C0DAF094
:10085800C7C0DBF0C8C0DCF0C9C0DDF03D50000106
:10086800EA5D3E50EB593F50EC594050ED59D8B035
:1008780040EF04F042EF04F04CEF04F0000ECA6FB2
:10088800000ECB6F000ECC6F000ECD6F81EF04F021
:100898003D50EA5D0E6E3E50EB590F6E3F50EC59DD
:1008A800106E4050ED59116E640E126E000E136EEC
:1008B800000E146E000E156EC1EC0EF00EC01AF08C
:1008C8000FC01BF010C01CF011C01DF03D500001FE
:1008D800645D1E6E3E5065591F6E3F506659206E0E
:1008E80040506759216EF3EC0CF01AC0CAF01BC0D7
:1008F800CBF01CC0CCF01DC0CDF0CAC0DEF0CBC020
:10090800DFF0CCC0E0F0CDC0E1F041500001EE5D79
:100918004250EF594350F0594450F159D8B097EF2D
:1009280004F099EF04F0A3EF04F0000ECE6F000E70
:10093800CF6F000ED06F000ED16FD8EF04F041508A
:10094800EE5D0E6E4250EF590F6E4350F059106E27
:100958004450F159116E640E126E000E136E000EA3
:10096800146E000E156EC1EC0EF00EC01AF00FC01A
:100978001BF010C01CF011C01DF041500001685D53
:100988001E6E425069591F6E43506A59206E44507A
:100998006B59216EF3EC0CF01AC0CEF01BC0CFF0EF
:1009A8001CC0D0F01DC0D1F0CEC0E2F0CFC0E3F043
:1009B800D0C0E4F0D1C0E5F020EEDAF000EE14F09B
:1009C8000B0EDBCFEBFFE806FCE221EE00F000EEB9
:1009D80020F00B0EDBCFEBFFE806FCE24EEC07F055
:1009E80014C0D2F015C0D3F0000E0001D56F000E70
:1009F800D46F000ED96F010ED86FD8C00EF0D9C0D1
:100A08000FF0000E116E0C0E106E65EC11F0000E5A
:100A18000E24D96E010E0F20DA6E10EEBAF00B0E0E
:100A2800DBCFE3FFE806FCE220EEDAF000EE14F09C
:100A38000B0EDBCFEBFFE806FCE220EEBAF000EE8F
:100A480020F00B0EDBCFEBFFE806FCE24EEC07F0E4
:100A580014C0D6F015C0D7F00001D251D65DD351DD
:100A6800D759D8B03AEF05F03CEF05F044EF05F060
:100A7800D8C0D4F0D9C0D5F0D6C0D2F0D7C0D3F002
:100A8800D84BD92BD95109E1090ED85DD8A04FEF21
:100A980005F051EF05F001EF05F0D4C030F0D5C0F6
:100AA80031F0120055EF06F0D8904734D96E48342B
:100AB800DA6EFE0ED926010EDA22DE2806E1DE28DD
:100AC800D8A469EF05F06BEF05F077EF05F02BC0C0
:100AD80021F02CC022F02DC023F02EC024F069ECA8
:100AE80009F048EF06F0D8904734D96E4834DA6EEA
:100AF800FE0ED926010EDA22FE0EDE1806E1DE28E9
:100B0800D8A489EF05F08BEF05F097EF05F02BC01F
:100B180021F02CC022F02DC023F02EC024F0BEEC12
:100B28000AF048EF06F0D8904734D96E4834DA6EA8
:100B3800FE0ED926010EDA22FD0EDE1806E1DE28A9
:100B4800D8A4A9EF05F0ABEF05F0B7EF05F02BC07F
:100B580021F02CC022F02DC023F02EC024F0BCECD4
:100B680008F048EF06F0D8904734D96E4834DA6E6A
:100B7800FE0ED926010EDA22FC0EDE1806E1DE286A
:100B8800D8A4C9EF05F0CBEF05F0D7EF05F02BC0DF
:100B980021F02CC022F02DC023F02EC024F016EC3A
:100BA8000AF048EF06F0D8904734D96E4834DA6E28
:100BB800FE0ED926010EDA22010EDBBEEFEF05F09C
:100BC800010EDB5006E1DE04D8B0EDEF05F0EFEFE3
:100BD80005F007EF06F0D8904734D96E4834DA6E3E
:100BE800FC0ED926010EDA22010EDBAE07EF06F065
:100BF800FE0EDE5CFF0EDE58D8A005EF06F007EF0C
:100C080006F048EF06F02BC021F02CC022F02DC0D2
:100C180023F02EC024F0D8904734D96E4834DA6EC9
:100C2800FE0ED926010EDA22DECF25F0DDCF26F022
:100C380014EC0EF0110E306E3C0E2F6ECB0EE82E1B
:100C4800FED72F2EFCD7302EFAD700F02BC021F07C
:100C58002CC022F02DC023F02EC024F0000E266EEA
:100C6800050E256E14EC0EF02BC021F02CC022F0DE
:100C78002DC023F02EC024F0000E266E050E256E22
:100C8800DAEC0DF048EF06F02BC021F02CC022F072
:100C98002DC023F02EC024F01DEC10F04706D8A07C
:100CA800480648BE62EF06F0485006E14704D8B04F
:100CB80060EF06F062EF06F058EF05F04750481075
:100CC800D8A469EF06F06BEF06F070EF06F0000E9F
:100CD8000001F56F020EF46F120066EC0BF088EC61
:100CE80011F0B1EC11F0000E0F6E630E0E6E92EC67
:100CF8000DF00E01B4958684000E0101AC6F010E53
:100D0800AD6F010EAE6FAA0EB16F0F0EB26FA60EC9
:100D1800B36F0F0EB46F000EB06F630EAF6F000E9F
:100D2800B56F010EB66F010EB76F250EBA6F0F0EB5
:100D3800BB6F210EBC6F0F0EBD6F000EB96F630E37
:100D4800B86F520E386E2B0E376E000EE82EFED797
:100D5800372EFCD7382EFAD700D0AC0E216E010EF4
:100D6800226EB50E236E010E246E28EC0FF0000ED5
:100D78000F6E010E0E6E98EC11F0BDEC11F00EC066
:100D8800AAF10FC0ABF1F6EC0EF014041510D8A4BC
:100D9800D0EF06F0D2EF06F030EF07F00101AA51CC
:100DA800AB11D8A4DAEF06F0DCEF06F030EF07F06D
:100DB800000E0F6E000E0E6E98EC11F066EC10F03F
:100DC800AC0E216E010E226EB50E236E010E246E3E
:100DD8001DEC10F087EC03F030C0A8F131C0A9F188
:100DE800AC0E216E010E226EB50E236E010E246E1E
:100DF800000E266E050E256E14EC0EF0A8C12BF021
:100E0800A9C12CF0AC0E2D6E010E2E6EB50E2F6EF4
:100E1800010E306E53EC00F00101AA51AB11D8A4B9
:100E280018EF07F01AEF07F0BBEF06F0AC0E216ED3
:100E3800010E226EB50E236E010E246E1DEC10F00D
:100E4800AC0E216E010E226EB50E236E010E246EBD
:100E580028EC0FF0BBEF06F00101AA05AB11D8A4EE
:100E680038EF07F03AEF07F0C1EF06F0000E0F6E0B
:100E7800000E0E6E98EC11F0AC0E2B6E010E2C6E5F
:100E8800B50E2D6E010E2E6E56EC05F0C1EF06F074
:100E980051EF00F02050145C21501558225016587C
:100EA80023501758D8B05BEF07F05DEF07F06CEFF1
:100EB80007F01450205C0001A86F15502158A96F45
:100EC80016502258AA6F17502358AB6F79EF07F0C6
:100ED8002050145C0001A86F21501558A96F2250AA
:100EE8001658AA6F23501758AB6FA8C0B4F0A9C002
:100EF800B5F02450185C2550195826501A58275018
:100F08001B58D8B08AEF07F08CEF07F09AEF07F07C
:100F18001850245CAC6F19502558AD6F1A502658DC
:100F2800AE6F1B502758AF6FA6EF07F02450185C20
:100F3800AC6F25501958AD6F26501A58AE6F275010
:100F48001B58AF6FACC0B6F0ADC0B7F028501C5CF2
:100F580029501D582A501E582B501F58D8B0B7EF8B
:100F680007F0B9EF07F0C7EF07F01C50285CB06F27
:100F78001D502958B16F1E502A58B26F1F502B5858
:100F8800B36FD3EF07F028501C5CB06F29501D5881
:100F9800B16F2A501E58B26F2B501F58B36FB0C094
:100FA800B8F0B1C0B9F0B4C00EF0B5C00FF0B4C01D
:100FB80010F0B5C011F065EC11F00EC02CF00FC0A8
:100FC8002DF0B6C00EF0B7C00FF0B6C010F0B7C025
:100FD80011F065EC11F00E502C242E6E0F502D20C0
:100FE8002F6EB8C00EF0B9C00FF0B8C010F0B9C07D
:100FF80011F065EC11F00E502E24146E0F502F20B6
:10100800156E120020EE02F01B50D9261C50DA2271
:10101800DF50D8B412EF08F014EF08F048EF08F0EA
:101028001BC0D9FF1CC0DAFFDF501D6E1D500E6EAD
:101038000F6A20EE03F01B50D9261C50DA22DECFAF
:1010480010F0DDCF11F065EC11F00EC014F00FC0F8
:1010580015F0000E176E640E166E4EEC0EF020EEB4
:1010680003F01B50D9261C50DA22DF501E6E145094
:101078001E5C1F6E20EE03F01B50D9261C50DA228E
:10108800DF50206E6BEF08F0000E1F6E1BC0D9FFFB
:101098001CC0DAFFDF501D6E1D500E6E0F6A20EE69
:1010A80003F01B50D9261C50DA22DECF10F0DDCF1A
:1010B80011F065EC11F00EC014F00FC015F0000E21
:1010C800176E640E166E4EEC0EF01450206E20EE65
:1010D80001F01B50D9261C50DA22DF50D8B477EF24
:1010E80008F079EF08F09BEF08F020EE05F01B50B0
:1010F800D9261C50DA22DECF1DF0DDCF1EF01DC030
:10110800D9FF1EC0DAFF1FC0DFFF20EE07F01B501B
:10111800D9261C50DA22DECF1DF0DDCF1EF01DC00F
:10112800D9FF1EC0DAFF20C0DFFFBBEF08F020EEBA
:1011380005F01B50D9261C50DA22DECF1DF0DDCF7A
:101148001EF01DC0D9FF1EC0DAFF20C0DFFF20EE51
:1011580007F01B50D9261C50DA22DECF1DF0DDCF58
:101168001EF01DC0D9FF1EC0DAFF1FC0DFFF12002E
:10117800000E286E000E276E000E286E000E276ED9
:10118800000E2A6E290E296E20EE01F02150D92674
:101198002250DA22010EDF6E20EE01F02350D9260C
:1011A8002450DA22000EDF6E21C0D9FF22C0DAFFF8
:1011B80029C0DFFF23C0D9FF24C0DAFF29C0DFFF21
:1011C80021C01BF022C01CF006EC08F023C01BF065
:1011D80024C01CF006EC08F0050E266EB60E256E2F
:1011E8002C0EE82EFED7252EFCD7262EFAD700D0B7
:1011F800050E2926000E2A222ABE0CEF09F02A50D5
:1012080009E1380E295CD8A00CEF09F00EEF09F0BF
:10121800C8EF08F0000E2A6E2E0E296E20EE01F09F
:101228002150D9262250DA22010EDF6E20EE01F07D
:101238002350D9262450DA22000EDF6E21C0D9FFB0
:1012480022C0DAFF29C0DFFF23C0D9FF24C0DAFF9C
:1012580029C0DFFF21C01BF022C01CF006EC08F0FB
:1012680023C01BF024C01CF006EC08F0050E266E07
:10127800A10E256E650EE82EFED7252EFCD7262E4C
:10128800FAD700F0FB0E2926FF0E2A222ABE58EFB5
:1012980009F02A5007E1200E295CD8B056EF09F072
:1012A80058EF09F012EF09F0274A282A28BE66EFFE
:1012B80009F0285009E1030E275CD8A066EF09F071
:1012C80068EF09F0C4EF08F01200000E286E000E57
:1012D800276E000E286E000E276E000E2A6E290E4D
:1012E800296E20EE01F02150D9262250DA22010E73
:1012F800DF6E20EE01F02350D9262450DA22000EAA
:10130800DF6E21C0D9FF22C0DAFF29C0DFFF23C06A
:10131800D9FF24C0DAFF29C0DFFF21C01BF022C09B
:101328001CF006EC08F023C01BF024C01CF006ECEF
:1013380008F0050E266EB60E256E2C0EE82EFED78A
:10134800252EFCD7262EFAD700D0050E2926000E0A
:101358002A222ABEB9EF09F02A5009E1380E295C81
:10136800D8A0B9EF09F0BBEF09F075EF09F0000E4E
:101378002A6E2E0E296E20EE01F02150D926225019
:10138800DA22010EDF6E20EE01F02350D926245018
:10139800DA22000EDF6E21C0D9FF22C0DAFF29C091
:1013A800DFFF23C0D9FF24C0DAFF29C0DFFF21C037
:1013B8001BF022C01CF006EC08F023C01BF024C070
:1013C8001CF006EC08F0050E266EA10E256E650EC3
:1013D800E82EFED7252EFCD7262EFAD700F0FB0ED6
:1013E8002926FF0E2A222ABE05EF0AF02A5007E115
:1013F800200E295CD8B003EF0AF005EF0AF0BFEF22
:1014080009F0274A282A28BE13EF0AF0285009E1D4
:10141800020E275CD8A013EF0AF015EF0AF071EF5F
:1014280009F01200000E286E000E276E000E2A6EBC
:10143800170E296E20EE01F02150D9262250DA220B
:10144800000EDF6E20EE01F02350D9262450DA2258
:10145800010EDF6E21C0D9FF22C0DAFF29C0DFFFED
:1014680023C0D9FF24C0DAFF29C0DFFF21C01BF049
:1014780022C01CF006EC08F023C01BF024C01CF0AE
:1014880006EC08F0090E266EB00E256E580EE82EF2
:10149800FED7252EFCD7262EFAD700D0050E2926F2
:1014A800000E2A222ABE62EF0AF02A5009E1260E0F
:1014B800295CD8A062EF0AF064EF0AF01EEF0AF088
:1014C800000E2A6E1C0E296E20EE01F02150D9263E
:1014D8002250DA22000EDF6E20EE01F02350D926CA
:1014E8002450DA22010EDF6E21C0D9FF22C0DAFFB4
:1014F80029C0DFFF23C0D9FF24C0DAFF29C0DFFFDE
:1015080021C01BF022C01CF006EC08F023C01BF021
:1015180024C01CF006EC08F0090E266E860E256E17
:10152800CA0EE82EFED7252EFCD7262EFAD7FB0E9C
:101538002926FF0E2A222ABEADEF0AF02A5007E11B
:101548000E0E295CD8B0ABEF0AF0ADEF0AF068EFE9
:101558000AF0274A282A28BEBBEF0AF0285009E1DA
:10156800030E275CD8A0BBEF0AF0BDEF0AF01AEF14
:101578000AF01200000E286E000E276E000E2A6E6A
:10158800170E296E20EE01F02150D9262250DA22BA
:10159800000EDF6E20EE01F02350D9262450DA2207
:1015A800010EDF6E21C0D9FF22C0DAFF29C0DFFF9C
:1015B80023C0D9FF24C0DAFF29C0DFFF21C01BF0F8
:1015C80022C01CF006EC08F023C01BF024C01CF05D
:1015D80006EC08F0090E266EB00E256E580EE82EA1
:1015E800FED7252EFCD7262EFAD700D0050E2926A1
:1015F800000E2A222ABE0AEF0BF02A5009E1260E15
:10160800295CD8A00AEF0BF00CEF0BF0C6EF0AF03C
:10161800000E2A6E1C0E296E20EE01F02150D926EC
:101628002250DA22000EDF6E20EE01F02350D92678
:101638002450DA22010EDF6E21C0D9FF22C0DAFF62
:1016480029C0DFFF23C0D9FF24C0DAFF29C0DFFF8C
:1016580021C01BF022C01CF006EC08F023C01BF0D0
:1016680024C01CF006EC08F0090E266E860E256EC6
:10167800CA0EE82EFED7252EFCD7262EFAD7FB0E4B
:101688002926FF0E2A222ABE55EF0BF02A5007E121
:101698000E0E295CD8B053EF0BF055EF0BF010EF9E
:1016A8000BF0274A282A28BE63EF0BF0285009E1DF
:1016B800020E275CD8A063EF0BF065EF0BF0C2EFCA
:1016C8000AF0120028EC11F0010E106E000E78ECF2
:1016D80011F03F0E236E550EE82EFED7232EFCD7B1
:1016E80000F0030E106E000E78EC11F0D50E106E9F
:1016F800010E78EC11F0869E8792819820EE90F08A
:1017080011EE00F00B0EDBCFE3FFE806FCE220EE63
:1017180084F011EE0CF00B0EDBCFE3FFE806FCE2E1
:1017280020EE78F011EE18F00B0EDBCFE3FFE806A1
:10173800FCE220EE6CF011EE24F00B0EDBCFE3FFA1
:10174800E806FCE221EE9CF011EE30F00B0EDBCF48
:10175800E3FFE806FCE221EE90F011EE3CF00B0E00
:10176800DBCFE3FFE806FCE221EE84F011EE48F05F
:101778000B0EDBCFE3FFE806FCE221EE78F011EE7A
:1017880054F00B0EDBCFE3FFE806FCE221EE6CF031
:1017980011EE60F00B0EDBCFE3FFE806FCE2868675
:1017A8000E01B4978684B4958EA6DDEF0BF0DFEFBB
:1017B8000BF0E6EF0BF08EB4E4EF0BF0E6EF0BF076
:1017C800D8EF0BF08EB4EBEF0BF0EDEF0BF0EFEF83
:1017D8000BF001EF0CF09EEC0CF08EB6F6EF0BF070
:1017E800F8EF0BF0F1EF0BF002EC0CF08EB6FFEF18
:1017F8000BF001EF0CF0FAEF0BF01200000E0F6E79
:10180800040E0E6E8AEC10F0120E1C6EDC0E1B6EAF
:10181800600EE82EFED71B2EFCD71C2EFAD755ECEF
:101828000FF012C039F013C03AF03B6A3C6A000E60
:101838000F6E020E0E6E8AEC10F0120E1C6EDC0E8D
:101848001B6E600EE82EFED71B2EFCD71C2EFAD777
:101858007DEC0FF012C03DF013C03EF03F6A406AC5
:10186800000E0F6E010E0E6E8AEC10F0120E1C6E3A
:10187800DC0E1B6E600EE82EFED71B2EFCD71C2E2E
:10188800FAD7CDEC0FF012C041F013C042F0436A12
:10189800446A000E0F6E000E0E6E8AEC10F0120EE7
:1018A8001C6EDC0E1B6E600EE82EFED71B2EFCD7BE
:1018B8001C2EFAD7A5EC0FF012C01DF013C01EF0B5
:1018C800000E0F6E070E0E6E8AEC10F0120E1C6ED4
:1018D800DC0E1B6E600EE82EFED71B2EFCD71C2ECE
:1018E800FAD7A5EC0FF012C01FF013C020F0000EBD
:1018F8000F6E000E0E6E8AEC10F01DC016F01EC0A2
:1019080017F01FC014F020C015F04EEC0EF014C0F4
:1019180021F015C022F021C014F022C015F0000EED
:10192800176E050E166E4EEC0EF014C0A6F015C01C
:10193800A7F01200000E0F6E040E0E6E8AEC10F067
:10194800120E1A6EDC0E196E600EE82EFED7192ED6
:10195800FCD71A2EFAD755EC0FF012C060F013C05E
:1019680061F00001626B636B000E0F6E020E0E6E6B
:101978008AEC10F0120E1A6EDC0E196E600EE82E4C
:10198800FED7192EFCD71A2EFAD77DEC0FF012C00D
:1019980064F013C065F00001666B676B000E0F6E94
:1019A800010E0E6E8AEC10F0120E1A6EDC0E196E15
:1019B800600EE82EFED7192EFCD71A2EFAD7CDECDA
:1019C8000FF012C068F013C069F000016A6B6B6B0E
:1019D800000E0F6E000E0E6E8AEC10F01200000E54
:1019E800226E000E236E000E246E000E256E1E5011
:1019F8001F1020102110D8B404EF0DF006EF0DF0E1
:101A08003CEF0DF0010E266E10EF0DF0D8901E364B
:101A18001F3620362136262A21AE15EF0DF017EF96
:101A28000DF00AEF0DF0D8902236233624362536ED
:101A38001E501A5C1F501B5820501C5821501D580E
:101A4800D8A029EF0DF02BEF0DF034EF0DF01E505C
:101A58001A5E1F501B5A20501C5A21501D5A2280B2
:101A6800D890213220321F321E32262E17EF0DF069
:101A780022C01AF023C01BF024C01CF025C01DF0A2
:101A88001200200EF66E220EF76E000EF86E01EEB2
:101A980078F010EE30F00900F5CFEEFFE550E15098
:101AA800FAE1840EF66E200EF76E000EF86E00EE68
:101AB80060F010EE48F00900F5CFEEFFE550E15078
:101AC800FAE14A0EF66E230EF76E000EF86E00EE7F
:101AD80039F010EE0CF00900F5CFEEFFE550E150BB
:101AE800FAE102EE00F0C80EEE6AE806FDE101EE4A
:101AF80000F0780EEE6AE806FDE100EEE6F0120E60
:101B0800EE6AE806FDE100EE45F00A0EEE6AE80628
:101B1800FDE14F904F92000171EF06F08594839E8E
:101B2800879C85987D947B9E7F9C7D98050E0E01F1
:101B3800746F060E766F070E696F080E886FBD50BA
:101B48008F0B4009BD6EE00EBE16BF50F00B0109A9
:101B5800BF6E630EBC6EBD8E000EAA6E000EA66E22
:101B6800000E0F01256F000E216FFC0EAD16F30E4F
:101B7800AD16CF0EAD163F0EAD16AB88AB50F00BC1
:101B88000C09AB6EAB8EA788A750F00B0C09A76E9B
:101B9800A78E26892651F00B0C09266F268F2289DD
:101BA8002251F00B0C09226F228F1200000E4A6E90
:101BB800000E496E08EF0EF020EE01F02150D926F4
:101BC8002250DA22010EDF6E20EE01F02350D926D2
:101BD8002450DA22010EDF6E21C0D9FF22C0DAFFBD
:101BE800460EDF6E23C0D9FF24C0DAFF440EDF6E35
:101BF80021C01BF022C01CF006EC08F023C01BF02B
:101C080024C01CF006EC08F02550495C26504A58C0
:101C1800D8A011EF0EF013EF0EF0E0EF0DF0120068
:101C2800000E4A6E000E496E42EF0EF020EE01F0F3
:101C38002150D9262250DA22000EDF6E20EE01F064
:101C48002350D9262450DA22000EDF6E21C0D9FF96
:101C580022C0DAFF440EDF6E23C0D9FF24C0DAFFAA
:101C6800440EDF6E21C01BF022C01CF006EC08F009
:101C780023C01BF024C01CF006EC08F02550495C7A
:101C880026504A58D8A04BEF0EF04DEF0EF01AEF41
:101C98000EF01200000E1A6E000E196E1650171074
:101CA800D8B459EF0EF05BEF0EF083EF0EF0010E93
:101CB800186E63EF0EF0D89016361736182A17AE3E
:101CC80068EF0EF06AEF0EF05FEF0EF0D89019365D
:101CD8001A361650145C17501558D8A076EF0EF027
:101CE80078EF0EF07DEF0EF01650145E1750155A6F
:101CF8001980D89017321632182E6AEF0EF019C0D4
:101D080014F01AC015F012000001F651F711D8A40A
:101D180090EF0EF092EF0EF094EF0EF0C0EF0EF091
:101D28000C500D10D8A49BEF0EF09DEF0EF0ABEF0A
:101D38000EF0F5EC0FF005C04DF006C04EF0000EA9
:101D4800026E070E016EACEC10F0C0EF0EF00C0442
:101D58000D10D8A4B2EF0EF0B4EF0EF0C0EF0EF0F5
:101D6800F5EC0FF005C04BF006C04CF0000E026E0B
:101D7800000E016EACEC10F01200000E166E000E94
:101D8800176E000E186E000E196E0EA0CEEF0EF034
:101D9800D0EF0EF0D8EF0EF012501626135017227F
:101DA8001450182215501922D890123613361436AA
:101DB8001536D890113210320F320E320E500F10E5
:101DC80010101110D8A4EBEF0EF0EDEF0EF0C9EFE4
:101DD8000EF016C00EF017C00FF018C010F019C0A2
:101DE80011F012004D504E10D8B4FDEF0EF0FFEF79
:101DF8000EF008EF0FF04B504C10D8A406EF0FF080
:101E080008EF0FF00EEF0FF0000E156E000E146EB7
:101E180027EF0FF04DC00EF04EC00FF0A6C010F027
:101E2800A7C011F065EC11F00E504B5C0F504C58E8
:101E3800D8B021EF0FF024EF0FF0010E25EF0FF0CF
:101E4800000E146E156A1200000E4A6E000E496EDE
:101E580020EE01F02150D9262250DA22000EDF6E42
:101E680020EE01F02350D9262450DA22000EDF6E2E
:101E780021C0D9FF22C0DAFF440EDF6E23C0D9FF8C
:101E880024C0DAFF440EDF6E21C01BF022C01CF014
:101E980006EC08F023C01BF024C01CF006EC08F088
:101EA8001200C7EC11F0520EABEC11F0B60EABEC11
:101EB80011F0CCEC11F0530EABEC11F0010ECEEC9E
:101EC80010F0146E1450176E186A000ECEEC10F055
:101ED800146E1450166E156A17501510176E185098
:101EE8001610186EC2EC11F017C012F018C013F0DB
:101EF8001200C7EC11F0520EABEC11F0B80EABECBF
:101F080011F0CCEC11F0530EABEC11F0010ECEEC4D
:101F180010F0146E1450176E186A000ECEEC10F004
:101F2800146E1450166E156A17501510176E185047
:101F38001610186EC2EC11F017C012F018C013F08A
:101F48001200C7EC11F0520EABEC11F0B40EABEC72
:101F580011F0CCEC11F0530EABEC11F0010ECEECFD
:101F680010F0146E1450176E186A000ECEEC10F0B4
:101F7800146E1450166E156A17501510176E1850F7
:101F88001610186EC2EC11F017C012F018C013F03A
:101F98001200C7EC11F0520EABEC11F0BA0EABEC1C
:101FA80011F0CCEC11F0530EABEC11F0010ECEECAD
:101FB80010F0146E1450176E186A000ECEEC10F064
:101FC800146E1450166E156A17501510176E1850A7
:101FD8001610186EC2EC11F017C012F018C013F0EA
:101FE8001200D6EC11F0520EB7EC11F0B40EB7ECAB
:101FF80011F0DBEC11F0530EB7EC11F0010EEFEC21
:1020080010F0076E07500A6E0B6A000EEFEC10F026
:10201800076E0750096E086A0A5008100A6E0B50BE
:1020280009100B6ED1EC11F00AC005F00BC006F0D8
:10203800120021C0D9FF22C0DAFF000EDF6E23C0D4
:10204800D9FF24C0DAFF000EDF6E21C01BF022C0CA
:102058001CF006EC08F023C01BF024C01CF006ECB2
:1020680008F0290E266E960E256E7F0EE82EFED7F6
:10207800252EFCD7262EFAD700F01200FC280000E7
:10208800551B0000700700005D0000004C000000B8
:1020980014000000030000000900000024000000F4
:1020A8001900000036000000080000004800000089
:1020B80002000000020000000B00050010001000E4
:1020C800DC000F004ABE72EF10F04A5009E10C0E16
:1020D800495CD8A072EF10F074EF10F089EF10F09F
:1020E800FB0E49240E6EFF0E4A200F6ED89047341F
:1020F800D96E4834DA6E000ED926020EDA220EC0E6
:10210800DEFF0FC0DDFF474A482A12000EA48FEFFA
:1021180010F091EF10F094EF10F07F8295EF10F02F
:102128007F920EA29AEF10F09CEF10F09FEF10F044
:102138007988A0EF10F079980EA0A5EF10F0A7EF1E
:1021480010F0AAEF10F07E8EABEF10F07E9E12001A
:1021580001A4B1EF10F0B3EF10F0B6EF10F07F82EA
:10216800B7EF10F07F9201A2BCEF10F0BEEF10F0B5
:10217800C1EF10F07988C2EF10F0799801A0C7EF8D
:1021880010F0C9EF10F0CCEF10F07E8ECDEF10F00C
:102198007E9E1200106E3DEC11F00E01DA873DECC8
:1021A80011F0D5CE11F03DEC11F01050D8B4DFEF9E
:1021B80010F0E3EF10F00F6A0F2AE4EF10F00F6A47
:1021C8000F3A0F460E01DA510F18DF0B0F18DA6FAE
:1021D800DA8911501200036E51EC11F00E01DA8702
:1021E80051EC11F0D5CE04F051EC11F00350D8B4F5
:1021F80000EF11F004EF11F0026A022A05EF11F066
:10220800026A023A02460E01DA510218DF0B02187E
:10221800DA6FDA89045012006400000064000000DC
:102228006400000026000000480000005400000080
:102238005C000000270000001C0000004D000000AA
:102248003C000000400000000E01D951F00B0809C5
:10225800D96FD98B9F0ED66F848A848CA79BA79D34
:102268001D0E1D6F1E0E1C6F1C0E6F6F1B0E706FE8
:1022780012000E01D8B543EF11F045EF11F03DEF14
:1022880011F0DACE0EF01F0E0E16D8A44EEF11F094
:1022980050EF11F03DEF11F012000E01D8B557EFD5
:1022A80011F059EF11F051EF11F0DACE01F01F0ED5
:1022B8000116D8A462EF11F064EF11F051EF11F09C
:1022C80012000E501002F3CF12F0F4CF13F00E509C
:1022D8001102F35013260F501002F350132612C0A8
:1022E8000EF013C00FF01200116EC7EC11F0520E71
:1022F800ABEC11F011508009ABEC11F01050ABECC5
:1023080011F0C2EC11F01200D6501F0B4009D66E26
:10231800D688D650F00B0809D66EFD0ED46E900EF6
:10232800D36ED588D58E12000EC0F6F00FC0F7F028
:10233800000E4E6E000E4D6E000E4C6E000E4B6E73
:102348001200040400004B020000A10000000F6E00
:102358003DEC11F00FC0D5FE1200F28C0E01298B56
:102368002B81F28E1200026E51EC11F002C0D5FEE4
:102378001200F4C00EF0F5C00FF012003DEC11F0A1
:102388000E01DA8512003DEC11F00E01DA8112001F
:102398003DEC11F00E01DA83120051EC11F00E0140
:1023A800DA85120051EC11F00E01DA81120051ECBD
:0E23B80011F00E01DA831200494A4A2A12007F
:020000040020DA
:10000000FF0FFF0FFF0FFF0FFF0FFF0FFF0FFF0F80
:020000040030CA
:0C000000AAFFFFFF9FFFFFFFFFFFFFFFB5
:00000001FF
